{
  "contractName": "Kyc",
  "abi": [
    {
      "inputs": [],
      "payable": false,
      "stateMutability": "nonpayable",
      "type": "constructor"
    },
    {
      "constant": true,
      "inputs": [],
      "name": "admin",
      "outputs": [
        {
          "internalType": "address",
          "name": "",
          "type": "address"
        }
      ],
      "payable": false,
      "stateMutability": "view",
      "type": "function"
    },
    {
      "constant": true,
      "inputs": [],
      "name": "name",
      "outputs": [
        {
          "internalType": "string",
          "name": "",
          "type": "string"
        }
      ],
      "payable": false,
      "stateMutability": "view",
      "type": "function"
    },
    {
      "constant": true,
      "inputs": [],
      "name": "reqno",
      "outputs": [
        {
          "internalType": "uint256",
          "name": "",
          "type": "uint256"
        }
      ],
      "payable": false,
      "stateMutability": "view",
      "type": "function"
    },
    {
      "constant": false,
      "inputs": [
        {
          "internalType": "string",
          "name": "_name",
          "type": "string"
        },
        {
          "internalType": "address",
          "name": "_ethAddress",
          "type": "address"
        }
      ],
      "name": "addOrg",
      "outputs": [
        {
          "internalType": "bool",
          "name": "",
          "type": "bool"
        }
      ],
      "payable": false,
      "stateMutability": "nonpayable",
      "type": "function"
    },
    {
      "constant": false,
      "inputs": [
        {
          "internalType": "address",
          "name": "_ethAddress",
          "type": "address"
        }
      ],
      "name": "removeOrg",
      "outputs": [
        {
          "internalType": "bool",
          "name": "",
          "type": "bool"
        }
      ],
      "payable": false,
      "stateMutability": "nonpayable",
      "type": "function"
    },
    {
      "constant": true,
      "inputs": [
        {
          "internalType": "address",
          "name": "_ethAddress",
          "type": "address"
        }
      ],
      "name": "viewOrg",
      "outputs": [
        {
          "internalType": "string",
          "name": "",
          "type": "string"
        }
      ],
      "payable": false,
      "stateMutability": "view",
      "type": "function"
    },
    {
      "constant": false,
      "inputs": [
        {
          "internalType": "uint256",
          "name": "_uname",
          "type": "uint256"
        },
        {
          "internalType": "string",
          "name": "_name",
          "type": "string"
        },
        {
          "internalType": "string",
          "name": "_location",
          "type": "string"
        },
        {
          "internalType": "bool",
          "name": "_kycStatus",
          "type": "bool"
        }
      ],
      "name": "registerKYC",
      "outputs": [
        {
          "internalType": "bool",
          "name": "",
          "type": "bool"
        }
      ],
      "payable": true,
      "stateMutability": "payable",
      "type": "function"
    },
    {
      "constant": true,
      "inputs": [
        {
          "internalType": "uint256",
          "name": "_reqid",
          "type": "uint256"
        },
        {
          "internalType": "uint256",
          "name": "_uname",
          "type": "uint256"
        }
      ],
      "name": "viewKYC",
      "outputs": [
        {
          "internalType": "uint256",
          "name": "",
          "type": "uint256"
        },
        {
          "internalType": "string",
          "name": "",
          "type": "string"
        },
        {
          "internalType": "string",
          "name": "",
          "type": "string"
        },
        {
          "internalType": "bool",
          "name": "",
          "type": "bool"
        },
        {
          "internalType": "address[]",
          "name": "",
          "type": "address[]"
        },
        {
          "internalType": "uint256",
          "name": "",
          "type": "uint256"
        }
      ],
      "payable": false,
      "stateMutability": "view",
      "type": "function"
    },
    {
      "constant": false,
      "inputs": [
        {
          "internalType": "uint256",
          "name": "_uname",
          "type": "uint256"
        },
        {
          "internalType": "string",
          "name": "_name",
          "type": "string"
        },
        {
          "internalType": "string",
          "name": "_location",
          "type": "string"
        },
        {
          "internalType": "bool",
          "name": "_kycStatus",
          "type": "bool"
        }
      ],
      "name": "updateKYC",
      "outputs": [
        {
          "internalType": "bool",
          "name": "",
          "type": "bool"
        }
      ],
      "payable": false,
      "stateMutability": "nonpayable",
      "type": "function"
    },
    {
      "constant": false,
      "inputs": [
        {
          "internalType": "uint256",
          "name": "_uname",
          "type": "uint256"
        }
      ],
      "name": "requestKYC",
      "outputs": [],
      "payable": false,
      "stateMutability": "nonpayable",
      "type": "function"
    },
    {
      "constant": false,
      "inputs": [
        {
          "internalType": "uint256",
          "name": "_reqid",
          "type": "uint256"
        }
      ],
      "name": "deleteRequest",
      "outputs": [],
      "payable": false,
      "stateMutability": "nonpayable",
      "type": "function"
    },
    {
      "constant": false,
      "inputs": [
        {
          "internalType": "uint256",
          "name": "_reqid",
          "type": "uint256"
        },
        {
          "internalType": "uint256",
          "name": "_uname",
          "type": "uint256"
        },
        {
          "internalType": "address",
          "name": "_ethAddress",
          "type": "address"
        },
        {
          "internalType": "bool",
          "name": "_isAllowed",
          "type": "bool"
        }
      ],
      "name": "giveAccessKYC",
      "outputs": [
        {
          "internalType": "bool",
          "name": "",
          "type": "bool"
        }
      ],
      "payable": false,
      "stateMutability": "nonpayable",
      "type": "function"
    }
  ],
  "bytecode": "0x60806040526040518060400160405280600381526020017f4b594300000000000000000000000000000000000000000000000000000000008152506002908051906020019062000051929190620000ae565b503480156200005f57600080fd5b50336000806101000a81548173ffffffffffffffffffffffffffffffffffffffff021916908373ffffffffffffffffffffffffffffffffffffffff16021790555060006001819055506200015d565b828054600181600116156101000203166002900490600052602060002090601f016020900481019282601f10620000f157805160ff191683800117855562000122565b8280016001018555821562000122579182015b828111156200012157825182559160200191906001019062000104565b5b50905062000131919062000135565b5090565b6200015a91905b80821115620001565760008160009055506001016200013c565b5090565b90565b6124cd806200016d6000396000f3fe6080604052600436106100a75760003560e01c8063b7e4a42d11610064578063b7e4a42d1461079e578063d5ffab1014610807578063e13fd3f114610842578063e9a21bcd146108cb578063f17d853d14610906578063f851a44014610931576100a7565b806306fdde03146100ac578063095111e21461013c5780631e8a49e0146102c9578063554e9dcf1461044957806388c4ce54146105d4578063a1ac9e571461069e575b600080fd5b3480156100b857600080fd5b506100c1610988565b6040518080602001828103825283818151815260200191508051906020019080838360005b838110156101015780820151818401526020810190506100e6565b50505050905090810190601f16801561012e5780820380516001836020036101000a031916815260200191505b509250505060405180910390f35b34801561014857600080fd5b506102af6004803603608081101561015f57600080fd5b81019080803590602001909291908035906020019064010000000081111561018657600080fd5b82018360208201111561019857600080fd5b803590602001918460018302840111640100000000831117156101ba57600080fd5b91908080601f016020809104026020016040519081016040528093929190818152602001838380828437600081840152601f19601f8201169050808301925050505050505091929192908035906020019064010000000081111561021d57600080fd5b82018360208201111561022f57600080fd5b8035906020019184600183028401116401000000008311171561025157600080fd5b91908080601f016020809104026020016040519081016040528093929190818152602001838380828437600081840152601f19601f820116905080830192505050505050509192919290803515159060200190929190505050610a26565b604051808215151515815260200191505060405180910390f35b61042f600480360360808110156102df57600080fd5b81019080803590602001909291908035906020019064010000000081111561030657600080fd5b82018360208201111561031857600080fd5b8035906020019184600183028401116401000000008311171561033a57600080fd5b91908080601f016020809104026020016040519081016040528093929190818152602001838380828437600081840152601f19601f8201169050808301925050505050505091929192908035906020019064010000000081111561039d57600080fd5b8201836020820111156103af57600080fd5b803590602001918460018302840111640100000000831117156103d157600080fd5b91908080601f016020809104026020016040519081016040528093929190818152602001838380828437600081840152601f19601f820116905080830192505050505050509192919290803515159060200190929190505050610c40565b604051808215151515815260200191505060405180910390f35b34801561045557600080fd5b5061048c6004803603604081101561046c57600080fd5b810190808035906020019092919080359060200190929190505050610e74565b6040518087815260200180602001806020018615151515815260200180602001858152602001848103845289818151815260200191508051906020019080838360005b838110156104ea5780820151818401526020810190506104cf565b50505050905090810190601f1680156105175780820380516001836020036101000a031916815260200191505b50848103835288818151815260200191508051906020019080838360005b83811015610550578082015181840152602081019050610535565b50505050905090810190601f16801561057d5780820380516001836020036101000a031916815260200191505b50848103825286818151815260200191508051906020019060200280838360005b838110156105b957808201518184015260208101905061059e565b50505050905001995050505050505050505060405180910390f35b3480156105e057600080fd5b50610623600480360360208110156105f757600080fd5b81019080803573ffffffffffffffffffffffffffffffffffffffff169060200190929190505050611238565b6040518080602001828103825283818151815260200191508051906020019080838360005b83811015610663578082015181840152602081019050610648565b50505050905090810190601f1680156106905780820380516001836020036101000a031916815260200191505b509250505060405180910390f35b3480156106aa57600080fd5b50610784600480360360408110156106c157600080fd5b81019080803590602001906401000000008111156106de57600080fd5b8201836020820111156106f057600080fd5b8035906020019184600183028401116401000000008311171561071257600080fd5b91908080601f016020809104026020016040519081016040528093929190818152602001838380828437600081840152601f19601f820116905080830192505050505050509192919290803573ffffffffffffffffffffffffffffffffffffffff1690602001909291905050506114e1565b604051808215151515815260200191505060405180910390f35b3480156107aa57600080fd5b506107ed600480360360208110156107c157600080fd5b81019080803573ffffffffffffffffffffffffffffffffffffffff169060200190929190505050611780565b604051808215151515815260200191505060405180910390f35b34801561081357600080fd5b506108406004803603602081101561082a57600080fd5b81019080803590602001909291905050506119c5565b005b34801561084e57600080fd5b506108b16004803603608081101561086557600080fd5b810190808035906020019092919080359060200190929190803573ffffffffffffffffffffffffffffffffffffffff169060200190929190803515159060200190929190505050611c1a565b604051808215151515815260200191505060405180910390f35b3480156108d757600080fd5b50610904600480360360208110156108ee57600080fd5b8101908080359060200190929190505050612011565b005b34801561091257600080fd5b5061091b6122a0565b6040518082815260200191505060405180910390f35b34801561093d57600080fd5b506109466122a6565b604051808273ffffffffffffffffffffffffffffffffffffffff1673ffffffffffffffffffffffffffffffffffffffff16815260200191505060405180910390f35b60028054600181600116156101000203166002900480601f016020809104026020016040519081016040528092919081815260200182805460018160011615610100020316600290048015610a1e5780601f106109f357610100808354040283529160200191610a1e565b820191906000526020600020905b815481529060010190602001808311610a0157829003601f168201915b505050505081565b60003373ffffffffffffffffffffffffffffffffffffffff16600460003373ffffffffffffffffffffffffffffffffffffffff1673ffffffffffffffffffffffffffffffffffffffff16815260200190815260200160002060010160009054906101000a900473ffffffffffffffffffffffffffffffffffffffff1673ffffffffffffffffffffffffffffffffffffffff1614610b0e576040517f08c379a00000000000000000000000000000000000000000000000000000000081526004018080602001828103825260318152602001806124686031913960400191505060405180910390fd5b84600360008781526020019081526020016000206000015414610b99576040517f08c379a00000000000000000000000000000000000000000000000000000000081526004018080602001828103825260128152602001807f5573657220646f65736e2774206578697374000000000000000000000000000081525060200191505060405180910390fd5b84600360008781526020019081526020016000206000018190555083600360008781526020019081526020016000206001019080519060200190610bde9291906122cb565b5082600360008781526020019081526020016000206002019080519060200190610c099291906122cb565b50816003600087815260200190815260200160002060040160006101000a81548160ff021916908315150217905550949350505050565b60003373ffffffffffffffffffffffffffffffffffffffff16600460003373ffffffffffffffffffffffffffffffffffffffff1673ffffffffffffffffffffffffffffffffffffffff16815260200190815260200160002060010160009054906101000a900473ffffffffffffffffffffffffffffffffffffffff1673ffffffffffffffffffffffffffffffffffffffff1614610d28576040517f08c379a00000000000000000000000000000000000000000000000000000000081526004018080602001828103825260318152602001806124686031913960400191505060405180910390fd5b8460036000878152602001908152602001600020600001541415610db4576040517f08c379a00000000000000000000000000000000000000000000000000000000081526004018080602001828103825260138152602001807f5573657220616c7265616479206578697374730000000000000000000000000081525060200191505060405180910390fd5b84600360008781526020019081526020016000206000018190555083600360008781526020019081526020016000206001019080519060200190610df99291906122cb565b5082600360008781526020019081526020016000206002019080519060200190610e249291906122cb565b50816003600087815260200190815260200160002060040160006101000a81548160ff021916908315150217905550610e5c856119c5565b610e6b60015486336001611c1a565b50949350505050565b600060608060006060600086600560008a815260200190815260200160002060020154148015610eb9575087600560008a815260200190815260200160002060000154145b8015610f2657503373ffffffffffffffffffffffffffffffffffffffff16600560008a815260200190815260200160002060010160009054906101000a900473ffffffffffffffffffffffffffffffffffffffff1673ffffffffffffffffffffffffffffffffffffffff16145b8015610f59575060011515600560008a815260200190815260200160002060030160009054906101000a900460ff161515145b610fcb576040517f08c379a000000000000000000000000000000000000000000000000000000000815260040180806020018281038252601e8152602001807f55736572206861736e7420676976656e20746865697220636f6e73656e74000081525060200191505060405180910390fd5b600360008881526020019081526020016000206000015460036000898152602001908152602001600020600101600360008a8152602001908152602001600020600201600360008b815260200190815260200160002060040160009054906101000a900460ff16600360008c8152602001908152602001600020600301600360008d815260200190815260200160002060030180549050848054600181600116156101000203166002900480601f0160208091040260200160405190810160405280929190818152602001828054600181600116156101000203166002900480156110f75780601f106110cc576101008083540402835291602001916110f7565b820191906000526020600020905b8154815290600101906020018083116110da57829003601f168201915b50505050509450838054600181600116156101000203166002900480601f0160208091040260200160405190810160405280929190818152602001828054600181600116156101000203166002900480156111935780601f1061116857610100808354040283529160200191611193565b820191906000526020600020905b81548152906001019060200180831161117657829003601f168201915b505050505093508180548060200260200160405190810160405280929190818152602001828054801561121b57602002820191906000526020600020905b8160009054906101000a900473ffffffffffffffffffffffffffffffffffffffff1673ffffffffffffffffffffffffffffffffffffffff16815260200190600101908083116111d1575b505050505091509550955095509550955095509295509295509295565b60603373ffffffffffffffffffffffffffffffffffffffff166000809054906101000a900473ffffffffffffffffffffffffffffffffffffffff1673ffffffffffffffffffffffffffffffffffffffff16146112fc576040517f08c379a00000000000000000000000000000000000000000000000000000000081526004018080602001828103825260168152602001807f4f6e6c792061646d696e2061726520616c6c6f7765640000000000000000000081525060200191505060405180910390fd5b8173ffffffffffffffffffffffffffffffffffffffff16600460008473ffffffffffffffffffffffffffffffffffffffff1673ffffffffffffffffffffffffffffffffffffffff16815260200190815260200160002060010160009054906101000a900473ffffffffffffffffffffffffffffffffffffffff1673ffffffffffffffffffffffffffffffffffffffff16146113ff576040517f08c379a00000000000000000000000000000000000000000000000000000000081526004018080602001828103825260108152602001807f4f726720646f65736e742065786973740000000000000000000000000000000081525060200191505060405180910390fd5b600460008373ffffffffffffffffffffffffffffffffffffffff1673ffffffffffffffffffffffffffffffffffffffff1681526020019081526020016000206000018054600181600116156101000203166002900480601f0160208091040260200160405190810160405280929190818152602001828054600181600116156101000203166002900480156114d55780601f106114aa576101008083540402835291602001916114d5565b820191906000526020600020905b8154815290600101906020018083116114b857829003601f168201915b50505050509050919050565b60003373ffffffffffffffffffffffffffffffffffffffff166000809054906101000a900473ffffffffffffffffffffffffffffffffffffffff1673ffffffffffffffffffffffffffffffffffffffff16146115a5576040517f08c379a00000000000000000000000000000000000000000000000000000000081526004018080602001828103825260168152602001807f4f6e6c792061646d696e2061726520616c6c6f7765640000000000000000000081525060200191505060405180910390fd5b8173ffffffffffffffffffffffffffffffffffffffff16600460008473ffffffffffffffffffffffffffffffffffffffff1673ffffffffffffffffffffffffffffffffffffffff16815260200190815260200160002060010160009054906101000a900473ffffffffffffffffffffffffffffffffffffffff1673ffffffffffffffffffffffffffffffffffffffff1614156116a9576040517f08c379a00000000000000000000000000000000000000000000000000000000081526004018080602001828103825260118152602001807f4f726720616c726561647920616464656400000000000000000000000000000081525060200191505060405180910390fd5b60405180604001604052808481526020018373ffffffffffffffffffffffffffffffffffffffff16815250600460008473ffffffffffffffffffffffffffffffffffffffff1673ffffffffffffffffffffffffffffffffffffffff168152602001908152602001600020600082015181600001908051906020019061172f92919061234b565b5060208201518160010160006101000a81548173ffffffffffffffffffffffffffffffffffffffff021916908373ffffffffffffffffffffffffffffffffffffffff16021790555090505092915050565b60003373ffffffffffffffffffffffffffffffffffffffff166000809054906101000a900473ffffffffffffffffffffffffffffffffffffffff1673ffffffffffffffffffffffffffffffffffffffff1614611844576040517f08c379a00000000000000000000000000000000000000000000000000000000081526004018080602001828103825260168152602001807f4f6e6c792061646d696e2061726520616c6c6f7765640000000000000000000081525060200191505060405180910390fd5b8173ffffffffffffffffffffffffffffffffffffffff16600460008473ffffffffffffffffffffffffffffffffffffffff1673ffffffffffffffffffffffffffffffffffffffff16815260200190815260200160002060010160009054906101000a900473ffffffffffffffffffffffffffffffffffffffff1673ffffffffffffffffffffffffffffffffffffffff1614611947576040517f08c379a00000000000000000000000000000000000000000000000000000000081526004018080602001828103825260108152602001807f4f726720646f65736e742065786973740000000000000000000000000000000081525060200191505060405180910390fd5b600460008373ffffffffffffffffffffffffffffffffffffffff1673ffffffffffffffffffffffffffffffffffffffff1681526020019081526020016000206000808201600061199791906123cb565b6001820160006101000a81549073ffffffffffffffffffffffffffffffffffffffff02191690555050919050565b3373ffffffffffffffffffffffffffffffffffffffff16600460003373ffffffffffffffffffffffffffffffffffffffff1673ffffffffffffffffffffffffffffffffffffffff16815260200190815260200160002060010160009054906101000a900473ffffffffffffffffffffffffffffffffffffffff1673ffffffffffffffffffffffffffffffffffffffff1614611aab576040517f08c379a00000000000000000000000000000000000000000000000000000000081526004018080602001828103825260318152602001806124686031913960400191505060405180910390fd5b80600360008381526020019081526020016000206000015414611b36576040517f08c379a00000000000000000000000000000000000000000000000000000000081526004018080602001828103825260168152602001807f437573746f6d657220646f65736e74206578697374730000000000000000000081525060200191505060405180910390fd5b600160008154809291906001019190505550604051806080016040528060015481526020013373ffffffffffffffffffffffffffffffffffffffff168152602001828152602001600015158152506005600060015481526020019081526020016000206000820151816000015560208201518160010160006101000a81548173ffffffffffffffffffffffffffffffffffffffff021916908373ffffffffffffffffffffffffffffffffffffffff1602179055506040820151816002015560608201518160030160006101000a81548160ff02191690831515021790555090505050565b600084600560008781526020019081526020016000206000015414611ca7576040517f08c379a00000000000000000000000000000000000000000000000000000000081526004018080602001828103825260128152602001807f5265717565737473206e6f7420666f756e64000000000000000000000000000081525060200191505060405180910390fd5b816005600087815260200190815260200160002060030160006101000a81548160ff021916908315150217905550600115158215151415611e2e57600080905060008090505b6003600087815260200190815260200160002060030180549050821015611d9f578473ffffffffffffffffffffffffffffffffffffffff16600360008881526020019081526020016000206003018381548110611d4657fe5b9060005260206000200160009054906101000a900473ffffffffffffffffffffffffffffffffffffffff1673ffffffffffffffffffffffffffffffffffffffff161415611d9257600190505b8180600101925050611ced565b600015158115151415611e2757600360008781526020019081526020016000206003018590806001815401808255809150509060018203906000526020600020016000909192909190916101000a81548173ffffffffffffffffffffffffffffffffffffffff021916908373ffffffffffffffffffffffffffffffffffffffff160217905550505b5050612009565b60008090505b6003600086815260200190815260200160002060030180549050811015612007578373ffffffffffffffffffffffffffffffffffffffff16600360008781526020019081526020016000206003018281548110611e8d57fe5b9060005260206000200160009054906101000a900473ffffffffffffffffffffffffffffffffffffffff1673ffffffffffffffffffffffffffffffffffffffff161415611ffa5760036000868152602001908152602001600020600301600160036000888152602001908152602001600020600301805490500381548110611f1157fe5b9060005260206000200160009054906101000a900473ffffffffffffffffffffffffffffffffffffffff16600360008781526020019081526020016000206003018281548110611f5d57fe5b9060005260206000200160006101000a81548173ffffffffffffffffffffffffffffffffffffffff021916908373ffffffffffffffffffffffffffffffffffffffff16021790555060036000868152602001908152602001600020600301805480611fc457fe5b6001900381819060005260206000200160006101000a81549073ffffffffffffffffffffffffffffffffffffffff021916905590555b8080600101915050611e34565b505b949350505050565b3373ffffffffffffffffffffffffffffffffffffffff16600460003373ffffffffffffffffffffffffffffffffffffffff1673ffffffffffffffffffffffffffffffffffffffff16815260200190815260200160002060010160009054906101000a900473ffffffffffffffffffffffffffffffffffffffff1673ffffffffffffffffffffffffffffffffffffffff16146120f7576040517f08c379a00000000000000000000000000000000000000000000000000000000081526004018080602001828103825260318152602001806124686031913960400191505060405180910390fd5b80600560008381526020019081526020016000206000015414612182576040517f08c379a00000000000000000000000000000000000000000000000000000000081526004018080602001828103825260148152602001807f5265717565737420646f65736e7420657869737400000000000000000000000081525060200191505060405180910390fd5b3373ffffffffffffffffffffffffffffffffffffffff166005600083815260200190815260200160002060010160009054906101000a900473ffffffffffffffffffffffffffffffffffffffff1673ffffffffffffffffffffffffffffffffffffffff161461223c576040517f08c379a000000000000000000000000000000000000000000000000000000000815260040180806020018281038252602f815260200180612439602f913960400191505060405180910390fd5b600560008281526020019081526020016000206000808201600090556001820160006101000a81549073ffffffffffffffffffffffffffffffffffffffff021916905560028201600090556003820160006101000a81549060ff0219169055505050565b60015481565b6000809054906101000a900473ffffffffffffffffffffffffffffffffffffffff1681565b828054600181600116156101000203166002900490600052602060002090601f016020900481019282601f1061230c57805160ff191683800117855561233a565b8280016001018555821561233a579182015b8281111561233957825182559160200191906001019061231e565b5b5090506123479190612413565b5090565b828054600181600116156101000203166002900490600052602060002090601f016020900481019282601f1061238c57805160ff19168380011785556123ba565b828001600101855582156123ba579182015b828111156123b957825182559160200191906001019061239e565b5b5090506123c79190612413565b5090565b50805460018160011615610100020316600290046000825580601f106123f15750612410565b601f01602090049060005260206000209081019061240f9190612413565b5b50565b61243591905b80821115612431576000816000905550600101612419565b5090565b9056fe596f752063616e6e6f742072656d6f76652072657175657374206f66206f74686572206f7267616e697a6174696f6e556e61757468656e74696361746564206f7267616e697a6174696f6e207c204e6f742061646465642062792061646d696ea265627a7a72315820c6d6b8bfcf0d44744da0c441a1140bcbc59a43ad7d0c2e08c595ca60171d781064736f6c63430005100032",
  "source": "// SPDX-License-Identifier: MIT\r\npragma solidity >=0.4.21 <0.7.0;\r\n// pragma experimental ABIEncoderV2;  \r\n\r\ncontract Kyc {\r\n  address public admin;\r\n  uint public reqno;\r\n  string public name=\"KYC\";\r\n  struct Customer {\r\n      uint uname;\r\n      string name;\r\n      string location;\r\n      address[] organization;\r\n      bool kycStatus;\r\n  }\r\n\r\n  struct Organization {\r\n      string name;\r\n      address ethAddress;\r\n  }\r\n\r\n  struct kycRequest{\r\n      uint reqid;\r\n      address ethAddress;\r\n      uint uname;\r\n      bool isAllowed;\r\n  }\r\n\r\n  constructor() public {\r\n      admin = msg.sender;\r\n      reqno = 0;\r\n  }\r\n\r\n  mapping(uint => Customer) customers;\r\n  mapping(address => Organization) organizations;\r\n  mapping(uint => kycRequest) kycrequests;\r\n\r\n// Checks whether the requestor is admin\r\n  modifier isAdmin {\r\n      require(\r\n          admin == msg.sender,\r\n          \"Only admin are allowed\"\r\n      );\r\n      _;\r\n  }\r\n\r\n  modifier isOrgValid {\r\n      require(\r\n          organizations[msg.sender].ethAddress == msg.sender,\r\n          \"Unauthenticated organization | Not added by admin\"    \r\n      );\r\n      _;\r\n  }\r\n  \r\n\r\n\r\n  function addOrg(string memory _name,address _ethAddress) public isAdmin returns(bool) {\r\n      require(organizations[_ethAddress].ethAddress!=_ethAddress,\"Org already added\");\r\n      organizations[_ethAddress]=Organization(_name,_ethAddress);\r\n  }\r\n  \r\n  function removeOrg(address _ethAddress) public isAdmin returns(bool) {\r\n      require(organizations[_ethAddress].ethAddress==_ethAddress,\"Org doesnt exist\");\r\n      delete organizations[_ethAddress];\r\n  }\r\n  \r\n  function viewOrg(address _ethAddress)public isAdmin view returns(string memory){\r\n      require(organizations[_ethAddress].ethAddress==_ethAddress,\"Org doesnt exist\");\r\n      return(organizations[_ethAddress].name);\r\n  }\r\n  function registerKYC(uint _uname , string memory _name, string memory _location,bool _kycStatus) public payable isOrgValid returns(bool){\r\n      require(customers[_uname].uname!=_uname,\"User already exists\");\r\n      customers[_uname].uname=_uname;\r\n      customers[_uname].name=_name;\r\n      customers[_uname].location=_location;\r\n      customers[_uname].kycStatus=_kycStatus;\r\n      requestKYC(_uname);\r\n      giveAccessKYC(reqno,_uname,msg.sender,true);\r\n  }\r\n  \r\n  function viewKYC(uint _reqid,uint _uname) public view returns(uint,string memory,string memory,bool,address[] memory,uint){\r\n      require(kycrequests[_reqid].uname==_uname&&kycrequests[_reqid].reqid==_reqid && kycrequests[_reqid].ethAddress==msg.sender && kycrequests[_reqid].isAllowed==true,\"User hasnt given their consent\");\r\n      return(customers[_uname].uname,customers[_uname].name,customers[_uname].location,customers[_uname].kycStatus,customers[_uname].organization,customers[_uname].organization.length);\r\n  }\r\n  function updateKYC(uint _uname , string memory _name, string memory _location,bool _kycStatus) public isOrgValid returns(bool){\r\n      require(customers[_uname].uname==_uname,\"User doesn't exist\");\r\n      customers[_uname].uname=_uname;\r\n      customers[_uname].name=_name;\r\n      customers[_uname].location=_location;\r\n      customers[_uname].kycStatus=_kycStatus;\r\n  }\r\n  \r\n  \r\n  \r\n  function requestKYC(uint _uname) public isOrgValid{\r\n      require(customers[_uname].uname==_uname,\"Customer doesnt exists\");\r\n      reqno++;\r\n      kycrequests[reqno] = kycRequest(reqno,msg.sender,_uname,false);\r\n  }\r\n  \r\n  function deleteRequest(uint _reqid) public isOrgValid{\r\n      require(kycrequests[_reqid].reqid==_reqid,\"Request doesnt exist\");\r\n      require(kycrequests[_reqid].ethAddress==msg.sender,\"You cannot remove request of other organization\");\r\n      delete kycrequests[_reqid];\r\n  }\r\n\r\n//   function listRequest() public isOrgValid view returns(kycRequest[] memory,uint){\r\n//       kycRequest[] memory ret =  new kycRequest[](reqno);\r\n//       uint j = 0;\r\n//         for (uint i = 1; i <= reqno; i++) {\r\n//             if(kycrequests[i].ethAddress==msg.sender){\r\n//                 ret[j] = kycrequests[i];\r\n//                 j++;\r\n//             }\r\n                \r\n//         }\r\n//     return (ret,ret.length);\r\n//   }\r\n\r\n  function giveAccessKYC(uint _reqid,uint _uname,address _ethAddress,bool _isAllowed) public returns(bool){\r\n      require(kycrequests[_reqid].reqid==_reqid,\"Requests not found\");\r\n      kycrequests[_reqid].isAllowed = _isAllowed;\r\n      if(_isAllowed == true){\r\n          \r\n          uint i = 0;\r\n          bool exist = false;\r\n          for(i;i<customers[_uname].organization.length;i++){\r\n              if(customers[_uname].organization[i]==_ethAddress){\r\n                  exist = true;\r\n              }\r\n          }\r\n          if(exist == false){\r\n              customers[_uname].organization.push(_ethAddress);\r\n          }\r\n      }else{\r\n          uint i = 0;\r\n          for(i;i<customers[_uname].organization.length;i++){\r\n              if(customers[_uname].organization[i]==_ethAddress){\r\n                 \r\n                  customers[_uname].organization[i]=customers[_uname].organization[customers[_uname].organization.length-1];\r\n                  customers[_uname].organization.pop();\r\n              }\r\n          }\r\n      }\r\n      \r\n  }\r\n  \r\n}\r\n",
  "sourcePath": "C:\\Users\\pemba\\Documents\\BlockChain\\kyc_blockchain\\contracts\\Kyc.sol",
  "compiler": {
    "name": "solc",
    "version": "0.5.16+commit.9c3226ce.Emscripten.clang"
  },
  "schemaVersion": "3.0.23",
  "updatedAt": "2021-07-14T09:47:37.617Z",
  "devdoc": {
    "methods": {}
  },
  "userdoc": {
    "methods": {}
  }
}