{
  "contractName": "Kyc",
  "abi": [
    {
      "inputs": [],
      "payable": false,
      "stateMutability": "nonpayable",
      "type": "constructor"
    },
    {
      "anonymous": false,
      "inputs": [
        {
          "indexed": false,
          "internalType": "uint256",
          "name": "reqid",
          "type": "uint256"
        },
        {
          "indexed": false,
          "internalType": "uint256",
          "name": "uname",
          "type": "uint256"
        },
        {
          "indexed": false,
          "internalType": "address",
          "name": "ethAddress",
          "type": "address"
        },
        {
          "indexed": false,
          "internalType": "bool",
          "name": "isAllowed",
          "type": "bool"
        }
      ],
      "name": "accessGiven",
      "type": "event"
    },
    {
      "anonymous": false,
      "inputs": [
        {
          "indexed": false,
          "internalType": "uint256",
          "name": "reqid",
          "type": "uint256"
        },
        {
          "indexed": false,
          "internalType": "uint256",
          "name": "uname",
          "type": "uint256"
        },
        {
          "indexed": false,
          "internalType": "address",
          "name": "ethAddress",
          "type": "address"
        },
        {
          "indexed": false,
          "internalType": "bool",
          "name": "isAllowed",
          "type": "bool"
        }
      ],
      "name": "accessRevoked",
      "type": "event"
    },
    {
      "anonymous": false,
      "inputs": [
        {
          "indexed": false,
          "internalType": "uint256",
          "name": "uname",
          "type": "uint256"
        },
        {
          "indexed": false,
          "internalType": "string",
          "name": "name",
          "type": "string"
        },
        {
          "indexed": false,
          "internalType": "string",
          "name": "location",
          "type": "string"
        },
        {
          "indexed": false,
          "internalType": "bool",
          "name": "kycStatus",
          "type": "bool"
        }
      ],
      "name": "customerAdded",
      "type": "event"
    },
    {
      "anonymous": false,
      "inputs": [
        {
          "indexed": false,
          "internalType": "uint256",
          "name": "uname",
          "type": "uint256"
        },
        {
          "indexed": false,
          "internalType": "string",
          "name": "name",
          "type": "string"
        },
        {
          "indexed": false,
          "internalType": "string",
          "name": "location",
          "type": "string"
        },
        {
          "indexed": false,
          "internalType": "bool",
          "name": "kycStatus",
          "type": "bool"
        }
      ],
      "name": "customerUpdated",
      "type": "event"
    },
    {
      "anonymous": false,
      "inputs": [
        {
          "indexed": false,
          "internalType": "string",
          "name": "name",
          "type": "string"
        },
        {
          "indexed": false,
          "internalType": "address",
          "name": "ethAddress",
          "type": "address"
        }
      ],
      "name": "orgAdded",
      "type": "event"
    },
    {
      "anonymous": false,
      "inputs": [
        {
          "indexed": false,
          "internalType": "address",
          "name": "ethAddress",
          "type": "address"
        }
      ],
      "name": "orgRemoved",
      "type": "event"
    },
    {
      "anonymous": false,
      "inputs": [
        {
          "indexed": false,
          "internalType": "uint256",
          "name": "reqid",
          "type": "uint256"
        },
        {
          "indexed": false,
          "internalType": "address",
          "name": "ethAddress",
          "type": "address"
        },
        {
          "indexed": false,
          "internalType": "uint256",
          "name": "uname",
          "type": "uint256"
        },
        {
          "indexed": false,
          "internalType": "bool",
          "name": "isAllowed",
          "type": "bool"
        }
      ],
      "name": "requestAdded",
      "type": "event"
    },
    {
      "anonymous": false,
      "inputs": [
        {
          "indexed": false,
          "internalType": "uint256",
          "name": "reqid",
          "type": "uint256"
        },
        {
          "indexed": false,
          "internalType": "address",
          "name": "ethAddress",
          "type": "address"
        }
      ],
      "name": "requestRemoved",
      "type": "event"
    },
    {
      "constant": true,
      "inputs": [],
      "name": "admin",
      "outputs": [
        {
          "internalType": "address",
          "name": "",
          "type": "address"
        }
      ],
      "payable": false,
      "stateMutability": "view",
      "type": "function"
    },
    {
      "constant": true,
      "inputs": [],
      "name": "reqno",
      "outputs": [
        {
          "internalType": "uint256",
          "name": "",
          "type": "uint256"
        }
      ],
      "payable": false,
      "stateMutability": "view",
      "type": "function"
    },
    {
      "constant": false,
      "inputs": [
        {
          "internalType": "string",
          "name": "_name",
          "type": "string"
        },
        {
          "internalType": "address",
          "name": "_ethAddress",
          "type": "address"
        }
      ],
      "name": "addOrg",
      "outputs": [
        {
          "internalType": "string",
          "name": "",
          "type": "string"
        }
      ],
      "payable": false,
      "stateMutability": "nonpayable",
      "type": "function"
    },
    {
      "constant": false,
      "inputs": [
        {
          "internalType": "address",
          "name": "_ethAddress",
          "type": "address"
        }
      ],
      "name": "removeOrg",
      "outputs": [
        {
          "internalType": "bool",
          "name": "",
          "type": "bool"
        }
      ],
      "payable": false,
      "stateMutability": "nonpayable",
      "type": "function"
    },
    {
      "constant": true,
      "inputs": [
        {
          "internalType": "address",
          "name": "_ethAddress",
          "type": "address"
        }
      ],
      "name": "viewOrg",
      "outputs": [
        {
          "internalType": "string",
          "name": "",
          "type": "string"
        }
      ],
      "payable": false,
      "stateMutability": "view",
      "type": "function"
    },
    {
      "constant": false,
      "inputs": [
        {
          "internalType": "uint256",
          "name": "_uname",
          "type": "uint256"
        },
        {
          "internalType": "string",
          "name": "_name",
          "type": "string"
        },
        {
          "internalType": "string",
          "name": "_location",
          "type": "string"
        },
        {
          "internalType": "bool",
          "name": "_kycStatus",
          "type": "bool"
        }
      ],
      "name": "registerKYC",
      "outputs": [
        {
          "internalType": "bool",
          "name": "",
          "type": "bool"
        }
      ],
      "payable": true,
      "stateMutability": "payable",
      "type": "function"
    },
    {
      "constant": true,
      "inputs": [
        {
          "internalType": "uint256",
          "name": "_reqid",
          "type": "uint256"
        },
        {
          "internalType": "uint256",
          "name": "_uname",
          "type": "uint256"
        }
      ],
      "name": "viewKYC",
      "outputs": [
        {
          "internalType": "uint256",
          "name": "",
          "type": "uint256"
        },
        {
          "internalType": "string",
          "name": "",
          "type": "string"
        },
        {
          "internalType": "string",
          "name": "",
          "type": "string"
        },
        {
          "internalType": "bool",
          "name": "",
          "type": "bool"
        },
        {
          "internalType": "address[]",
          "name": "",
          "type": "address[]"
        },
        {
          "internalType": "uint256",
          "name": "",
          "type": "uint256"
        }
      ],
      "payable": false,
      "stateMutability": "view",
      "type": "function"
    },
    {
      "constant": false,
      "inputs": [
        {
          "internalType": "uint256",
          "name": "_uname",
          "type": "uint256"
        },
        {
          "internalType": "string",
          "name": "_name",
          "type": "string"
        },
        {
          "internalType": "string",
          "name": "_location",
          "type": "string"
        },
        {
          "internalType": "bool",
          "name": "_kycStatus",
          "type": "bool"
        }
      ],
      "name": "updateKYC",
      "outputs": [
        {
          "internalType": "bool",
          "name": "",
          "type": "bool"
        }
      ],
      "payable": false,
      "stateMutability": "nonpayable",
      "type": "function"
    },
    {
      "constant": false,
      "inputs": [
        {
          "internalType": "uint256",
          "name": "_uname",
          "type": "uint256"
        },
        {
          "internalType": "uint256",
          "name": "_reqid",
          "type": "uint256"
        }
      ],
      "name": "removeKYC",
      "outputs": [
        {
          "internalType": "bool",
          "name": "",
          "type": "bool"
        }
      ],
      "payable": false,
      "stateMutability": "nonpayable",
      "type": "function"
    },
    {
      "constant": false,
      "inputs": [
        {
          "internalType": "uint256",
          "name": "_uname",
          "type": "uint256"
        }
      ],
      "name": "requestKYC",
      "outputs": [
        {
          "internalType": "bool",
          "name": "",
          "type": "bool"
        }
      ],
      "payable": false,
      "stateMutability": "nonpayable",
      "type": "function"
    },
    {
      "constant": false,
      "inputs": [
        {
          "internalType": "uint256",
          "name": "_reqid",
          "type": "uint256"
        }
      ],
      "name": "deleteRequest",
      "outputs": [],
      "payable": false,
      "stateMutability": "nonpayable",
      "type": "function"
    },
    {
      "constant": true,
      "inputs": [
        {
          "internalType": "uint256",
          "name": "_reqid",
          "type": "uint256"
        }
      ],
      "name": "viewRequest",
      "outputs": [
        {
          "internalType": "uint256",
          "name": "",
          "type": "uint256"
        },
        {
          "internalType": "address",
          "name": "",
          "type": "address"
        },
        {
          "internalType": "uint256",
          "name": "",
          "type": "uint256"
        },
        {
          "internalType": "bool",
          "name": "",
          "type": "bool"
        }
      ],
      "payable": false,
      "stateMutability": "view",
      "type": "function"
    },
    {
      "constant": false,
      "inputs": [
        {
          "internalType": "uint256",
          "name": "_reqid",
          "type": "uint256"
        },
        {
          "internalType": "uint256",
          "name": "_uname",
          "type": "uint256"
        },
        {
          "internalType": "address",
          "name": "_ethAddress",
          "type": "address"
        },
        {
          "internalType": "bool",
          "name": "_isAllowed",
          "type": "bool"
        }
      ],
      "name": "giveAccessKYC",
      "outputs": [
        {
          "internalType": "bool",
          "name": "",
          "type": "bool"
        }
      ],
      "payable": false,
      "stateMutability": "nonpayable",
      "type": "function"
    }
  ],
  "bytecode": "0x608060405234801561001057600080fd5b50336000806101000a81548173ffffffffffffffffffffffffffffffffffffffff021916908373ffffffffffffffffffffffffffffffffffffffff1602179055506000600181905550613069806100686000396000f3fe6080604052600436106100c25760003560e01c8063a1ac9e571161007f578063e13fd3f111610059578063e13fd3f1146102e7578063e9a21bcd14610324578063f17d853d1461034d578063f851a44014610378576100c2565b8063a1ac9e5714610230578063b7e4a42d1461026d578063d5ffab10146102aa576100c2565b8063095111e2146100c75780630b68bba3146101045780631e8a49e01461014157806326e8525014610171578063554e9dcf146101b157806388c4ce54146101f3575b600080fd5b3480156100d357600080fd5b506100ee60048036036100e99190810190612480565b6103a3565b6040516100fb9190612a79565b60405180910390f35b34801561011057600080fd5b5061012b60048036036101269190810190612513565b6105b5565b6040516101389190612a79565b60405180910390f35b61015b60048036036101569190810190612480565b61088d565b6040516101689190612a79565b60405180910390f35b34801561017d57600080fd5b5061019860048036036101939190810190612457565b610abc565b6040516101a89493929190612d0f565b60405180910390f35b3480156101bd57600080fd5b506101d860048036036101d39190810190612513565b610cf6565b6040516101ea96959493929190612da7565b60405180910390f35b3480156101ff57600080fd5b5061021a600480360361021591908101906123da565b6110a7565b6040516102279190612a94565b60405180910390f35b34801561023c57600080fd5b5061025760048036036102529190810190612403565b6112ea565b6040516102649190612a94565b60405180910390f35b34801561027957600080fd5b50610294600480360361028f91908101906123da565b611594565b6040516102a19190612a79565b60405180910390f35b3480156102b657600080fd5b506102d160048036036102cc9190810190612457565b6117ae565b6040516102de9190612a79565b60405180910390f35b3480156102f357600080fd5b5061030e6004803603610309919081019061254f565b611a1a565b60405161031b9190612a79565b60405180910390f35b34801561033057600080fd5b5061034b60048036036103469190810190612457565b611e68565b005b34801561035957600080fd5b506103626120e9565b60405161036f9190612c86565b60405180910390f35b34801561038457600080fd5b5061038d6120ef565b60405161039a9190612a5e565b60405180910390f35b60003373ffffffffffffffffffffffffffffffffffffffff16600360003373ffffffffffffffffffffffffffffffffffffffff1673ffffffffffffffffffffffffffffffffffffffff16815260200190815260200160002060010160009054906101000a900473ffffffffffffffffffffffffffffffffffffffff1673ffffffffffffffffffffffffffffffffffffffff1614610475576040517f08c379a000000000000000000000000000000000000000000000000000000000815260040161046c90612c46565b60405180910390fd5b846002600087815260200190815260200160002060000154146104cd576040517f08c379a00000000000000000000000000000000000000000000000000000000081526004016104c490612c66565b60405180910390fd5b846002600087815260200190815260200160002060000181905550836002600087815260200190815260200160002060010190805190602001906105129291906121da565b508260026000878152602001908152602001600020600201908051906020019061053d9291906121da565b50816002600087815260200190815260200160002060040160006101000a81548160ff0219169083151502179055507f59e0bb35ae414be694461dc44da786d28a6a91086adf4a5a96bd0088e9363457858585856040516105a19493929190612d54565b60405180910390a160019050949350505050565b60003373ffffffffffffffffffffffffffffffffffffffff16600360003373ffffffffffffffffffffffffffffffffffffffff1673ffffffffffffffffffffffffffffffffffffffff16815260200190815260200160002060010160009054906101000a900473ffffffffffffffffffffffffffffffffffffffff1673ffffffffffffffffffffffffffffffffffffffff1614610687576040517f08c379a000000000000000000000000000000000000000000000000000000000815260040161067e90612c46565b60405180910390fd5b826002600085815260200190815260200160002060000154146106df576040517f08c379a00000000000000000000000000000000000000000000000000000000081526004016106d690612c66565b60405180910390fd5b600482815481106106ec57fe5b906000526020600020906004020160030160009054906101000a900460ff1661074a576040517f08c379a000000000000000000000000000000000000000000000000000000000815260040161074190612b06565b60405180910390fd5b60006107568433612114565b90506002600085815260200190815260200160002060030160016002600087815260200190815260200160002060030180549050038154811061079557fe5b9060005260206000200160009054906101000a900473ffffffffffffffffffffffffffffffffffffffff166002600086815260200190815260200160002060030182815481106107e157fe5b9060005260206000200160006101000a81548173ffffffffffffffffffffffffffffffffffffffff021916908373ffffffffffffffffffffffffffffffffffffffff1602179055506002600085815260200190815260200160002060030180548061084857fe5b6001900381819060005260206000200160006101000a81549073ffffffffffffffffffffffffffffffffffffffff0219169055905561088683611e68565b5092915050565b60003373ffffffffffffffffffffffffffffffffffffffff16600360003373ffffffffffffffffffffffffffffffffffffffff1673ffffffffffffffffffffffffffffffffffffffff16815260200190815260200160002060010160009054906101000a900473ffffffffffffffffffffffffffffffffffffffff1673ffffffffffffffffffffffffffffffffffffffff161461095f576040517f08c379a000000000000000000000000000000000000000000000000000000000815260040161095690612c46565b60405180910390fd5b84600260008781526020019081526020016000206000015414156109b8576040517f08c379a00000000000000000000000000000000000000000000000000000000081526004016109af90612be6565b60405180910390fd5b846002600087815260200190815260200160002060000181905550836002600087815260200190815260200160002060010190805190602001906109fd9291906121da565b5082600260008781526020019081526020016000206002019080519060200190610a289291906121da565b50816002600087815260200190815260200160002060040160006101000a81548160ff021916908315150217905550610a60856117ae565b50610a72600180540386336001611a1a565b507f65f71a0c28d1799bcb5d9a2457c840a672087598af816fec0f96a3172d994fb185858585604051610aa89493929190612d54565b60405180910390a160019050949350505050565b6000806000803373ffffffffffffffffffffffffffffffffffffffff16600360003373ffffffffffffffffffffffffffffffffffffffff1673ffffffffffffffffffffffffffffffffffffffff16815260200190815260200160002060010160009054906101000a900473ffffffffffffffffffffffffffffffffffffffff1673ffffffffffffffffffffffffffffffffffffffff1614610b92576040517f08c379a0000000000000000000000000000000000000000000000000000000008152600401610b8990612c46565b60405180910390fd5b3373ffffffffffffffffffffffffffffffffffffffff1660048681548110610bb657fe5b906000526020600020906004020160010160009054906101000a900473ffffffffffffffffffffffffffffffffffffffff1673ffffffffffffffffffffffffffffffffffffffff1614610c3e576040517f08c379a0000000000000000000000000000000000000000000000000000000008152600401610c3590612c26565b60405180910390fd5b60048581548110610c4b57fe5b90600052602060002090600402016000015460048681548110610c6a57fe5b906000526020600020906004020160010160009054906101000a900473ffffffffffffffffffffffffffffffffffffffff1660048781548110610ca957fe5b90600052602060002090600402016002015460048881548110610cc857fe5b906000526020600020906004020160030160009054906101000a900460ff1693509350935093509193509193565b60006060806000606060008660048981548110610d0f57fe5b906000526020600020906004020160020154148015610d4b57508760048981548110610d3757fe5b906000526020600020906004020160000154145b8015610dc057503373ffffffffffffffffffffffffffffffffffffffff1660048981548110610d7657fe5b906000526020600020906004020160010160009054906101000a900473ffffffffffffffffffffffffffffffffffffffff1673ffffffffffffffffffffffffffffffffffffffff16145b8015610dfb57506001151560048981548110610dd857fe5b906000526020600020906004020160030160009054906101000a900460ff161515145b610e3a576040517f08c379a0000000000000000000000000000000000000000000000000000000008152600401610e3190612b26565b60405180910390fd5b600260008881526020019081526020016000206000015460026000898152602001908152602001600020600101600260008a8152602001908152602001600020600201600260008b815260200190815260200160002060040160009054906101000a900460ff16600260008c8152602001908152602001600020600301600260008d815260200190815260200160002060030180549050848054600181600116156101000203166002900480601f016020809104026020016040519081016040528092919081815260200182805460018160011615610100020316600290048015610f665780601f10610f3b57610100808354040283529160200191610f66565b820191906000526020600020905b815481529060010190602001808311610f4957829003601f168201915b50505050509450838054600181600116156101000203166002900480601f0160208091040260200160405190810160405280929190818152602001828054600181600116156101000203166002900480156110025780601f10610fd757610100808354040283529160200191611002565b820191906000526020600020905b815481529060010190602001808311610fe557829003601f168201915b505050505093508180548060200260200160405190810160405280929190818152602001828054801561108a57602002820191906000526020600020905b8160009054906101000a900473ffffffffffffffffffffffffffffffffffffffff1673ffffffffffffffffffffffffffffffffffffffff1681526020019060010190808311611040575b505050505091509550955095509550955095509295509295509295565b60603373ffffffffffffffffffffffffffffffffffffffff166000809054906101000a900473ffffffffffffffffffffffffffffffffffffffff1673ffffffffffffffffffffffffffffffffffffffff1614611138576040517f08c379a000000000000000000000000000000000000000000000000000000000815260040161112f90612b66565b60405180910390fd5b8173ffffffffffffffffffffffffffffffffffffffff16600360008473ffffffffffffffffffffffffffffffffffffffff1673ffffffffffffffffffffffffffffffffffffffff16815260200190815260200160002060010160009054906101000a900473ffffffffffffffffffffffffffffffffffffffff1673ffffffffffffffffffffffffffffffffffffffff1614611208576040517f08c379a00000000000000000000000000000000000000000000000000000000081526004016111ff90612c06565b60405180910390fd5b600360008373ffffffffffffffffffffffffffffffffffffffff1673ffffffffffffffffffffffffffffffffffffffff1681526020019081526020016000206000018054600181600116156101000203166002900480601f0160208091040260200160405190810160405280929190818152602001828054600181600116156101000203166002900480156112de5780601f106112b3576101008083540402835291602001916112de565b820191906000526020600020905b8154815290600101906020018083116112c157829003601f168201915b50505050509050919050565b60603373ffffffffffffffffffffffffffffffffffffffff166000809054906101000a900473ffffffffffffffffffffffffffffffffffffffff1673ffffffffffffffffffffffffffffffffffffffff161461137b576040517f08c379a000000000000000000000000000000000000000000000000000000000815260040161137290612b66565b60405180910390fd5b8173ffffffffffffffffffffffffffffffffffffffff16600360008473ffffffffffffffffffffffffffffffffffffffff1673ffffffffffffffffffffffffffffffffffffffff16815260200190815260200160002060010160009054906101000a900473ffffffffffffffffffffffffffffffffffffffff1673ffffffffffffffffffffffffffffffffffffffff16141561144c576040517f08c379a000000000000000000000000000000000000000000000000000000000815260040161144390612bc6565b60405180910390fd5b60405180604001604052808481526020018373ffffffffffffffffffffffffffffffffffffffff16815250600360008473ffffffffffffffffffffffffffffffffffffffff1673ffffffffffffffffffffffffffffffffffffffff16815260200190815260200160002060008201518160000190805190602001906114d292919061225a565b5060208201518160010160006101000a81548173ffffffffffffffffffffffffffffffffffffffff021916908373ffffffffffffffffffffffffffffffffffffffff1602179055509050507f19cb05bcb9f3a5aa3801619041099231656235762a3599eed02cdcac38facd1c838360405161154e929190612ab6565b60405180910390a16040518060400160405280600281526020017f4f4b000000000000000000000000000000000000000000000000000000000000815250905092915050565b60003373ffffffffffffffffffffffffffffffffffffffff166000809054906101000a900473ffffffffffffffffffffffffffffffffffffffff1673ffffffffffffffffffffffffffffffffffffffff1614611625576040517f08c379a000000000000000000000000000000000000000000000000000000000815260040161161c90612b66565b60405180910390fd5b8173ffffffffffffffffffffffffffffffffffffffff16600360008473ffffffffffffffffffffffffffffffffffffffff1673ffffffffffffffffffffffffffffffffffffffff16815260200190815260200160002060010160009054906101000a900473ffffffffffffffffffffffffffffffffffffffff1673ffffffffffffffffffffffffffffffffffffffff16146116f5576040517f08c379a00000000000000000000000000000000000000000000000000000000081526004016116ec90612c06565b60405180910390fd5b600360008373ffffffffffffffffffffffffffffffffffffffff1673ffffffffffffffffffffffffffffffffffffffff1681526020019081526020016000206000808201600061174591906122da565b6001820160006101000a81549073ffffffffffffffffffffffffffffffffffffffff021916905550507f4630061df51c52d44a3987b904c6ff220da2cbdeff03ce8750cd14652cae0c6c8260405161179d9190612a5e565b60405180910390a160019050919050565b60003373ffffffffffffffffffffffffffffffffffffffff16600360003373ffffffffffffffffffffffffffffffffffffffff1673ffffffffffffffffffffffffffffffffffffffff16815260200190815260200160002060010160009054906101000a900473ffffffffffffffffffffffffffffffffffffffff1673ffffffffffffffffffffffffffffffffffffffff1614611880576040517f08c379a000000000000000000000000000000000000000000000000000000000815260040161187790612c46565b60405180910390fd5b816002600084815260200190815260200160002060000154146118d8576040517f08c379a00000000000000000000000000000000000000000000000000000000081526004016118cf90612b86565b60405180910390fd5b6004604051806080016040528060015481526020013373ffffffffffffffffffffffffffffffffffffffff16815260200184815260200160001515815250908060018154018082558091505090600182039060005260206000209060040201600090919290919091506000820151816000015560208201518160010160006101000a81548173ffffffffffffffffffffffffffffffffffffffff021916908373ffffffffffffffffffffffffffffffffffffffff1602179055506040820151816002015560608201518160030160006101000a81548160ff0219169083151502179055505050507fbd8f4e4ccbdc1cf1e22c75df3109236e48c7553dc96ae81638e51c0f73338cd3600154338460006040516119f79493929190612cca565b60405180910390a160016000815480929190600101919050555060019050919050565b60008460048681548110611a2a57fe5b90600052602060002090600402016000015414611a7c576040517f08c379a0000000000000000000000000000000000000000000000000000000008152600401611a7390612ba6565b60405180910390fd5b8160048681548110611a8a57fe5b906000526020600020906004020160030160006101000a81548160ff021916908315150217905550600115158215151415611c4857600080905060008090505b6002600087815260200190815260200160002060030180549050821015611b7c578473ffffffffffffffffffffffffffffffffffffffff16600260008881526020019081526020016000206003018381548110611b2357fe5b9060005260206000200160009054906101000a900473ffffffffffffffffffffffffffffffffffffffff1673ffffffffffffffffffffffffffffffffffffffff161415611b6f57600190505b8180600101925050611aca565b600015158115151415611c0457600260008781526020019081526020016000206003018590806001815401808255809150509060018203906000526020600020016000909192909190916101000a81548173ffffffffffffffffffffffffffffffffffffffff021916908373ffffffffffffffffffffffffffffffffffffffff160217905550505b7f60f80102f6302a4ebbd9c69d73d026bc0475510efeeb3ce3afe2784a1c40ba5687878787604051611c399493929190612e1d565b60405180910390a15050611e60565b60008090505b6002600086815260200190815260200160002060030180549050811015611e21578373ffffffffffffffffffffffffffffffffffffffff16600260008781526020019081526020016000206003018281548110611ca757fe5b9060005260206000200160009054906101000a900473ffffffffffffffffffffffffffffffffffffffff1673ffffffffffffffffffffffffffffffffffffffff161415611e145760026000868152602001908152602001600020600301600160026000888152602001908152602001600020600301805490500381548110611d2b57fe5b9060005260206000200160009054906101000a900473ffffffffffffffffffffffffffffffffffffffff16600260008781526020019081526020016000206003018281548110611d7757fe5b9060005260206000200160006101000a81548173ffffffffffffffffffffffffffffffffffffffff021916908373ffffffffffffffffffffffffffffffffffffffff16021790555060026000868152602001908152602001600020600301805480611dde57fe5b6001900381819060005260206000200160006101000a81549073ffffffffffffffffffffffffffffffffffffffff021916905590555b8080600101915050611c4e565b7f11b472146f001316c079c455dcf81118f09652872cc52da578e90ea064cf927e86868686604051611e569493929190612e1d565b60405180910390a1505b949350505050565b3373ffffffffffffffffffffffffffffffffffffffff16600360003373ffffffffffffffffffffffffffffffffffffffff1673ffffffffffffffffffffffffffffffffffffffff16815260200190815260200160002060010160009054906101000a900473ffffffffffffffffffffffffffffffffffffffff1673ffffffffffffffffffffffffffffffffffffffff1614611f38576040517f08c379a0000000000000000000000000000000000000000000000000000000008152600401611f2f90612c46565b60405180910390fd5b8060048281548110611f4657fe5b90600052602060002090600402016000015414611f98576040517f08c379a0000000000000000000000000000000000000000000000000000000008152600401611f8f90612ae6565b60405180910390fd5b3373ffffffffffffffffffffffffffffffffffffffff1660048281548110611fbc57fe5b906000526020600020906004020160010160009054906101000a900473ffffffffffffffffffffffffffffffffffffffff1673ffffffffffffffffffffffffffffffffffffffff1614612044576040517f08c379a000000000000000000000000000000000000000000000000000000000815260040161203b90612b46565b60405180910390fd5b6004818154811061205157fe5b90600052602060002090600402016000808201600090556001820160006101000a81549073ffffffffffffffffffffffffffffffffffffffff021916905560028201600090556003820160006101000a81549060ff021916905550507f5bc31e521401c7e4fbe27cc8e953ddcd66ce6cc84d810d1850450e7964029d9581336040516120de929190612ca1565b60405180910390a150565b60015481565b6000809054906101000a900473ffffffffffffffffffffffffffffffffffffffff1681565b600080600090505b60026000858152602001908152602001600020600301805490508110156121d2578273ffffffffffffffffffffffffffffffffffffffff1660026000868152602001908152602001600020600301828154811061217557fe5b9060005260206000200160009054906101000a900473ffffffffffffffffffffffffffffffffffffffff1673ffffffffffffffffffffffffffffffffffffffff1614156121c557809150506121d4565b808060010191505061211c565b505b92915050565b828054600181600116156101000203166002900490600052602060002090601f016020900481019282601f1061221b57805160ff1916838001178555612249565b82800160010185558215612249579182015b8281111561224857825182559160200191906001019061222d565b5b5090506122569190612322565b5090565b828054600181600116156101000203166002900490600052602060002090601f016020900481019282601f1061229b57805160ff19168380011785556122c9565b828001600101855582156122c9579182015b828111156122c85782518255916020019190600101906122ad565b5b5090506122d69190612322565b5090565b50805460018160011615610100020316600290046000825580601f10612300575061231f565b601f01602090049060005260206000209081019061231e9190612322565b5b50565b61234491905b80821115612340576000816000905550600101612328565b5090565b90565b60008135905061235681612fe1565b92915050565b60008135905061236b81612ff8565b92915050565b600082601f83011261238257600080fd5b813561239561239082612e8f565b612e62565b915080825260208301602083018583830111156123b157600080fd5b6123bc838284612f8e565b50505092915050565b6000813590506123d48161300f565b92915050565b6000602082840312156123ec57600080fd5b60006123fa84828501612347565b91505092915050565b6000806040838503121561241657600080fd5b600083013567ffffffffffffffff81111561243057600080fd5b61243c85828601612371565b925050602061244d85828601612347565b9150509250929050565b60006020828403121561246957600080fd5b6000612477848285016123c5565b91505092915050565b6000806000806080858703121561249657600080fd5b60006124a4878288016123c5565b945050602085013567ffffffffffffffff8111156124c157600080fd5b6124cd87828801612371565b935050604085013567ffffffffffffffff8111156124ea57600080fd5b6124f687828801612371565b92505060606125078782880161235c565b91505092959194509250565b6000806040838503121561252657600080fd5b6000612534858286016123c5565b9250506020612545858286016123c5565b9150509250929050565b6000806000806080858703121561256557600080fd5b6000612573878288016123c5565b9450506020612584878288016123c5565b935050604061259587828801612347565b92505060606125a68782880161235c565b91505092959194509250565b60006125be83836125d9565b60208301905092915050565b6125d381612f58565b82525050565b6125e281612f10565b82525050565b6125f181612f10565b82525050565b600061260282612ecb565b61260c8185612eee565b935061261783612ebb565b8060005b8381101561264857815161262f88826125b2565b975061263a83612ee1565b92505060018101905061261b565b5085935050505092915050565b61265e81612f22565b82525050565b600061266f82612ed6565b6126798185612eff565b9350612689818560208601612f9d565b61269281612fd0565b840191505092915050565b60006126aa601483612eff565b91507f5265717565737420646f65736e742065786973740000000000000000000000006000830152602082019050919050565b60006126ea602183612eff565b91507f596f7520646f6e7420686176652061636365737320746f20746869732075736560008301527f72000000000000000000000000000000000000000000000000000000000000006020830152604082019050919050565b6000612750601e83612eff565b91507f55736572206861736e7420676976656e20746865697220636f6e73656e7400006000830152602082019050919050565b6000612790602f83612eff565b91507f596f752063616e6e6f742072656d6f76652072657175657374206f66206f746860008301527f6572206f7267616e697a6174696f6e00000000000000000000000000000000006020830152604082019050919050565b60006127f6601683612eff565b91507f4f6e6c792061646d696e2061726520616c6c6f776564000000000000000000006000830152602082019050919050565b6000612836601683612eff565b91507f437573746f6d657220646f65736e7420657869737473000000000000000000006000830152602082019050919050565b6000612876601283612eff565b91507f5265717565737473206e6f7420666f756e6400000000000000000000000000006000830152602082019050919050565b60006128b6601183612eff565b91507f4f726720616c72656164792061646465640000000000000000000000000000006000830152602082019050919050565b60006128f6601383612eff565b91507f5573657220616c726561647920657869737473000000000000000000000000006000830152602082019050919050565b6000612936601083612eff565b91507f4f726720646f65736e74206578697374000000000000000000000000000000006000830152602082019050919050565b6000612976601683612eff565b91507f596f7520617265206e6f7420617574686f72697a6564000000000000000000006000830152602082019050919050565b60006129b6603183612eff565b91507f556e61757468656e74696361746564206f7267616e697a6174696f6e207c204e60008301527f6f742061646465642062792061646d696e0000000000000000000000000000006020830152604082019050919050565b6000612a1c601283612eff565b91507f5573657220646f65736e277420657869737400000000000000000000000000006000830152602082019050919050565b612a5881612f4e565b82525050565b6000602082019050612a7360008301846125e8565b92915050565b6000602082019050612a8e6000830184612655565b92915050565b60006020820190508181036000830152612aae8184612664565b905092915050565b60006040820190508181036000830152612ad08185612664565b9050612adf60208301846125e8565b9392505050565b60006020820190508181036000830152612aff8161269d565b9050919050565b60006020820190508181036000830152612b1f816126dd565b9050919050565b60006020820190508181036000830152612b3f81612743565b9050919050565b60006020820190508181036000830152612b5f81612783565b9050919050565b60006020820190508181036000830152612b7f816127e9565b9050919050565b60006020820190508181036000830152612b9f81612829565b9050919050565b60006020820190508181036000830152612bbf81612869565b9050919050565b60006020820190508181036000830152612bdf816128a9565b9050919050565b60006020820190508181036000830152612bff816128e9565b9050919050565b60006020820190508181036000830152612c1f81612929565b9050919050565b60006020820190508181036000830152612c3f81612969565b9050919050565b60006020820190508181036000830152612c5f816129a9565b9050919050565b60006020820190508181036000830152612c7f81612a0f565b9050919050565b6000602082019050612c9b6000830184612a4f565b92915050565b6000604082019050612cb66000830185612a4f565b612cc360208301846125ca565b9392505050565b6000608082019050612cdf6000830187612a4f565b612cec60208301866125ca565b612cf96040830185612a4f565b612d066060830184612655565b95945050505050565b6000608082019050612d246000830187612a4f565b612d3160208301866125e8565b612d3e6040830185612a4f565b612d4b6060830184612655565b95945050505050565b6000608082019050612d696000830187612a4f565b8181036020830152612d7b8186612664565b90508181036040830152612d8f8185612664565b9050612d9e6060830184612655565b95945050505050565b600060c082019050612dbc6000830189612a4f565b8181036020830152612dce8188612664565b90508181036040830152612de28187612664565b9050612df16060830186612655565b8181036080830152612e0381856125f7565b9050612e1260a0830184612a4f565b979650505050505050565b6000608082019050612e326000830187612a4f565b612e3f6020830186612a4f565b612e4c60408301856125e8565b612e596060830184612655565b95945050505050565b6000604051905081810181811067ffffffffffffffff82111715612e8557600080fd5b8060405250919050565b600067ffffffffffffffff821115612ea657600080fd5b601f19601f8301169050602081019050919050565b6000819050602082019050919050565b600081519050919050565b600081519050919050565b6000602082019050919050565b600082825260208201905092915050565b600082825260208201905092915050565b6000612f1b82612f2e565b9050919050565b60008115159050919050565b600073ffffffffffffffffffffffffffffffffffffffff82169050919050565b6000819050919050565b6000612f6382612f6a565b9050919050565b6000612f7582612f7c565b9050919050565b6000612f8782612f2e565b9050919050565b82818337600083830152505050565b60005b83811015612fbb578082015181840152602081019050612fa0565b83811115612fca576000848401525b50505050565b6000601f19601f8301169050919050565b612fea81612f10565b8114612ff557600080fd5b50565b61300181612f22565b811461300c57600080fd5b50565b61301881612f4e565b811461302357600080fd5b5056fea365627a7a72315820243ebd132905bf976b362b96a5a2fdee193905b44ef2f7c88e47445fe15e34cc6c6578706572696d656e74616cf564736f6c63430005100040",
  "source": "// SPDX-License-Identifier: MIT\r\npragma solidity >=0.4.21 <0.7.0;\r\npragma experimental ABIEncoderV2;  \r\n\r\ncontract Kyc {\r\n  address public admin;\r\n  uint public reqno;\r\n  struct Customer {\r\n      uint uname;\r\n      string name;\r\n      string location;\r\n      address[] organization;\r\n      bool kycStatus;\r\n  }\r\n\r\n  struct Organization {\r\n      string name;\r\n      address ethAddress;\r\n  }\r\n\r\n  struct kycRequest{\r\n      uint reqid;\r\n      address ethAddress;\r\n      uint uname;\r\n      bool isAllowed;\r\n  }\r\n\r\n  constructor() public {\r\n      admin = msg.sender;\r\n      reqno = 0;\r\n  }\r\n\r\n  mapping(uint => Customer) customers;\r\n  mapping(address => Organization) organizations;\r\n//   mapping(address => kycRequest[]) kycrequestsbyaddress;\r\n\r\n  kycRequest[] kycrequests;\r\n\r\n  event orgAdded(string name,address ethAddress);\r\n  event orgRemoved(address ethAddress);\r\n  event customerAdded(uint uname,string name,string location,bool kycStatus);\r\n  event customerUpdated(uint uname,string name,string location,bool kycStatus);\r\n  event requestAdded(uint reqid,address ethAddress, uint uname,bool isAllowed);\r\n  event requestRemoved(uint reqid,address ethAddress);\r\n  event accessGiven(uint reqid,uint uname,address ethAddress,bool isAllowed);\r\n  event accessRevoked(uint reqid,uint uname,address ethAddress,bool isAllowed);\r\n\r\n// Checks whether the requestor is admin\r\n  modifier isAdmin {\r\n      require(\r\n          admin == msg.sender,\r\n          \"Only admin are allowed\"\r\n      );\r\n      _;\r\n  }\r\n\r\n  modifier isOrgValid {\r\n      require(\r\n          organizations[msg.sender].ethAddress == msg.sender,\r\n          \"Unauthenticated organization | Not added by admin\"    \r\n      );\r\n      _;\r\n  }\r\n  \r\n//   function findOrg(uint _uname,address ethAddress) internal view returns(bool){\r\n//       uint i = 0;\r\n//           for(i;i<customers[_uname].organization.length;i++){\r\n//               if(customers[_uname].organization[i]==ethAddress){\r\n//                   return true;\r\n//               }\r\n//           }\r\n//   }\r\n  function findOrgIndex(uint _uname,address ethAddress) internal view returns(uint){\r\n      uint i = 0;\r\n          for(i;i<customers[_uname].organization.length;i++){\r\n              if(customers[_uname].organization[i]==ethAddress){\r\n                  return i;\r\n              }\r\n          }\r\n  }\r\n\r\n  function addOrg(string memory _name,address _ethAddress) public isAdmin returns(string memory) {\r\n      require(organizations[_ethAddress].ethAddress!=_ethAddress,\"Org already added\");\r\n      organizations[_ethAddress]=Organization(_name,_ethAddress);\r\n      emit orgAdded(_name,_ethAddress);\r\n      return (\"OK\");\r\n  }\r\n  \r\n  function removeOrg(address _ethAddress) public isAdmin returns(bool) {\r\n      require(organizations[_ethAddress].ethAddress==_ethAddress,\"Org doesnt exist\");\r\n      delete organizations[_ethAddress];\r\n      emit orgRemoved(_ethAddress);\r\n      return true;\r\n  }\r\n  \r\n  function viewOrg(address _ethAddress)public isAdmin view returns(string memory){\r\n      require(organizations[_ethAddress].ethAddress==_ethAddress,\"Org doesnt exist\");\r\n      return(organizations[_ethAddress].name);\r\n  }\r\n  function registerKYC(uint _uname , string memory _name, string memory _location,bool _kycStatus) public payable isOrgValid returns(bool){\r\n      require(customers[_uname].uname!=_uname,\"User already exists\");\r\n      customers[_uname].uname=_uname;\r\n      customers[_uname].name=_name;\r\n      customers[_uname].location=_location;\r\n      customers[_uname].kycStatus=_kycStatus;\r\n      requestKYC(_uname);\r\n      giveAccessKYC(reqno-1,_uname,msg.sender,true);\r\n      emit customerAdded(_uname,_name,_location,_kycStatus);\r\n      return true;\r\n  }\r\n  \r\n  function viewKYC(uint _reqid,uint _uname) public view returns(uint,string memory,string memory,bool,address[] memory,uint){\r\n      require(kycrequests[_reqid].uname==_uname&&kycrequests[_reqid].reqid==_reqid && kycrequests[_reqid].ethAddress==msg.sender && kycrequests[_reqid].isAllowed==true,\"User hasnt given their consent\");\r\n      return(customers[_uname].uname,customers[_uname].name,customers[_uname].location,customers[_uname].kycStatus,customers[_uname].organization,customers[_uname].organization.length);\r\n  }\r\n  function updateKYC(uint _uname , string memory _name, string memory _location,bool _kycStatus) public isOrgValid returns(bool){\r\n      require(customers[_uname].uname==_uname,\"User doesn't exist\");\r\n      customers[_uname].uname=_uname;\r\n      customers[_uname].name=_name;\r\n      customers[_uname].location=_location;\r\n      customers[_uname].kycStatus=_kycStatus;\r\n      emit customerUpdated(_uname,_name,_location,_kycStatus);\r\n      return true;\r\n  }\r\n  \r\n  function removeKYC(uint _uname,uint _reqid) public isOrgValid returns (bool){\r\n      require(customers[_uname].uname==_uname,\"User doesn't exist\");\r\n      require(kycrequests[_reqid].isAllowed,\"You dont have access to this user\");\r\n      uint i=findOrgIndex(_uname,msg.sender);\r\n      customers[_uname].organization[i]=customers[_uname].organization[customers[_uname].organization.length-1];\r\n      customers[_uname].organization.pop();\r\n      deleteRequest(_reqid);\r\n  }\r\n  \r\n  function requestKYC(uint _uname) public isOrgValid returns(bool){\r\n      require(customers[_uname].uname==_uname,\"Customer doesnt exists\");\r\n      kycrequests.push(kycRequest(reqno,msg.sender,_uname,false));\r\n    //   kycrequestsbyaddress[msg.sender]=kycRequest(reqno,msg.sender,_uname,false);\r\n      emit requestAdded(reqno,msg.sender,_uname,false);\r\n      reqno++;\r\n      return true;\r\n  }\r\n  \r\n  function deleteRequest(uint _reqid) public isOrgValid{\r\n      require(kycrequests[_reqid].reqid==_reqid,\"Request doesnt exist\");\r\n      require(kycrequests[_reqid].ethAddress==msg.sender,\"You cannot remove request of other organization\");\r\n      delete kycrequests[_reqid];\r\n      emit requestRemoved(_reqid,msg.sender);\r\n  }\r\n\r\n  function viewRequest(uint _reqid) public isOrgValid view returns(uint, address, uint, bool){\r\n      require(kycrequests[_reqid].ethAddress==msg.sender,\"You are not authorized\");\r\n      return(kycrequests[_reqid].reqid,kycrequests[_reqid].ethAddress,kycrequests[_reqid].uname,kycrequests[_reqid].isAllowed);\r\n  }\r\n//   function listRequest() public isOrgValid view returns(kycRequest[] memory,uint){\r\n//       kycRequest[] memory ret =  new kycRequest[](reqno);\r\n//       uint j = 0;\r\n//         for (uint i = 1; i <= reqno; i++) {\r\n//             if(kycrequestsbyaddress[i].ethAddress==msg.sender){\r\n//                 ret[j] = kycrequests[i];\r\n//                 j++;\r\n//             }\r\n                \r\n//         }\r\n//     return (ret,ret.length);\r\n//   }\r\n\r\n  function giveAccessKYC(uint _reqid,uint _uname,address _ethAddress,bool _isAllowed) public returns(bool){\r\n      require(kycrequests[_reqid].reqid==_reqid,\"Requests not found\");\r\n      kycrequests[_reqid].isAllowed = _isAllowed;\r\n      if(_isAllowed == true){\r\n          \r\n          uint i = 0;\r\n          bool exist = false;\r\n          for(i;i<customers[_uname].organization.length;i++){\r\n              if(customers[_uname].organization[i]==_ethAddress){\r\n                  exist = true;\r\n              }\r\n          }\r\n          if(exist == false){\r\n              customers[_uname].organization.push(_ethAddress);\r\n          }\r\n          emit accessGiven(_reqid,_uname,_ethAddress,_isAllowed);\r\n      }else{\r\n          uint i = 0;\r\n          for(i;i<customers[_uname].organization.length;i++){\r\n              if(customers[_uname].organization[i]==_ethAddress){\r\n                 \r\n                  customers[_uname].organization[i]=customers[_uname].organization[customers[_uname].organization.length-1];\r\n                  customers[_uname].organization.pop();\r\n              }\r\n          }\r\n          emit accessRevoked(_reqid,_uname,_ethAddress,_isAllowed);\r\n      }\r\n      \r\n  }\r\n  \r\n}\r\n",
  "sourcePath": "C:\\Users\\pemba\\Documents\\BlockChain\\kyc_blockchain\\contracts\\Kyc.sol",
  "compiler": {
    "name": "solc",
    "version": "0.5.16+commit.9c3226ce.Emscripten.clang"
  },
  "schemaVersion": "3.4.3",
  "updatedAt": "2021-09-08T16:13:22.915Z",
  "networkType": "ethereum",
  "devdoc": {
    "methods": {}
  },
  "userdoc": {
    "methods": {}
  }
}