{
  "contractName": "Kyc",
  "abi": [
    {
      "inputs": [],
      "stateMutability": "nonpayable",
      "type": "constructor"
    },
    {
      "anonymous": false,
      "inputs": [
        {
          "indexed": false,
          "internalType": "uint256",
          "name": "reqid",
          "type": "uint256"
        },
        {
          "indexed": false,
          "internalType": "address",
          "name": "custAddress",
          "type": "address"
        },
        {
          "indexed": false,
          "internalType": "address",
          "name": "ethAddress",
          "type": "address"
        },
        {
          "indexed": false,
          "internalType": "bool",
          "name": "isAllowed",
          "type": "bool"
        }
      ],
      "name": "accessGiven",
      "type": "event"
    },
    {
      "anonymous": false,
      "inputs": [
        {
          "indexed": false,
          "internalType": "address",
          "name": "custAddress",
          "type": "address"
        },
        {
          "indexed": false,
          "internalType": "address",
          "name": "ethAddress",
          "type": "address"
        }
      ],
      "name": "accessRevoked",
      "type": "event"
    },
    {
      "anonymous": false,
      "inputs": [
        {
          "indexed": false,
          "internalType": "address",
          "name": "custAddress",
          "type": "address"
        },
        {
          "indexed": false,
          "internalType": "bool",
          "name": "kycStatus",
          "type": "bool"
        }
      ],
      "name": "customerAdded",
      "type": "event"
    },
    {
      "anonymous": false,
      "inputs": [
        {
          "indexed": false,
          "internalType": "address",
          "name": "custAddress",
          "type": "address"
        },
        {
          "indexed": false,
          "internalType": "bool",
          "name": "kycStatus",
          "type": "bool"
        }
      ],
      "name": "customerUpdated",
      "type": "event"
    },
    {
      "anonymous": false,
      "inputs": [
        {
          "indexed": false,
          "internalType": "address",
          "name": "custAddress",
          "type": "address"
        },
        {
          "indexed": false,
          "internalType": "address",
          "name": "ethAddress",
          "type": "address"
        }
      ],
      "name": "kycRemoved",
      "type": "event"
    },
    {
      "anonymous": false,
      "inputs": [
        {
          "indexed": false,
          "internalType": "string",
          "name": "name",
          "type": "string"
        },
        {
          "indexed": false,
          "internalType": "address",
          "name": "ethAddress",
          "type": "address"
        }
      ],
      "name": "orgAdded",
      "type": "event"
    },
    {
      "anonymous": false,
      "inputs": [
        {
          "indexed": false,
          "internalType": "address",
          "name": "ethAddress",
          "type": "address"
        }
      ],
      "name": "orgRemoved",
      "type": "event"
    },
    {
      "anonymous": false,
      "inputs": [
        {
          "indexed": false,
          "internalType": "uint256",
          "name": "reqid",
          "type": "uint256"
        },
        {
          "indexed": false,
          "internalType": "address",
          "name": "ethAddress",
          "type": "address"
        },
        {
          "indexed": false,
          "internalType": "address",
          "name": "custAddress",
          "type": "address"
        },
        {
          "indexed": false,
          "internalType": "bool",
          "name": "isAllowed",
          "type": "bool"
        }
      ],
      "name": "requestAdded",
      "type": "event"
    },
    {
      "anonymous": false,
      "inputs": [
        {
          "indexed": false,
          "internalType": "uint256",
          "name": "reqid",
          "type": "uint256"
        },
        {
          "indexed": false,
          "internalType": "address",
          "name": "ethAddress",
          "type": "address"
        }
      ],
      "name": "requestRemoved",
      "type": "event"
    },
    {
      "inputs": [],
      "name": "admin",
      "outputs": [
        {
          "internalType": "address",
          "name": "",
          "type": "address"
        }
      ],
      "stateMutability": "view",
      "type": "function",
      "constant": true
    },
    {
      "inputs": [
        {
          "internalType": "string",
          "name": "_name",
          "type": "string"
        },
        {
          "internalType": "address",
          "name": "_ethAddress",
          "type": "address"
        }
      ],
      "name": "addOrg",
      "outputs": [
        {
          "internalType": "bool",
          "name": "",
          "type": "bool"
        }
      ],
      "stateMutability": "nonpayable",
      "type": "function"
    },
    {
      "inputs": [
        {
          "internalType": "address",
          "name": "_ethAddress",
          "type": "address"
        }
      ],
      "name": "removeOrg",
      "outputs": [
        {
          "internalType": "bool",
          "name": "",
          "type": "bool"
        }
      ],
      "stateMutability": "nonpayable",
      "type": "function"
    },
    {
      "inputs": [
        {
          "internalType": "address",
          "name": "_ethAddress",
          "type": "address"
        }
      ],
      "name": "viewOrg",
      "outputs": [
        {
          "components": [
            {
              "internalType": "string",
              "name": "name",
              "type": "string"
            },
            {
              "internalType": "address",
              "name": "ethAddress",
              "type": "address"
            }
          ],
          "internalType": "struct Kyc.Organization",
          "name": "",
          "type": "tuple"
        }
      ],
      "stateMutability": "view",
      "type": "function",
      "constant": true
    },
    {
      "inputs": [],
      "name": "getYourOrgDetail",
      "outputs": [
        {
          "components": [
            {
              "internalType": "string",
              "name": "name",
              "type": "string"
            },
            {
              "internalType": "address",
              "name": "ethAddress",
              "type": "address"
            }
          ],
          "internalType": "struct Kyc.Organization",
          "name": "",
          "type": "tuple"
        }
      ],
      "stateMutability": "view",
      "type": "function",
      "constant": true
    },
    {
      "inputs": [],
      "name": "validOrg",
      "outputs": [
        {
          "internalType": "bool",
          "name": "",
          "type": "bool"
        }
      ],
      "stateMutability": "view",
      "type": "function",
      "constant": true
    },
    {
      "inputs": [],
      "name": "validAdmin",
      "outputs": [
        {
          "internalType": "bool",
          "name": "",
          "type": "bool"
        }
      ],
      "stateMutability": "view",
      "type": "function",
      "constant": true
    },
    {
      "inputs": [],
      "name": "validCust",
      "outputs": [
        {
          "internalType": "bool",
          "name": "",
          "type": "bool"
        }
      ],
      "stateMutability": "view",
      "type": "function",
      "constant": true
    },
    {
      "inputs": [
        {
          "internalType": "address",
          "name": "_custaddress",
          "type": "address"
        },
        {
          "internalType": "string",
          "name": "_jsonHash",
          "type": "string"
        },
        {
          "internalType": "string",
          "name": "_photohash",
          "type": "string"
        },
        {
          "internalType": "string",
          "name": "_citizenship_front_hash",
          "type": "string"
        },
        {
          "internalType": "string",
          "name": "_citizenship_back_hash",
          "type": "string"
        },
        {
          "internalType": "bool",
          "name": "_kycStatus",
          "type": "bool"
        },
        {
          "internalType": "uint256",
          "name": "_d",
          "type": "uint256"
        },
        {
          "internalType": "uint256",
          "name": "_n",
          "type": "uint256"
        }
      ],
      "name": "registerKYC",
      "outputs": [
        {
          "internalType": "bool",
          "name": "",
          "type": "bool"
        }
      ],
      "stateMutability": "nonpayable",
      "type": "function"
    },
    {
      "inputs": [
        {
          "internalType": "address",
          "name": "_custaddress",
          "type": "address"
        }
      ],
      "name": "viewKYC",
      "outputs": [
        {
          "internalType": "bool",
          "name": "",
          "type": "bool"
        },
        {
          "internalType": "string",
          "name": "",
          "type": "string"
        },
        {
          "internalType": "string",
          "name": "",
          "type": "string"
        },
        {
          "internalType": "string",
          "name": "",
          "type": "string"
        },
        {
          "internalType": "string",
          "name": "",
          "type": "string"
        },
        {
          "internalType": "uint256",
          "name": "",
          "type": "uint256"
        },
        {
          "internalType": "uint256",
          "name": "",
          "type": "uint256"
        }
      ],
      "stateMutability": "view",
      "type": "function",
      "constant": true
    },
    {
      "inputs": [],
      "name": "viewYourKYC",
      "outputs": [
        {
          "components": [
            {
              "internalType": "address",
              "name": "custAddress",
              "type": "address"
            },
            {
              "internalType": "string",
              "name": "jsonHash",
              "type": "string"
            },
            {
              "internalType": "string",
              "name": "photoHash",
              "type": "string"
            },
            {
              "internalType": "string",
              "name": "citizenship_front_hash",
              "type": "string"
            },
            {
              "internalType": "string",
              "name": "citizenship_back_hash",
              "type": "string"
            },
            {
              "internalType": "uint256",
              "name": "d",
              "type": "uint256"
            },
            {
              "internalType": "uint256",
              "name": "n",
              "type": "uint256"
            },
            {
              "internalType": "address[]",
              "name": "organization",
              "type": "address[]"
            },
            {
              "internalType": "bool",
              "name": "kycStatus",
              "type": "bool"
            }
          ],
          "internalType": "struct Kyc.Customer",
          "name": "",
          "type": "tuple"
        }
      ],
      "stateMutability": "view",
      "type": "function",
      "constant": true
    },
    {
      "inputs": [],
      "name": "viewRequestCust",
      "outputs": [
        {
          "components": [
            {
              "internalType": "uint256",
              "name": "req_count",
              "type": "uint256"
            },
            {
              "internalType": "address",
              "name": "Address",
              "type": "address"
            }
          ],
          "internalType": "struct Kyc.kycRequestList[]",
          "name": "",
          "type": "tuple[]"
        }
      ],
      "stateMutability": "view",
      "type": "function",
      "constant": true
    },
    {
      "inputs": [
        {
          "internalType": "address",
          "name": "_custaddress",
          "type": "address"
        },
        {
          "internalType": "string",
          "name": "_jsonHash",
          "type": "string"
        },
        {
          "internalType": "string",
          "name": "_photohash",
          "type": "string"
        },
        {
          "internalType": "string",
          "name": "_citizenship_front_hash",
          "type": "string"
        },
        {
          "internalType": "string",
          "name": "_citizenship_back_hash",
          "type": "string"
        },
        {
          "internalType": "bool",
          "name": "_kycStatus",
          "type": "bool"
        },
        {
          "internalType": "uint256",
          "name": "_d",
          "type": "uint256"
        },
        {
          "internalType": "uint256",
          "name": "_n",
          "type": "uint256"
        }
      ],
      "name": "updateKYC",
      "outputs": [
        {
          "internalType": "bool",
          "name": "",
          "type": "bool"
        }
      ],
      "stateMutability": "nonpayable",
      "type": "function"
    },
    {
      "inputs": [
        {
          "internalType": "address",
          "name": "_custaddress",
          "type": "address"
        }
      ],
      "name": "requestKYC",
      "outputs": [
        {
          "internalType": "bool",
          "name": "",
          "type": "bool"
        }
      ],
      "stateMutability": "nonpayable",
      "type": "function"
    },
    {
      "inputs": [
        {
          "internalType": "uint256",
          "name": "_reqcount",
          "type": "uint256"
        }
      ],
      "name": "deleteRequestOrg",
      "outputs": [
        {
          "internalType": "bool",
          "name": "",
          "type": "bool"
        }
      ],
      "stateMutability": "nonpayable",
      "type": "function"
    },
    {
      "inputs": [
        {
          "internalType": "uint256",
          "name": "_reqcount",
          "type": "uint256"
        },
        {
          "internalType": "address",
          "name": "_ethAddress",
          "type": "address"
        }
      ],
      "name": "deleteRequestCust",
      "outputs": [],
      "stateMutability": "nonpayable",
      "type": "function"
    },
    {
      "inputs": [],
      "name": "listRequest",
      "outputs": [
        {
          "components": [
            {
              "internalType": "uint256",
              "name": "req_count",
              "type": "uint256"
            },
            {
              "internalType": "address",
              "name": "Address",
              "type": "address"
            }
          ],
          "internalType": "struct Kyc.kycRequestList[]",
          "name": "",
          "type": "tuple[]"
        }
      ],
      "stateMutability": "view",
      "type": "function",
      "constant": true
    },
    {
      "inputs": [
        {
          "internalType": "uint256",
          "name": "_reqcount",
          "type": "uint256"
        },
        {
          "internalType": "address",
          "name": "_ethAddress",
          "type": "address"
        },
        {
          "internalType": "bool",
          "name": "_isAllowed",
          "type": "bool"
        }
      ],
      "name": "giveAccessKYC",
      "outputs": [
        {
          "internalType": "bool",
          "name": "",
          "type": "bool"
        }
      ],
      "stateMutability": "nonpayable",
      "type": "function"
    },
    {
      "inputs": [
        {
          "internalType": "address",
          "name": "_ethAddress",
          "type": "address"
        }
      ],
      "name": "revokeAccessKYC",
      "outputs": [
        {
          "internalType": "bool",
          "name": "",
          "type": "bool"
        }
      ],
      "stateMutability": "nonpayable",
      "type": "function"
    },
    {
      "inputs": [
        {
          "internalType": "address",
          "name": "_custaddress",
          "type": "address"
        }
      ],
      "name": "removeKYC",
      "outputs": [
        {
          "internalType": "bool",
          "name": "",
          "type": "bool"
        }
      ],
      "stateMutability": "nonpayable",
      "type": "function"
    }
  ],
  "bytecode": "0x608060405234801561001057600080fd5b50336000806101000a81548173ffffffffffffffffffffffffffffffffffffffff021916908373ffffffffffffffffffffffffffffffffffffffff160217905550615c6d80620000616000396000f3fe608060405234801561001057600080fd5b506004361061012c5760003560e01c8063a64266e7116100ad578063d6bbbf8411610071578063d6bbbf84146103a5578063d9b18f04146103c3578063e1b2dbe8146103f9578063f3a9b58814610417578063f851a440146104355761012c565b8063a64266e7146102d9578063b7e4a42d14610309578063c10cebe614610339578063ca1cbcc214610369578063ceacabd5146103875761012c565b806354291824116100f457806354291824146101fd5780637042d70c1461022d57806384f702ee1461024957806388c4ce5414610279578063a1ac9e57146102a95761012c565b806306e5d4d114610131578063243f6b58146101615780632a539a221461019157806332722a25146101c15780634f4b4f78146101df575b600080fd5b61014b600480360381019061014691906147cf565b610453565b6040516101589190614817565b60405180910390f35b61017b600480360381019061017691906147cf565b6105ba565b6040516101889190614817565b60405180910390f35b6101ab60048036038101906101a69190614894565b6107f1565b6040516101b89190614817565b60405180910390f35b6101c9610b86565b6040516101d691906149cc565b60405180910390f35b6101e7610d95565b6040516101f49190614817565b60405180910390f35b610217600480360381019061021291906149ee565b610e3e565b6040516102249190614817565b60405180910390f35b61024760048036038101906102429190614a1b565b611126565b005b610263600480360381019061025e9190614b90565b61139f565b6040516102709190614817565b60405180910390f35b610293600480360381019061028e91906147cf565b6115e3565b6040516102a091906149cc565b60405180910390f35b6102c360048036038101906102be9190614cb6565b611882565b6040516102d09190614817565b60405180910390f35b6102f360048036038101906102ee9190614b90565b611bc0565b6040516103009190614817565b60405180910390f35b610323600480360381019061031e91906147cf565b611dc6565b6040516103309190614817565b60405180910390f35b610353600480360381019061034e91906147cf565b611fdf565b6040516103609190614817565b60405180910390f35b610371612563565b60405161037e9190614dff565b60405180910390f35b61038f6127af565b60405161039c9190614fc0565b60405180910390f35b6103ad612ba9565b6040516103ba9190614817565b60405180910390f35b6103dd60048036038101906103d891906147cf565b612c10565b6040516103f0979695949392919061503b565b60405180910390f35b61040161308b565b60405161040e9190614817565b60405180910390f35b61041f613134565b60405161042c9190614dff565b60405180910390f35b61043d613403565b60405161044a91906150d5565b60405180910390f35b60003373ffffffffffffffffffffffffffffffffffffffff16600160003373ffffffffffffffffffffffffffffffffffffffff1673ffffffffffffffffffffffffffffffffffffffff16815260200190815260200160002060000160009054906101000a900473ffffffffffffffffffffffffffffffffffffffff1673ffffffffffffffffffffffffffffffffffffffff1614610525576040517f08c379a000000000000000000000000000000000000000000000000000000000815260040161051c90615162565b60405180910390fd5b61052f3383613427565b61056e576040517f08c379a0000000000000000000000000000000000000000000000000000000008152600401610565906151f4565b60405180910390fd5b6105783383613557565b7fe88c41c4d37804e10d7ea8c3879578b372d9fabc7fd55f30843786e63b024bc933836040516105a9929190615214565b60405180910390a160019050919050565b60003373ffffffffffffffffffffffffffffffffffffffff16600260003373ffffffffffffffffffffffffffffffffffffffff1673ffffffffffffffffffffffffffffffffffffffff16815260200190815260200160002060010160009054906101000a900473ffffffffffffffffffffffffffffffffffffffff1673ffffffffffffffffffffffffffffffffffffffff161461068c576040517f08c379a000000000000000000000000000000000000000000000000000000000815260040161068390615289565b60405180910390fd5b8173ffffffffffffffffffffffffffffffffffffffff16600160008473ffffffffffffffffffffffffffffffffffffffff1673ffffffffffffffffffffffffffffffffffffffff16815260200190815260200160002060000160009054906101000a900473ffffffffffffffffffffffffffffffffffffffff1673ffffffffffffffffffffffffffffffffffffffff161461075c576040517f08c379a0000000000000000000000000000000000000000000000000000000008152600401610753906152f5565b60405180910390fd5b6107668233613427565b6107a5576040517f08c379a000000000000000000000000000000000000000000000000000000000815260040161079c906151f4565b60405180910390fd5b6107af8233613557565b7fd2bb631b9ffa2bf92c1b926be30d35e0753e89189734d361478d148ce3609ecd82336040516107e0929190615214565b60405180910390a160019050919050565b60003373ffffffffffffffffffffffffffffffffffffffff16600160003373ffffffffffffffffffffffffffffffffffffffff1673ffffffffffffffffffffffffffffffffffffffff16815260200190815260200160002060000160009054906101000a900473ffffffffffffffffffffffffffffffffffffffff1673ffffffffffffffffffffffffffffffffffffffff16146108c3576040517f08c379a00000000000000000000000000000000000000000000000000000000081526004016108ba90615387565b60405180910390fd5b3373ffffffffffffffffffffffffffffffffffffffff16600360008573ffffffffffffffffffffffffffffffffffffffff1673ffffffffffffffffffffffffffffffffffffffff168152602001908152602001600020600201858154811061092e5761092d6153a7565b5b906000526020600020906002020160010160009054906101000a900473ffffffffffffffffffffffffffffffffffffffff1673ffffffffffffffffffffffffffffffffffffffff16146109b6576040517f08c379a00000000000000000000000000000000000000000000000000000000081526004016109ad90615422565b60405180910390fd5b83600360008573ffffffffffffffffffffffffffffffffffffffff1673ffffffffffffffffffffffffffffffffffffffff1681526020019081526020016000206002018581548110610a0b57610a0a6153a7565b5b90600052602060002090600202016000015414610a5d576040517f08c379a0000000000000000000000000000000000000000000000000000000008152600401610a549061548e565b60405180910390fd5b600115158215151415610b705760001515610a783385613427565b15151415610b2457600160003373ffffffffffffffffffffffffffffffffffffffff1673ffffffffffffffffffffffffffffffffffffffff168152602001908152602001600020600701839080600181540180825580915050600190039060005260206000200160009091909190916101000a81548173ffffffffffffffffffffffffffffffffffffffff021916908373ffffffffffffffffffffffffffffffffffffffff1602179055505b610b2e8484611126565b7fadbe7f03a7f299dc85504c5aa657355c0e4e2f199bae0b27c64e9cc810e699a984338585604051610b6394939291906154ae565b60405180910390a1610b7b565b610b7a8484611126565b5b600190509392505050565b610b8e6145b6565b3373ffffffffffffffffffffffffffffffffffffffff16600260003373ffffffffffffffffffffffffffffffffffffffff1673ffffffffffffffffffffffffffffffffffffffff16815260200190815260200160002060010160009054906101000a900473ffffffffffffffffffffffffffffffffffffffff1673ffffffffffffffffffffffffffffffffffffffff1614610c5e576040517f08c379a0000000000000000000000000000000000000000000000000000000008152600401610c5590615289565b60405180910390fd5b600260003373ffffffffffffffffffffffffffffffffffffffff1673ffffffffffffffffffffffffffffffffffffffff168152602001908152602001600020604051806040016040529081600082018054610cb890615522565b80601f0160208091040260200160405190810160405280929190818152602001828054610ce490615522565b8015610d315780601f10610d0657610100808354040283529160200191610d31565b820191906000526020600020905b815481529060010190602001808311610d1457829003601f168201915b505050505081526020016001820160009054906101000a900473ffffffffffffffffffffffffffffffffffffffff1673ffffffffffffffffffffffffffffffffffffffff1673ffffffffffffffffffffffffffffffffffffffff1681525050905090565b60003373ffffffffffffffffffffffffffffffffffffffff16600260003373ffffffffffffffffffffffffffffffffffffffff1673ffffffffffffffffffffffffffffffffffffffff16815260200190815260200160002060010160009054906101000a900473ffffffffffffffffffffffffffffffffffffffff1673ffffffffffffffffffffffffffffffffffffffff161415610e365760019050610e3b565b600090505b90565b60003373ffffffffffffffffffffffffffffffffffffffff16600260003373ffffffffffffffffffffffffffffffffffffffff1673ffffffffffffffffffffffffffffffffffffffff16815260200190815260200160002060010160009054906101000a900473ffffffffffffffffffffffffffffffffffffffff1673ffffffffffffffffffffffffffffffffffffffff1614610f10576040517f08c379a0000000000000000000000000000000000000000000000000000000008152600401610f0790615289565b60405180910390fd5b3373ffffffffffffffffffffffffffffffffffffffff16600360003373ffffffffffffffffffffffffffffffffffffffff1673ffffffffffffffffffffffffffffffffffffffff16815260200190815260200160002060000160009054906101000a900473ffffffffffffffffffffffffffffffffffffffff1673ffffffffffffffffffffffffffffffffffffffff1614610fe0576040517f08c379a0000000000000000000000000000000000000000000000000000000008152600401610fd7906155c6565b60405180910390fd5b81600360003373ffffffffffffffffffffffffffffffffffffffff1673ffffffffffffffffffffffffffffffffffffffff1681526020019081526020016000206002018381548110611035576110346153a7565b5b90600052602060002090600202016000015414611087576040517f08c379a000000000000000000000000000000000000000000000000000000000815260040161107e90615632565b60405180910390fd5b6000600360003373ffffffffffffffffffffffffffffffffffffffff1673ffffffffffffffffffffffffffffffffffffffff16815260200190815260200160002060020183815481106110dd576110dc6153a7565b5b906000526020600020906002020160010160009054906101000a900473ffffffffffffffffffffffffffffffffffffffff16905061111c83823361375c565b6001915050919050565b8073ffffffffffffffffffffffffffffffffffffffff16600260008373ffffffffffffffffffffffffffffffffffffffff1673ffffffffffffffffffffffffffffffffffffffff16815260200190815260200160002060010160009054906101000a900473ffffffffffffffffffffffffffffffffffffffff1673ffffffffffffffffffffffffffffffffffffffff16146111f6576040517f08c379a00000000000000000000000000000000000000000000000000000000081526004016111ed906156c4565b60405180910390fd5b3373ffffffffffffffffffffffffffffffffffffffff16600360008373ffffffffffffffffffffffffffffffffffffffff1673ffffffffffffffffffffffffffffffffffffffff1681526020019081526020016000206002018381548110611261576112606153a7565b5b906000526020600020906002020160010160009054906101000a900473ffffffffffffffffffffffffffffffffffffffff1673ffffffffffffffffffffffffffffffffffffffff16146112e9576040517f08c379a00000000000000000000000000000000000000000000000000000000081526004016112e090615422565b60405180910390fd5b81600360008373ffffffffffffffffffffffffffffffffffffffff1673ffffffffffffffffffffffffffffffffffffffff168152602001908152602001600020600201838154811061133e5761133d6153a7565b5b90600052602060002090600202016000015414611390576040517f08c379a000000000000000000000000000000000000000000000000000000000815260040161138790615632565b60405180910390fd5b61139b82338361375c565b5050565b60003373ffffffffffffffffffffffffffffffffffffffff16600260003373ffffffffffffffffffffffffffffffffffffffff1673ffffffffffffffffffffffffffffffffffffffff16815260200190815260200160002060010160009054906101000a900473ffffffffffffffffffffffffffffffffffffffff1673ffffffffffffffffffffffffffffffffffffffff1614611471576040517f08c379a000000000000000000000000000000000000000000000000000000000815260040161146890615289565b60405180910390fd5b8873ffffffffffffffffffffffffffffffffffffffff16600160008b73ffffffffffffffffffffffffffffffffffffffff1673ffffffffffffffffffffffffffffffffffffffff16815260200190815260200160002060000160009054906101000a900473ffffffffffffffffffffffffffffffffffffffff1673ffffffffffffffffffffffffffffffffffffffff1614611541576040517f08c379a0000000000000000000000000000000000000000000000000000000008152600401611538906152f5565b60405180910390fd5b61154b8933613427565b61158a576040517f08c379a0000000000000000000000000000000000000000000000000000000008152600401611581906151f4565b60405180910390fd5b61159a8989898989898989613e9e565b7f0c14653fca65d1b22631a36a53bd2a7153579eb0180192d23b52babb69c2805089856040516115cb9291906156e4565b60405180910390a16001905098975050505050505050565b6115eb6145b6565b3373ffffffffffffffffffffffffffffffffffffffff1660008054906101000a900473ffffffffffffffffffffffffffffffffffffffff1673ffffffffffffffffffffffffffffffffffffffff1614611679576040517f08c379a000000000000000000000000000000000000000000000000000000000815260040161167090615759565b60405180910390fd5b8173ffffffffffffffffffffffffffffffffffffffff16600260008473ffffffffffffffffffffffffffffffffffffffff1673ffffffffffffffffffffffffffffffffffffffff16815260200190815260200160002060010160009054906101000a900473ffffffffffffffffffffffffffffffffffffffff1673ffffffffffffffffffffffffffffffffffffffff1614611749576040517f08c379a0000000000000000000000000000000000000000000000000000000008152600401611740906157c5565b60405180910390fd5b600260008373ffffffffffffffffffffffffffffffffffffffff1673ffffffffffffffffffffffffffffffffffffffff1681526020019081526020016000206040518060400160405290816000820180546117a390615522565b80601f01602080910402602001604051908101604052809291908181526020018280546117cf90615522565b801561181c5780601f106117f15761010080835404028352916020019161181c565b820191906000526020600020905b8154815290600101906020018083116117ff57829003601f168201915b505050505081526020016001820160009054906101000a900473ffffffffffffffffffffffffffffffffffffffff1673ffffffffffffffffffffffffffffffffffffffff1673ffffffffffffffffffffffffffffffffffffffff16815250509050919050565b60003373ffffffffffffffffffffffffffffffffffffffff1660008054906101000a900473ffffffffffffffffffffffffffffffffffffffff1673ffffffffffffffffffffffffffffffffffffffff1614611912576040517f08c379a000000000000000000000000000000000000000000000000000000000815260040161190990615759565b60405180910390fd5b8173ffffffffffffffffffffffffffffffffffffffff16600260008473ffffffffffffffffffffffffffffffffffffffff1673ffffffffffffffffffffffffffffffffffffffff16815260200190815260200160002060010160009054906101000a900473ffffffffffffffffffffffffffffffffffffffff1673ffffffffffffffffffffffffffffffffffffffff1614156119e3576040517f08c379a00000000000000000000000000000000000000000000000000000000081526004016119da90615831565b60405180910390fd5b60405180604001604052808481526020018373ffffffffffffffffffffffffffffffffffffffff16815250600260008473ffffffffffffffffffffffffffffffffffffffff1673ffffffffffffffffffffffffffffffffffffffff1681526020019081526020016000206000820151816000019080519060200190611a699291906145e6565b5060208201518160010160006101000a81548173ffffffffffffffffffffffffffffffffffffffff021916908373ffffffffffffffffffffffffffffffffffffffff16021790555090505081600360008473ffffffffffffffffffffffffffffffffffffffff1673ffffffffffffffffffffffffffffffffffffffff16815260200190815260200160002060000160006101000a81548173ffffffffffffffffffffffffffffffffffffffff021916908373ffffffffffffffffffffffffffffffffffffffff1602179055506000600360008473ffffffffffffffffffffffffffffffffffffffff1673ffffffffffffffffffffffffffffffffffffffff168152602001908152602001600020600101819055507f19cb05bcb9f3a5aa3801619041099231656235762a3599eed02cdcac38facd1c8383604051611bae929190615851565b60405180910390a16001905092915050565b60003373ffffffffffffffffffffffffffffffffffffffff16600260003373ffffffffffffffffffffffffffffffffffffffff1673ffffffffffffffffffffffffffffffffffffffff16815260200190815260200160002060010160009054906101000a900473ffffffffffffffffffffffffffffffffffffffff1673ffffffffffffffffffffffffffffffffffffffff1614611c92576040517f08c379a0000000000000000000000000000000000000000000000000000000008152600401611c8990615289565b60405180910390fd5b8873ffffffffffffffffffffffffffffffffffffffff16600160008b73ffffffffffffffffffffffffffffffffffffffff1673ffffffffffffffffffffffffffffffffffffffff16815260200190815260200160002060000160009054906101000a900473ffffffffffffffffffffffffffffffffffffffff1673ffffffffffffffffffffffffffffffffffffffff161415611d63576040517f08c379a0000000000000000000000000000000000000000000000000000000008152600401611d5a906158cd565b60405180910390fd5b611d738989898989898989613e9e565b611d7c89611fdf565b507f1d22f26dee56193a2da8b325a26e02b936d68be9f49c0a6f92534464aa8f2ecf8985604051611dae9291906156e4565b60405180910390a16001905098975050505050505050565b60003373ffffffffffffffffffffffffffffffffffffffff1660008054906101000a900473ffffffffffffffffffffffffffffffffffffffff1673ffffffffffffffffffffffffffffffffffffffff1614611e56576040517f08c379a0000000000000000000000000000000000000000000000000000000008152600401611e4d90615759565b60405180910390fd5b8173ffffffffffffffffffffffffffffffffffffffff16600260008473ffffffffffffffffffffffffffffffffffffffff1673ffffffffffffffffffffffffffffffffffffffff16815260200190815260200160002060010160009054906101000a900473ffffffffffffffffffffffffffffffffffffffff1673ffffffffffffffffffffffffffffffffffffffff1614611f26576040517f08c379a0000000000000000000000000000000000000000000000000000000008152600401611f1d906157c5565b60405180910390fd5b600260008373ffffffffffffffffffffffffffffffffffffffff1673ffffffffffffffffffffffffffffffffffffffff16815260200190815260200160002060008082016000611f76919061466c565b6001820160006101000a81549073ffffffffffffffffffffffffffffffffffffffff021916905550507f4630061df51c52d44a3987b904c6ff220da2cbdeff03ce8750cd14652cae0c6c82604051611fce91906150d5565b60405180910390a160019050919050565b60003373ffffffffffffffffffffffffffffffffffffffff16600260003373ffffffffffffffffffffffffffffffffffffffff1673ffffffffffffffffffffffffffffffffffffffff16815260200190815260200160002060010160009054906101000a900473ffffffffffffffffffffffffffffffffffffffff1673ffffffffffffffffffffffffffffffffffffffff16146120b1576040517f08c379a00000000000000000000000000000000000000000000000000000000081526004016120a890615289565b60405180910390fd5b8173ffffffffffffffffffffffffffffffffffffffff16600160008473ffffffffffffffffffffffffffffffffffffffff1673ffffffffffffffffffffffffffffffffffffffff16815260200190815260200160002060000160009054906101000a900473ffffffffffffffffffffffffffffffffffffffff1673ffffffffffffffffffffffffffffffffffffffff1614612181576040517f08c379a000000000000000000000000000000000000000000000000000000000815260040161217890615939565b60405180910390fd5b6000151561218f8333613427565b1515146121d1576040517f08c379a00000000000000000000000000000000000000000000000000000000081526004016121c8906159a5565b60405180910390fd5b600015156121de83614226565b151514612220576040517f08c379a000000000000000000000000000000000000000000000000000000000815260040161221790615a11565b60405180910390fd5b600360003373ffffffffffffffffffffffffffffffffffffffff1673ffffffffffffffffffffffffffffffffffffffff1681526020019081526020016000206002016040518060400160405280600360003373ffffffffffffffffffffffffffffffffffffffff1673ffffffffffffffffffffffffffffffffffffffff1681526020019081526020016000206001015481526020018473ffffffffffffffffffffffffffffffffffffffff1681525090806001815401808255809150506001900390600052602060002090600202016000909190919091506000820151816000015560208201518160010160006101000a81548173ffffffffffffffffffffffffffffffffffffffff021916908373ffffffffffffffffffffffffffffffffffffffff1602179055505050600460008373ffffffffffffffffffffffffffffffffffffffff1673ffffffffffffffffffffffffffffffffffffffff1681526020019081526020016000206000016040518060400160405280600360003373ffffffffffffffffffffffffffffffffffffffff1673ffffffffffffffffffffffffffffffffffffffff1681526020019081526020016000206001015481526020013373ffffffffffffffffffffffffffffffffffffffff1681525090806001815401808255809150506001900390600052602060002090600202016000909190919091506000820151816000015560208201518160010160006101000a81548173ffffffffffffffffffffffffffffffffffffffff021916908373ffffffffffffffffffffffffffffffffffffffff1602179055505050600360003373ffffffffffffffffffffffffffffffffffffffff1673ffffffffffffffffffffffffffffffffffffffff16815260200190815260200160002060010160008154809291906124c990615a60565b91905055507f218ec21215c511260c909dd233fc0cb1190ef18c6eba8027742533695f40eaad6001600360003373ffffffffffffffffffffffffffffffffffffffff1673ffffffffffffffffffffffffffffffffffffffff1681526020019081526020016000206001015461253e9190615aa9565b3384600060405161255294939291906154ae565b60405180910390a160019050919050565b606061256d61308b565b6125ac576040517f08c379a00000000000000000000000000000000000000000000000000000000081526004016125a390615b29565b60405180910390fd5b6000600460003373ffffffffffffffffffffffffffffffffffffffff1673ffffffffffffffffffffffffffffffffffffffff1681526020019081526020016000206000018054905067ffffffffffffffff81111561260d5761260c614a65565b5b60405190808252806020026020018201604052801561264657816020015b6126336146ac565b81526020019060019003908161262b5790505b5090506000805b600460003373ffffffffffffffffffffffffffffffffffffffff1673ffffffffffffffffffffffffffffffffffffffff168152602001908152602001600020600001805490508110156127a657600460003373ffffffffffffffffffffffffffffffffffffffff1673ffffffffffffffffffffffffffffffffffffffff16815260200190815260200160002060000181815481106126ee576126ed6153a7565b5b9060005260206000209060020201604051806040016040529081600082015481526020016001820160009054906101000a900473ffffffffffffffffffffffffffffffffffffffff1673ffffffffffffffffffffffffffffffffffffffff1673ffffffffffffffffffffffffffffffffffffffff168152505083838151811061277a576127796153a7565b5b6020026020010181905250818061279090615a60565b925050808061279e90615a60565b91505061264d565b50819250505090565b6127b76146dc565b6127bf61308b565b6127fe576040517f08c379a00000000000000000000000000000000000000000000000000000000081526004016127f590615b29565b60405180910390fd5b600160003373ffffffffffffffffffffffffffffffffffffffff1673ffffffffffffffffffffffffffffffffffffffff168152602001908152602001600020604051806101200160405290816000820160009054906101000a900473ffffffffffffffffffffffffffffffffffffffff1673ffffffffffffffffffffffffffffffffffffffff1673ffffffffffffffffffffffffffffffffffffffff1681526020016001820180546128af90615522565b80601f01602080910402602001604051908101604052809291908181526020018280546128db90615522565b80156129285780601f106128fd57610100808354040283529160200191612928565b820191906000526020600020905b81548152906001019060200180831161290b57829003601f168201915b5050505050815260200160028201805461294190615522565b80601f016020809104026020016040519081016040528092919081815260200182805461296d90615522565b80156129ba5780601f1061298f576101008083540402835291602001916129ba565b820191906000526020600020905b81548152906001019060200180831161299d57829003601f168201915b505050505081526020016003820180546129d390615522565b80601f01602080910402602001604051908101604052809291908181526020018280546129ff90615522565b8015612a4c5780601f10612a2157610100808354040283529160200191612a4c565b820191906000526020600020905b815481529060010190602001808311612a2f57829003601f168201915b50505050508152602001600482018054612a6590615522565b80601f0160208091040260200160405190810160405280929190818152602001828054612a9190615522565b8015612ade5780601f10612ab357610100808354040283529160200191612ade565b820191906000526020600020905b815481529060010190602001808311612ac157829003601f168201915b50505050508152602001600582015481526020016006820154815260200160078201805480602002602001604051908101604052809291908181526020018280548015612b8057602002820191906000526020600020905b8160009054906101000a900473ffffffffffffffffffffffffffffffffffffffff1673ffffffffffffffffffffffffffffffffffffffff1681526020019060010190808311612b36575b505050505081526020016008820160009054906101000a900460ff161515151581525050905090565b60003373ffffffffffffffffffffffffffffffffffffffff1660008054906101000a900473ffffffffffffffffffffffffffffffffffffffff1673ffffffffffffffffffffffffffffffffffffffff161415612c085760019050612c0d565b600090505b90565b6000606080606080600080612c258833613427565b612c64576040517f08c379a0000000000000000000000000000000000000000000000000000000008152600401612c5b90615b95565b60405180910390fd5b600160008973ffffffffffffffffffffffffffffffffffffffff1673ffffffffffffffffffffffffffffffffffffffff16815260200190815260200160002060080160009054906101000a900460ff16600160008a73ffffffffffffffffffffffffffffffffffffffff1673ffffffffffffffffffffffffffffffffffffffff168152602001908152602001600020600101600160008b73ffffffffffffffffffffffffffffffffffffffff1673ffffffffffffffffffffffffffffffffffffffff168152602001908152602001600020600201600160008c73ffffffffffffffffffffffffffffffffffffffff1673ffffffffffffffffffffffffffffffffffffffff168152602001908152602001600020600301600160008d73ffffffffffffffffffffffffffffffffffffffff1673ffffffffffffffffffffffffffffffffffffffff168152602001908152602001600020600401600160008e73ffffffffffffffffffffffffffffffffffffffff1673ffffffffffffffffffffffffffffffffffffffff16815260200190815260200160002060050154600160008f73ffffffffffffffffffffffffffffffffffffffff1673ffffffffffffffffffffffffffffffffffffffff16815260200190815260200160002060060154858054612e4e90615522565b80601f0160208091040260200160405190810160405280929190818152602001828054612e7a90615522565b8015612ec75780601f10612e9c57610100808354040283529160200191612ec7565b820191906000526020600020905b815481529060010190602001808311612eaa57829003601f168201915b50505050509550848054612eda90615522565b80601f0160208091040260200160405190810160405280929190818152602001828054612f0690615522565b8015612f535780601f10612f2857610100808354040283529160200191612f53565b820191906000526020600020905b815481529060010190602001808311612f3657829003601f168201915b50505050509450838054612f6690615522565b80601f0160208091040260200160405190810160405280929190818152602001828054612f9290615522565b8015612fdf5780601f10612fb457610100808354040283529160200191612fdf565b820191906000526020600020905b815481529060010190602001808311612fc257829003601f168201915b50505050509350828054612ff290615522565b80601f016020809104026020016040519081016040528092919081815260200182805461301e90615522565b801561306b5780601f106130405761010080835404028352916020019161306b565b820191906000526020600020905b81548152906001019060200180831161304e57829003601f168201915b505050505092509650965096509650965096509650919395979092949650565b60003373ffffffffffffffffffffffffffffffffffffffff16600160003373ffffffffffffffffffffffffffffffffffffffff1673ffffffffffffffffffffffffffffffffffffffff16815260200190815260200160002060000160009054906101000a900473ffffffffffffffffffffffffffffffffffffffff1673ffffffffffffffffffffffffffffffffffffffff16141561312c5760019050613131565b600090505b90565b60603373ffffffffffffffffffffffffffffffffffffffff16600260003373ffffffffffffffffffffffffffffffffffffffff1673ffffffffffffffffffffffffffffffffffffffff16815260200190815260200160002060010160009054906101000a900473ffffffffffffffffffffffffffffffffffffffff1673ffffffffffffffffffffffffffffffffffffffff1614613206576040517f08c379a00000000000000000000000000000000000000000000000000000000081526004016131fd90615289565b60405180910390fd5b6000600360003373ffffffffffffffffffffffffffffffffffffffff1673ffffffffffffffffffffffffffffffffffffffff1681526020019081526020016000206001015467ffffffffffffffff81111561326457613263614a65565b5b60405190808252806020026020018201604052801561329d57816020015b61328a6146ac565b8152602001906001900390816132825790505b5090506000805b600360003373ffffffffffffffffffffffffffffffffffffffff1673ffffffffffffffffffffffffffffffffffffffff168152602001908152602001600020600101548110156133fa57600360003373ffffffffffffffffffffffffffffffffffffffff1673ffffffffffffffffffffffffffffffffffffffff1681526020019081526020016000206002018181548110613342576133416153a7565b5b9060005260206000209060020201604051806040016040529081600082015481526020016001820160009054906101000a900473ffffffffffffffffffffffffffffffffffffffff1673ffffffffffffffffffffffffffffffffffffffff1673ffffffffffffffffffffffffffffffffffffffff16815250508383815181106133ce576133cd6153a7565b5b602002602001018190525081806133e490615a60565b92505080806133f290615a60565b9150506132a4565b50819250505090565b60008054906101000a900473ffffffffffffffffffffffffffffffffffffffff1681565b600080600090505b600160008573ffffffffffffffffffffffffffffffffffffffff1673ffffffffffffffffffffffffffffffffffffffff1681526020019081526020016000206007018054905081101561354b578273ffffffffffffffffffffffffffffffffffffffff16600160008673ffffffffffffffffffffffffffffffffffffffff1673ffffffffffffffffffffffffffffffffffffffff16815260200190815260200160002060070182815481106134e7576134e66153a7565b5b9060005260206000200160009054906101000a900473ffffffffffffffffffffffffffffffffffffffff1673ffffffffffffffffffffffffffffffffffffffff161415613538576001915050613551565b808061354390615a60565b91505061342f565b60009150505b92915050565b60006135638383614359565b9050600160008473ffffffffffffffffffffffffffffffffffffffff1673ffffffffffffffffffffffffffffffffffffffff16815260200190815260200160002060070160018060008673ffffffffffffffffffffffffffffffffffffffff1673ffffffffffffffffffffffffffffffffffffffff168152602001908152602001600020600701805490506135f89190615aa9565b81548110613609576136086153a7565b5b9060005260206000200160009054906101000a900473ffffffffffffffffffffffffffffffffffffffff16600160008573ffffffffffffffffffffffffffffffffffffffff1673ffffffffffffffffffffffffffffffffffffffff1681526020019081526020016000206007018281548110613688576136876153a7565b5b9060005260206000200160006101000a81548173ffffffffffffffffffffffffffffffffffffffff021916908373ffffffffffffffffffffffffffffffffffffffff160217905550600160008473ffffffffffffffffffffffffffffffffffffffff1673ffffffffffffffffffffffffffffffffffffffff16815260200190815260200160002060070180548061372257613721615bb5565b5b6001900381819060005260206000200160006101000a81549073ffffffffffffffffffffffffffffffffffffffff02191690559055505050565b60006137688383614484565b9050600360008373ffffffffffffffffffffffffffffffffffffffff1673ffffffffffffffffffffffffffffffffffffffff1681526020019081526020016000206002016001600360008573ffffffffffffffffffffffffffffffffffffffff1673ffffffffffffffffffffffffffffffffffffffff168152602001908152602001600020600201805490506137fe9190615aa9565b8154811061380f5761380e6153a7565b5b9060005260206000209060020201600360008473ffffffffffffffffffffffffffffffffffffffff1673ffffffffffffffffffffffffffffffffffffffff1681526020019081526020016000206002018581548110613871576138706153a7565b5b9060005260206000209060020201600082015481600001556001820160009054906101000a900473ffffffffffffffffffffffffffffffffffffffff168160010160006101000a81548173ffffffffffffffffffffffffffffffffffffffff021916908373ffffffffffffffffffffffffffffffffffffffff160217905550905050600360008373ffffffffffffffffffffffffffffffffffffffff1673ffffffffffffffffffffffffffffffffffffffff16815260200190815260200160002060020180548061394557613944615bb5565b5b60019003818190600052602060002090600202016000808201600090556001820160006101000a81549073ffffffffffffffffffffffffffffffffffffffff021916905550509055600460008473ffffffffffffffffffffffffffffffffffffffff1673ffffffffffffffffffffffffffffffffffffffff1681526020019081526020016000206000016001600460008673ffffffffffffffffffffffffffffffffffffffff1673ffffffffffffffffffffffffffffffffffffffff16815260200190815260200160002060000180549050613a219190615aa9565b81548110613a3257613a316153a7565b5b9060005260206000209060020201600460008573ffffffffffffffffffffffffffffffffffffffff1673ffffffffffffffffffffffffffffffffffffffff1681526020019081526020016000206000018281548110613a9457613a936153a7565b5b9060005260206000209060020201600082015481600001556001820160009054906101000a900473ffffffffffffffffffffffffffffffffffffffff168160010160006101000a81548173ffffffffffffffffffffffffffffffffffffffff021916908373ffffffffffffffffffffffffffffffffffffffff160217905550905050600460008473ffffffffffffffffffffffffffffffffffffffff1673ffffffffffffffffffffffffffffffffffffffff168152602001908152602001600020600001805480613b6857613b67615bb5565b5b60019003818190600052602060002090600202016000808201600090556001820160006101000a81549073ffffffffffffffffffffffffffffffffffffffff02191690555050905583600360003373ffffffffffffffffffffffffffffffffffffffff1673ffffffffffffffffffffffffffffffffffffffff1681526020019081526020016000206002018054905014158015613c4757506001600360008473ffffffffffffffffffffffffffffffffffffffff1673ffffffffffffffffffffffffffffffffffffffff16815260200190815260200160002060010154115b15613e075783600360008473ffffffffffffffffffffffffffffffffffffffff1673ffffffffffffffffffffffffffffffffffffffff1681526020019081526020016000206002018581548110613ca157613ca06153a7565b5b9060005260206000209060020201600001819055506000600360008473ffffffffffffffffffffffffffffffffffffffff1673ffffffffffffffffffffffffffffffffffffffff1681526020019081526020016000206002018581548110613d0c57613d0b6153a7565b5b906000526020600020906002020160010160009054906101000a900473ffffffffffffffffffffffffffffffffffffffff1690506000600460008373ffffffffffffffffffffffffffffffffffffffff1673ffffffffffffffffffffffffffffffffffffffff168152602001908152602001600020600001805490501115613e0557613d988184614484565b915084600460008373ffffffffffffffffffffffffffffffffffffffff1673ffffffffffffffffffffffffffffffffffffffff1681526020019081526020016000206000018381548110613def57613dee6153a7565b5b9060005260206000209060020201600001819055505b505b600360008373ffffffffffffffffffffffffffffffffffffffff1673ffffffffffffffffffffffffffffffffffffffff1681526020019081526020016000206001016000815480929190613e5a90615be4565b91905055507f5bc31e521401c7e4fbe27cc8e953ddcd66ce6cc84d810d1850450e7964029d958483604051613e90929190615c0e565b60405180910390a150505050565b6000875111613eac57600080fd5b6000865111613eba57600080fd5b6000845111613ec857600080fd5b6000855111613ed657600080fd5b87600160008a73ffffffffffffffffffffffffffffffffffffffff1673ffffffffffffffffffffffffffffffffffffffff16815260200190815260200160002060000160006101000a81548173ffffffffffffffffffffffffffffffffffffffff021916908373ffffffffffffffffffffffffffffffffffffffff16021790555086600160008a73ffffffffffffffffffffffffffffffffffffffff1673ffffffffffffffffffffffffffffffffffffffff1681526020019081526020016000206001019080519060200190613fad9291906145e6565b5085600160008a73ffffffffffffffffffffffffffffffffffffffff1673ffffffffffffffffffffffffffffffffffffffff16815260200190815260200160002060020190805190602001906140049291906145e6565b5084600160008a73ffffffffffffffffffffffffffffffffffffffff1673ffffffffffffffffffffffffffffffffffffffff168152602001908152602001600020600301908051906020019061405b9291906145e6565b5083600160008a73ffffffffffffffffffffffffffffffffffffffff1673ffffffffffffffffffffffffffffffffffffffff16815260200190815260200160002060040190805190602001906140b29291906145e6565b5082600160008a73ffffffffffffffffffffffffffffffffffffffff1673ffffffffffffffffffffffffffffffffffffffff16815260200190815260200160002060080160006101000a81548160ff02191690831515021790555081600160008a73ffffffffffffffffffffffffffffffffffffffff1673ffffffffffffffffffffffffffffffffffffffff1681526020019081526020016000206005018190555080600160008a73ffffffffffffffffffffffffffffffffffffffff1673ffffffffffffffffffffffffffffffffffffffff1681526020019081526020016000206006018190555087600460008a73ffffffffffffffffffffffffffffffffffffffff1673ffffffffffffffffffffffffffffffffffffffff16815260200190815260200160002060010160006101000a81548173ffffffffffffffffffffffffffffffffffffffff021916908373ffffffffffffffffffffffffffffffffffffffff1602179055505050505050505050565b600080600090505b600360003373ffffffffffffffffffffffffffffffffffffffff1673ffffffffffffffffffffffffffffffffffffffff1681526020019081526020016000206001015481101561434e578273ffffffffffffffffffffffffffffffffffffffff16600360003373ffffffffffffffffffffffffffffffffffffffff1673ffffffffffffffffffffffffffffffffffffffff16815260200190815260200160002060020182815481106142e3576142e26153a7565b5b906000526020600020906002020160010160009054906101000a900473ffffffffffffffffffffffffffffffffffffffff1673ffffffffffffffffffffffffffffffffffffffff16141561433b576001915050614354565b808061434690615a60565b91505061422e565b60009150505b919050565b600080600090505b600160008573ffffffffffffffffffffffffffffffffffffffff1673ffffffffffffffffffffffffffffffffffffffff1681526020019081526020016000206007018054905081101561447c578273ffffffffffffffffffffffffffffffffffffffff16600160008673ffffffffffffffffffffffffffffffffffffffff1673ffffffffffffffffffffffffffffffffffffffff1681526020019081526020016000206007018281548110614419576144186153a7565b5b9060005260206000200160009054906101000a900473ffffffffffffffffffffffffffffffffffffffff1673ffffffffffffffffffffffffffffffffffffffff161415614469578091505061447e565b808061447490615a60565b915050614361565b505b92915050565b600080600090505b600460008573ffffffffffffffffffffffffffffffffffffffff1673ffffffffffffffffffffffffffffffffffffffff168152602001908152602001600020600001805490508110156145ae578273ffffffffffffffffffffffffffffffffffffffff16600460008673ffffffffffffffffffffffffffffffffffffffff1673ffffffffffffffffffffffffffffffffffffffff1681526020019081526020016000206000018281548110614544576145436153a7565b5b906000526020600020906002020160010160009054906101000a900473ffffffffffffffffffffffffffffffffffffffff1673ffffffffffffffffffffffffffffffffffffffff16141561459b57809150506145b0565b80806145a690615a60565b91505061448c565b505b92915050565b604051806040016040528060608152602001600073ffffffffffffffffffffffffffffffffffffffff1681525090565b8280546145f290615522565b90600052602060002090601f016020900481019282614614576000855561465b565b82601f1061462d57805160ff191683800117855561465b565b8280016001018555821561465b579182015b8281111561465a57825182559160200191906001019061463f565b5b5090506146689190614740565b5090565b50805461467890615522565b6000825580601f1061468a57506146a9565b601f0160209004906000526020600020908101906146a89190614740565b5b50565b604051806040016040528060008152602001600073ffffffffffffffffffffffffffffffffffffffff1681525090565b604051806101200160405280600073ffffffffffffffffffffffffffffffffffffffff168152602001606081526020016060815260200160608152602001606081526020016000815260200160008152602001606081526020016000151581525090565b5b80821115614759576000816000905550600101614741565b5090565b6000604051905090565b600080fd5b600080fd5b600073ffffffffffffffffffffffffffffffffffffffff82169050919050565b600061479c82614771565b9050919050565b6147ac81614791565b81146147b757600080fd5b50565b6000813590506147c9816147a3565b92915050565b6000602082840312156147e5576147e4614767565b5b60006147f3848285016147ba565b91505092915050565b60008115159050919050565b614811816147fc565b82525050565b600060208201905061482c6000830184614808565b92915050565b6000819050919050565b61484581614832565b811461485057600080fd5b50565b6000813590506148628161483c565b92915050565b614871816147fc565b811461487c57600080fd5b50565b60008135905061488e81614868565b92915050565b6000806000606084860312156148ad576148ac614767565b5b60006148bb86828701614853565b93505060206148cc868287016147ba565b92505060406148dd8682870161487f565b9150509250925092565b600081519050919050565b600082825260208201905092915050565b60005b83811015614921578082015181840152602081019050614906565b83811115614930576000848401525b50505050565b6000601f19601f8301169050919050565b6000614952826148e7565b61495c81856148f2565b935061496c818560208601614903565b61497581614936565b840191505092915050565b61498981614791565b82525050565b600060408301600083015184820360008601526149ac8282614947565b91505060208301516149c16020860182614980565b508091505092915050565b600060208201905081810360008301526149e6818461498f565b905092915050565b600060208284031215614a0457614a03614767565b5b6000614a1284828501614853565b91505092915050565b60008060408385031215614a3257614a31614767565b5b6000614a4085828601614853565b9250506020614a51858286016147ba565b9150509250929050565b600080fd5b600080fd5b7f4e487b7100000000000000000000000000000000000000000000000000000000600052604160045260246000fd5b614a9d82614936565b810181811067ffffffffffffffff82111715614abc57614abb614a65565b5b80604052505050565b6000614acf61475d565b9050614adb8282614a94565b919050565b600067ffffffffffffffff821115614afb57614afa614a65565b5b614b0482614936565b9050602081019050919050565b82818337600083830152505050565b6000614b33614b2e84614ae0565b614ac5565b905082815260208101848484011115614b4f57614b4e614a60565b5b614b5a848285614b11565b509392505050565b600082601f830112614b7757614b76614a5b565b5b8135614b87848260208601614b20565b91505092915050565b600080600080600080600080610100898b031215614bb157614bb0614767565b5b6000614bbf8b828c016147ba565b985050602089013567ffffffffffffffff811115614be057614bdf61476c565b5b614bec8b828c01614b62565b975050604089013567ffffffffffffffff811115614c0d57614c0c61476c565b5b614c198b828c01614b62565b965050606089013567ffffffffffffffff811115614c3a57614c3961476c565b5b614c468b828c01614b62565b955050608089013567ffffffffffffffff811115614c6757614c6661476c565b5b614c738b828c01614b62565b94505060a0614c848b828c0161487f565b93505060c0614c958b828c01614853565b92505060e0614ca68b828c01614853565b9150509295985092959890939650565b60008060408385031215614ccd57614ccc614767565b5b600083013567ffffffffffffffff811115614ceb57614cea61476c565b5b614cf785828601614b62565b9250506020614d08858286016147ba565b9150509250929050565b600081519050919050565b600082825260208201905092915050565b6000819050602082019050919050565b614d4781614832565b82525050565b604082016000820151614d636000850182614d3e565b506020820151614d766020850182614980565b50505050565b6000614d888383614d4d565b60408301905092915050565b6000602082019050919050565b6000614dac82614d12565b614db68185614d1d565b9350614dc183614d2e565b8060005b83811015614df2578151614dd98882614d7c565b9750614de483614d94565b925050600181019050614dc5565b5085935050505092915050565b60006020820190508181036000830152614e198184614da1565b905092915050565b600081519050919050565b600082825260208201905092915050565b6000819050602082019050919050565b6000614e598383614980565b60208301905092915050565b6000602082019050919050565b6000614e7d82614e21565b614e878185614e2c565b9350614e9283614e3d565b8060005b83811015614ec3578151614eaa8882614e4d565b9750614eb583614e65565b925050600181019050614e96565b5085935050505092915050565b614ed9816147fc565b82525050565b600061012083016000830151614ef86000860182614980565b5060208301518482036020860152614f108282614947565b91505060408301518482036040860152614f2a8282614947565b91505060608301518482036060860152614f448282614947565b91505060808301518482036080860152614f5e8282614947565b91505060a0830151614f7360a0860182614d3e565b5060c0830151614f8660c0860182614d3e565b5060e083015184820360e0860152614f9e8282614e72565b915050610100830151614fb5610100860182614ed0565b508091505092915050565b60006020820190508181036000830152614fda8184614edf565b905092915050565b600082825260208201905092915050565b6000614ffe826148e7565b6150088185614fe2565b9350615018818560208601614903565b61502181614936565b840191505092915050565b61503581614832565b82525050565b600060e082019050615050600083018a614808565b81810360208301526150628189614ff3565b905081810360408301526150768188614ff3565b9050818103606083015261508a8187614ff3565b9050818103608083015261509e8186614ff3565b90506150ad60a083018561502c565b6150ba60c083018461502c565b98975050505050505050565b6150cf81614791565b82525050565b60006020820190506150ea60008301846150c6565b92915050565b7f596f7520646f6e74206861766520617574686f7269747920746f207265766f6b60008201527f6520616363657373000000000000000000000000000000000000000000000000602082015250565b600061514c602883614fe2565b9150615157826150f0565b604082019050919050565b6000602082019050818103600083015261517b8161513f565b9050919050565b7f596f7520646f6e7420686176652061636365737320746f20746869732075736560008201527f7200000000000000000000000000000000000000000000000000000000000000602082015250565b60006151de602183614fe2565b91506151e982615182565b604082019050919050565b6000602082019050818103600083015261520d816151d1565b9050919050565b600060408201905061522960008301856150c6565b61523660208301846150c6565b9392505050565b7f4f7267206e6f7420657869737400000000000000000000000000000000000000600082015250565b6000615273600d83614fe2565b915061527e8261523d565b602082019050919050565b600060208201905081810360008301526152a281615266565b9050919050565b7f5573657220646f65736e27742065786973740000000000000000000000000000600082015250565b60006152df601283614fe2565b91506152ea826152a9565b602082019050919050565b6000602082019050818103600083015261530e816152d2565b9050919050565b7f596f7520646f6e74206861766520617574686f7269747920746f20676976652060008201527f6163636573730000000000000000000000000000000000000000000000000000602082015250565b6000615371602683614fe2565b915061537c82615315565b604082019050919050565b600060208201905081810360008301526153a081615364565b9050919050565b7f4e487b7100000000000000000000000000000000000000000000000000000000600052603260045260246000fd5b7f55736572206e6f742076616c6964000000000000000000000000000000000000600082015250565b600061540c600e83614fe2565b9150615417826153d6565b602082019050919050565b6000602082019050818103600083015261543b816153ff565b9050919050565b7f5265717565737473206e6f7420666f756e640000000000000000000000000000600082015250565b6000615478601283614fe2565b915061548382615442565b602082019050919050565b600060208201905081810360008301526154a78161546b565b9050919050565b60006080820190506154c3600083018761502c565b6154d060208301866150c6565b6154dd60408301856150c6565b6154ea6060830184614808565b95945050505050565b7f4e487b7100000000000000000000000000000000000000000000000000000000600052602260045260246000fd5b6000600282049050600182168061553a57607f821691505b6020821081141561554e5761554d6154f3565b5b50919050565b7f596f7520646f6e74206861766520617574686f7269747920746f2064656c657460008201527f6500000000000000000000000000000000000000000000000000000000000000602082015250565b60006155b0602183614fe2565b91506155bb82615554565b604082019050919050565b600060208201905081810360008301526155df816155a3565b9050919050565b7f5265717565737420646f65736e74206578697374000000000000000000000000600082015250565b600061561c601483614fe2565b9150615627826155e6565b602082019050919050565b6000602082019050818103600083015261564b8161560f565b9050919050565b7f5468697320706172746963756c6172206f7267616e697a6174696f6e7320646f60008201527f65736e7420657869737400000000000000000000000000000000000000000000602082015250565b60006156ae602a83614fe2565b91506156b982615652565b604082019050919050565b600060208201905081810360008301526156dd816156a1565b9050919050565b60006040820190506156f960008301856150c6565b6157066020830184614808565b9392505050565b7f41646d696e206f6e6c7900000000000000000000000000000000000000000000600082015250565b6000615743600a83614fe2565b915061574e8261570d565b602082019050919050565b6000602082019050818103600083015261577281615736565b9050919050565b7f4f726720646f65736e7420657869737400000000000000000000000000000000600082015250565b60006157af601083614fe2565b91506157ba82615779565b602082019050919050565b600060208201905081810360008301526157de816157a2565b9050919050565b7f4f726720616c7265616479206164646564000000000000000000000000000000600082015250565b600061581b601183614fe2565b9150615826826157e5565b602082019050919050565b6000602082019050818103600083015261584a8161580e565b9050919050565b6000604082019050818103600083015261586b8185614ff3565b905061587a60208301846150c6565b9392505050565b7f5573657220616c72656164792065786973747300000000000000000000000000600082015250565b60006158b7601383614fe2565b91506158c282615881565b602082019050919050565b600060208201905081810360008301526158e6816158aa565b9050919050565b7f437573746f6d657220646f65736e742065786973747300000000000000000000600082015250565b6000615923601683614fe2565b915061592e826158ed565b602082019050919050565b6000602082019050818103600083015261595281615916565b9050919050565b7f416c726561647920686176652061636365737300000000000000000000000000600082015250565b600061598f601383614fe2565b915061599a82615959565b602082019050919050565b600060208201905081810360008301526159be81615982565b9050919050565b7f5265717565737420416c72656164792045786973747300000000000000000000600082015250565b60006159fb601683614fe2565b9150615a06826159c5565b602082019050919050565b60006020820190508181036000830152615a2a816159ee565b9050919050565b7f4e487b7100000000000000000000000000000000000000000000000000000000600052601160045260246000fd5b6000615a6b82614832565b91507fffffffffffffffffffffffffffffffffffffffffffffffffffffffffffffffff821415615a9e57615a9d615a31565b5b600182019050919050565b6000615ab482614832565b9150615abf83614832565b925082821015615ad257615ad1615a31565b5b828203905092915050565b7f437573746f6d6572206e6f742076616c69640000000000000000000000000000600082015250565b6000615b13601283614fe2565b9150615b1e82615add565b602082019050919050565b60006020820190508181036000830152615b4281615b06565b9050919050565b7f55736572206861736e7420676976656e20746865697220636f6e73656e740000600082015250565b6000615b7f601e83614fe2565b9150615b8a82615b49565b602082019050919050565b60006020820190508181036000830152615bae81615b72565b9050919050565b7f4e487b7100000000000000000000000000000000000000000000000000000000600052603160045260246000fd5b6000615bef82614832565b91506000821415615c0357615c02615a31565b5b600182039050919050565b6000604082019050615c23600083018561502c565b615c3060208301846150c6565b939250505056fea26469706673582212200b5b8e468fd715d2f2697d282e8ed6c612cca7b4f2984be4b110fe9658a8392c64736f6c634300080a0033",
  "immutableReferences": {},
  "source": "// SPDX-License-Identifier: MIT\r\npragma solidity >=0.4.22 <0.9.0;\r\n\r\ncontract Kyc {\r\n  address public admin;\r\n  struct Customer {\r\n      address custAddress;\r\n      string jsonHash;\r\n      string photoHash;\r\n      string citizenship_front_hash;\r\n      string citizenship_back_hash;\r\n      uint d;\r\n      uint n;\r\n      address[] organization;\r\n      bool kycStatus;\r\n  }\r\n\r\n  struct Organization {\r\n      string name;\r\n      address ethAddress;\r\n  }\r\n\r\n  struct kycRequest{\r\n      address ethAddress;\r\n      uint req_count;\r\n      kycRequestList[] kycrequestlist;\r\n  }\r\n  \r\n  struct kycRequestList{\r\n      uint req_count;\r\n      address Address;\r\n  }\r\n  \r\n  struct kycRequestCust{\r\n      kycRequestList[] kycrequestlist;\r\n      address custAddress;\r\n  }\r\n\r\n  constructor()  {\r\n      admin = msg.sender;\r\n  }\r\n\r\n  mapping(address => Customer) customers;\r\n  mapping(address => Organization) organizations;\r\n  mapping(address => kycRequest) kycrequestsbyorg;\r\n  mapping(address => kycRequestCust) kycrequestsbycust;\r\n\r\n  event orgAdded(string name,address ethAddress);\r\n  event orgRemoved(address ethAddress);\r\n  event customerAdded(address custAddress,bool kycStatus);\r\n  event customerUpdated(address custAddress,bool kycStatus);\r\n  event requestAdded(uint reqid,address ethAddress, address custAddress,bool isAllowed);\r\n  event requestRemoved(uint reqid,address ethAddress);\r\n  event accessGiven(uint reqid,address custAddress,address ethAddress,bool isAllowed);\r\n  event accessRevoked(address custAddress,address ethAddress);\r\n  event kycRemoved(address custAddress,address ethAddress);\r\n\r\n// Checks whether the requestor is admin\r\n  modifier isAdmin {\r\n      require(\r\n          admin == msg.sender,\r\n          \"Admin only\"\r\n      );\r\n      _;\r\n  }\r\n\r\n// Checks wheter the org exists or not\r\n  modifier isOrgValid {\r\n      require(\r\n          organizations[msg.sender].ethAddress == msg.sender,\r\n          \"Org not exist\"    \r\n      );\r\n      _;\r\n  }\r\n\r\n//Check if Org has access to the user KYC\r\n  function findOrg(address _custaddress,address ethAddress) internal view returns(bool){\r\n      uint i = 0;\r\n          for(i;i<customers[_custaddress].organization.length;i++){\r\n              if(customers[_custaddress].organization[i]==ethAddress){\r\n                  return true;\r\n              }\r\n          }\r\n          return false;\r\n  }\r\n\r\n//Find the index of Org in KYC.organization array\r\n  function findOrgIndex(address _custaddress,address ethAddress) internal view returns(uint){\r\n      uint i = 0;\r\n      for(i;i<customers[_custaddress].organization.length;i++){\r\n            if(customers[_custaddress].organization[i]==ethAddress){\r\n                return i;\r\n            }\r\n    }\r\n  }\r\n  \r\n  function findRequestIndex(address _custaddress,address _ethAddress) internal view returns(uint){\r\n      uint i = 0;\r\n      for(i;i<kycrequestsbycust[_custaddress].kycrequestlist.length;i++){\r\n            if(kycrequestsbycust[_custaddress].kycrequestlist[i].Address==_ethAddress){\r\n                return i;\r\n            }\r\n    }\r\n  }\r\n\r\n//Check if request exist \r\n  function findRequest(address _custaddress) internal view returns(bool){\r\n      uint i=0;\r\n      for(i;i<kycrequestsbyorg[msg.sender].req_count;i++){\r\n          if(kycrequestsbyorg[msg.sender].kycrequestlist[i].Address==_custaddress){\r\n              return true;\r\n          }\r\n      }\r\n      return false;\r\n  }\r\n\r\n//Add organization ONLY BY ADMIN\r\n  function addOrg(string memory _name,address _ethAddress) public isAdmin returns(bool) {\r\n      require(organizations[_ethAddress].ethAddress!=_ethAddress,\"Org already added\");\r\n      organizations[_ethAddress]=Organization(_name,_ethAddress);\r\n      kycrequestsbyorg[_ethAddress].ethAddress=_ethAddress;\r\n      kycrequestsbyorg[_ethAddress].req_count=0;\r\n      emit orgAdded(_name,_ethAddress);\r\n      return true;\r\n  }\r\n\r\n//Remove Organization ONLY BY ADMIN \r\n  function removeOrg(address _ethAddress) public isAdmin returns(bool) {\r\n      require(organizations[_ethAddress].ethAddress==_ethAddress,\"Org doesnt exist\");\r\n      delete organizations[_ethAddress];\r\n      emit orgRemoved(_ethAddress);\r\n      return true;\r\n  }\r\n\r\n//Return Organization Info if it exists  \r\n  function viewOrg(address _ethAddress)public isAdmin view returns(Organization memory){\r\n      require(organizations[_ethAddress].ethAddress==_ethAddress,\"Org doesnt exist\");\r\n      return organizations[_ethAddress];\r\n  }\r\n\r\n  function getYourOrgDetail() public isOrgValid view returns(Organization memory){\r\n    return organizations[msg.sender];\r\n  }\r\n\r\n  function validOrg() public view returns(bool){\r\n    if(organizations[msg.sender].ethAddress==msg.sender){\r\n      return true;\r\n    }\r\n    else{\r\n      return false;\r\n    }\r\n  }\r\n  function validAdmin() public view returns(bool){\r\n    if(admin==msg.sender){\r\n      return true;\r\n    }\r\n    else{\r\n      return false;\r\n    }\r\n  }\r\n  function validCust() public view returns(bool){\r\n    if(customers[msg.sender].custAddress==msg.sender){\r\n      return true;\r\n    }\r\n    else{\r\n      return false;\r\n    }\r\n  }\r\n\r\n  function writeKYC(\r\n    address _custaddress,\r\n    string memory _jsonHash,\r\n    string memory _photohash,\r\n    string memory _citizenship_front_hash,\r\n    string memory _citizenship_back_hash,\r\n    bool _kycStatus,\r\n    uint _d,\r\n    uint _n) internal {\r\n      require(bytes(_jsonHash).length > 0);\r\n      require(bytes(_photohash).length > 0);\r\n      require(bytes(_citizenship_back_hash).length > 0);\r\n      require(bytes(_citizenship_front_hash).length > 0);\r\n      customers[_custaddress].custAddress=_custaddress;\r\n      customers[_custaddress].jsonHash=_jsonHash;\r\n      customers[_custaddress].photoHash=_photohash;\r\n      customers[_custaddress].citizenship_front_hash=_citizenship_front_hash;\r\n      customers[_custaddress].citizenship_back_hash=_citizenship_back_hash;\r\n      customers[_custaddress].kycStatus=_kycStatus;\r\n      customers[_custaddress].d=_d;\r\n      customers[_custaddress].n=_n;\r\n      kycrequestsbycust[_custaddress].custAddress=_custaddress;\r\n  }\r\n\r\n//Register User KYC by registered Orgs\r\n  function registerKYC(\r\n    address _custaddress,\r\n    string memory _jsonHash,\r\n    string memory _photohash,\r\n    string memory _citizenship_front_hash,\r\n    string memory _citizenship_back_hash,\r\n    bool _kycStatus,\r\n    uint _d,\r\n    uint _n) public isOrgValid returns(bool){\r\n      require(customers[_custaddress].custAddress!=_custaddress,\"User already exists\");\r\n      writeKYC(_custaddress,_jsonHash,_photohash,_citizenship_front_hash,_citizenship_back_hash,_kycStatus,_d,_n);\r\n      requestKYC(_custaddress);\r\n      emit customerAdded(_custaddress,_kycStatus);\r\n      return true;\r\n  }\r\n\r\n//View User KYC by Authorized Orgs  \r\n  function viewKYC(address _custaddress) public view \r\n  returns(\r\n    bool,\r\n    string memory,\r\n    string memory,\r\n    string memory,\r\n    string memory,\r\n    uint,\r\n    uint)\r\n  {\r\n      require(findOrg(_custaddress,msg.sender),\"User hasnt given their consent\");\r\n      return(customers[_custaddress].kycStatus,customers[_custaddress].jsonHash,customers[_custaddress].photoHash,customers[_custaddress].citizenship_front_hash,customers[_custaddress].citizenship_back_hash,customers[_custaddress].d,customers[_custaddress].n);\r\n  }\r\n  \r\n  function viewYourKYC() public view returns(Customer memory){\r\n      require(validCust(),'Customer not valid');\r\n      return customers[msg.sender];\r\n  }\r\n  \r\n  function viewRequestCust() public view returns(kycRequestList[] memory){\r\n      require(validCust(),'Customer not valid');\r\n      kycRequestList[] memory ret =  new kycRequestList[](kycrequestsbycust[msg.sender].kycrequestlist.length);\r\n      uint j = 0;\r\n        for (uint i = 0; i < kycrequestsbycust[msg.sender].kycrequestlist.length; i++) {\r\n            ret[j] = kycrequestsbycust[msg.sender].kycrequestlist[i];\r\n            j++;\r\n                \r\n        }\r\n    return (ret);\r\n  }\r\n\r\n//Update User KYC by registered and authorized orgs\r\n  function updateKYC(\r\n    address _custaddress,\r\n    string memory _jsonHash,\r\n    string memory _photohash,\r\n    string memory _citizenship_front_hash,\r\n    string memory _citizenship_back_hash,\r\n    bool _kycStatus,\r\n    uint _d,\r\n    uint _n) public isOrgValid returns(bool){\r\n      require(customers[_custaddress].custAddress==_custaddress,\"User doesn't exist\");\r\n      require(findOrg(_custaddress,msg.sender),\"You dont have access to this user\");\r\n      writeKYC(_custaddress,_jsonHash,_photohash,_citizenship_front_hash,_citizenship_back_hash,_kycStatus,_d,_n);\r\n      emit customerUpdated(_custaddress,_kycStatus);\r\n      return true;\r\n  }\r\n\r\n//Request User KYC by Orgs  \r\n  function requestKYC(address _custaddress) public isOrgValid returns(bool){\r\n      require(customers[_custaddress].custAddress==_custaddress,\"Customer doesnt exists\");\r\n      require(findOrg(_custaddress,msg.sender)==false,\"Already have access\");\r\n      require(findRequest(_custaddress)==false,\"Request Already Exists\");\r\n      kycrequestsbyorg[msg.sender].kycrequestlist.push(kycRequestList(kycrequestsbyorg[msg.sender].req_count,_custaddress));\r\n      kycrequestsbycust[_custaddress].kycrequestlist.push(kycRequestList(kycrequestsbyorg[msg.sender].req_count,msg.sender));\r\n      kycrequestsbyorg[msg.sender].req_count++;\r\n      emit requestAdded(kycrequestsbyorg[msg.sender].req_count-1,msg.sender,_custaddress,false);\r\n      return true;\r\n  }\r\n  \r\n  function deleteRequest(uint _reqcount,address _custaddress,address _ethAddress) internal{\r\n    uint index = findRequestIndex(_custaddress,_ethAddress);\r\n    kycrequestsbyorg[_ethAddress].kycrequestlist[_reqcount]=kycrequestsbyorg[_ethAddress].kycrequestlist[kycrequestsbyorg[_ethAddress].kycrequestlist.length-1];\r\n    kycrequestsbyorg[_ethAddress].kycrequestlist.pop();\r\n    kycrequestsbycust[_custaddress].kycrequestlist[index]=kycrequestsbycust[_custaddress].kycrequestlist[kycrequestsbycust[_custaddress].kycrequestlist.length-1];\r\n    kycrequestsbycust[_custaddress].kycrequestlist.pop();\r\n    if(kycrequestsbyorg[msg.sender].kycrequestlist.length!=_reqcount && kycrequestsbyorg[_ethAddress].req_count>1){\r\n        kycrequestsbyorg[_ethAddress].kycrequestlist[_reqcount].req_count=_reqcount;\r\n        address add = kycrequestsbyorg[_ethAddress].kycrequestlist[_reqcount].Address;\r\n        if(kycrequestsbycust[add].kycrequestlist.length>0){\r\n            index = findRequestIndex(add, _ethAddress);\r\n            kycrequestsbycust[add].kycrequestlist[index].req_count=_reqcount;\r\n        }\r\n        \r\n     }\r\n    kycrequestsbyorg[_ethAddress].req_count--;\r\n    emit requestRemoved(_reqcount,_ethAddress);\r\n  }\r\n\r\n//Delete User KYC request by organization\r\n  function deleteRequestOrg(uint _reqcount) public isOrgValid returns(bool){\r\n    require(kycrequestsbyorg[msg.sender].ethAddress==msg.sender,\"You dont have authority to delete\");\r\n    require(kycrequestsbyorg[msg.sender].kycrequestlist[_reqcount].req_count==_reqcount,\"Request doesnt exist\");\r\n    address _custaddress = kycrequestsbyorg[msg.sender].kycrequestlist[_reqcount].Address;\r\n    deleteRequest(_reqcount,_custaddress,msg.sender);\r\n    return true;\r\n  }\r\n\r\n//Delete User KYC Request after user provides access \r\n  function deleteRequestCust(uint _reqcount,address _ethAddress) public{\r\n      require(organizations[_ethAddress].ethAddress==_ethAddress,\"This particular organizations doesnt exist\");\r\n      require(kycrequestsbyorg[_ethAddress].kycrequestlist[_reqcount].Address==msg.sender,\"User not valid\");\r\n      require(kycrequestsbyorg[_ethAddress].kycrequestlist[_reqcount].req_count==_reqcount,\"Request doesnt exist\");\r\n      deleteRequest(_reqcount,msg.sender,_ethAddress);\r\n  }\r\n\r\n\r\n\r\n//Return Array of all pending request of the orgs\r\n  function listRequest() public isOrgValid view returns(kycRequestList[] memory){\r\n      kycRequestList[] memory ret =  new kycRequestList[](kycrequestsbyorg[msg.sender].req_count);\r\n      uint j = 0;\r\n        for (uint i = 0; i < kycrequestsbyorg[msg.sender].req_count; i++) {\r\n            ret[j] = kycrequestsbyorg[msg.sender].kycrequestlist[i];\r\n            j++;\r\n                \r\n        }\r\n    return (ret);\r\n  }\r\n\r\n//Give User KYC access to Org\r\n  function giveAccessKYC(uint _reqcount,address _ethAddress,bool _isAllowed) public returns(bool){\r\n      require(customers[msg.sender].custAddress==msg.sender,\"You dont have authority to give access\");\r\n      require(kycrequestsbyorg[_ethAddress].kycrequestlist[_reqcount].Address==msg.sender,\"User not valid\");\r\n      require(kycrequestsbyorg[_ethAddress].kycrequestlist[_reqcount].req_count==_reqcount,\"Requests not found\");\r\n      if(_isAllowed == true){\r\n          if(findOrg(msg.sender,_ethAddress) == false){\r\n              customers[msg.sender].organization.push(_ethAddress);\r\n          }\r\n          deleteRequestCust(_reqcount,_ethAddress);\r\n          emit accessGiven(_reqcount,msg.sender,_ethAddress,_isAllowed);\r\n      }\r\n      else{\r\n          deleteRequestCust(_reqcount,_ethAddress);\r\n      }\r\n      return true;\r\n      \r\n  }\r\n  \r\n  function remove(address _custaddress,address _ethAddress) internal {\r\n      uint i=findOrgIndex(_custaddress,_ethAddress);\r\n      customers[_custaddress].organization[i]=customers[_custaddress].organization[customers[_custaddress].organization.length-1];\r\n      customers[_custaddress].organization.pop();\r\n  }\r\n\r\n//Revoke User KYC access of Orgs\r\n  function revokeAccessKYC(address _ethAddress) public returns(bool){\r\n      require(customers[msg.sender].custAddress==msg.sender,\"You dont have authority to revoke access\");\r\n      require(findOrg(msg.sender,_ethAddress),\"You dont have access to this user\");\r\n      remove(msg.sender,_ethAddress);\r\n      emit accessRevoked(msg.sender,_ethAddress);\r\n      return true;\r\n  }\r\n\r\n//Remove User KYC by Orgs  \r\n  function removeKYC(address _custaddress) public isOrgValid returns (bool){\r\n      require(customers[_custaddress].custAddress==_custaddress,\"User doesn't exist\");\r\n      require(findOrg(_custaddress,msg.sender),\"You dont have access to this user\");\r\n      remove(_custaddress,msg.sender);\r\n      emit kycRemoved(_custaddress,msg.sender);\r\n      return true;\r\n  }\r\n  \r\n}\r\n",
  "sourcePath": "C:\\Users\\pemba\\Documents\\BlockChain\\kyc_blockchain\\contracts\\Kyc.sol",
  "compiler": {
    "name": "solc",
    "version": "0.8.10+commit.fc410830.Emscripten.clang"
  },
  "schemaVersion": "3.4.3",
  "updatedAt": "2021-11-17T11:19:35.279Z",
  "networkType": "ethereum",
  "devdoc": {
    "kind": "dev",
    "methods": {},
    "version": 1
  },
  "userdoc": {
    "kind": "user",
    "methods": {},
    "version": 1
  }
}