{
  "contractName": "Kyc",
  "abi": [
    {
      "inputs": [],
      "stateMutability": "nonpayable",
      "type": "constructor"
    },
    {
      "anonymous": false,
      "inputs": [
        {
          "indexed": false,
          "internalType": "uint256",
          "name": "reqid",
          "type": "uint256"
        },
        {
          "indexed": false,
          "internalType": "address",
          "name": "custAddress",
          "type": "address"
        },
        {
          "indexed": false,
          "internalType": "address",
          "name": "ethAddress",
          "type": "address"
        },
        {
          "indexed": false,
          "internalType": "bool",
          "name": "isAllowed",
          "type": "bool"
        }
      ],
      "name": "accessGiven",
      "type": "event"
    },
    {
      "anonymous": false,
      "inputs": [
        {
          "indexed": false,
          "internalType": "address",
          "name": "custAddress",
          "type": "address"
        },
        {
          "indexed": false,
          "internalType": "address",
          "name": "ethAddress",
          "type": "address"
        }
      ],
      "name": "accessRevoked",
      "type": "event"
    },
    {
      "anonymous": false,
      "inputs": [
        {
          "indexed": false,
          "internalType": "address",
          "name": "custAddress",
          "type": "address"
        },
        {
          "indexed": false,
          "internalType": "bool",
          "name": "kycStatus",
          "type": "bool"
        }
      ],
      "name": "customerAdded",
      "type": "event"
    },
    {
      "anonymous": false,
      "inputs": [
        {
          "indexed": false,
          "internalType": "address",
          "name": "custAddress",
          "type": "address"
        },
        {
          "indexed": false,
          "internalType": "bool",
          "name": "kycStatus",
          "type": "bool"
        }
      ],
      "name": "customerUpdated",
      "type": "event"
    },
    {
      "anonymous": false,
      "inputs": [
        {
          "indexed": false,
          "internalType": "address",
          "name": "custAddress",
          "type": "address"
        },
        {
          "indexed": false,
          "internalType": "address",
          "name": "ethAddress",
          "type": "address"
        }
      ],
      "name": "kycRemoved",
      "type": "event"
    },
    {
      "anonymous": false,
      "inputs": [
        {
          "indexed": false,
          "internalType": "string",
          "name": "name",
          "type": "string"
        },
        {
          "indexed": false,
          "internalType": "address",
          "name": "ethAddress",
          "type": "address"
        }
      ],
      "name": "orgAdded",
      "type": "event"
    },
    {
      "anonymous": false,
      "inputs": [
        {
          "indexed": false,
          "internalType": "address",
          "name": "ethAddress",
          "type": "address"
        }
      ],
      "name": "orgRemoved",
      "type": "event"
    },
    {
      "anonymous": false,
      "inputs": [
        {
          "indexed": false,
          "internalType": "uint256",
          "name": "reqid",
          "type": "uint256"
        },
        {
          "indexed": false,
          "internalType": "address",
          "name": "ethAddress",
          "type": "address"
        },
        {
          "indexed": false,
          "internalType": "address",
          "name": "custAddress",
          "type": "address"
        },
        {
          "indexed": false,
          "internalType": "bool",
          "name": "isAllowed",
          "type": "bool"
        }
      ],
      "name": "requestAdded",
      "type": "event"
    },
    {
      "anonymous": false,
      "inputs": [
        {
          "indexed": false,
          "internalType": "uint256",
          "name": "reqid",
          "type": "uint256"
        },
        {
          "indexed": false,
          "internalType": "address",
          "name": "ethAddress",
          "type": "address"
        }
      ],
      "name": "requestRemoved",
      "type": "event"
    },
    {
      "inputs": [],
      "name": "admin",
      "outputs": [
        {
          "internalType": "address",
          "name": "",
          "type": "address"
        }
      ],
      "stateMutability": "view",
      "type": "function"
    },
    {
      "inputs": [
        {
          "internalType": "string",
          "name": "_name",
          "type": "string"
        },
        {
          "internalType": "address",
          "name": "_ethAddress",
          "type": "address"
        }
      ],
      "name": "addOrg",
      "outputs": [
        {
          "internalType": "bool",
          "name": "",
          "type": "bool"
        }
      ],
      "stateMutability": "nonpayable",
      "type": "function"
    },
    {
      "inputs": [
        {
          "internalType": "address",
          "name": "_ethAddress",
          "type": "address"
        }
      ],
      "name": "removeOrg",
      "outputs": [
        {
          "internalType": "bool",
          "name": "",
          "type": "bool"
        }
      ],
      "stateMutability": "nonpayable",
      "type": "function"
    },
    {
      "inputs": [
        {
          "internalType": "address",
          "name": "_ethAddress",
          "type": "address"
        }
      ],
      "name": "viewOrg",
      "outputs": [
        {
          "components": [
            {
              "internalType": "string",
              "name": "name",
              "type": "string"
            },
            {
              "internalType": "address",
              "name": "ethAddress",
              "type": "address"
            }
          ],
          "internalType": "struct Kyc.Organization",
          "name": "",
          "type": "tuple"
        }
      ],
      "stateMutability": "view",
      "type": "function"
    },
    {
      "inputs": [],
      "name": "getYourOrgDetail",
      "outputs": [
        {
          "components": [
            {
              "internalType": "string",
              "name": "name",
              "type": "string"
            },
            {
              "internalType": "address",
              "name": "ethAddress",
              "type": "address"
            }
          ],
          "internalType": "struct Kyc.Organization",
          "name": "",
          "type": "tuple"
        }
      ],
      "stateMutability": "view",
      "type": "function"
    },
    {
      "inputs": [],
      "name": "validOrg",
      "outputs": [
        {
          "internalType": "bool",
          "name": "",
          "type": "bool"
        }
      ],
      "stateMutability": "view",
      "type": "function"
    },
    {
      "inputs": [],
      "name": "validAdmin",
      "outputs": [
        {
          "internalType": "bool",
          "name": "",
          "type": "bool"
        }
      ],
      "stateMutability": "view",
      "type": "function"
    },
    {
      "inputs": [],
      "name": "validCust",
      "outputs": [
        {
          "internalType": "bool",
          "name": "",
          "type": "bool"
        }
      ],
      "stateMutability": "view",
      "type": "function"
    },
    {
      "inputs": [
        {
          "internalType": "address",
          "name": "_custaddress",
          "type": "address"
        },
        {
          "internalType": "string",
          "name": "_jsonHash",
          "type": "string"
        },
        {
          "internalType": "string",
          "name": "_photohash",
          "type": "string"
        },
        {
          "internalType": "string",
          "name": "_citizenship_front_hash",
          "type": "string"
        },
        {
          "internalType": "string",
          "name": "_citizenship_back_hash",
          "type": "string"
        },
        {
          "internalType": "bool",
          "name": "_kycStatus",
          "type": "bool"
        }
      ],
      "name": "registerKYC",
      "outputs": [
        {
          "internalType": "bool",
          "name": "",
          "type": "bool"
        }
      ],
      "stateMutability": "payable",
      "type": "function"
    },
    {
      "inputs": [
        {
          "internalType": "address",
          "name": "_custaddress",
          "type": "address"
        }
      ],
      "name": "viewKYC",
      "outputs": [
        {
          "internalType": "address",
          "name": "",
          "type": "address"
        },
        {
          "internalType": "string",
          "name": "",
          "type": "string"
        },
        {
          "internalType": "string",
          "name": "",
          "type": "string"
        },
        {
          "internalType": "bool",
          "name": "",
          "type": "bool"
        },
        {
          "internalType": "string",
          "name": "",
          "type": "string"
        },
        {
          "internalType": "string",
          "name": "",
          "type": "string"
        }
      ],
      "stateMutability": "view",
      "type": "function"
    },
    {
      "inputs": [],
      "name": "viewYourKYC",
      "outputs": [
        {
          "components": [
            {
              "internalType": "address",
              "name": "custAddress",
              "type": "address"
            },
            {
              "internalType": "string",
              "name": "jsonHash",
              "type": "string"
            },
            {
              "internalType": "string",
              "name": "photoHash",
              "type": "string"
            },
            {
              "internalType": "string",
              "name": "citizenship_front_hash",
              "type": "string"
            },
            {
              "internalType": "string",
              "name": "citizenship_back_hash",
              "type": "string"
            },
            {
              "internalType": "address[]",
              "name": "organization",
              "type": "address[]"
            },
            {
              "internalType": "bool",
              "name": "kycStatus",
              "type": "bool"
            }
          ],
          "internalType": "struct Kyc.Customer",
          "name": "",
          "type": "tuple"
        }
      ],
      "stateMutability": "view",
      "type": "function"
    },
    {
      "inputs": [],
      "name": "viewRequestCust",
      "outputs": [
        {
          "components": [
            {
              "internalType": "uint256",
              "name": "req_count",
              "type": "uint256"
            },
            {
              "internalType": "address",
              "name": "Address",
              "type": "address"
            }
          ],
          "internalType": "struct Kyc.kycRequestList[]",
          "name": "",
          "type": "tuple[]"
        }
      ],
      "stateMutability": "view",
      "type": "function"
    },
    {
      "inputs": [
        {
          "internalType": "address",
          "name": "_custaddress",
          "type": "address"
        },
        {
          "internalType": "string",
          "name": "_jsonHash",
          "type": "string"
        },
        {
          "internalType": "string",
          "name": "_photohash",
          "type": "string"
        },
        {
          "internalType": "string",
          "name": "_citizenship_front_hash",
          "type": "string"
        },
        {
          "internalType": "string",
          "name": "_citizenship_back_hash",
          "type": "string"
        },
        {
          "internalType": "bool",
          "name": "_kycStatus",
          "type": "bool"
        }
      ],
      "name": "updateKYC",
      "outputs": [
        {
          "internalType": "bool",
          "name": "",
          "type": "bool"
        }
      ],
      "stateMutability": "nonpayable",
      "type": "function"
    },
    {
      "inputs": [
        {
          "internalType": "address",
          "name": "_custaddress",
          "type": "address"
        }
      ],
      "name": "requestKYC",
      "outputs": [
        {
          "internalType": "bool",
          "name": "",
          "type": "bool"
        }
      ],
      "stateMutability": "nonpayable",
      "type": "function"
    },
    {
      "inputs": [
        {
          "internalType": "uint256",
          "name": "_reqcount",
          "type": "uint256"
        }
      ],
      "name": "deleteRequestOrg",
      "outputs": [
        {
          "internalType": "bool",
          "name": "",
          "type": "bool"
        }
      ],
      "stateMutability": "nonpayable",
      "type": "function"
    },
    {
      "inputs": [
        {
          "internalType": "uint256",
          "name": "_reqcount",
          "type": "uint256"
        },
        {
          "internalType": "address",
          "name": "_ethAddress",
          "type": "address"
        }
      ],
      "name": "deleteRequestCust",
      "outputs": [],
      "stateMutability": "nonpayable",
      "type": "function"
    },
    {
      "inputs": [],
      "name": "listRequest",
      "outputs": [
        {
          "components": [
            {
              "internalType": "uint256",
              "name": "req_count",
              "type": "uint256"
            },
            {
              "internalType": "address",
              "name": "Address",
              "type": "address"
            }
          ],
          "internalType": "struct Kyc.kycRequestList[]",
          "name": "",
          "type": "tuple[]"
        }
      ],
      "stateMutability": "view",
      "type": "function"
    },
    {
      "inputs": [
        {
          "internalType": "uint256",
          "name": "_reqcount",
          "type": "uint256"
        },
        {
          "internalType": "address",
          "name": "_ethAddress",
          "type": "address"
        },
        {
          "internalType": "bool",
          "name": "_isAllowed",
          "type": "bool"
        }
      ],
      "name": "giveAccessKYC",
      "outputs": [
        {
          "internalType": "bool",
          "name": "",
          "type": "bool"
        }
      ],
      "stateMutability": "nonpayable",
      "type": "function"
    },
    {
      "inputs": [
        {
          "internalType": "address",
          "name": "_ethAddress",
          "type": "address"
        }
      ],
      "name": "revokeAccessKYC",
      "outputs": [
        {
          "internalType": "bool",
          "name": "",
          "type": "bool"
        }
      ],
      "stateMutability": "nonpayable",
      "type": "function"
    },
    {
      "inputs": [
        {
          "internalType": "address",
          "name": "_custaddress",
          "type": "address"
        }
      ],
      "name": "removeKYC",
      "outputs": [
        {
          "internalType": "bool",
          "name": "",
          "type": "bool"
        }
      ],
      "stateMutability": "nonpayable",
      "type": "function"
    }
  ],
  "bytecode": "0x608060405234801561001057600080fd5b50336000806101000a81548173ffffffffffffffffffffffffffffffffffffffff021916908373ffffffffffffffffffffffffffffffffffffffff160217905550615ae480620000616000396000f3fe60806040526004361061011f5760003560e01c8063b7e4a42d116100a0578063d9b18f0411610064578063d9b18f0414610449578063e1b2dbe81461048b578063f3a9b588146104b6578063f851a440146104e1578063fbe7772e1461050c5761011f565b8063b7e4a42d1461034e578063c10cebe61461038b578063ca1cbcc2146103c8578063ceacabd5146103f3578063d6bbbf841461041e5761011f565b806354291824116100e757806354291824146102315780637042d70c1461026e57806388c4ce5414610297578063a1ac9e57146102d4578063b72b8b7f146103115761011f565b806306e5d4d114610124578063243f6b58146101615780632a539a221461019e57806332722a25146101db5780634f4b4f7814610206575b600080fd5b34801561013057600080fd5b5061014b600480360381019061014691906146e3565b61053c565b6040516101589190614faa565b60405180910390f35b34801561016d57600080fd5b50610188600480360381019061018391906146e3565b6106a3565b6040516101959190614faa565b60405180910390f35b3480156101aa57600080fd5b506101c560048036038101906101c091906148d6565b6108da565b6040516101d29190614faa565b60405180910390f35b3480156101e757600080fd5b506101f0610c6f565b6040516101fd9190615277565b60405180910390f35b34801561021257600080fd5b5061021b610e7e565b6040516102289190614faa565b60405180910390f35b34801561023d57600080fd5b5061025860048036038101906102539190614869565b610f27565b6040516102659190614faa565b60405180910390f35b34801561027a57600080fd5b5061029560048036038101906102909190614896565b61120f565b005b3480156102a357600080fd5b506102be60048036038101906102b991906146e3565b611488565b6040516102cb9190615277565b60405180910390f35b3480156102e057600080fd5b506102fb60048036038101906102f6919061480d565b611699565b6040516103089190614faa565b60405180910390f35b34801561031d57600080fd5b5061033860048036038101906103339190614710565b6119d7565b6040516103459190614faa565b60405180910390f35b34801561035a57600080fd5b50610375600480360381019061037091906146e3565b611c17565b6040516103829190614faa565b60405180910390f35b34801561039757600080fd5b506103b260048036038101906103ad91906146e3565b611e30565b6040516103bf9190614faa565b60405180910390f35b3480156103d457600080fd5b506103dd6123b4565b6040516103ea9190614f88565b60405180910390f35b3480156103ff57600080fd5b50610408612600565b6040516104159190615255565b60405180910390f35b34801561042a57600080fd5b506104336129e5565b6040516104409190614faa565b60405180910390f35b34801561045557600080fd5b50610470600480360381019061046b91906146e3565b612a4c565b60405161048296959493929190614f0b565b60405180910390f35b34801561049757600080fd5b506104a0612e9f565b6040516104ad9190614faa565b60405180910390f35b3480156104c257600080fd5b506104cb612f48565b6040516104d89190614f88565b60405180910390f35b3480156104ed57600080fd5b506104f6613217565b6040516105039190614e9e565b60405180910390f35b61052660048036038101906105219190614710565b61323b565b6040516105339190614faa565b60405180910390f35b60003373ffffffffffffffffffffffffffffffffffffffff16600160003373ffffffffffffffffffffffffffffffffffffffff1673ffffffffffffffffffffffffffffffffffffffff16815260200190815260200160002060000160009054906101000a900473ffffffffffffffffffffffffffffffffffffffff1673ffffffffffffffffffffffffffffffffffffffff161461060e576040517f08c379a000000000000000000000000000000000000000000000000000000000815260040161060590614ff5565b60405180910390fd5b610618338361343d565b610657576040517f08c379a000000000000000000000000000000000000000000000000000000000815260040161064e90615055565b60405180910390fd5b610661338361356d565b7fe88c41c4d37804e10d7ea8c3879578b372d9fabc7fd55f30843786e63b024bc93383604051610692929190614eb9565b60405180910390a160019050919050565b60003373ffffffffffffffffffffffffffffffffffffffff16600260003373ffffffffffffffffffffffffffffffffffffffff1673ffffffffffffffffffffffffffffffffffffffff16815260200190815260200160002060010160009054906101000a900473ffffffffffffffffffffffffffffffffffffffff1673ffffffffffffffffffffffffffffffffffffffff1614610775576040517f08c379a000000000000000000000000000000000000000000000000000000000815260040161076c906151b5565b60405180910390fd5b8173ffffffffffffffffffffffffffffffffffffffff16600160008473ffffffffffffffffffffffffffffffffffffffff1673ffffffffffffffffffffffffffffffffffffffff16815260200190815260200160002060000160009054906101000a900473ffffffffffffffffffffffffffffffffffffffff1673ffffffffffffffffffffffffffffffffffffffff1614610845576040517f08c379a000000000000000000000000000000000000000000000000000000000815260040161083c906151f5565b60405180910390fd5b61084f823361343d565b61088e576040517f08c379a000000000000000000000000000000000000000000000000000000000815260040161088590615055565b60405180910390fd5b610898823361356d565b7fd2bb631b9ffa2bf92c1b926be30d35e0753e89189734d361478d148ce3609ecd82336040516108c9929190614eb9565b60405180910390a160019050919050565b60003373ffffffffffffffffffffffffffffffffffffffff16600160003373ffffffffffffffffffffffffffffffffffffffff1673ffffffffffffffffffffffffffffffffffffffff16815260200190815260200160002060000160009054906101000a900473ffffffffffffffffffffffffffffffffffffffff1673ffffffffffffffffffffffffffffffffffffffff16146109ac576040517f08c379a00000000000000000000000000000000000000000000000000000000081526004016109a390615175565b60405180910390fd5b3373ffffffffffffffffffffffffffffffffffffffff16600360008573ffffffffffffffffffffffffffffffffffffffff1673ffffffffffffffffffffffffffffffffffffffff1681526020019081526020016000206002018581548110610a1757610a1661561d565b5b906000526020600020906002020160010160009054906101000a900473ffffffffffffffffffffffffffffffffffffffff1673ffffffffffffffffffffffffffffffffffffffff1614610a9f576040517f08c379a0000000000000000000000000000000000000000000000000000000008152600401610a9690615015565b60405180910390fd5b83600360008573ffffffffffffffffffffffffffffffffffffffff1673ffffffffffffffffffffffffffffffffffffffff1681526020019081526020016000206002018581548110610af457610af361561d565b5b90600052602060002090600202016000015414610b46576040517f08c379a0000000000000000000000000000000000000000000000000000000008152600401610b3d906150f5565b60405180910390fd5b600115158215151415610c595760001515610b61338561343d565b15151415610c0d57600160003373ffffffffffffffffffffffffffffffffffffffff1673ffffffffffffffffffffffffffffffffffffffff168152602001908152602001600020600501839080600181540180825580915050600190039060005260206000200160009091909190916101000a81548173ffffffffffffffffffffffffffffffffffffffff021916908373ffffffffffffffffffffffffffffffffffffffff1602179055505b610c17848461120f565b7fadbe7f03a7f299dc85504c5aa657355c0e4e2f199bae0b27c64e9cc810e699a984338585604051610c4c94939291906152c2565b60405180910390a1610c64565b610c63848461120f565b5b600190509392505050565b610c7761449c565b3373ffffffffffffffffffffffffffffffffffffffff16600260003373ffffffffffffffffffffffffffffffffffffffff1673ffffffffffffffffffffffffffffffffffffffff16815260200190815260200160002060010160009054906101000a900473ffffffffffffffffffffffffffffffffffffffff1673ffffffffffffffffffffffffffffffffffffffff1614610d47576040517f08c379a0000000000000000000000000000000000000000000000000000000008152600401610d3e906151b5565b60405180910390fd5b600260003373ffffffffffffffffffffffffffffffffffffffff1673ffffffffffffffffffffffffffffffffffffffff168152602001908152602001600020604051806040016040529081600082018054610da1906154e4565b80601f0160208091040260200160405190810160405280929190818152602001828054610dcd906154e4565b8015610e1a5780601f10610def57610100808354040283529160200191610e1a565b820191906000526020600020905b815481529060010190602001808311610dfd57829003601f168201915b505050505081526020016001820160009054906101000a900473ffffffffffffffffffffffffffffffffffffffff1673ffffffffffffffffffffffffffffffffffffffff1673ffffffffffffffffffffffffffffffffffffffff1681525050905090565b60003373ffffffffffffffffffffffffffffffffffffffff16600260003373ffffffffffffffffffffffffffffffffffffffff1673ffffffffffffffffffffffffffffffffffffffff16815260200190815260200160002060010160009054906101000a900473ffffffffffffffffffffffffffffffffffffffff1673ffffffffffffffffffffffffffffffffffffffff161415610f1f5760019050610f24565b600090505b90565b60003373ffffffffffffffffffffffffffffffffffffffff16600260003373ffffffffffffffffffffffffffffffffffffffff1673ffffffffffffffffffffffffffffffffffffffff16815260200190815260200160002060010160009054906101000a900473ffffffffffffffffffffffffffffffffffffffff1673ffffffffffffffffffffffffffffffffffffffff1614610ff9576040517f08c379a0000000000000000000000000000000000000000000000000000000008152600401610ff0906151b5565b60405180910390fd5b3373ffffffffffffffffffffffffffffffffffffffff16600360003373ffffffffffffffffffffffffffffffffffffffff1673ffffffffffffffffffffffffffffffffffffffff16815260200190815260200160002060000160009054906101000a900473ffffffffffffffffffffffffffffffffffffffff1673ffffffffffffffffffffffffffffffffffffffff16146110c9576040517f08c379a00000000000000000000000000000000000000000000000000000000081526004016110c090615215565b60405180910390fd5b81600360003373ffffffffffffffffffffffffffffffffffffffff1673ffffffffffffffffffffffffffffffffffffffff168152602001908152602001600020600201838154811061111e5761111d61561d565b5b90600052602060002090600202016000015414611170576040517f08c379a000000000000000000000000000000000000000000000000000000000815260040161116790615035565b60405180910390fd5b6000600360003373ffffffffffffffffffffffffffffffffffffffff1673ffffffffffffffffffffffffffffffffffffffff16815260200190815260200160002060020183815481106111c6576111c561561d565b5b906000526020600020906002020160010160009054906101000a900473ffffffffffffffffffffffffffffffffffffffff169050611205838233613772565b6001915050919050565b8073ffffffffffffffffffffffffffffffffffffffff16600260008373ffffffffffffffffffffffffffffffffffffffff1673ffffffffffffffffffffffffffffffffffffffff16815260200190815260200160002060010160009054906101000a900473ffffffffffffffffffffffffffffffffffffffff1673ffffffffffffffffffffffffffffffffffffffff16146112df576040517f08c379a00000000000000000000000000000000000000000000000000000000081526004016112d690615075565b60405180910390fd5b3373ffffffffffffffffffffffffffffffffffffffff16600360008373ffffffffffffffffffffffffffffffffffffffff1673ffffffffffffffffffffffffffffffffffffffff168152602001908152602001600020600201838154811061134a5761134961561d565b5b906000526020600020906002020160010160009054906101000a900473ffffffffffffffffffffffffffffffffffffffff1673ffffffffffffffffffffffffffffffffffffffff16146113d2576040517f08c379a00000000000000000000000000000000000000000000000000000000081526004016113c990615015565b60405180910390fd5b81600360008373ffffffffffffffffffffffffffffffffffffffff1673ffffffffffffffffffffffffffffffffffffffff16815260200190815260200160002060020183815481106114275761142661561d565b5b90600052602060002090600202016000015414611479576040517f08c379a000000000000000000000000000000000000000000000000000000000815260040161147090615035565b60405180910390fd5b611484823383613772565b5050565b61149061449c565b8173ffffffffffffffffffffffffffffffffffffffff16600260008473ffffffffffffffffffffffffffffffffffffffff1673ffffffffffffffffffffffffffffffffffffffff16815260200190815260200160002060010160009054906101000a900473ffffffffffffffffffffffffffffffffffffffff1673ffffffffffffffffffffffffffffffffffffffff1614611560576040517f08c379a000000000000000000000000000000000000000000000000000000000815260040161155790615195565b60405180910390fd5b600260008373ffffffffffffffffffffffffffffffffffffffff1673ffffffffffffffffffffffffffffffffffffffff1681526020019081526020016000206040518060400160405290816000820180546115ba906154e4565b80601f01602080910402602001604051908101604052809291908181526020018280546115e6906154e4565b80156116335780601f1061160857610100808354040283529160200191611633565b820191906000526020600020905b81548152906001019060200180831161161657829003601f168201915b505050505081526020016001820160009054906101000a900473ffffffffffffffffffffffffffffffffffffffff1673ffffffffffffffffffffffffffffffffffffffff1673ffffffffffffffffffffffffffffffffffffffff16815250509050919050565b60003373ffffffffffffffffffffffffffffffffffffffff1660008054906101000a900473ffffffffffffffffffffffffffffffffffffffff1673ffffffffffffffffffffffffffffffffffffffff1614611729576040517f08c379a000000000000000000000000000000000000000000000000000000000815260040161172090615235565b60405180910390fd5b8173ffffffffffffffffffffffffffffffffffffffff16600260008473ffffffffffffffffffffffffffffffffffffffff1673ffffffffffffffffffffffffffffffffffffffff16815260200190815260200160002060010160009054906101000a900473ffffffffffffffffffffffffffffffffffffffff1673ffffffffffffffffffffffffffffffffffffffff1614156117fa576040517f08c379a00000000000000000000000000000000000000000000000000000000081526004016117f190615115565b60405180910390fd5b60405180604001604052808481526020018373ffffffffffffffffffffffffffffffffffffffff16815250600260008473ffffffffffffffffffffffffffffffffffffffff1673ffffffffffffffffffffffffffffffffffffffff16815260200190815260200160002060008201518160000190805190602001906118809291906144cc565b5060208201518160010160006101000a81548173ffffffffffffffffffffffffffffffffffffffff021916908373ffffffffffffffffffffffffffffffffffffffff16021790555090505081600360008473ffffffffffffffffffffffffffffffffffffffff1673ffffffffffffffffffffffffffffffffffffffff16815260200190815260200160002060000160006101000a81548173ffffffffffffffffffffffffffffffffffffffff021916908373ffffffffffffffffffffffffffffffffffffffff1602179055506000600360008473ffffffffffffffffffffffffffffffffffffffff1673ffffffffffffffffffffffffffffffffffffffff168152602001908152602001600020600101819055507f19cb05bcb9f3a5aa3801619041099231656235762a3599eed02cdcac38facd1c83836040516119c5929190614fc5565b60405180910390a16001905092915050565b60003373ffffffffffffffffffffffffffffffffffffffff16600260003373ffffffffffffffffffffffffffffffffffffffff1673ffffffffffffffffffffffffffffffffffffffff16815260200190815260200160002060010160009054906101000a900473ffffffffffffffffffffffffffffffffffffffff1673ffffffffffffffffffffffffffffffffffffffff1614611aa9576040517f08c379a0000000000000000000000000000000000000000000000000000000008152600401611aa0906151b5565b60405180910390fd5b8673ffffffffffffffffffffffffffffffffffffffff16600160008973ffffffffffffffffffffffffffffffffffffffff1673ffffffffffffffffffffffffffffffffffffffff16815260200190815260200160002060000160009054906101000a900473ffffffffffffffffffffffffffffffffffffffff1673ffffffffffffffffffffffffffffffffffffffff1614611b79576040517f08c379a0000000000000000000000000000000000000000000000000000000008152600401611b70906151f5565b60405180910390fd5b611b83873361343d565b611bc2576040517f08c379a0000000000000000000000000000000000000000000000000000000008152600401611bb990615055565b60405180910390fd5b611bd0878787878787613e14565b7f0c14653fca65d1b22631a36a53bd2a7153579eb0180192d23b52babb69c280508783604051611c01929190614ee2565b60405180910390a1600190509695505050505050565b60003373ffffffffffffffffffffffffffffffffffffffff1660008054906101000a900473ffffffffffffffffffffffffffffffffffffffff1673ffffffffffffffffffffffffffffffffffffffff1614611ca7576040517f08c379a0000000000000000000000000000000000000000000000000000000008152600401611c9e90615235565b60405180910390fd5b8173ffffffffffffffffffffffffffffffffffffffff16600260008473ffffffffffffffffffffffffffffffffffffffff1673ffffffffffffffffffffffffffffffffffffffff16815260200190815260200160002060010160009054906101000a900473ffffffffffffffffffffffffffffffffffffffff1673ffffffffffffffffffffffffffffffffffffffff1614611d77576040517f08c379a0000000000000000000000000000000000000000000000000000000008152600401611d6e90615195565b60405180910390fd5b600260008373ffffffffffffffffffffffffffffffffffffffff1673ffffffffffffffffffffffffffffffffffffffff16815260200190815260200160002060008082016000611dc79190614552565b6001820160006101000a81549073ffffffffffffffffffffffffffffffffffffffff021916905550507f4630061df51c52d44a3987b904c6ff220da2cbdeff03ce8750cd14652cae0c6c82604051611e1f9190614e9e565b60405180910390a160019050919050565b60003373ffffffffffffffffffffffffffffffffffffffff16600260003373ffffffffffffffffffffffffffffffffffffffff1673ffffffffffffffffffffffffffffffffffffffff16815260200190815260200160002060010160009054906101000a900473ffffffffffffffffffffffffffffffffffffffff1673ffffffffffffffffffffffffffffffffffffffff1614611f02576040517f08c379a0000000000000000000000000000000000000000000000000000000008152600401611ef9906151b5565b60405180910390fd5b8173ffffffffffffffffffffffffffffffffffffffff16600160008473ffffffffffffffffffffffffffffffffffffffff1673ffffffffffffffffffffffffffffffffffffffff16815260200190815260200160002060000160009054906101000a900473ffffffffffffffffffffffffffffffffffffffff1673ffffffffffffffffffffffffffffffffffffffff1614611fd2576040517f08c379a0000000000000000000000000000000000000000000000000000000008152600401611fc9906150d5565b60405180910390fd5b60001515611fe0833361343d565b151514612022576040517f08c379a0000000000000000000000000000000000000000000000000000000008152600401612019906151d5565b60405180910390fd5b6000151561202f8361410c565b151514612071576040517f08c379a000000000000000000000000000000000000000000000000000000000815260040161206890615155565b60405180910390fd5b600360003373ffffffffffffffffffffffffffffffffffffffff1673ffffffffffffffffffffffffffffffffffffffff1681526020019081526020016000206002016040518060400160405280600360003373ffffffffffffffffffffffffffffffffffffffff1673ffffffffffffffffffffffffffffffffffffffff1681526020019081526020016000206001015481526020018473ffffffffffffffffffffffffffffffffffffffff1681525090806001815401808255809150506001900390600052602060002090600202016000909190919091506000820151816000015560208201518160010160006101000a81548173ffffffffffffffffffffffffffffffffffffffff021916908373ffffffffffffffffffffffffffffffffffffffff1602179055505050600460008373ffffffffffffffffffffffffffffffffffffffff1673ffffffffffffffffffffffffffffffffffffffff1681526020019081526020016000206000016040518060400160405280600360003373ffffffffffffffffffffffffffffffffffffffff1673ffffffffffffffffffffffffffffffffffffffff1681526020019081526020016000206001015481526020013373ffffffffffffffffffffffffffffffffffffffff1681525090806001815401808255809150506001900390600052602060002090600202016000909190919091506000820151816000015560208201518160010160006101000a81548173ffffffffffffffffffffffffffffffffffffffff021916908373ffffffffffffffffffffffffffffffffffffffff1602179055505050600360003373ffffffffffffffffffffffffffffffffffffffff1673ffffffffffffffffffffffffffffffffffffffff168152602001908152602001600020600101600081548092919061231a90615547565b91905055507f218ec21215c511260c909dd233fc0cb1190ef18c6eba8027742533695f40eaad6001600360003373ffffffffffffffffffffffffffffffffffffffff1673ffffffffffffffffffffffffffffffffffffffff1681526020019081526020016000206001015461238f91906153fc565b338460006040516123a394939291906152c2565b60405180910390a160019050919050565b60606123be612e9f565b6123fd576040517f08c379a00000000000000000000000000000000000000000000000000000000081526004016123f4906150b5565b60405180910390fd5b6000600460003373ffffffffffffffffffffffffffffffffffffffff1673ffffffffffffffffffffffffffffffffffffffff1681526020019081526020016000206000018054905067ffffffffffffffff81111561245e5761245d61564c565b5b60405190808252806020026020018201604052801561249757816020015b612484614592565b81526020019060019003908161247c5790505b5090506000805b600460003373ffffffffffffffffffffffffffffffffffffffff1673ffffffffffffffffffffffffffffffffffffffff168152602001908152602001600020600001805490508110156125f757600460003373ffffffffffffffffffffffffffffffffffffffff1673ffffffffffffffffffffffffffffffffffffffff168152602001908152602001600020600001818154811061253f5761253e61561d565b5b9060005260206000209060020201604051806040016040529081600082015481526020016001820160009054906101000a900473ffffffffffffffffffffffffffffffffffffffff1673ffffffffffffffffffffffffffffffffffffffff1673ffffffffffffffffffffffffffffffffffffffff16815250508383815181106125cb576125ca61561d565b5b602002602001018190525081806125e190615547565b92505080806125ef90615547565b91505061249e565b50819250505090565b6126086145c2565b612610612e9f565b61264f576040517f08c379a0000000000000000000000000000000000000000000000000000000008152600401612646906150b5565b60405180910390fd5b600160003373ffffffffffffffffffffffffffffffffffffffff1673ffffffffffffffffffffffffffffffffffffffff1681526020019081526020016000206040518060e00160405290816000820160009054906101000a900473ffffffffffffffffffffffffffffffffffffffff1673ffffffffffffffffffffffffffffffffffffffff1673ffffffffffffffffffffffffffffffffffffffff1681526020016001820180546126ff906154e4565b80601f016020809104026020016040519081016040528092919081815260200182805461272b906154e4565b80156127785780601f1061274d57610100808354040283529160200191612778565b820191906000526020600020905b81548152906001019060200180831161275b57829003601f168201915b50505050508152602001600282018054612791906154e4565b80601f01602080910402602001604051908101604052809291908181526020018280546127bd906154e4565b801561280a5780601f106127df5761010080835404028352916020019161280a565b820191906000526020600020905b8154815290600101906020018083116127ed57829003601f168201915b50505050508152602001600382018054612823906154e4565b80601f016020809104026020016040519081016040528092919081815260200182805461284f906154e4565b801561289c5780601f106128715761010080835404028352916020019161289c565b820191906000526020600020905b81548152906001019060200180831161287f57829003601f168201915b505050505081526020016004820180546128b5906154e4565b80601f01602080910402602001604051908101604052809291908181526020018280546128e1906154e4565b801561292e5780601f106129035761010080835404028352916020019161292e565b820191906000526020600020905b81548152906001019060200180831161291157829003601f168201915b50505050508152602001600582018054806020026020016040519081016040528092919081815260200182805480156129bc57602002820191906000526020600020905b8160009054906101000a900473ffffffffffffffffffffffffffffffffffffffff1673ffffffffffffffffffffffffffffffffffffffff1681526020019060010190808311612972575b505050505081526020016006820160009054906101000a900460ff161515151581525050905090565b60003373ffffffffffffffffffffffffffffffffffffffff1660008054906101000a900473ffffffffffffffffffffffffffffffffffffffff1673ffffffffffffffffffffffffffffffffffffffff161415612a445760019050612a49565b600090505b90565b60006060806000606080612a60873361343d565b612a9f576040517f08c379a0000000000000000000000000000000000000000000000000000000008152600401612a9690615095565b60405180910390fd5b600160008873ffffffffffffffffffffffffffffffffffffffff1673ffffffffffffffffffffffffffffffffffffffff16815260200190815260200160002060000160009054906101000a900473ffffffffffffffffffffffffffffffffffffffff16600160008973ffffffffffffffffffffffffffffffffffffffff1673ffffffffffffffffffffffffffffffffffffffff168152602001908152602001600020600101600160008a73ffffffffffffffffffffffffffffffffffffffff1673ffffffffffffffffffffffffffffffffffffffff168152602001908152602001600020600201600160008b73ffffffffffffffffffffffffffffffffffffffff1673ffffffffffffffffffffffffffffffffffffffff16815260200190815260200160002060060160009054906101000a900460ff16600160008c73ffffffffffffffffffffffffffffffffffffffff1673ffffffffffffffffffffffffffffffffffffffff168152602001908152602001600020600301600160008d73ffffffffffffffffffffffffffffffffffffffff1673ffffffffffffffffffffffffffffffffffffffff168152602001908152602001600020600401848054612c66906154e4565b80601f0160208091040260200160405190810160405280929190818152602001828054612c92906154e4565b8015612cdf5780601f10612cb457610100808354040283529160200191612cdf565b820191906000526020600020905b815481529060010190602001808311612cc257829003601f168201915b50505050509450838054612cf2906154e4565b80601f0160208091040260200160405190810160405280929190818152602001828054612d1e906154e4565b8015612d6b5780601f10612d4057610100808354040283529160200191612d6b565b820191906000526020600020905b815481529060010190602001808311612d4e57829003601f168201915b50505050509350818054612d7e906154e4565b80601f0160208091040260200160405190810160405280929190818152602001828054612daa906154e4565b8015612df75780601f10612dcc57610100808354040283529160200191612df7565b820191906000526020600020905b815481529060010190602001808311612dda57829003601f168201915b50505050509150808054612e0a906154e4565b80601f0160208091040260200160405190810160405280929190818152602001828054612e36906154e4565b8015612e835780601f10612e5857610100808354040283529160200191612e83565b820191906000526020600020905b815481529060010190602001808311612e6657829003601f168201915b5050505050905095509550955095509550955091939550919395565b60003373ffffffffffffffffffffffffffffffffffffffff16600160003373ffffffffffffffffffffffffffffffffffffffff1673ffffffffffffffffffffffffffffffffffffffff16815260200190815260200160002060000160009054906101000a900473ffffffffffffffffffffffffffffffffffffffff1673ffffffffffffffffffffffffffffffffffffffff161415612f405760019050612f45565b600090505b90565b60603373ffffffffffffffffffffffffffffffffffffffff16600260003373ffffffffffffffffffffffffffffffffffffffff1673ffffffffffffffffffffffffffffffffffffffff16815260200190815260200160002060010160009054906101000a900473ffffffffffffffffffffffffffffffffffffffff1673ffffffffffffffffffffffffffffffffffffffff161461301a576040517f08c379a0000000000000000000000000000000000000000000000000000000008152600401613011906151b5565b60405180910390fd5b6000600360003373ffffffffffffffffffffffffffffffffffffffff1673ffffffffffffffffffffffffffffffffffffffff1681526020019081526020016000206001015467ffffffffffffffff8111156130785761307761564c565b5b6040519080825280602002602001820160405280156130b157816020015b61309e614592565b8152602001906001900390816130965790505b5090506000805b600360003373ffffffffffffffffffffffffffffffffffffffff1673ffffffffffffffffffffffffffffffffffffffff1681526020019081526020016000206001015481101561320e57600360003373ffffffffffffffffffffffffffffffffffffffff1673ffffffffffffffffffffffffffffffffffffffff16815260200190815260200160002060020181815481106131565761315561561d565b5b9060005260206000209060020201604051806040016040529081600082015481526020016001820160009054906101000a900473ffffffffffffffffffffffffffffffffffffffff1673ffffffffffffffffffffffffffffffffffffffff1673ffffffffffffffffffffffffffffffffffffffff16815250508383815181106131e2576131e161561d565b5b602002602001018190525081806131f890615547565b925050808061320690615547565b9150506130b8565b50819250505090565b60008054906101000a900473ffffffffffffffffffffffffffffffffffffffff1681565b60003373ffffffffffffffffffffffffffffffffffffffff16600260003373ffffffffffffffffffffffffffffffffffffffff1673ffffffffffffffffffffffffffffffffffffffff16815260200190815260200160002060010160009054906101000a900473ffffffffffffffffffffffffffffffffffffffff1673ffffffffffffffffffffffffffffffffffffffff161461330d576040517f08c379a0000000000000000000000000000000000000000000000000000000008152600401613304906151b5565b60405180910390fd5b8673ffffffffffffffffffffffffffffffffffffffff16600160008973ffffffffffffffffffffffffffffffffffffffff1673ffffffffffffffffffffffffffffffffffffffff16815260200190815260200160002060000160009054906101000a900473ffffffffffffffffffffffffffffffffffffffff1673ffffffffffffffffffffffffffffffffffffffff1614156133de576040517f08c379a00000000000000000000000000000000000000000000000000000000081526004016133d590615135565b60405180910390fd5b6133ec878787878787613e14565b6133f587611e30565b507f1d22f26dee56193a2da8b325a26e02b936d68be9f49c0a6f92534464aa8f2ecf8783604051613427929190614ee2565b60405180910390a1600190509695505050505050565b600080600090505b600160008573ffffffffffffffffffffffffffffffffffffffff1673ffffffffffffffffffffffffffffffffffffffff16815260200190815260200160002060050180549050811015613561578273ffffffffffffffffffffffffffffffffffffffff16600160008673ffffffffffffffffffffffffffffffffffffffff1673ffffffffffffffffffffffffffffffffffffffff16815260200190815260200160002060050182815481106134fd576134fc61561d565b5b9060005260206000200160009054906101000a900473ffffffffffffffffffffffffffffffffffffffff1673ffffffffffffffffffffffffffffffffffffffff16141561354e576001915050613567565b808061355990615547565b915050613445565b60009150505b92915050565b6000613579838361423f565b9050600160008473ffffffffffffffffffffffffffffffffffffffff1673ffffffffffffffffffffffffffffffffffffffff16815260200190815260200160002060050160018060008673ffffffffffffffffffffffffffffffffffffffff1673ffffffffffffffffffffffffffffffffffffffff1681526020019081526020016000206005018054905061360e91906153fc565b8154811061361f5761361e61561d565b5b9060005260206000200160009054906101000a900473ffffffffffffffffffffffffffffffffffffffff16600160008573ffffffffffffffffffffffffffffffffffffffff1673ffffffffffffffffffffffffffffffffffffffff168152602001908152602001600020600501828154811061369e5761369d61561d565b5b9060005260206000200160006101000a81548173ffffffffffffffffffffffffffffffffffffffff021916908373ffffffffffffffffffffffffffffffffffffffff160217905550600160008473ffffffffffffffffffffffffffffffffffffffff1673ffffffffffffffffffffffffffffffffffffffff168152602001908152602001600020600501805480613738576137376155ee565b5b6001900381819060005260206000200160006101000a81549073ffffffffffffffffffffffffffffffffffffffff02191690559055505050565b600061377e833361436a565b9050600360008373ffffffffffffffffffffffffffffffffffffffff1673ffffffffffffffffffffffffffffffffffffffff1681526020019081526020016000206002016001600360008573ffffffffffffffffffffffffffffffffffffffff1673ffffffffffffffffffffffffffffffffffffffff1681526020019081526020016000206002018054905061381491906153fc565b815481106138255761382461561d565b5b9060005260206000209060020201600360008473ffffffffffffffffffffffffffffffffffffffff1673ffffffffffffffffffffffffffffffffffffffff16815260200190815260200160002060020185815481106138875761388661561d565b5b9060005260206000209060020201600082015481600001556001820160009054906101000a900473ffffffffffffffffffffffffffffffffffffffff168160010160006101000a81548173ffffffffffffffffffffffffffffffffffffffff021916908373ffffffffffffffffffffffffffffffffffffffff160217905550905050600360008373ffffffffffffffffffffffffffffffffffffffff1673ffffffffffffffffffffffffffffffffffffffff16815260200190815260200160002060020180548061395b5761395a6155ee565b5b60019003818190600052602060002090600202016000808201600090556001820160006101000a81549073ffffffffffffffffffffffffffffffffffffffff021916905550509055600460008473ffffffffffffffffffffffffffffffffffffffff1673ffffffffffffffffffffffffffffffffffffffff1681526020019081526020016000206000016001600460008673ffffffffffffffffffffffffffffffffffffffff1673ffffffffffffffffffffffffffffffffffffffff16815260200190815260200160002060000180549050613a3791906153fc565b81548110613a4857613a4761561d565b5b9060005260206000209060020201600460008573ffffffffffffffffffffffffffffffffffffffff1673ffffffffffffffffffffffffffffffffffffffff1681526020019081526020016000206000018281548110613aaa57613aa961561d565b5b9060005260206000209060020201600082015481600001556001820160009054906101000a900473ffffffffffffffffffffffffffffffffffffffff168160010160006101000a81548173ffffffffffffffffffffffffffffffffffffffff021916908373ffffffffffffffffffffffffffffffffffffffff160217905550905050600460008473ffffffffffffffffffffffffffffffffffffffff1673ffffffffffffffffffffffffffffffffffffffff168152602001908152602001600020600001805480613b7e57613b7d6155ee565b5b60019003818190600052602060002090600202016000808201600090556001820160006101000a81549073ffffffffffffffffffffffffffffffffffffffff0219169055505090556001600360008473ffffffffffffffffffffffffffffffffffffffff1673ffffffffffffffffffffffffffffffffffffffff168152602001908152602001600020600101541115613d7d5783600360008473ffffffffffffffffffffffffffffffffffffffff1673ffffffffffffffffffffffffffffffffffffffff1681526020019081526020016000206002018581548110613c6657613c6561561d565b5b9060005260206000209060020201600001819055506000600360008473ffffffffffffffffffffffffffffffffffffffff1673ffffffffffffffffffffffffffffffffffffffff1681526020019081526020016000206002018581548110613cd157613cd061561d565b5b906000526020600020906002020160010160009054906101000a900473ffffffffffffffffffffffffffffffffffffffff169050613d0f818461436a565b915084600460008373ffffffffffffffffffffffffffffffffffffffff1673ffffffffffffffffffffffffffffffffffffffff1681526020019081526020016000206000018381548110613d6657613d6561561d565b5b906000526020600020906002020160000181905550505b600360008373ffffffffffffffffffffffffffffffffffffffff1673ffffffffffffffffffffffffffffffffffffffff1681526020019081526020016000206001016000815480929190613dd0906154ba565b91905055507f5bc31e521401c7e4fbe27cc8e953ddcd66ce6cc84d810d1850450e7964029d958483604051613e06929190615299565b60405180910390a150505050565b6000855111613e2257600080fd5b6000845111613e3057600080fd5b6000825111613e3e57600080fd5b6000835111613e4c57600080fd5b85600160008873ffffffffffffffffffffffffffffffffffffffff1673ffffffffffffffffffffffffffffffffffffffff16815260200190815260200160002060000160006101000a81548173ffffffffffffffffffffffffffffffffffffffff021916908373ffffffffffffffffffffffffffffffffffffffff16021790555084600160008873ffffffffffffffffffffffffffffffffffffffff1673ffffffffffffffffffffffffffffffffffffffff1681526020019081526020016000206001019080519060200190613f239291906144cc565b5083600160008873ffffffffffffffffffffffffffffffffffffffff1673ffffffffffffffffffffffffffffffffffffffff1681526020019081526020016000206002019080519060200190613f7a9291906144cc565b5082600160008873ffffffffffffffffffffffffffffffffffffffff1673ffffffffffffffffffffffffffffffffffffffff1681526020019081526020016000206003019080519060200190613fd19291906144cc565b5081600160008873ffffffffffffffffffffffffffffffffffffffff1673ffffffffffffffffffffffffffffffffffffffff16815260200190815260200160002060040190805190602001906140289291906144cc565b5080600160008873ffffffffffffffffffffffffffffffffffffffff1673ffffffffffffffffffffffffffffffffffffffff16815260200190815260200160002060060160006101000a81548160ff02191690831515021790555085600460008873ffffffffffffffffffffffffffffffffffffffff1673ffffffffffffffffffffffffffffffffffffffff16815260200190815260200160002060010160006101000a81548173ffffffffffffffffffffffffffffffffffffffff021916908373ffffffffffffffffffffffffffffffffffffffff160217905550505050505050565b600080600090505b600360003373ffffffffffffffffffffffffffffffffffffffff1673ffffffffffffffffffffffffffffffffffffffff16815260200190815260200160002060010154811015614234578273ffffffffffffffffffffffffffffffffffffffff16600360003373ffffffffffffffffffffffffffffffffffffffff1673ffffffffffffffffffffffffffffffffffffffff16815260200190815260200160002060020182815481106141c9576141c861561d565b5b906000526020600020906002020160010160009054906101000a900473ffffffffffffffffffffffffffffffffffffffff1673ffffffffffffffffffffffffffffffffffffffff16141561422157600191505061423a565b808061422c90615547565b915050614114565b60009150505b919050565b600080600090505b600160008573ffffffffffffffffffffffffffffffffffffffff1673ffffffffffffffffffffffffffffffffffffffff16815260200190815260200160002060050180549050811015614362578273ffffffffffffffffffffffffffffffffffffffff16600160008673ffffffffffffffffffffffffffffffffffffffff1673ffffffffffffffffffffffffffffffffffffffff16815260200190815260200160002060050182815481106142ff576142fe61561d565b5b9060005260206000200160009054906101000a900473ffffffffffffffffffffffffffffffffffffffff1673ffffffffffffffffffffffffffffffffffffffff16141561434f5780915050614364565b808061435a90615547565b915050614247565b505b92915050565b600080600090505b600460008573ffffffffffffffffffffffffffffffffffffffff1673ffffffffffffffffffffffffffffffffffffffff16815260200190815260200160002060000180549050811015614494578273ffffffffffffffffffffffffffffffffffffffff16600460008673ffffffffffffffffffffffffffffffffffffffff1673ffffffffffffffffffffffffffffffffffffffff168152602001908152602001600020600001828154811061442a5761442961561d565b5b906000526020600020906002020160010160009054906101000a900473ffffffffffffffffffffffffffffffffffffffff1673ffffffffffffffffffffffffffffffffffffffff1614156144815780915050614496565b808061448c90615547565b915050614372565b505b92915050565b604051806040016040528060608152602001600073ffffffffffffffffffffffffffffffffffffffff1681525090565b8280546144d8906154e4565b90600052602060002090601f0160209004810192826144fa5760008555614541565b82601f1061451357805160ff1916838001178555614541565b82800160010185558215614541579182015b82811115614540578251825591602001919060010190614525565b5b50905061454e9190614617565b5090565b50805461455e906154e4565b6000825580601f10614570575061458f565b601f01602090049060005260206000209081019061458e9190614617565b5b50565b604051806040016040528060008152602001600073ffffffffffffffffffffffffffffffffffffffff1681525090565b6040518060e00160405280600073ffffffffffffffffffffffffffffffffffffffff16815260200160608152602001606081526020016060815260200160608152602001606081526020016000151581525090565b5b80821115614630576000816000905550600101614618565b5090565b60006146476146428461532c565b615307565b90508281526020810184848401111561466357614662615680565b5b61466e848285615478565b509392505050565b60008135905061468581615a69565b92915050565b60008135905061469a81615a80565b92915050565b600082601f8301126146b5576146b461567b565b5b81356146c5848260208601614634565b91505092915050565b6000813590506146dd81615a97565b92915050565b6000602082840312156146f9576146f861568a565b5b600061470784828501614676565b91505092915050565b60008060008060008060c0878903121561472d5761472c61568a565b5b600061473b89828a01614676565b965050602087013567ffffffffffffffff81111561475c5761475b615685565b5b61476889828a016146a0565b955050604087013567ffffffffffffffff81111561478957614788615685565b5b61479589828a016146a0565b945050606087013567ffffffffffffffff8111156147b6576147b5615685565b5b6147c289828a016146a0565b935050608087013567ffffffffffffffff8111156147e3576147e2615685565b5b6147ef89828a016146a0565b92505060a061480089828a0161468b565b9150509295509295509295565b600080604083850312156148245761482361568a565b5b600083013567ffffffffffffffff81111561484257614841615685565b5b61484e858286016146a0565b925050602061485f85828601614676565b9150509250929050565b60006020828403121561487f5761487e61568a565b5b600061488d848285016146ce565b91505092915050565b600080604083850312156148ad576148ac61568a565b5b60006148bb858286016146ce565b92505060206148cc85828601614676565b9150509250929050565b6000806000606084860312156148ef576148ee61568a565b5b60006148fd868287016146ce565b935050602061490e86828701614676565b925050604061491f8682870161468b565b9150509250925092565b60006149358383614959565b60208301905092915050565b600061494d8383614e51565b60408301905092915050565b61496281615430565b82525050565b61497181615430565b82525050565b60006149828261537d565b61498c81856153b8565b93506149978361535d565b8060005b838110156149c85781516149af8882614929565b97506149ba8361539e565b92505060018101905061499b565b5085935050505092915050565b60006149e082615388565b6149ea81856153c9565b93506149f58361536d565b8060005b83811015614a26578151614a0d8882614941565b9750614a18836153ab565b9250506001810190506149f9565b5085935050505092915050565b614a3c81615442565b82525050565b614a4b81615442565b82525050565b6000614a5c82615393565b614a6681856153da565b9350614a76818560208601615487565b614a7f8161568f565b840191505092915050565b6000614a9582615393565b614a9f81856153eb565b9350614aaf818560208601615487565b614ab88161568f565b840191505092915050565b6000614ad06028836153eb565b9150614adb826156a0565b604082019050919050565b6000614af3600e836153eb565b9150614afe826156ef565b602082019050919050565b6000614b166014836153eb565b9150614b2182615718565b602082019050919050565b6000614b396021836153eb565b9150614b4482615741565b604082019050919050565b6000614b5c602a836153eb565b9150614b6782615790565b604082019050919050565b6000614b7f601e836153eb565b9150614b8a826157df565b602082019050919050565b6000614ba26012836153eb565b9150614bad82615808565b602082019050919050565b6000614bc56016836153eb565b9150614bd082615831565b602082019050919050565b6000614be86012836153eb565b9150614bf38261585a565b602082019050919050565b6000614c0b6011836153eb565b9150614c1682615883565b602082019050919050565b6000614c2e6013836153eb565b9150614c39826158ac565b602082019050919050565b6000614c516016836153eb565b9150614c5c826158d5565b602082019050919050565b6000614c746026836153eb565b9150614c7f826158fe565b604082019050919050565b6000614c976010836153eb565b9150614ca28261594d565b602082019050919050565b6000614cba600d836153eb565b9150614cc582615976565b602082019050919050565b6000614cdd6013836153eb565b9150614ce88261599f565b602082019050919050565b6000614d006012836153eb565b9150614d0b826159c8565b602082019050919050565b6000614d236021836153eb565b9150614d2e826159f1565b604082019050919050565b6000614d46600a836153eb565b9150614d5182615a40565b602082019050919050565b600060e083016000830151614d746000860182614959565b5060208301518482036020860152614d8c8282614a51565b91505060408301518482036040860152614da68282614a51565b91505060608301518482036060860152614dc08282614a51565b91505060808301518482036080860152614dda8282614a51565b91505060a083015184820360a0860152614df48282614977565b91505060c0830151614e0960c0860182614a33565b508091505092915050565b60006040830160008301518482036000860152614e318282614a51565b9150506020830151614e466020860182614959565b508091505092915050565b604082016000820151614e676000850182614e80565b506020820151614e7a6020850182614959565b50505050565b614e898161546e565b82525050565b614e988161546e565b82525050565b6000602082019050614eb36000830184614968565b92915050565b6000604082019050614ece6000830185614968565b614edb6020830184614968565b9392505050565b6000604082019050614ef76000830185614968565b614f046020830184614a42565b9392505050565b600060c082019050614f206000830189614968565b8181036020830152614f328188614a8a565b90508181036040830152614f468187614a8a565b9050614f556060830186614a42565b8181036080830152614f678185614a8a565b905081810360a0830152614f7b8184614a8a565b9050979650505050505050565b60006020820190508181036000830152614fa281846149d5565b905092915050565b6000602082019050614fbf6000830184614a42565b92915050565b60006040820190508181036000830152614fdf8185614a8a565b9050614fee6020830184614968565b9392505050565b6000602082019050818103600083015261500e81614ac3565b9050919050565b6000602082019050818103600083015261502e81614ae6565b9050919050565b6000602082019050818103600083015261504e81614b09565b9050919050565b6000602082019050818103600083015261506e81614b2c565b9050919050565b6000602082019050818103600083015261508e81614b4f565b9050919050565b600060208201905081810360008301526150ae81614b72565b9050919050565b600060208201905081810360008301526150ce81614b95565b9050919050565b600060208201905081810360008301526150ee81614bb8565b9050919050565b6000602082019050818103600083015261510e81614bdb565b9050919050565b6000602082019050818103600083015261512e81614bfe565b9050919050565b6000602082019050818103600083015261514e81614c21565b9050919050565b6000602082019050818103600083015261516e81614c44565b9050919050565b6000602082019050818103600083015261518e81614c67565b9050919050565b600060208201905081810360008301526151ae81614c8a565b9050919050565b600060208201905081810360008301526151ce81614cad565b9050919050565b600060208201905081810360008301526151ee81614cd0565b9050919050565b6000602082019050818103600083015261520e81614cf3565b9050919050565b6000602082019050818103600083015261522e81614d16565b9050919050565b6000602082019050818103600083015261524e81614d39565b9050919050565b6000602082019050818103600083015261526f8184614d5c565b905092915050565b600060208201905081810360008301526152918184614e14565b905092915050565b60006040820190506152ae6000830185614e8f565b6152bb6020830184614968565b9392505050565b60006080820190506152d76000830187614e8f565b6152e46020830186614968565b6152f16040830185614968565b6152fe6060830184614a42565b95945050505050565b6000615311615322565b905061531d8282615516565b919050565b6000604051905090565b600067ffffffffffffffff8211156153475761534661564c565b5b6153508261568f565b9050602081019050919050565b6000819050602082019050919050565b6000819050602082019050919050565b600081519050919050565b600081519050919050565b600081519050919050565b6000602082019050919050565b6000602082019050919050565b600082825260208201905092915050565b600082825260208201905092915050565b600082825260208201905092915050565b600082825260208201905092915050565b60006154078261546e565b91506154128361546e565b92508282101561542557615424615590565b5b828203905092915050565b600061543b8261544e565b9050919050565b60008115159050919050565b600073ffffffffffffffffffffffffffffffffffffffff82169050919050565b6000819050919050565b82818337600083830152505050565b60005b838110156154a557808201518184015260208101905061548a565b838111156154b4576000848401525b50505050565b60006154c58261546e565b915060008214156154d9576154d8615590565b5b600182039050919050565b600060028204905060018216806154fc57607f821691505b602082108114156155105761550f6155bf565b5b50919050565b61551f8261568f565b810181811067ffffffffffffffff8211171561553e5761553d61564c565b5b80604052505050565b60006155528261546e565b91507fffffffffffffffffffffffffffffffffffffffffffffffffffffffffffffffff82141561558557615584615590565b5b600182019050919050565b7f4e487b7100000000000000000000000000000000000000000000000000000000600052601160045260246000fd5b7f4e487b7100000000000000000000000000000000000000000000000000000000600052602260045260246000fd5b7f4e487b7100000000000000000000000000000000000000000000000000000000600052603160045260246000fd5b7f4e487b7100000000000000000000000000000000000000000000000000000000600052603260045260246000fd5b7f4e487b7100000000000000000000000000000000000000000000000000000000600052604160045260246000fd5b600080fd5b600080fd5b600080fd5b600080fd5b6000601f19601f8301169050919050565b7f596f7520646f6e74206861766520617574686f7269747920746f207265766f6b60008201527f6520616363657373000000000000000000000000000000000000000000000000602082015250565b7f55736572206e6f742076616c6964000000000000000000000000000000000000600082015250565b7f5265717565737420646f65736e74206578697374000000000000000000000000600082015250565b7f596f7520646f6e7420686176652061636365737320746f20746869732075736560008201527f7200000000000000000000000000000000000000000000000000000000000000602082015250565b7f5468697320706172746963756c6172206f7267616e697a6174696f6e7320646f60008201527f65736e7420657869737400000000000000000000000000000000000000000000602082015250565b7f55736572206861736e7420676976656e20746865697220636f6e73656e740000600082015250565b7f437573746f6d6572206e6f742076616c69640000000000000000000000000000600082015250565b7f437573746f6d657220646f65736e742065786973747300000000000000000000600082015250565b7f5265717565737473206e6f7420666f756e640000000000000000000000000000600082015250565b7f4f726720616c7265616479206164646564000000000000000000000000000000600082015250565b7f5573657220616c72656164792065786973747300000000000000000000000000600082015250565b7f5265717565737420416c72656164792045786973747300000000000000000000600082015250565b7f596f7520646f6e74206861766520617574686f7269747920746f20676976652060008201527f6163636573730000000000000000000000000000000000000000000000000000602082015250565b7f4f726720646f65736e7420657869737400000000000000000000000000000000600082015250565b7f4f7267206e6f7420657869737400000000000000000000000000000000000000600082015250565b7f416c726561647920686176652061636365737300000000000000000000000000600082015250565b7f5573657220646f65736e27742065786973740000000000000000000000000000600082015250565b7f596f7520646f6e74206861766520617574686f7269747920746f2064656c657460008201527f6500000000000000000000000000000000000000000000000000000000000000602082015250565b7f41646d696e206f6e6c7900000000000000000000000000000000000000000000600082015250565b615a7281615430565b8114615a7d57600080fd5b50565b615a8981615442565b8114615a9457600080fd5b50565b615aa08161546e565b8114615aab57600080fd5b5056fea2646970667358221220dd7ac1896449ce129f3d739eefb68fe4e23da596a2e7fbe4815f00e938eb5c6564736f6c63430008070033",
  "immutableReferences": {},
  "source": "// SPDX-License-Identifier: MIT\r\npragma solidity >=0.4.22 <0.9.0;\r\n\r\ncontract Kyc {\r\n  address public admin;\r\n  struct Customer {\r\n      address custAddress;\r\n      string jsonHash;\r\n      string photoHash;\r\n      string citizenship_front_hash;\r\n      string citizenship_back_hash;\r\n      address[] organization;\r\n      bool kycStatus;\r\n  }\r\n\r\n  struct Organization {\r\n      string name;\r\n      address ethAddress;\r\n  }\r\n\r\n  struct kycRequest{\r\n      address ethAddress;\r\n      uint req_count;\r\n      kycRequestList[] kycrequestlist;\r\n  }\r\n  \r\n  struct kycRequestList{\r\n      uint req_count;\r\n      address Address;\r\n  }\r\n  \r\n  struct kycRequestCust{\r\n      kycRequestList[] kycrequestlist;\r\n      address custAddress;\r\n  }\r\n\r\n  constructor()  {\r\n      admin = msg.sender;\r\n  }\r\n\r\n  mapping(address => Customer) customers;\r\n  mapping(address => Organization) organizations;\r\n  mapping(address => kycRequest) kycrequestsbyorg;\r\n  mapping(address => kycRequestCust) kycrequestsbycust;\r\n\r\n  event orgAdded(string name,address ethAddress);\r\n  event orgRemoved(address ethAddress);\r\n  event customerAdded(address custAddress,bool kycStatus);\r\n  event customerUpdated(address custAddress,bool kycStatus);\r\n  event requestAdded(uint reqid,address ethAddress, address custAddress,bool isAllowed);\r\n  event requestRemoved(uint reqid,address ethAddress);\r\n  event accessGiven(uint reqid,address custAddress,address ethAddress,bool isAllowed);\r\n  event accessRevoked(address custAddress,address ethAddress);\r\n  event kycRemoved(address custAddress,address ethAddress);\r\n\r\n// Checks whether the requestor is admin\r\n  modifier isAdmin {\r\n      require(\r\n          admin == msg.sender,\r\n          \"Admin only\"\r\n      );\r\n      _;\r\n  }\r\n\r\n// Checks wheter the org exists or not\r\n  modifier isOrgValid {\r\n      require(\r\n          organizations[msg.sender].ethAddress == msg.sender,\r\n          \"Org not exist\"    \r\n      );\r\n      _;\r\n  }\r\n\r\n//Check if Org has access to the user KYC\r\n  function findOrg(address _custaddress,address ethAddress) internal view returns(bool){\r\n      uint i = 0;\r\n          for(i;i<customers[_custaddress].organization.length;i++){\r\n              if(customers[_custaddress].organization[i]==ethAddress){\r\n                  return true;\r\n              }\r\n          }\r\n          return false;\r\n  }\r\n\r\n//Find the index of Org in KYC.organization array\r\n  function findOrgIndex(address _custaddress,address ethAddress) internal view returns(uint){\r\n      uint i = 0;\r\n      for(i;i<customers[_custaddress].organization.length;i++){\r\n            if(customers[_custaddress].organization[i]==ethAddress){\r\n                return i;\r\n            }\r\n    }\r\n  }\r\n  \r\n  function findRequestIndex(address _custaddress,address _ethAddress) internal view returns(uint){\r\n      uint i = 0;\r\n      for(i;i<kycrequestsbycust[_custaddress].kycrequestlist.length;i++){\r\n            if(kycrequestsbycust[_custaddress].kycrequestlist[i].Address==_ethAddress){\r\n                return i;\r\n            }\r\n    }\r\n  }\r\n\r\n//Check if request exist \r\n  function findRequest(address _custaddress) internal view returns(bool){\r\n      uint i=0;\r\n      for(i;i<kycrequestsbyorg[msg.sender].req_count;i++){\r\n          if(kycrequestsbyorg[msg.sender].kycrequestlist[i].Address==_custaddress){\r\n              return true;\r\n          }\r\n      }\r\n      return false;\r\n  }\r\n\r\n//Add organization ONLY BY ADMIN\r\n  function addOrg(string memory _name,address _ethAddress) public isAdmin returns(bool) {\r\n      require(organizations[_ethAddress].ethAddress!=_ethAddress,\"Org already added\");\r\n      organizations[_ethAddress]=Organization(_name,_ethAddress);\r\n      kycrequestsbyorg[_ethAddress].ethAddress=_ethAddress;\r\n      kycrequestsbyorg[_ethAddress].req_count=0;\r\n      emit orgAdded(_name,_ethAddress);\r\n      return true;\r\n  }\r\n\r\n//Remove Organization ONLY BY ADMIN \r\n  function removeOrg(address _ethAddress) public isAdmin returns(bool) {\r\n      require(organizations[_ethAddress].ethAddress==_ethAddress,\"Org doesnt exist\");\r\n      delete organizations[_ethAddress];\r\n      emit orgRemoved(_ethAddress);\r\n      return true;\r\n  }\r\n\r\n//Return Organization Info if it exists  \r\n  function viewOrg(address _ethAddress)public view returns(Organization memory){\r\n      require(organizations[_ethAddress].ethAddress==_ethAddress,\"Org doesnt exist\");\r\n      return organizations[_ethAddress];\r\n  }\r\n\r\n  function getYourOrgDetail() public isOrgValid view returns(Organization memory){\r\n    return organizations[msg.sender];\r\n  }\r\n\r\n  function validOrg() public view returns(bool){\r\n    if(organizations[msg.sender].ethAddress==msg.sender){\r\n      return true;\r\n    }\r\n    else{\r\n      return false;\r\n    }\r\n  }\r\n  function validAdmin() public view returns(bool){\r\n    if(admin==msg.sender){\r\n      return true;\r\n    }\r\n    else{\r\n      return false;\r\n    }\r\n  }\r\n  function validCust() public view returns(bool){\r\n    if(customers[msg.sender].custAddress==msg.sender){\r\n      return true;\r\n    }\r\n    else{\r\n      return false;\r\n    }\r\n  }\r\n\r\n  function writeKYC(\r\n    address _custaddress,\r\n    string memory _jsonHash,\r\n    string memory _photohash,\r\n    string memory _citizenship_front_hash,\r\n    string memory _citizenship_back_hash,\r\n    bool _kycStatus) internal {\r\n      require(bytes(_jsonHash).length > 0);\r\n      require(bytes(_photohash).length > 0);\r\n      require(bytes(_citizenship_back_hash).length > 0);\r\n      require(bytes(_citizenship_front_hash).length > 0);\r\n      customers[_custaddress].custAddress=_custaddress;\r\n      customers[_custaddress].jsonHash=_jsonHash;\r\n      customers[_custaddress].photoHash=_photohash;\r\n      customers[_custaddress].citizenship_front_hash=_citizenship_front_hash;\r\n      customers[_custaddress].citizenship_back_hash=_citizenship_back_hash;\r\n      customers[_custaddress].kycStatus=_kycStatus;\r\n      kycrequestsbycust[_custaddress].custAddress=_custaddress;\r\n  }\r\n\r\n//Register User KYC by registered Orgs\r\n  function registerKYC(\r\n    address _custaddress,\r\n    string memory _jsonHash,\r\n    string memory _photohash,\r\n    string memory _citizenship_front_hash,\r\n    string memory _citizenship_back_hash,\r\n    bool _kycStatus) public payable isOrgValid returns(bool){\r\n      require(customers[_custaddress].custAddress!=_custaddress,\"User already exists\");\r\n      writeKYC(_custaddress,_jsonHash,_photohash,_citizenship_front_hash,_citizenship_back_hash,_kycStatus);\r\n      requestKYC(_custaddress);\r\n      emit customerAdded(_custaddress,_kycStatus);\r\n      return true;\r\n  }\r\n\r\n//View User KYC by Authorized Orgs  \r\n  function viewKYC(address _custaddress) public view \r\n  returns(\r\n    address,\r\n    string memory,\r\n    string memory,\r\n    bool,\r\n    string memory,\r\n    string memory)\r\n  {\r\n      require(findOrg(_custaddress,msg.sender),\"User hasnt given their consent\");\r\n      return(customers[_custaddress].custAddress,customers[_custaddress].jsonHash,customers[_custaddress].photoHash,customers[_custaddress].kycStatus,customers[_custaddress].citizenship_front_hash,customers[_custaddress].citizenship_back_hash);\r\n  }\r\n  \r\n  function viewYourKYC() public view returns(Customer memory){\r\n      require(validCust(),'Customer not valid');\r\n      return customers[msg.sender];\r\n  }\r\n  \r\n  function viewRequestCust() public view returns(kycRequestList[] memory){\r\n      require(validCust(),'Customer not valid');\r\n      kycRequestList[] memory ret =  new kycRequestList[](kycrequestsbycust[msg.sender].kycrequestlist.length);\r\n      uint j = 0;\r\n        for (uint i = 0; i < kycrequestsbycust[msg.sender].kycrequestlist.length; i++) {\r\n            ret[j] = kycrequestsbycust[msg.sender].kycrequestlist[i];\r\n            j++;\r\n                \r\n        }\r\n    return (ret);\r\n  }\r\n\r\n//Update User KYC by registered and authorized orgs\r\n  function updateKYC(\r\n    address _custaddress,\r\n    string memory _jsonHash,\r\n    string memory _photohash,\r\n    string memory _citizenship_front_hash,\r\n    string memory _citizenship_back_hash,\r\n    bool _kycStatus) public isOrgValid returns(bool){\r\n      require(customers[_custaddress].custAddress==_custaddress,\"User doesn't exist\");\r\n      require(findOrg(_custaddress,msg.sender),\"You dont have access to this user\");\r\n      writeKYC(_custaddress,_jsonHash,_photohash,_citizenship_front_hash,_citizenship_back_hash,_kycStatus);\r\n      emit customerUpdated(_custaddress,_kycStatus);\r\n      return true;\r\n  }\r\n\r\n//Request User KYC by Orgs  \r\n  function requestKYC(address _custaddress) public isOrgValid returns(bool){\r\n      require(customers[_custaddress].custAddress==_custaddress,\"Customer doesnt exists\");\r\n      require(findOrg(_custaddress,msg.sender)==false,\"Already have access\");\r\n      require(findRequest(_custaddress)==false,\"Request Already Exists\");\r\n      kycrequestsbyorg[msg.sender].kycrequestlist.push(kycRequestList(kycrequestsbyorg[msg.sender].req_count,_custaddress));\r\n      kycrequestsbycust[_custaddress].kycrequestlist.push(kycRequestList(kycrequestsbyorg[msg.sender].req_count,msg.sender));\r\n      kycrequestsbyorg[msg.sender].req_count++;\r\n      emit requestAdded(kycrequestsbyorg[msg.sender].req_count-1,msg.sender,_custaddress,false);\r\n      return true;\r\n  }\r\n  \r\n  function deleteRequest(uint _reqcount,address _custaddress,address _ethAddress) internal{\r\n    uint index = findRequestIndex(_custaddress,msg.sender);\r\n    kycrequestsbyorg[_ethAddress].kycrequestlist[_reqcount]=kycrequestsbyorg[_ethAddress].kycrequestlist[kycrequestsbyorg[_ethAddress].kycrequestlist.length-1];\r\n    kycrequestsbyorg[_ethAddress].kycrequestlist.pop();\r\n    kycrequestsbycust[_custaddress].kycrequestlist[index]=kycrequestsbycust[_custaddress].kycrequestlist[kycrequestsbycust[_custaddress].kycrequestlist.length-1];\r\n    kycrequestsbycust[_custaddress].kycrequestlist.pop();\r\n    if(kycrequestsbyorg[_ethAddress].req_count>1){\r\n        kycrequestsbyorg[_ethAddress].kycrequestlist[_reqcount].req_count=_reqcount;\r\n        address add = kycrequestsbyorg[_ethAddress].kycrequestlist[_reqcount].Address;\r\n        index = findRequestIndex(add, _ethAddress);\r\n        kycrequestsbycust[add].kycrequestlist[index].req_count=_reqcount;\r\n     }\r\n    kycrequestsbyorg[_ethAddress].req_count--;\r\n    emit requestRemoved(_reqcount,_ethAddress);\r\n  }\r\n\r\n//Delete User KYC request by organization\r\n  function deleteRequestOrg(uint _reqcount) public isOrgValid returns(bool){\r\n    require(kycrequestsbyorg[msg.sender].ethAddress==msg.sender,\"You dont have authority to delete\");\r\n    require(kycrequestsbyorg[msg.sender].kycrequestlist[_reqcount].req_count==_reqcount,\"Request doesnt exist\");\r\n    address _custaddress = kycrequestsbyorg[msg.sender].kycrequestlist[_reqcount].Address;\r\n    deleteRequest(_reqcount,_custaddress,msg.sender);\r\n    return true;\r\n  }\r\n\r\n//Delete User KYC Request after user provides access \r\n  function deleteRequestCust(uint _reqcount,address _ethAddress) public{\r\n      require(organizations[_ethAddress].ethAddress==_ethAddress,\"This particular organizations doesnt exist\");\r\n      require(kycrequestsbyorg[_ethAddress].kycrequestlist[_reqcount].Address==msg.sender,\"User not valid\");\r\n      require(kycrequestsbyorg[_ethAddress].kycrequestlist[_reqcount].req_count==_reqcount,\"Request doesnt exist\");\r\n      deleteRequest(_reqcount,msg.sender,_ethAddress);\r\n  }\r\n\r\n\r\n\r\n//Return Array of all pending request of the orgs\r\n  function listRequest() public isOrgValid view returns(kycRequestList[] memory){\r\n      kycRequestList[] memory ret =  new kycRequestList[](kycrequestsbyorg[msg.sender].req_count);\r\n      uint j = 0;\r\n        for (uint i = 0; i < kycrequestsbyorg[msg.sender].req_count; i++) {\r\n            ret[j] = kycrequestsbyorg[msg.sender].kycrequestlist[i];\r\n            j++;\r\n                \r\n        }\r\n    return (ret);\r\n  }\r\n\r\n//Give User KYC access to Org\r\n  function giveAccessKYC(uint _reqcount,address _ethAddress,bool _isAllowed) public returns(bool){\r\n      require(customers[msg.sender].custAddress==msg.sender,\"You dont have authority to give access\");\r\n      require(kycrequestsbyorg[_ethAddress].kycrequestlist[_reqcount].Address==msg.sender,\"User not valid\");\r\n      require(kycrequestsbyorg[_ethAddress].kycrequestlist[_reqcount].req_count==_reqcount,\"Requests not found\");\r\n      if(_isAllowed == true){\r\n          if(findOrg(msg.sender,_ethAddress) == false){\r\n              customers[msg.sender].organization.push(_ethAddress);\r\n          }\r\n          deleteRequestCust(_reqcount,_ethAddress);\r\n          emit accessGiven(_reqcount,msg.sender,_ethAddress,_isAllowed);\r\n      }\r\n      else{\r\n          deleteRequestCust(_reqcount,_ethAddress);\r\n      }\r\n      return true;\r\n      \r\n  }\r\n  \r\n  function remove(address _custaddress,address _ethAddress) internal {\r\n      uint i=findOrgIndex(_custaddress,_ethAddress);\r\n      customers[_custaddress].organization[i]=customers[_custaddress].organization[customers[_custaddress].organization.length-1];\r\n      customers[_custaddress].organization.pop();\r\n  }\r\n\r\n//Revoke User KYC access of Orgs\r\n  function revokeAccessKYC(address _ethAddress) public returns(bool){\r\n      require(customers[msg.sender].custAddress==msg.sender,\"You dont have authority to revoke access\");\r\n      require(findOrg(msg.sender,_ethAddress),\"You dont have access to this user\");\r\n      remove(msg.sender,_ethAddress);\r\n      emit accessRevoked(msg.sender,_ethAddress);\r\n      return true;\r\n  }\r\n\r\n//Remove User KYC by Orgs  \r\n  function removeKYC(address _custaddress) public isOrgValid returns (bool){\r\n      require(customers[_custaddress].custAddress==_custaddress,\"User doesn't exist\");\r\n      require(findOrg(_custaddress,msg.sender),\"You dont have access to this user\");\r\n      remove(_custaddress,msg.sender);\r\n      emit kycRemoved(_custaddress,msg.sender);\r\n      return true;\r\n  }\r\n  \r\n}\r\n",
  "sourcePath": "C:\\Users\\pemba\\Documents\\BlockChain\\kyc_blockchain\\contracts\\Kyc.sol",
  "compiler": {
    "name": "solc",
    "version": "0.8.7+commit.e28d00a7.Emscripten.clang"
  },
  "schemaVersion": "3.4.3",
  "updatedAt": "2021-09-19T12:33:08.292Z",
  "devdoc": {
    "kind": "dev",
    "methods": {},
    "version": 1
  },
  "userdoc": {
    "kind": "user",
    "methods": {},
    "version": 1
  }
}