{
  "contractName": "Kyc",
  "abi": [
    {
      "inputs": [],
      "payable": false,
      "stateMutability": "nonpayable",
      "type": "constructor"
    },
    {
      "anonymous": false,
      "inputs": [
        {
          "indexed": false,
          "internalType": "uint256",
          "name": "reqid",
          "type": "uint256"
        },
        {
          "indexed": false,
          "internalType": "uint256",
          "name": "uname",
          "type": "uint256"
        },
        {
          "indexed": false,
          "internalType": "address",
          "name": "ethAddress",
          "type": "address"
        },
        {
          "indexed": false,
          "internalType": "bool",
          "name": "isAllowed",
          "type": "bool"
        }
      ],
      "name": "accessGiven",
      "type": "event"
    },
    {
      "anonymous": false,
      "inputs": [
        {
          "indexed": false,
          "internalType": "uint256",
          "name": "uname",
          "type": "uint256"
        },
        {
          "indexed": false,
          "internalType": "address",
          "name": "ethAddress",
          "type": "address"
        }
      ],
      "name": "accessRevoked",
      "type": "event"
    },
    {
      "anonymous": false,
      "inputs": [
        {
          "indexed": false,
          "internalType": "uint256",
          "name": "uname",
          "type": "uint256"
        },
        {
          "indexed": false,
          "internalType": "string",
          "name": "name",
          "type": "string"
        },
        {
          "indexed": false,
          "internalType": "string",
          "name": "location",
          "type": "string"
        },
        {
          "indexed": false,
          "internalType": "bool",
          "name": "kycStatus",
          "type": "bool"
        }
      ],
      "name": "customerAdded",
      "type": "event"
    },
    {
      "anonymous": false,
      "inputs": [
        {
          "indexed": false,
          "internalType": "uint256",
          "name": "uname",
          "type": "uint256"
        },
        {
          "indexed": false,
          "internalType": "string",
          "name": "name",
          "type": "string"
        },
        {
          "indexed": false,
          "internalType": "string",
          "name": "location",
          "type": "string"
        },
        {
          "indexed": false,
          "internalType": "bool",
          "name": "kycStatus",
          "type": "bool"
        }
      ],
      "name": "customerUpdated",
      "type": "event"
    },
    {
      "anonymous": false,
      "inputs": [
        {
          "indexed": false,
          "internalType": "string",
          "name": "name",
          "type": "string"
        },
        {
          "indexed": false,
          "internalType": "address",
          "name": "ethAddress",
          "type": "address"
        }
      ],
      "name": "orgAdded",
      "type": "event"
    },
    {
      "anonymous": false,
      "inputs": [
        {
          "indexed": false,
          "internalType": "address",
          "name": "ethAddress",
          "type": "address"
        }
      ],
      "name": "orgRemoved",
      "type": "event"
    },
    {
      "anonymous": false,
      "inputs": [
        {
          "indexed": false,
          "internalType": "uint256",
          "name": "reqid",
          "type": "uint256"
        },
        {
          "indexed": false,
          "internalType": "address",
          "name": "ethAddress",
          "type": "address"
        },
        {
          "indexed": false,
          "internalType": "uint256",
          "name": "uname",
          "type": "uint256"
        },
        {
          "indexed": false,
          "internalType": "bool",
          "name": "isAllowed",
          "type": "bool"
        }
      ],
      "name": "requestAdded",
      "type": "event"
    },
    {
      "anonymous": false,
      "inputs": [
        {
          "indexed": false,
          "internalType": "uint256",
          "name": "reqid",
          "type": "uint256"
        },
        {
          "indexed": false,
          "internalType": "address",
          "name": "ethAddress",
          "type": "address"
        }
      ],
      "name": "requestRemoved",
      "type": "event"
    },
    {
      "constant": true,
      "inputs": [],
      "name": "admin",
      "outputs": [
        {
          "internalType": "address",
          "name": "",
          "type": "address"
        }
      ],
      "payable": false,
      "stateMutability": "view",
      "type": "function"
    },
    {
      "constant": false,
      "inputs": [
        {
          "internalType": "string",
          "name": "_name",
          "type": "string"
        },
        {
          "internalType": "address",
          "name": "_ethAddress",
          "type": "address"
        }
      ],
      "name": "addOrg",
      "outputs": [
        {
          "internalType": "bool",
          "name": "",
          "type": "bool"
        }
      ],
      "payable": false,
      "stateMutability": "nonpayable",
      "type": "function"
    },
    {
      "constant": false,
      "inputs": [
        {
          "internalType": "address",
          "name": "_ethAddress",
          "type": "address"
        }
      ],
      "name": "removeOrg",
      "outputs": [
        {
          "internalType": "bool",
          "name": "",
          "type": "bool"
        }
      ],
      "payable": false,
      "stateMutability": "nonpayable",
      "type": "function"
    },
    {
      "constant": true,
      "inputs": [
        {
          "internalType": "address",
          "name": "_ethAddress",
          "type": "address"
        }
      ],
      "name": "viewOrg",
      "outputs": [
        {
          "internalType": "string",
          "name": "",
          "type": "string"
        }
      ],
      "payable": false,
      "stateMutability": "view",
      "type": "function"
    },
    {
      "constant": true,
      "inputs": [],
      "name": "validOrg",
      "outputs": [
        {
          "internalType": "bool",
          "name": "",
          "type": "bool"
        }
      ],
      "payable": false,
      "stateMutability": "view",
      "type": "function"
    },
    {
      "constant": true,
      "inputs": [],
      "name": "validAdmin",
      "outputs": [
        {
          "internalType": "bool",
          "name": "",
          "type": "bool"
        }
      ],
      "payable": false,
      "stateMutability": "view",
      "type": "function"
    },
    {
      "constant": false,
      "inputs": [
        {
          "internalType": "uint256",
          "name": "_uname",
          "type": "uint256"
        },
        {
          "internalType": "string",
          "name": "_name",
          "type": "string"
        },
        {
          "internalType": "string",
          "name": "_location",
          "type": "string"
        },
        {
          "internalType": "bool",
          "name": "_kycStatus",
          "type": "bool"
        }
      ],
      "name": "registerKYC",
      "outputs": [
        {
          "internalType": "bool",
          "name": "",
          "type": "bool"
        }
      ],
      "payable": true,
      "stateMutability": "payable",
      "type": "function"
    },
    {
      "constant": true,
      "inputs": [
        {
          "internalType": "uint256",
          "name": "_uname",
          "type": "uint256"
        }
      ],
      "name": "viewKYC",
      "outputs": [
        {
          "internalType": "uint256",
          "name": "",
          "type": "uint256"
        },
        {
          "internalType": "string",
          "name": "",
          "type": "string"
        },
        {
          "internalType": "string",
          "name": "",
          "type": "string"
        },
        {
          "internalType": "bool",
          "name": "",
          "type": "bool"
        },
        {
          "internalType": "address[]",
          "name": "",
          "type": "address[]"
        },
        {
          "internalType": "uint256",
          "name": "",
          "type": "uint256"
        }
      ],
      "payable": false,
      "stateMutability": "view",
      "type": "function"
    },
    {
      "constant": false,
      "inputs": [
        {
          "internalType": "uint256",
          "name": "_uname",
          "type": "uint256"
        },
        {
          "internalType": "string",
          "name": "_name",
          "type": "string"
        },
        {
          "internalType": "string",
          "name": "_location",
          "type": "string"
        },
        {
          "internalType": "bool",
          "name": "_kycStatus",
          "type": "bool"
        }
      ],
      "name": "updateKYC",
      "outputs": [
        {
          "internalType": "bool",
          "name": "",
          "type": "bool"
        }
      ],
      "payable": false,
      "stateMutability": "nonpayable",
      "type": "function"
    },
    {
      "constant": false,
      "inputs": [
        {
          "internalType": "uint256",
          "name": "_uname",
          "type": "uint256"
        }
      ],
      "name": "removeKYC",
      "outputs": [
        {
          "internalType": "bool",
          "name": "",
          "type": "bool"
        }
      ],
      "payable": false,
      "stateMutability": "nonpayable",
      "type": "function"
    },
    {
      "constant": false,
      "inputs": [
        {
          "internalType": "uint256",
          "name": "_uname",
          "type": "uint256"
        }
      ],
      "name": "requestKYC",
      "outputs": [
        {
          "internalType": "bool",
          "name": "",
          "type": "bool"
        }
      ],
      "payable": false,
      "stateMutability": "nonpayable",
      "type": "function"
    },
    {
      "constant": false,
      "inputs": [
        {
          "internalType": "uint256",
          "name": "_reqcount",
          "type": "uint256"
        }
      ],
      "name": "deleteRequest",
      "outputs": [],
      "payable": false,
      "stateMutability": "nonpayable",
      "type": "function"
    },
    {
      "constant": true,
      "inputs": [
        {
          "internalType": "uint256",
          "name": "_reqcount",
          "type": "uint256"
        }
      ],
      "name": "viewRequest",
      "outputs": [
        {
          "internalType": "uint256",
          "name": "",
          "type": "uint256"
        },
        {
          "internalType": "uint256",
          "name": "",
          "type": "uint256"
        }
      ],
      "payable": false,
      "stateMutability": "view",
      "type": "function"
    },
    {
      "constant": true,
      "inputs": [],
      "name": "listRequest",
      "outputs": [
        {
          "components": [
            {
              "internalType": "uint256",
              "name": "req_count",
              "type": "uint256"
            },
            {
              "internalType": "uint256",
              "name": "uname",
              "type": "uint256"
            }
          ],
          "internalType": "struct Kyc.kycRequestList[]",
          "name": "",
          "type": "tuple[]"
        },
        {
          "internalType": "uint256",
          "name": "",
          "type": "uint256"
        }
      ],
      "payable": false,
      "stateMutability": "view",
      "type": "function"
    },
    {
      "constant": false,
      "inputs": [
        {
          "internalType": "uint256",
          "name": "_reqcount",
          "type": "uint256"
        },
        {
          "internalType": "uint256",
          "name": "_uname",
          "type": "uint256"
        },
        {
          "internalType": "address",
          "name": "_ethAddress",
          "type": "address"
        },
        {
          "internalType": "bool",
          "name": "_isAllowed",
          "type": "bool"
        }
      ],
      "name": "giveAccessKYC",
      "outputs": [
        {
          "internalType": "bool",
          "name": "",
          "type": "bool"
        }
      ],
      "payable": false,
      "stateMutability": "nonpayable",
      "type": "function"
    },
    {
      "constant": false,
      "inputs": [
        {
          "internalType": "uint256",
          "name": "_uname",
          "type": "uint256"
        },
        {
          "internalType": "address",
          "name": "_ethAddress",
          "type": "address"
        }
      ],
      "name": "revokeAccessKYC",
      "outputs": [
        {
          "internalType": "bool",
          "name": "",
          "type": "bool"
        }
      ],
      "payable": false,
      "stateMutability": "nonpayable",
      "type": "function"
    }
  ],
  "bytecode": "0x608060405234801561001057600080fd5b50336000806101000a81548173ffffffffffffffffffffffffffffffffffffffff021916908373ffffffffffffffffffffffffffffffffffffffff1602179055506139e8806100606000396000f3fe6080604052600436106100f35760003560e01c8063b7e4a42d1161008a578063e13fd3f111610059578063e13fd3f1146103a9578063e9a21bcd146103e6578063f3a9b5881461040f578063f851a4401461043b576100f3565b8063b7e4a42d146102c2578063cd8a3553146102ff578063d5ffab1014610341578063d6bbbf841461037e576100f3565b80636d7fc14b116100c65780636d7fc14b146101ce57806388c4ce541461020b5780638d601b8214610248578063a1ac9e5714610285576100f3565b8063095111e2146100f85780631e8a49e01461013557806326e85250146101655780634f4b4f78146101a3575b600080fd5b34801561010457600080fd5b5061011f600480360361011a9190810190612cf2565b610466565b60405161012c91906133ad565b60405180910390f35b61014f600480360361014a9190810190612cf2565b6106c1565b60405161015c91906133ad565b60405180910390f35b34801561017157600080fd5b5061018c60048036036101879190810190612c8d565b610931565b60405161019a92919061373a565b60405180910390f35b3480156101af57600080fd5b506101b8610b9b565b6040516101c591906133ad565b60405180910390f35b3480156101da57600080fd5b506101f560048036036101f09190810190612c8d565b610c44565b60405161020291906133ad565b60405180910390f35b34801561021757600080fd5b50610232600480360361022d9190810190612c10565b610eef565b60405161023f91906133c8565b60405180910390f35b34801561025457600080fd5b5061026f600480360361026a9190810190612cb6565b611132565b60405161027c91906133ad565b60405180910390f35b34801561029157600080fd5b506102ac60048036036102a79190810190612c39565b611347565b6040516102b991906133ad565b60405180910390f35b3480156102ce57600080fd5b506102e960048036036102e49190810190612c10565b611686565b6040516102f691906133ad565b60405180910390f35b34801561030b57600080fd5b5061032660048036036103219190810190612c8d565b6118a0565b604051610338969594939291906136c4565b60405180910390f35b34801561034d57600080fd5b5061036860048036036103639190810190612c8d565b611b60565b60405161037591906133ad565b60405180910390f35b34801561038a57600080fd5b50610393611ee2565b6040516103a091906133ad565b60405180910390f35b3480156103b557600080fd5b506103d060048036036103cb9190810190612d85565b611f4a565b6040516103dd91906133ad565b60405180910390f35b3480156103f257600080fd5b5061040d60048036036104089190810190612c8d565b6120d9565b005b34801561041b57600080fd5b50610424612510565b60405161043292919061337d565b60405180910390f35b34801561044757600080fd5b5061045061276e565b60405161045d9190613362565b60405180910390f35b60003373ffffffffffffffffffffffffffffffffffffffff16600260003373ffffffffffffffffffffffffffffffffffffffff1673ffffffffffffffffffffffffffffffffffffffff16815260200190815260200160002060010160009054906101000a900473ffffffffffffffffffffffffffffffffffffffff1673ffffffffffffffffffffffffffffffffffffffff1614610538576040517f08c379a000000000000000000000000000000000000000000000000000000000815260040161052f9061357a565b60405180910390fd5b84600160008781526020019081526020016000206000015414610590576040517f08c379a0000000000000000000000000000000000000000000000000000000008152600401610587906135ba565b60405180910390fd5b61059a8533612793565b6105d9576040517f08c379a00000000000000000000000000000000000000000000000000000000081526004016105d09061343a565b60405180910390fd5b8460016000878152602001908152602001600020600001819055508360016000878152602001908152602001600020600101908051906020019061061e9291906129f6565b50826001600087815260200190815260200160002060020190805190602001906106499291906129f6565b50816001600087815260200190815260200160002060040160006101000a81548160ff0219169083151502179055507f59e0bb35ae414be694461dc44da786d28a6a91086adf4a5a96bd0088e9363457858585856040516106ad9493929190613671565b60405180910390a160019050949350505050565b60003373ffffffffffffffffffffffffffffffffffffffff16600260003373ffffffffffffffffffffffffffffffffffffffff1673ffffffffffffffffffffffffffffffffffffffff16815260200190815260200160002060010160009054906101000a900473ffffffffffffffffffffffffffffffffffffffff1673ffffffffffffffffffffffffffffffffffffffff1614610793576040517f08c379a000000000000000000000000000000000000000000000000000000000815260040161078a9061357a565b60405180910390fd5b84600160008781526020019081526020016000206000015414156107ec576040517f08c379a00000000000000000000000000000000000000000000000000000000081526004016107e3906134fa565b60405180910390fd5b846001600087815260200190815260200160002060000181905550836001600087815260200190815260200160002060010190805190602001906108319291906129f6565b508260016000878152602001908152602001600020600201908051906020019061085c9291906129f6565b50816001600087815260200190815260200160002060040160006101000a81548160ff02191690831515021790555061089485611b60565b506108e76001600360003373ffffffffffffffffffffffffffffffffffffffff1673ffffffffffffffffffffffffffffffffffffffff168152602001908152602001600020600101540386336001611f4a565b507f65f71a0c28d1799bcb5d9a2457c840a672087598af816fec0f96a3172d994fb18585858560405161091d9493929190613671565b60405180910390a160019050949350505050565b6000803373ffffffffffffffffffffffffffffffffffffffff16600260003373ffffffffffffffffffffffffffffffffffffffff1673ffffffffffffffffffffffffffffffffffffffff16815260200190815260200160002060010160009054906101000a900473ffffffffffffffffffffffffffffffffffffffff1673ffffffffffffffffffffffffffffffffffffffff1614610a04576040517f08c379a00000000000000000000000000000000000000000000000000000000081526004016109fb9061357a565b60405180910390fd5b3373ffffffffffffffffffffffffffffffffffffffff16600360003373ffffffffffffffffffffffffffffffffffffffff1673ffffffffffffffffffffffffffffffffffffffff16815260200190815260200160002060000160009054906101000a900473ffffffffffffffffffffffffffffffffffffffff1673ffffffffffffffffffffffffffffffffffffffff1614610ad4576040517f08c379a0000000000000000000000000000000000000000000000000000000008152600401610acb9061355a565b60405180910390fd5b600360003373ffffffffffffffffffffffffffffffffffffffff1673ffffffffffffffffffffffffffffffffffffffff1681526020019081526020016000206002018381548110610b2157fe5b906000526020600020906002020160000154600360003373ffffffffffffffffffffffffffffffffffffffff1673ffffffffffffffffffffffffffffffffffffffff1681526020019081526020016000206002018481548110610b8057fe5b90600052602060002090600202016001015491509150915091565b60003373ffffffffffffffffffffffffffffffffffffffff16600260003373ffffffffffffffffffffffffffffffffffffffff1673ffffffffffffffffffffffffffffffffffffffff16815260200190815260200160002060010160009054906101000a900473ffffffffffffffffffffffffffffffffffffffff1673ffffffffffffffffffffffffffffffffffffffff161415610c3c5760019050610c41565b600090505b90565b60003373ffffffffffffffffffffffffffffffffffffffff16600260003373ffffffffffffffffffffffffffffffffffffffff1673ffffffffffffffffffffffffffffffffffffffff16815260200190815260200160002060010160009054906101000a900473ffffffffffffffffffffffffffffffffffffffff1673ffffffffffffffffffffffffffffffffffffffff1614610d16576040517f08c379a0000000000000000000000000000000000000000000000000000000008152600401610d0d9061357a565b60405180910390fd5b81600160008481526020019081526020016000206000015414610d6e576040517f08c379a0000000000000000000000000000000000000000000000000000000008152600401610d65906135ba565b60405180910390fd5b610d788233612793565b610db7576040517f08c379a0000000000000000000000000000000000000000000000000000000008152600401610dae9061343a565b60405180910390fd5b6000610dc3833361285a565b9050600160008481526020019081526020016000206003016001806000868152602001908152602001600020600301805490500381548110610e0157fe5b9060005260206000200160009054906101000a900473ffffffffffffffffffffffffffffffffffffffff16600160008581526020019081526020016000206003018281548110610e4d57fe5b9060005260206000200160006101000a81548173ffffffffffffffffffffffffffffffffffffffff021916908373ffffffffffffffffffffffffffffffffffffffff16021790555060016000848152602001908152602001600020600301805480610eb457fe5b6001900381819060005260206000200160006101000a81549073ffffffffffffffffffffffffffffffffffffffff0219169055905550919050565b60603373ffffffffffffffffffffffffffffffffffffffff166000809054906101000a900473ffffffffffffffffffffffffffffffffffffffff1673ffffffffffffffffffffffffffffffffffffffff1614610f80576040517f08c379a0000000000000000000000000000000000000000000000000000000008152600401610f779061347a565b60405180910390fd5b8173ffffffffffffffffffffffffffffffffffffffff16600260008473ffffffffffffffffffffffffffffffffffffffff1673ffffffffffffffffffffffffffffffffffffffff16815260200190815260200160002060010160009054906101000a900473ffffffffffffffffffffffffffffffffffffffff1673ffffffffffffffffffffffffffffffffffffffff1614611050576040517f08c379a00000000000000000000000000000000000000000000000000000000081526004016110479061353a565b60405180910390fd5b600260008373ffffffffffffffffffffffffffffffffffffffff1673ffffffffffffffffffffffffffffffffffffffff1681526020019081526020016000206000018054600181600116156101000203166002900480601f0160208091040260200160405190810160405280929190818152602001828054600181600116156101000203166002900480156111265780601f106110fb57610100808354040283529160200191611126565b820191906000526020600020905b81548152906001019060200180831161110957829003601f168201915b50505050509050919050565b60008260016000858152602001908152602001600020600001541461118c576040517f08c379a0000000000000000000000000000000000000000000000000000000008152600401611183906135ba565b60405180910390fd5b6111968383612793565b6111d5576040517f08c379a00000000000000000000000000000000000000000000000000000000081526004016111cc9061343a565b60405180910390fd5b60006111e1848461285a565b905060016000858152602001908152602001600020600301600180600087815260200190815260200160002060030180549050038154811061121f57fe5b9060005260206000200160009054906101000a900473ffffffffffffffffffffffffffffffffffffffff1660016000868152602001908152602001600020600301828154811061126b57fe5b9060005260206000200160006101000a81548173ffffffffffffffffffffffffffffffffffffffff021916908373ffffffffffffffffffffffffffffffffffffffff160217905550600160008581526020019081526020016000206003018054806112d257fe5b6001900381819060005260206000200160006101000a81549073ffffffffffffffffffffffffffffffffffffffff021916905590557f159e29770c6ccc02189394da58de2c7455eddc8880d58d745b6add6bd463927e84846040516113389291906135da565b60405180910390a15092915050565b60003373ffffffffffffffffffffffffffffffffffffffff166000809054906101000a900473ffffffffffffffffffffffffffffffffffffffff1673ffffffffffffffffffffffffffffffffffffffff16146113d8576040517f08c379a00000000000000000000000000000000000000000000000000000000081526004016113cf9061347a565b60405180910390fd5b8173ffffffffffffffffffffffffffffffffffffffff16600260008473ffffffffffffffffffffffffffffffffffffffff1673ffffffffffffffffffffffffffffffffffffffff16815260200190815260200160002060010160009054906101000a900473ffffffffffffffffffffffffffffffffffffffff1673ffffffffffffffffffffffffffffffffffffffff1614156114a9576040517f08c379a00000000000000000000000000000000000000000000000000000000081526004016114a0906134da565b60405180910390fd5b60405180604001604052808481526020018373ffffffffffffffffffffffffffffffffffffffff16815250600260008473ffffffffffffffffffffffffffffffffffffffff1673ffffffffffffffffffffffffffffffffffffffff168152602001908152602001600020600082015181600001908051906020019061152f929190612a76565b5060208201518160010160006101000a81548173ffffffffffffffffffffffffffffffffffffffff021916908373ffffffffffffffffffffffffffffffffffffffff16021790555090505081600360008473ffffffffffffffffffffffffffffffffffffffff1673ffffffffffffffffffffffffffffffffffffffff16815260200190815260200160002060000160006101000a81548173ffffffffffffffffffffffffffffffffffffffff021916908373ffffffffffffffffffffffffffffffffffffffff1602179055506000600360008473ffffffffffffffffffffffffffffffffffffffff1673ffffffffffffffffffffffffffffffffffffffff168152602001908152602001600020600101819055507f19cb05bcb9f3a5aa3801619041099231656235762a3599eed02cdcac38facd1c83836040516116749291906133ea565b60405180910390a16001905092915050565b60003373ffffffffffffffffffffffffffffffffffffffff166000809054906101000a900473ffffffffffffffffffffffffffffffffffffffff1673ffffffffffffffffffffffffffffffffffffffff1614611717576040517f08c379a000000000000000000000000000000000000000000000000000000000815260040161170e9061347a565b60405180910390fd5b8173ffffffffffffffffffffffffffffffffffffffff16600260008473ffffffffffffffffffffffffffffffffffffffff1673ffffffffffffffffffffffffffffffffffffffff16815260200190815260200160002060010160009054906101000a900473ffffffffffffffffffffffffffffffffffffffff1673ffffffffffffffffffffffffffffffffffffffff16146117e7576040517f08c379a00000000000000000000000000000000000000000000000000000000081526004016117de9061353a565b60405180910390fd5b600260008373ffffffffffffffffffffffffffffffffffffffff1673ffffffffffffffffffffffffffffffffffffffff168152602001908152602001600020600080820160006118379190612af6565b6001820160006101000a81549073ffffffffffffffffffffffffffffffffffffffff021916905550507f4630061df51c52d44a3987b904c6ff220da2cbdeff03ce8750cd14652cae0c6c8260405161188f9190613362565b60405180910390a160019050919050565b60006060806000606060006118b58733612793565b6118f4576040517f08c379a00000000000000000000000000000000000000000000000000000000081526004016118eb9061345a565b60405180910390fd5b600160008881526020019081526020016000206000015460016000898152602001908152602001600020600101600160008a8152602001908152602001600020600201600160008b815260200190815260200160002060040160009054906101000a900460ff16600160008c8152602001908152602001600020600301600160008d815260200190815260200160002060030180549050848054600181600116156101000203166002900480601f016020809104026020016040519081016040528092919081815260200182805460018160011615610100020316600290048015611a205780601f106119f557610100808354040283529160200191611a20565b820191906000526020600020905b815481529060010190602001808311611a0357829003601f168201915b50505050509450838054600181600116156101000203166002900480601f016020809104026020016040519081016040528092919081815260200182805460018160011615610100020316600290048015611abc5780601f10611a9157610100808354040283529160200191611abc565b820191906000526020600020905b815481529060010190602001808311611a9f57829003601f168201915b5050505050935081805480602002602001604051908101604052809291908181526020018280548015611b4457602002820191906000526020600020905b8160009054906101000a900473ffffffffffffffffffffffffffffffffffffffff1673ffffffffffffffffffffffffffffffffffffffff1681526020019060010190808311611afa575b5050505050915095509550955095509550955091939550919395565b60003373ffffffffffffffffffffffffffffffffffffffff16600260003373ffffffffffffffffffffffffffffffffffffffff1673ffffffffffffffffffffffffffffffffffffffff16815260200190815260200160002060010160009054906101000a900473ffffffffffffffffffffffffffffffffffffffff1673ffffffffffffffffffffffffffffffffffffffff1614611c32576040517f08c379a0000000000000000000000000000000000000000000000000000000008152600401611c299061357a565b60405180910390fd5b81600160008481526020019081526020016000206000015414611c8a576040517f08c379a0000000000000000000000000000000000000000000000000000000008152600401611c819061349a565b60405180910390fd5b60001515611c988333612793565b151514611cda576040517f08c379a0000000000000000000000000000000000000000000000000000000008152600401611cd19061359a565b60405180910390fd5b60001515611ce783612920565b151514611d29576040517f08c379a0000000000000000000000000000000000000000000000000000000008152600401611d209061351a565b60405180910390fd5b600360003373ffffffffffffffffffffffffffffffffffffffff1673ffffffffffffffffffffffffffffffffffffffff1681526020019081526020016000206002016040518060400160405280600360003373ffffffffffffffffffffffffffffffffffffffff1673ffffffffffffffffffffffffffffffffffffffff16815260200190815260200160002060010154815260200184815250908060018154018082558091505090600182039060005260206000209060020201600090919290919091506000820151816000015560208201518160010155505050600360003373ffffffffffffffffffffffffffffffffffffffff1673ffffffffffffffffffffffffffffffffffffffff168152602001908152602001600020600101600081548092919060010191905055507fbd8f4e4ccbdc1cf1e22c75df3109236e48c7553dc96ae81638e51c0f73338cd36001600360003373ffffffffffffffffffffffffffffffffffffffff1673ffffffffffffffffffffffffffffffffffffffff168152602001908152602001600020600101540333846000604051611ed1949392919061362c565b60405180910390a160019050919050565b60003373ffffffffffffffffffffffffffffffffffffffff166000809054906101000a900473ffffffffffffffffffffffffffffffffffffffff1673ffffffffffffffffffffffffffffffffffffffff161415611f425760019050611f47565b600090505b90565b600084600360008573ffffffffffffffffffffffffffffffffffffffff1673ffffffffffffffffffffffffffffffffffffffff1681526020019081526020016000206002018681548110611f9a57fe5b90600052602060002090600202016000015414611fec576040517f08c379a0000000000000000000000000000000000000000000000000000000008152600401611fe3906134ba565b60405180910390fd5b6001151582151514156120d157600015156120078533612793565b1515141561208a57600160008581526020019081526020016000206003018390806001815401808255809150509060018203906000526020600020016000909192909190916101000a81548173ffffffffffffffffffffffffffffffffffffffff021916908373ffffffffffffffffffffffffffffffffffffffff160217905550505b612093856120d9565b7f60f80102f6302a4ebbd9c69d73d026bc0475510efeeb3ce3afe2784a1c40ba56858585856040516120c89493929190613763565b60405180910390a15b949350505050565b3373ffffffffffffffffffffffffffffffffffffffff16600260003373ffffffffffffffffffffffffffffffffffffffff1673ffffffffffffffffffffffffffffffffffffffff16815260200190815260200160002060010160009054906101000a900473ffffffffffffffffffffffffffffffffffffffff1673ffffffffffffffffffffffffffffffffffffffff16146121a9576040517f08c379a00000000000000000000000000000000000000000000000000000000081526004016121a09061357a565b60405180910390fd5b80600360003373ffffffffffffffffffffffffffffffffffffffff1673ffffffffffffffffffffffffffffffffffffffff16815260200190815260200160002060020182815481106121f757fe5b90600052602060002090600202016000015414612249576040517f08c379a00000000000000000000000000000000000000000000000000000000081526004016122409061341a565b60405180910390fd5b600360003373ffffffffffffffffffffffffffffffffffffffff1673ffffffffffffffffffffffffffffffffffffffff1681526020019081526020016000206002016001600360003373ffffffffffffffffffffffffffffffffffffffff1673ffffffffffffffffffffffffffffffffffffffff1681526020019081526020016000206002018054905003815481106122de57fe5b9060005260206000209060020201600360003373ffffffffffffffffffffffffffffffffffffffff1673ffffffffffffffffffffffffffffffffffffffff168152602001908152602001600020600201828154811061233957fe5b90600052602060002090600202016000820154816000015560018201548160010155905050600360003373ffffffffffffffffffffffffffffffffffffffff1673ffffffffffffffffffffffffffffffffffffffff1681526020019081526020016000206002018054806123a957fe5b60019003818190600052602060002090600202016000808201600090556001820160009055505090556001600360003373ffffffffffffffffffffffffffffffffffffffff1673ffffffffffffffffffffffffffffffffffffffff1681526020019081526020016000206001015411156124815780600360003373ffffffffffffffffffffffffffffffffffffffff1673ffffffffffffffffffffffffffffffffffffffff168152602001908152602001600020600201828154811061246b57fe5b9060005260206000209060020201600001819055505b600360003373ffffffffffffffffffffffffffffffffffffffff1673ffffffffffffffffffffffffffffffffffffffff16815260200190815260200160002060010160008154809291906001900391905055507f5bc31e521401c7e4fbe27cc8e953ddcd66ce6cc84d810d1850450e7964029d958133604051612505929190613603565b60405180910390a150565b606060003373ffffffffffffffffffffffffffffffffffffffff16600260003373ffffffffffffffffffffffffffffffffffffffff1673ffffffffffffffffffffffffffffffffffffffff16815260200190815260200160002060010160009054906101000a900473ffffffffffffffffffffffffffffffffffffffff1673ffffffffffffffffffffffffffffffffffffffff16146125e4576040517f08c379a00000000000000000000000000000000000000000000000000000000081526004016125db9061357a565b60405180910390fd5b6060600360003373ffffffffffffffffffffffffffffffffffffffff1673ffffffffffffffffffffffffffffffffffffffff1681526020019081526020016000206001015460405190808252806020026020018201604052801561266257816020015b61264f612b3e565b8152602001906001900390816126475790505b509050600080905060008090505b600360003373ffffffffffffffffffffffffffffffffffffffff1673ffffffffffffffffffffffffffffffffffffffff1681526020019081526020016000206001015481101561276057600360003373ffffffffffffffffffffffffffffffffffffffff1673ffffffffffffffffffffffffffffffffffffffff168152602001908152602001600020600201818154811061270757fe5b90600052602060002090600202016040518060400160405290816000820154815260200160018201548152505083838151811061274057fe5b602002602001018190525081806001019250508080600101915050612670565b508182519350935050509091565b6000809054906101000a900473ffffffffffffffffffffffffffffffffffffffff1681565b600080600090505b6001600085815260200190815260200160002060030180549050811015612852578273ffffffffffffffffffffffffffffffffffffffff166001600086815260200190815260200160002060030182815481106127f457fe5b9060005260206000200160009054906101000a900473ffffffffffffffffffffffffffffffffffffffff1673ffffffffffffffffffffffffffffffffffffffff161415612845576001915050612854565b808060010191505061279b565b505b92915050565b600080600090505b6001600085815260200190815260200160002060030180549050811015612918578273ffffffffffffffffffffffffffffffffffffffff166001600086815260200190815260200160002060030182815481106128bb57fe5b9060005260206000200160009054906101000a900473ffffffffffffffffffffffffffffffffffffffff1673ffffffffffffffffffffffffffffffffffffffff16141561290b578091505061291a565b8080600101915050612862565b505b92915050565b600080600090505b600360003373ffffffffffffffffffffffffffffffffffffffff1673ffffffffffffffffffffffffffffffffffffffff168152602001908152602001600020600101548110156129ef5782600360003373ffffffffffffffffffffffffffffffffffffffff1673ffffffffffffffffffffffffffffffffffffffff16815260200190815260200160002060020182815481106129c057fe5b90600052602060002090600202016001015414156129e25760019150506129f1565b8080600101915050612928565b505b919050565b828054600181600116156101000203166002900490600052602060002090601f016020900481019282601f10612a3757805160ff1916838001178555612a65565b82800160010185558215612a65579182015b82811115612a64578251825591602001919060010190612a49565b5b509050612a729190612b58565b5090565b828054600181600116156101000203166002900490600052602060002090601f016020900481019282601f10612ab757805160ff1916838001178555612ae5565b82800160010185558215612ae5579182015b82811115612ae4578251825591602001919060010190612ac9565b5b509050612af29190612b58565b5090565b50805460018160011615610100020316600290046000825580601f10612b1c5750612b3b565b601f016020900490600052602060002090810190612b3a9190612b58565b5b50565b604051806040016040528060008152602001600081525090565b612b7a91905b80821115612b76576000816000905550600101612b5e565b5090565b90565b600081359050612b8c81613960565b92915050565b600081359050612ba181613977565b92915050565b600082601f830112612bb857600080fd5b8135612bcb612bc6826137d5565b6137a8565b91508082526020830160208301858383011115612be757600080fd5b612bf283828461390d565b50505092915050565b600081359050612c0a8161398e565b92915050565b600060208284031215612c2257600080fd5b6000612c3084828501612b7d565b91505092915050565b60008060408385031215612c4c57600080fd5b600083013567ffffffffffffffff811115612c6657600080fd5b612c7285828601612ba7565b9250506020612c8385828601612b7d565b9150509250929050565b600060208284031215612c9f57600080fd5b6000612cad84828501612bfb565b91505092915050565b60008060408385031215612cc957600080fd5b6000612cd785828601612bfb565b9250506020612ce885828601612b7d565b9150509250929050565b60008060008060808587031215612d0857600080fd5b6000612d1687828801612bfb565b945050602085013567ffffffffffffffff811115612d3357600080fd5b612d3f87828801612ba7565b935050604085013567ffffffffffffffff811115612d5c57600080fd5b612d6887828801612ba7565b9250506060612d7987828801612b92565b91505092959194509250565b60008060008060808587031215612d9b57600080fd5b6000612da987828801612bfb565b9450506020612dba87828801612bfb565b9350506040612dcb87828801612b7d565b9250506060612ddc87828801612b92565b91505092959194509250565b6000612df48383612e27565b60208301905092915050565b6000612e0c8383613315565b60408301905092915050565b612e21816138d7565b82525050565b612e308161388f565b82525050565b612e3f8161388f565b82525050565b6000612e5082613821565b612e5a818561385c565b9350612e6583613801565b8060005b83811015612e96578151612e7d8882612de8565b9750612e8883613842565b925050600181019050612e69565b5085935050505092915050565b6000612eae8261382c565b612eb8818561386d565b9350612ec383613811565b8060005b83811015612ef4578151612edb8882612e00565b9750612ee68361384f565b925050600181019050612ec7565b5085935050505092915050565b612f0a816138a1565b82525050565b6000612f1b82613837565b612f25818561387e565b9350612f3581856020860161391c565b612f3e8161394f565b840191505092915050565b6000612f5660148361387e565b91507f5265717565737420646f65736e742065786973740000000000000000000000006000830152602082019050919050565b6000612f9660218361387e565b91507f596f7520646f6e7420686176652061636365737320746f20746869732075736560008301527f72000000000000000000000000000000000000000000000000000000000000006020830152604082019050919050565b6000612ffc601e8361387e565b91507f55736572206861736e7420676976656e20746865697220636f6e73656e7400006000830152602082019050919050565b600061303c60168361387e565b91507f4f6e6c792061646d696e2061726520616c6c6f776564000000000000000000006000830152602082019050919050565b600061307c60168361387e565b91507f437573746f6d657220646f65736e7420657869737473000000000000000000006000830152602082019050919050565b60006130bc60128361387e565b91507f5265717565737473206e6f7420666f756e6400000000000000000000000000006000830152602082019050919050565b60006130fc60118361387e565b91507f4f726720616c72656164792061646465640000000000000000000000000000006000830152602082019050919050565b600061313c60138361387e565b91507f5573657220616c726561647920657869737473000000000000000000000000006000830152602082019050919050565b600061317c60168361387e565b91507f5265717565737420416c726561647920457869737473000000000000000000006000830152602082019050919050565b60006131bc60108361387e565b91507f4f726720646f65736e74206578697374000000000000000000000000000000006000830152602082019050919050565b60006131fc60168361387e565b91507f596f7520617265206e6f7420617574686f72697a6564000000000000000000006000830152602082019050919050565b600061323c60318361387e565b91507f556e61757468656e74696361746564206f7267616e697a6174696f6e207c204e60008301527f6f742061646465642062792061646d696e0000000000000000000000000000006020830152604082019050919050565b60006132a260138361387e565b91507f416c7265616479206861766520616363657373000000000000000000000000006000830152602082019050919050565b60006132e260128361387e565b91507f5573657220646f65736e277420657869737400000000000000000000000000006000830152602082019050919050565b60408201600082015161332b6000850182613344565b50602082015161333e6020850182613344565b50505050565b61334d816138cd565b82525050565b61335c816138cd565b82525050565b60006020820190506133776000830184612e36565b92915050565b600060408201905081810360008301526133978185612ea3565b90506133a66020830184613353565b9392505050565b60006020820190506133c26000830184612f01565b92915050565b600060208201905081810360008301526133e28184612f10565b905092915050565b600060408201905081810360008301526134048185612f10565b90506134136020830184612e36565b9392505050565b6000602082019050818103600083015261343381612f49565b9050919050565b6000602082019050818103600083015261345381612f89565b9050919050565b6000602082019050818103600083015261347381612fef565b9050919050565b600060208201905081810360008301526134938161302f565b9050919050565b600060208201905081810360008301526134b38161306f565b9050919050565b600060208201905081810360008301526134d3816130af565b9050919050565b600060208201905081810360008301526134f3816130ef565b9050919050565b600060208201905081810360008301526135138161312f565b9050919050565b600060208201905081810360008301526135338161316f565b9050919050565b60006020820190508181036000830152613553816131af565b9050919050565b60006020820190508181036000830152613573816131ef565b9050919050565b600060208201905081810360008301526135938161322f565b9050919050565b600060208201905081810360008301526135b381613295565b9050919050565b600060208201905081810360008301526135d3816132d5565b9050919050565b60006040820190506135ef6000830185613353565b6135fc6020830184612e36565b9392505050565b60006040820190506136186000830185613353565b6136256020830184612e18565b9392505050565b60006080820190506136416000830187613353565b61364e6020830186612e18565b61365b6040830185613353565b6136686060830184612f01565b95945050505050565b60006080820190506136866000830187613353565b81810360208301526136988186612f10565b905081810360408301526136ac8185612f10565b90506136bb6060830184612f01565b95945050505050565b600060c0820190506136d96000830189613353565b81810360208301526136eb8188612f10565b905081810360408301526136ff8187612f10565b905061370e6060830186612f01565b81810360808301526137208185612e45565b905061372f60a0830184613353565b979650505050505050565b600060408201905061374f6000830185613353565b61375c6020830184613353565b9392505050565b60006080820190506137786000830187613353565b6137856020830186613353565b6137926040830185612e36565b61379f6060830184612f01565b95945050505050565b6000604051905081810181811067ffffffffffffffff821117156137cb57600080fd5b8060405250919050565b600067ffffffffffffffff8211156137ec57600080fd5b601f19601f8301169050602081019050919050565b6000819050602082019050919050565b6000819050602082019050919050565b600081519050919050565b600081519050919050565b600081519050919050565b6000602082019050919050565b6000602082019050919050565b600082825260208201905092915050565b600082825260208201905092915050565b600082825260208201905092915050565b600061389a826138ad565b9050919050565b60008115159050919050565b600073ffffffffffffffffffffffffffffffffffffffff82169050919050565b6000819050919050565b60006138e2826138e9565b9050919050565b60006138f4826138fb565b9050919050565b6000613906826138ad565b9050919050565b82818337600083830152505050565b60005b8381101561393a57808201518184015260208101905061391f565b83811115613949576000848401525b50505050565b6000601f19601f8301169050919050565b6139698161388f565b811461397457600080fd5b50565b613980816138a1565b811461398b57600080fd5b50565b613997816138cd565b81146139a257600080fd5b5056fea365627a7a72315820acab792a3c400fae2212fea27d17467836345f3f8aa663806f8d080f681b08796c6578706572696d656e74616cf564736f6c63430005100040",
  "source": "// SPDX-License-Identifier: MIT\r\npragma solidity >=0.4.21 <0.7.0;\r\npragma experimental ABIEncoderV2;  \r\n\r\ncontract Kyc {\r\n  address public admin;\r\n  struct Customer {\r\n      uint uname;\r\n      string name;\r\n      string location;\r\n      address[] organization;\r\n      bool kycStatus;\r\n  }\r\n\r\n  struct Organization {\r\n      string name;\r\n      address ethAddress;\r\n  }\r\n\r\n  struct kycRequest{\r\n      address ethAddress;\r\n      uint req_count;\r\n      kycRequestList[] kycrequestlist;\r\n  }\r\n  \r\n  struct kycRequestList{\r\n      uint req_count;\r\n      uint uname;\r\n  }\r\n\r\n  constructor() public {\r\n      admin = msg.sender;\r\n  }\r\n\r\n  mapping(uint => Customer) customers;\r\n  mapping(address => Organization) organizations;\r\n  mapping(address => kycRequest) kycrequestsbyorg;\r\n\r\n  event orgAdded(string name,address ethAddress);\r\n  event orgRemoved(address ethAddress);\r\n  event customerAdded(uint uname,string name,string location,bool kycStatus);\r\n  event customerUpdated(uint uname,string name,string location,bool kycStatus);\r\n  event requestAdded(uint reqid,address ethAddress, uint uname,bool isAllowed);\r\n  event requestRemoved(uint reqid,address ethAddress);\r\n  event accessGiven(uint reqid,uint uname,address ethAddress,bool isAllowed);\r\n  event accessRevoked(uint uname,address ethAddress);\r\n\r\n// Checks whether the requestor is admin\r\n  modifier isAdmin {\r\n      require(\r\n          admin == msg.sender,\r\n          \"Only admin are allowed\"\r\n      );\r\n      _;\r\n  }\r\n\r\n// Checks wheter the org exists or not\r\n  modifier isOrgValid {\r\n      require(\r\n          organizations[msg.sender].ethAddress == msg.sender,\r\n          \"Unauthenticated organization | Not added by admin\"    \r\n      );\r\n      _;\r\n  }\r\n\r\n//Check if Org has access to the user KYC\r\n  function findOrg(uint _uname,address ethAddress) internal view returns(bool){\r\n      uint i = 0;\r\n          for(i;i<customers[_uname].organization.length;i++){\r\n              if(customers[_uname].organization[i]==ethAddress){\r\n                  return true;\r\n              }\r\n          }\r\n  }\r\n\r\n//Find the index of Org in KYC.organization array\r\n  function findOrgIndex(uint _uname,address ethAddress) internal view returns(uint){\r\n      uint i = 0;\r\n      for(i;i<customers[_uname].organization.length;i++){\r\n            if(customers[_uname].organization[i]==ethAddress){\r\n                return i;\r\n            }\r\n    }\r\n  }\r\n\r\n//Check if request exist \r\n  function findRequest(uint _uname) internal view returns(bool){\r\n      uint i=0;\r\n      for(i;i<kycrequestsbyorg[msg.sender].req_count;i++){\r\n          if(kycrequestsbyorg[msg.sender].kycrequestlist[i].uname==_uname){\r\n              return true;\r\n          }\r\n      }\r\n  }\r\n\r\n//Add organization ONLY BY ADMIN\r\n  function addOrg(string memory _name,address _ethAddress) public isAdmin returns(bool) {\r\n      require(organizations[_ethAddress].ethAddress!=_ethAddress,\"Org already added\");\r\n      organizations[_ethAddress]=Organization(_name,_ethAddress);\r\n      kycrequestsbyorg[_ethAddress].ethAddress=_ethAddress;\r\n      kycrequestsbyorg[_ethAddress].req_count=0;\r\n      emit orgAdded(_name,_ethAddress);\r\n      return true;\r\n  }\r\n\r\n//Remove Organization ONLY BY ADMIN \r\n  function removeOrg(address _ethAddress) public isAdmin returns(bool) {\r\n      require(organizations[_ethAddress].ethAddress==_ethAddress,\"Org doesnt exist\");\r\n      delete organizations[_ethAddress];\r\n      emit orgRemoved(_ethAddress);\r\n      return true;\r\n  }\r\n\r\n//Return Organization Info if it exists  \r\n  function viewOrg(address _ethAddress)public isAdmin view returns(string memory){\r\n      require(organizations[_ethAddress].ethAddress==_ethAddress,\"Org doesnt exist\");\r\n      return(organizations[_ethAddress].name);\r\n  }\r\n\r\n  function validOrg() public view returns(bool){\r\n    if(organizations[msg.sender].ethAddress==msg.sender){\r\n      return true;\r\n    }\r\n    else{\r\n      return false;\r\n    }\r\n  }\r\n  function validAdmin() public view returns(bool){\r\n    if(admin==msg.sender){\r\n      return true;\r\n    }\r\n    else{\r\n      return false;\r\n    }\r\n  }\r\n\r\n//Register User KYC by registered Orgs\r\n  function registerKYC(uint _uname , string memory _name, string memory _location,bool _kycStatus) public payable isOrgValid returns(bool){\r\n      require(customers[_uname].uname!=_uname,\"User already exists\");\r\n      customers[_uname].uname=_uname;\r\n      customers[_uname].name=_name;\r\n      customers[_uname].location=_location;\r\n      customers[_uname].kycStatus=_kycStatus;\r\n      requestKYC(_uname);\r\n      giveAccessKYC(kycrequestsbyorg[msg.sender].req_count -1,_uname,msg.sender,true);\r\n      emit customerAdded(_uname,_name,_location,_kycStatus);\r\n      return true;\r\n  }\r\n\r\n//View User KYC by Authorized Orgs  \r\n  function viewKYC(uint _uname) public view returns(uint,string memory,string memory,bool,address[] memory,uint){\r\n      require(findOrg(_uname,msg.sender),\"User hasnt given their consent\");\r\n      return(customers[_uname].uname,customers[_uname].name,customers[_uname].location,customers[_uname].kycStatus,customers[_uname].organization,customers[_uname].organization.length);\r\n  }\r\n\r\n//Update User KYC by registered and authorized orgs\r\n  function updateKYC(uint _uname , string memory _name, string memory _location,bool _kycStatus) public isOrgValid returns(bool){\r\n      require(customers[_uname].uname==_uname,\"User doesn't exist\");\r\n      require(findOrg(_uname,msg.sender),\"You dont have access to this user\");\r\n      customers[_uname].uname=_uname;\r\n      customers[_uname].name=_name;\r\n      customers[_uname].location=_location;\r\n      customers[_uname].kycStatus=_kycStatus;\r\n      emit customerUpdated(_uname,_name,_location,_kycStatus);\r\n      return true;\r\n  }\r\n\r\n//Remove User KYC by Orgs  \r\n  function removeKYC(uint _uname) public isOrgValid returns (bool){\r\n      require(customers[_uname].uname==_uname,\"User doesn't exist\");\r\n      require(findOrg(_uname,msg.sender),\"You dont have access to this user\");\r\n      uint i=findOrgIndex(_uname,msg.sender);\r\n      customers[_uname].organization[i]=customers[_uname].organization[customers[_uname].organization.length-1];\r\n      customers[_uname].organization.pop();\r\n  }\r\n\r\n//Request User KYC by Orgs  \r\n  function requestKYC(uint _uname) public isOrgValid returns(bool){\r\n      require(customers[_uname].uname==_uname,\"Customer doesnt exists\");\r\n      require(findOrg(_uname,msg.sender)==false,\"Already have access\");\r\n      require(findRequest(_uname)==false,\"Request Already Exists\");\r\n      kycrequestsbyorg[msg.sender].kycrequestlist.push(kycRequestList(kycrequestsbyorg[msg.sender].req_count,_uname));\r\n      kycrequestsbyorg[msg.sender].req_count++;\r\n      emit requestAdded(kycrequestsbyorg[msg.sender].req_count-1,msg.sender,_uname,false);\r\n      return true;\r\n  }\r\n\r\n//Delete User KYC Request By Orgs \r\n  function deleteRequest(uint _reqcount) public isOrgValid{\r\n      require(kycrequestsbyorg[msg.sender].kycrequestlist[_reqcount].req_count==_reqcount,\"Request doesnt exist\");\r\n      kycrequestsbyorg[msg.sender].kycrequestlist[_reqcount]=kycrequestsbyorg[msg.sender].kycrequestlist[kycrequestsbyorg[msg.sender].kycrequestlist.length-1];\r\n      kycrequestsbyorg[msg.sender].kycrequestlist.pop();\r\n      if(kycrequestsbyorg[msg.sender].req_count>1){\r\n          kycrequestsbyorg[msg.sender].kycrequestlist[_reqcount].req_count=_reqcount;\r\n      }\r\n      kycrequestsbyorg[msg.sender].req_count--;\r\n      emit requestRemoved(_reqcount,msg.sender);\r\n  }\r\n\r\n//View specific request by Orgs\r\n  function viewRequest(uint _reqcount) public isOrgValid view returns(uint, uint){\r\n      require(kycrequestsbyorg[msg.sender].ethAddress==msg.sender,\"You are not authorized\");\r\n      return(kycrequestsbyorg[msg.sender].kycrequestlist[_reqcount].req_count,kycrequestsbyorg[msg.sender].kycrequestlist[_reqcount].uname);\r\n  }\r\n\r\n//Return Array of all pending request of the orgs\r\n  function listRequest() public isOrgValid view returns(kycRequestList[] memory,uint){\r\n      kycRequestList[] memory ret =  new kycRequestList[](kycrequestsbyorg[msg.sender].req_count);\r\n      uint j = 0;\r\n        for (uint i = 0; i < kycrequestsbyorg[msg.sender].req_count; i++) {\r\n            ret[j] = kycrequestsbyorg[msg.sender].kycrequestlist[i];\r\n            j++;\r\n                \r\n        }\r\n    return (ret,ret.length);\r\n  }\r\n\r\n//Give User KYC access to Org\r\n  function giveAccessKYC(uint _reqcount,uint _uname,address _ethAddress,bool _isAllowed) public returns(bool){\r\n      require(kycrequestsbyorg[_ethAddress].kycrequestlist[_reqcount].req_count==_reqcount,\"Requests not found\");\r\n      if(_isAllowed == true){\r\n          if(findOrg(_uname,msg.sender) == false){\r\n              customers[_uname].organization.push(_ethAddress);\r\n          }\r\n          deleteRequest(_reqcount);\r\n          emit accessGiven(_reqcount,_uname,_ethAddress,_isAllowed);\r\n      }\r\n      \r\n  }\r\n\r\n//Revoke User KYC access of Orgs\r\n  function revokeAccessKYC(uint _uname,address _ethAddress) public returns(bool){\r\n      require(customers[_uname].uname==_uname,\"User doesn't exist\");\r\n      require(findOrg(_uname,_ethAddress),\"You dont have access to this user\");\r\n      uint i=findOrgIndex(_uname,_ethAddress);\r\n      customers[_uname].organization[i]=customers[_uname].organization[customers[_uname].organization.length-1];\r\n      customers[_uname].organization.pop();\r\n      emit accessRevoked(_uname,_ethAddress);\r\n  }\r\n  \r\n}\r\n",
  "sourcePath": "C:\\Users\\pemba\\Documents\\BlockChain\\kyc_blockchain\\contracts\\Kyc.sol",
  "compiler": {
    "name": "solc",
    "version": "0.5.16+commit.9c3226ce.Emscripten.clang"
  },
  "schemaVersion": "3.4.3",
  "updatedAt": "2021-09-13T09:54:01.361Z",
  "devdoc": {
    "methods": {}
  },
  "userdoc": {
    "methods": {}
  }
}