{
  "contractName": "Kyc",
  "abi": [
    {
      "inputs": [],
      "payable": false,
      "stateMutability": "nonpayable",
      "type": "constructor"
    },
    {
      "anonymous": false,
      "inputs": [
        {
          "indexed": false,
          "internalType": "uint256",
          "name": "reqid",
          "type": "uint256"
        },
        {
          "indexed": false,
          "internalType": "uint256",
          "name": "uname",
          "type": "uint256"
        },
        {
          "indexed": false,
          "internalType": "address",
          "name": "ethAddress",
          "type": "address"
        },
        {
          "indexed": false,
          "internalType": "bool",
          "name": "isAllowed",
          "type": "bool"
        }
      ],
      "name": "accessGiven",
      "type": "event"
    },
    {
      "anonymous": false,
      "inputs": [
        {
          "indexed": false,
          "internalType": "uint256",
          "name": "uname",
          "type": "uint256"
        },
        {
          "indexed": false,
          "internalType": "address",
          "name": "ethAddress",
          "type": "address"
        }
      ],
      "name": "accessRevoked",
      "type": "event"
    },
    {
      "anonymous": false,
      "inputs": [
        {
          "indexed": false,
          "internalType": "uint256",
          "name": "uname",
          "type": "uint256"
        },
        {
          "indexed": false,
          "internalType": "string",
          "name": "name",
          "type": "string"
        },
        {
          "indexed": false,
          "internalType": "string",
          "name": "location",
          "type": "string"
        },
        {
          "indexed": false,
          "internalType": "bool",
          "name": "kycStatus",
          "type": "bool"
        }
      ],
      "name": "customerAdded",
      "type": "event"
    },
    {
      "anonymous": false,
      "inputs": [
        {
          "indexed": false,
          "internalType": "uint256",
          "name": "uname",
          "type": "uint256"
        },
        {
          "indexed": false,
          "internalType": "string",
          "name": "name",
          "type": "string"
        },
        {
          "indexed": false,
          "internalType": "string",
          "name": "location",
          "type": "string"
        },
        {
          "indexed": false,
          "internalType": "bool",
          "name": "kycStatus",
          "type": "bool"
        }
      ],
      "name": "customerUpdated",
      "type": "event"
    },
    {
      "anonymous": false,
      "inputs": [
        {
          "indexed": false,
          "internalType": "string",
          "name": "name",
          "type": "string"
        },
        {
          "indexed": false,
          "internalType": "address",
          "name": "ethAddress",
          "type": "address"
        }
      ],
      "name": "orgAdded",
      "type": "event"
    },
    {
      "anonymous": false,
      "inputs": [
        {
          "indexed": false,
          "internalType": "address",
          "name": "ethAddress",
          "type": "address"
        }
      ],
      "name": "orgRemoved",
      "type": "event"
    },
    {
      "anonymous": false,
      "inputs": [
        {
          "indexed": false,
          "internalType": "uint256",
          "name": "reqid",
          "type": "uint256"
        },
        {
          "indexed": false,
          "internalType": "address",
          "name": "ethAddress",
          "type": "address"
        },
        {
          "indexed": false,
          "internalType": "uint256",
          "name": "uname",
          "type": "uint256"
        },
        {
          "indexed": false,
          "internalType": "bool",
          "name": "isAllowed",
          "type": "bool"
        }
      ],
      "name": "requestAdded",
      "type": "event"
    },
    {
      "anonymous": false,
      "inputs": [
        {
          "indexed": false,
          "internalType": "uint256",
          "name": "reqid",
          "type": "uint256"
        },
        {
          "indexed": false,
          "internalType": "address",
          "name": "ethAddress",
          "type": "address"
        }
      ],
      "name": "requestRemoved",
      "type": "event"
    },
    {
      "constant": true,
      "inputs": [],
      "name": "admin",
      "outputs": [
        {
          "internalType": "address",
          "name": "",
          "type": "address"
        }
      ],
      "payable": false,
      "stateMutability": "view",
      "type": "function"
    },
    {
      "constant": false,
      "inputs": [
        {
          "internalType": "string",
          "name": "_name",
          "type": "string"
        },
        {
          "internalType": "address",
          "name": "_ethAddress",
          "type": "address"
        }
      ],
      "name": "addOrg",
      "outputs": [
        {
          "internalType": "string",
          "name": "",
          "type": "string"
        }
      ],
      "payable": false,
      "stateMutability": "nonpayable",
      "type": "function"
    },
    {
      "constant": false,
      "inputs": [
        {
          "internalType": "address",
          "name": "_ethAddress",
          "type": "address"
        }
      ],
      "name": "removeOrg",
      "outputs": [
        {
          "internalType": "bool",
          "name": "",
          "type": "bool"
        }
      ],
      "payable": false,
      "stateMutability": "nonpayable",
      "type": "function"
    },
    {
      "constant": true,
      "inputs": [
        {
          "internalType": "address",
          "name": "_ethAddress",
          "type": "address"
        }
      ],
      "name": "viewOrg",
      "outputs": [
        {
          "internalType": "string",
          "name": "",
          "type": "string"
        }
      ],
      "payable": false,
      "stateMutability": "view",
      "type": "function"
    },
    {
      "constant": true,
      "inputs": [],
      "name": "validOrg",
      "outputs": [
        {
          "internalType": "bool",
          "name": "",
          "type": "bool"
        }
      ],
      "payable": false,
      "stateMutability": "view",
      "type": "function"
    },
    {
      "constant": true,
      "inputs": [],
      "name": "validAdmin",
      "outputs": [
        {
          "internalType": "bool",
          "name": "",
          "type": "bool"
        }
      ],
      "payable": false,
      "stateMutability": "view",
      "type": "function"
    },
    {
      "constant": false,
      "inputs": [
        {
          "internalType": "uint256",
          "name": "_uname",
          "type": "uint256"
        },
        {
          "internalType": "string",
          "name": "_name",
          "type": "string"
        },
        {
          "internalType": "string",
          "name": "_location",
          "type": "string"
        },
        {
          "internalType": "bool",
          "name": "_kycStatus",
          "type": "bool"
        }
      ],
      "name": "registerKYC",
      "outputs": [
        {
          "internalType": "bool",
          "name": "",
          "type": "bool"
        }
      ],
      "payable": true,
      "stateMutability": "payable",
      "type": "function"
    },
    {
      "constant": true,
      "inputs": [
        {
          "internalType": "uint256",
          "name": "_uname",
          "type": "uint256"
        }
      ],
      "name": "viewKYC",
      "outputs": [
        {
          "internalType": "uint256",
          "name": "",
          "type": "uint256"
        },
        {
          "internalType": "string",
          "name": "",
          "type": "string"
        },
        {
          "internalType": "string",
          "name": "",
          "type": "string"
        },
        {
          "internalType": "bool",
          "name": "",
          "type": "bool"
        },
        {
          "internalType": "address[]",
          "name": "",
          "type": "address[]"
        },
        {
          "internalType": "uint256",
          "name": "",
          "type": "uint256"
        }
      ],
      "payable": false,
      "stateMutability": "view",
      "type": "function"
    },
    {
      "constant": false,
      "inputs": [
        {
          "internalType": "uint256",
          "name": "_uname",
          "type": "uint256"
        },
        {
          "internalType": "string",
          "name": "_name",
          "type": "string"
        },
        {
          "internalType": "string",
          "name": "_location",
          "type": "string"
        },
        {
          "internalType": "bool",
          "name": "_kycStatus",
          "type": "bool"
        }
      ],
      "name": "updateKYC",
      "outputs": [
        {
          "internalType": "bool",
          "name": "",
          "type": "bool"
        }
      ],
      "payable": false,
      "stateMutability": "nonpayable",
      "type": "function"
    },
    {
      "constant": false,
      "inputs": [
        {
          "internalType": "uint256",
          "name": "_uname",
          "type": "uint256"
        }
      ],
      "name": "removeKYC",
      "outputs": [
        {
          "internalType": "bool",
          "name": "",
          "type": "bool"
        }
      ],
      "payable": false,
      "stateMutability": "nonpayable",
      "type": "function"
    },
    {
      "constant": false,
      "inputs": [
        {
          "internalType": "uint256",
          "name": "_uname",
          "type": "uint256"
        }
      ],
      "name": "requestKYC",
      "outputs": [
        {
          "internalType": "bool",
          "name": "",
          "type": "bool"
        }
      ],
      "payable": false,
      "stateMutability": "nonpayable",
      "type": "function"
    },
    {
      "constant": false,
      "inputs": [
        {
          "internalType": "uint256",
          "name": "_reqcount",
          "type": "uint256"
        }
      ],
      "name": "deleteRequest",
      "outputs": [],
      "payable": false,
      "stateMutability": "nonpayable",
      "type": "function"
    },
    {
      "constant": true,
      "inputs": [
        {
          "internalType": "uint256",
          "name": "_reqcount",
          "type": "uint256"
        }
      ],
      "name": "viewRequest",
      "outputs": [
        {
          "internalType": "uint256",
          "name": "",
          "type": "uint256"
        },
        {
          "internalType": "uint256",
          "name": "",
          "type": "uint256"
        }
      ],
      "payable": false,
      "stateMutability": "view",
      "type": "function"
    },
    {
      "constant": true,
      "inputs": [],
      "name": "listRequest",
      "outputs": [
        {
          "components": [
            {
              "internalType": "uint256",
              "name": "req_count",
              "type": "uint256"
            },
            {
              "internalType": "uint256",
              "name": "uname",
              "type": "uint256"
            }
          ],
          "internalType": "struct Kyc.kycRequestList[]",
          "name": "",
          "type": "tuple[]"
        },
        {
          "internalType": "uint256",
          "name": "",
          "type": "uint256"
        }
      ],
      "payable": false,
      "stateMutability": "view",
      "type": "function"
    },
    {
      "constant": false,
      "inputs": [
        {
          "internalType": "uint256",
          "name": "_reqcount",
          "type": "uint256"
        },
        {
          "internalType": "uint256",
          "name": "_uname",
          "type": "uint256"
        },
        {
          "internalType": "address",
          "name": "_ethAddress",
          "type": "address"
        },
        {
          "internalType": "bool",
          "name": "_isAllowed",
          "type": "bool"
        }
      ],
      "name": "giveAccessKYC",
      "outputs": [
        {
          "internalType": "bool",
          "name": "",
          "type": "bool"
        }
      ],
      "payable": false,
      "stateMutability": "nonpayable",
      "type": "function"
    },
    {
      "constant": false,
      "inputs": [
        {
          "internalType": "uint256",
          "name": "_uname",
          "type": "uint256"
        },
        {
          "internalType": "address",
          "name": "_ethAddress",
          "type": "address"
        }
      ],
      "name": "revokeAccessKYC",
      "outputs": [
        {
          "internalType": "bool",
          "name": "",
          "type": "bool"
        }
      ],
      "payable": false,
      "stateMutability": "nonpayable",
      "type": "function"
    }
  ],
  "bytecode": "0x608060405234801561001057600080fd5b50336000806101000a81548173ffffffffffffffffffffffffffffffffffffffff021916908373ffffffffffffffffffffffffffffffffffffffff16021790555061394c806100606000396000f3fe6080604052600436106100f35760003560e01c8063b7e4a42d1161008a578063e13fd3f111610059578063e13fd3f1146103a9578063e9a21bcd146103e6578063f3a9b5881461040f578063f851a4401461043b576100f3565b8063b7e4a42d146102c2578063cd8a3553146102ff578063d5ffab1014610341578063d6bbbf841461037e576100f3565b80636d7fc14b116100c65780636d7fc14b146101ce57806388c4ce541461020b5780638d601b8214610248578063a1ac9e5714610285576100f3565b8063095111e2146100f85780631e8a49e01461013557806326e85250146101655780634f4b4f78146101a3575b600080fd5b34801561010457600080fd5b5061011f600480360361011a9190810190612c56565b610466565b60405161012c9190613311565b60405180910390f35b61014f600480360361014a9190810190612c56565b6106c1565b60405161015c9190613311565b60405180910390f35b34801561017157600080fd5b5061018c60048036036101879190810190612bf1565b610931565b60405161019a92919061369e565b60405180910390f35b3480156101af57600080fd5b506101b8610b9b565b6040516101c59190613311565b60405180910390f35b3480156101da57600080fd5b506101f560048036036101f09190810190612bf1565b610c44565b6040516102029190613311565b60405180910390f35b34801561021757600080fd5b50610232600480360361022d9190810190612b74565b610eef565b60405161023f919061332c565b60405180910390f35b34801561025457600080fd5b5061026f600480360361026a9190810190612c1a565b611062565b60405161027c9190613311565b60405180910390f35b34801561029157600080fd5b506102ac60048036036102a79190810190612b9d565b611277565b6040516102b9919061332c565b60405180910390f35b3480156102ce57600080fd5b506102e960048036036102e49190810190612b74565b6115ea565b6040516102f69190613311565b60405180910390f35b34801561030b57600080fd5b5061032660048036036103219190810190612bf1565b611804565b60405161033896959493929190613628565b60405180910390f35b34801561034d57600080fd5b5061036860048036036103639190810190612bf1565b611ac4565b6040516103759190613311565b60405180910390f35b34801561038a57600080fd5b50610393611e46565b6040516103a09190613311565b60405180910390f35b3480156103b557600080fd5b506103d060048036036103cb9190810190612ce9565b611eae565b6040516103dd9190613311565b60405180910390f35b3480156103f257600080fd5b5061040d60048036036104089190810190612bf1565b61203d565b005b34801561041b57600080fd5b50610424612474565b6040516104329291906132e1565b60405180910390f35b34801561044757600080fd5b506104506126d2565b60405161045d91906132c6565b60405180910390f35b60003373ffffffffffffffffffffffffffffffffffffffff16600260003373ffffffffffffffffffffffffffffffffffffffff1673ffffffffffffffffffffffffffffffffffffffff16815260200190815260200160002060010160009054906101000a900473ffffffffffffffffffffffffffffffffffffffff1673ffffffffffffffffffffffffffffffffffffffff1614610538576040517f08c379a000000000000000000000000000000000000000000000000000000000815260040161052f906134de565b60405180910390fd5b84600160008781526020019081526020016000206000015414610590576040517f08c379a00000000000000000000000000000000000000000000000000000000081526004016105879061351e565b60405180910390fd5b61059a85336126f7565b6105d9576040517f08c379a00000000000000000000000000000000000000000000000000000000081526004016105d09061339e565b60405180910390fd5b8460016000878152602001908152602001600020600001819055508360016000878152602001908152602001600020600101908051906020019061061e92919061295a565b508260016000878152602001908152602001600020600201908051906020019061064992919061295a565b50816001600087815260200190815260200160002060040160006101000a81548160ff0219169083151502179055507f59e0bb35ae414be694461dc44da786d28a6a91086adf4a5a96bd0088e9363457858585856040516106ad94939291906135d5565b60405180910390a160019050949350505050565b60003373ffffffffffffffffffffffffffffffffffffffff16600260003373ffffffffffffffffffffffffffffffffffffffff1673ffffffffffffffffffffffffffffffffffffffff16815260200190815260200160002060010160009054906101000a900473ffffffffffffffffffffffffffffffffffffffff1673ffffffffffffffffffffffffffffffffffffffff1614610793576040517f08c379a000000000000000000000000000000000000000000000000000000000815260040161078a906134de565b60405180910390fd5b84600160008781526020019081526020016000206000015414156107ec576040517f08c379a00000000000000000000000000000000000000000000000000000000081526004016107e39061345e565b60405180910390fd5b8460016000878152602001908152602001600020600001819055508360016000878152602001908152602001600020600101908051906020019061083192919061295a565b508260016000878152602001908152602001600020600201908051906020019061085c92919061295a565b50816001600087815260200190815260200160002060040160006101000a81548160ff02191690831515021790555061089485611ac4565b506108e76001600360003373ffffffffffffffffffffffffffffffffffffffff1673ffffffffffffffffffffffffffffffffffffffff168152602001908152602001600020600101540386336001611eae565b507f65f71a0c28d1799bcb5d9a2457c840a672087598af816fec0f96a3172d994fb18585858560405161091d94939291906135d5565b60405180910390a160019050949350505050565b6000803373ffffffffffffffffffffffffffffffffffffffff16600260003373ffffffffffffffffffffffffffffffffffffffff1673ffffffffffffffffffffffffffffffffffffffff16815260200190815260200160002060010160009054906101000a900473ffffffffffffffffffffffffffffffffffffffff1673ffffffffffffffffffffffffffffffffffffffff1614610a04576040517f08c379a00000000000000000000000000000000000000000000000000000000081526004016109fb906134de565b60405180910390fd5b3373ffffffffffffffffffffffffffffffffffffffff16600360003373ffffffffffffffffffffffffffffffffffffffff1673ffffffffffffffffffffffffffffffffffffffff16815260200190815260200160002060000160009054906101000a900473ffffffffffffffffffffffffffffffffffffffff1673ffffffffffffffffffffffffffffffffffffffff1614610ad4576040517f08c379a0000000000000000000000000000000000000000000000000000000008152600401610acb906134be565b60405180910390fd5b600360003373ffffffffffffffffffffffffffffffffffffffff1673ffffffffffffffffffffffffffffffffffffffff1681526020019081526020016000206002018381548110610b2157fe5b906000526020600020906002020160000154600360003373ffffffffffffffffffffffffffffffffffffffff1673ffffffffffffffffffffffffffffffffffffffff1681526020019081526020016000206002018481548110610b8057fe5b90600052602060002090600202016001015491509150915091565b60003373ffffffffffffffffffffffffffffffffffffffff16600260003373ffffffffffffffffffffffffffffffffffffffff1673ffffffffffffffffffffffffffffffffffffffff16815260200190815260200160002060010160009054906101000a900473ffffffffffffffffffffffffffffffffffffffff1673ffffffffffffffffffffffffffffffffffffffff161415610c3c5760019050610c41565b600090505b90565b60003373ffffffffffffffffffffffffffffffffffffffff16600260003373ffffffffffffffffffffffffffffffffffffffff1673ffffffffffffffffffffffffffffffffffffffff16815260200190815260200160002060010160009054906101000a900473ffffffffffffffffffffffffffffffffffffffff1673ffffffffffffffffffffffffffffffffffffffff1614610d16576040517f08c379a0000000000000000000000000000000000000000000000000000000008152600401610d0d906134de565b60405180910390fd5b81600160008481526020019081526020016000206000015414610d6e576040517f08c379a0000000000000000000000000000000000000000000000000000000008152600401610d659061351e565b60405180910390fd5b610d7882336126f7565b610db7576040517f08c379a0000000000000000000000000000000000000000000000000000000008152600401610dae9061339e565b60405180910390fd5b6000610dc383336127be565b9050600160008481526020019081526020016000206003016001806000868152602001908152602001600020600301805490500381548110610e0157fe5b9060005260206000200160009054906101000a900473ffffffffffffffffffffffffffffffffffffffff16600160008581526020019081526020016000206003018281548110610e4d57fe5b9060005260206000200160006101000a81548173ffffffffffffffffffffffffffffffffffffffff021916908373ffffffffffffffffffffffffffffffffffffffff16021790555060016000848152602001908152602001600020600301805480610eb457fe5b6001900381819060005260206000200160006101000a81549073ffffffffffffffffffffffffffffffffffffffff0219169055905550919050565b60603373ffffffffffffffffffffffffffffffffffffffff166000809054906101000a900473ffffffffffffffffffffffffffffffffffffffff1673ffffffffffffffffffffffffffffffffffffffff1614610f80576040517f08c379a0000000000000000000000000000000000000000000000000000000008152600401610f77906133de565b60405180910390fd5b600260008373ffffffffffffffffffffffffffffffffffffffff1673ffffffffffffffffffffffffffffffffffffffff1681526020019081526020016000206000018054600181600116156101000203166002900480601f0160208091040260200160405190810160405280929190818152602001828054600181600116156101000203166002900480156110565780601f1061102b57610100808354040283529160200191611056565b820191906000526020600020905b81548152906001019060200180831161103957829003601f168201915b50505050509050919050565b6000826001600085815260200190815260200160002060000154146110bc576040517f08c379a00000000000000000000000000000000000000000000000000000000081526004016110b39061351e565b60405180910390fd5b6110c683836126f7565b611105576040517f08c379a00000000000000000000000000000000000000000000000000000000081526004016110fc9061339e565b60405180910390fd5b600061111184846127be565b905060016000858152602001908152602001600020600301600180600087815260200190815260200160002060030180549050038154811061114f57fe5b9060005260206000200160009054906101000a900473ffffffffffffffffffffffffffffffffffffffff1660016000868152602001908152602001600020600301828154811061119b57fe5b9060005260206000200160006101000a81548173ffffffffffffffffffffffffffffffffffffffff021916908373ffffffffffffffffffffffffffffffffffffffff1602179055506001600085815260200190815260200160002060030180548061120257fe5b6001900381819060005260206000200160006101000a81549073ffffffffffffffffffffffffffffffffffffffff021916905590557f159e29770c6ccc02189394da58de2c7455eddc8880d58d745b6add6bd463927e848460405161126892919061353e565b60405180910390a15092915050565b60603373ffffffffffffffffffffffffffffffffffffffff166000809054906101000a900473ffffffffffffffffffffffffffffffffffffffff1673ffffffffffffffffffffffffffffffffffffffff1614611308576040517f08c379a00000000000000000000000000000000000000000000000000000000081526004016112ff906133de565b60405180910390fd5b8173ffffffffffffffffffffffffffffffffffffffff16600260008473ffffffffffffffffffffffffffffffffffffffff1673ffffffffffffffffffffffffffffffffffffffff16815260200190815260200160002060010160009054906101000a900473ffffffffffffffffffffffffffffffffffffffff1673ffffffffffffffffffffffffffffffffffffffff1614156113d9576040517f08c379a00000000000000000000000000000000000000000000000000000000081526004016113d09061343e565b60405180910390fd5b60405180604001604052808481526020018373ffffffffffffffffffffffffffffffffffffffff16815250600260008473ffffffffffffffffffffffffffffffffffffffff1673ffffffffffffffffffffffffffffffffffffffff168152602001908152602001600020600082015181600001908051906020019061145f9291906129da565b5060208201518160010160006101000a81548173ffffffffffffffffffffffffffffffffffffffff021916908373ffffffffffffffffffffffffffffffffffffffff16021790555090505081600360008473ffffffffffffffffffffffffffffffffffffffff1673ffffffffffffffffffffffffffffffffffffffff16815260200190815260200160002060000160006101000a81548173ffffffffffffffffffffffffffffffffffffffff021916908373ffffffffffffffffffffffffffffffffffffffff1602179055506000600360008473ffffffffffffffffffffffffffffffffffffffff1673ffffffffffffffffffffffffffffffffffffffff168152602001908152602001600020600101819055507f19cb05bcb9f3a5aa3801619041099231656235762a3599eed02cdcac38facd1c83836040516115a492919061334e565b60405180910390a16040518060400160405280600281526020017f4f4b000000000000000000000000000000000000000000000000000000000000815250905092915050565b60003373ffffffffffffffffffffffffffffffffffffffff166000809054906101000a900473ffffffffffffffffffffffffffffffffffffffff1673ffffffffffffffffffffffffffffffffffffffff161461167b576040517f08c379a0000000000000000000000000000000000000000000000000000000008152600401611672906133de565b60405180910390fd5b8173ffffffffffffffffffffffffffffffffffffffff16600260008473ffffffffffffffffffffffffffffffffffffffff1673ffffffffffffffffffffffffffffffffffffffff16815260200190815260200160002060010160009054906101000a900473ffffffffffffffffffffffffffffffffffffffff1673ffffffffffffffffffffffffffffffffffffffff161461174b576040517f08c379a00000000000000000000000000000000000000000000000000000000081526004016117429061349e565b60405180910390fd5b600260008373ffffffffffffffffffffffffffffffffffffffff1673ffffffffffffffffffffffffffffffffffffffff1681526020019081526020016000206000808201600061179b9190612a5a565b6001820160006101000a81549073ffffffffffffffffffffffffffffffffffffffff021916905550507f4630061df51c52d44a3987b904c6ff220da2cbdeff03ce8750cd14652cae0c6c826040516117f391906132c6565b60405180910390a160019050919050565b600060608060006060600061181987336126f7565b611858576040517f08c379a000000000000000000000000000000000000000000000000000000000815260040161184f906133be565b60405180910390fd5b600160008881526020019081526020016000206000015460016000898152602001908152602001600020600101600160008a8152602001908152602001600020600201600160008b815260200190815260200160002060040160009054906101000a900460ff16600160008c8152602001908152602001600020600301600160008d815260200190815260200160002060030180549050848054600181600116156101000203166002900480601f0160208091040260200160405190810160405280929190818152602001828054600181600116156101000203166002900480156119845780601f1061195957610100808354040283529160200191611984565b820191906000526020600020905b81548152906001019060200180831161196757829003601f168201915b50505050509450838054600181600116156101000203166002900480601f016020809104026020016040519081016040528092919081815260200182805460018160011615610100020316600290048015611a205780601f106119f557610100808354040283529160200191611a20565b820191906000526020600020905b815481529060010190602001808311611a0357829003601f168201915b5050505050935081805480602002602001604051908101604052809291908181526020018280548015611aa857602002820191906000526020600020905b8160009054906101000a900473ffffffffffffffffffffffffffffffffffffffff1673ffffffffffffffffffffffffffffffffffffffff1681526020019060010190808311611a5e575b5050505050915095509550955095509550955091939550919395565b60003373ffffffffffffffffffffffffffffffffffffffff16600260003373ffffffffffffffffffffffffffffffffffffffff1673ffffffffffffffffffffffffffffffffffffffff16815260200190815260200160002060010160009054906101000a900473ffffffffffffffffffffffffffffffffffffffff1673ffffffffffffffffffffffffffffffffffffffff1614611b96576040517f08c379a0000000000000000000000000000000000000000000000000000000008152600401611b8d906134de565b60405180910390fd5b81600160008481526020019081526020016000206000015414611bee576040517f08c379a0000000000000000000000000000000000000000000000000000000008152600401611be5906133fe565b60405180910390fd5b60001515611bfc83336126f7565b151514611c3e576040517f08c379a0000000000000000000000000000000000000000000000000000000008152600401611c35906134fe565b60405180910390fd5b60001515611c4b83612884565b151514611c8d576040517f08c379a0000000000000000000000000000000000000000000000000000000008152600401611c849061347e565b60405180910390fd5b600360003373ffffffffffffffffffffffffffffffffffffffff1673ffffffffffffffffffffffffffffffffffffffff1681526020019081526020016000206002016040518060400160405280600360003373ffffffffffffffffffffffffffffffffffffffff1673ffffffffffffffffffffffffffffffffffffffff16815260200190815260200160002060010154815260200184815250908060018154018082558091505090600182039060005260206000209060020201600090919290919091506000820151816000015560208201518160010155505050600360003373ffffffffffffffffffffffffffffffffffffffff1673ffffffffffffffffffffffffffffffffffffffff168152602001908152602001600020600101600081548092919060010191905055507fbd8f4e4ccbdc1cf1e22c75df3109236e48c7553dc96ae81638e51c0f73338cd36001600360003373ffffffffffffffffffffffffffffffffffffffff1673ffffffffffffffffffffffffffffffffffffffff168152602001908152602001600020600101540333846000604051611e359493929190613590565b60405180910390a160019050919050565b60003373ffffffffffffffffffffffffffffffffffffffff166000809054906101000a900473ffffffffffffffffffffffffffffffffffffffff1673ffffffffffffffffffffffffffffffffffffffff161415611ea65760019050611eab565b600090505b90565b600084600360008573ffffffffffffffffffffffffffffffffffffffff1673ffffffffffffffffffffffffffffffffffffffff1681526020019081526020016000206002018681548110611efe57fe5b90600052602060002090600202016000015414611f50576040517f08c379a0000000000000000000000000000000000000000000000000000000008152600401611f479061341e565b60405180910390fd5b6001151582151514156120355760001515611f6b85336126f7565b15151415611fee57600160008581526020019081526020016000206003018390806001815401808255809150509060018203906000526020600020016000909192909190916101000a81548173ffffffffffffffffffffffffffffffffffffffff021916908373ffffffffffffffffffffffffffffffffffffffff160217905550505b611ff78561203d565b7f60f80102f6302a4ebbd9c69d73d026bc0475510efeeb3ce3afe2784a1c40ba568585858560405161202c94939291906136c7565b60405180910390a15b949350505050565b3373ffffffffffffffffffffffffffffffffffffffff16600260003373ffffffffffffffffffffffffffffffffffffffff1673ffffffffffffffffffffffffffffffffffffffff16815260200190815260200160002060010160009054906101000a900473ffffffffffffffffffffffffffffffffffffffff1673ffffffffffffffffffffffffffffffffffffffff161461210d576040517f08c379a0000000000000000000000000000000000000000000000000000000008152600401612104906134de565b60405180910390fd5b80600360003373ffffffffffffffffffffffffffffffffffffffff1673ffffffffffffffffffffffffffffffffffffffff168152602001908152602001600020600201828154811061215b57fe5b906000526020600020906002020160000154146121ad576040517f08c379a00000000000000000000000000000000000000000000000000000000081526004016121a49061337e565b60405180910390fd5b600360003373ffffffffffffffffffffffffffffffffffffffff1673ffffffffffffffffffffffffffffffffffffffff1681526020019081526020016000206002016001600360003373ffffffffffffffffffffffffffffffffffffffff1673ffffffffffffffffffffffffffffffffffffffff16815260200190815260200160002060020180549050038154811061224257fe5b9060005260206000209060020201600360003373ffffffffffffffffffffffffffffffffffffffff1673ffffffffffffffffffffffffffffffffffffffff168152602001908152602001600020600201828154811061229d57fe5b90600052602060002090600202016000820154816000015560018201548160010155905050600360003373ffffffffffffffffffffffffffffffffffffffff1673ffffffffffffffffffffffffffffffffffffffff16815260200190815260200160002060020180548061230d57fe5b60019003818190600052602060002090600202016000808201600090556001820160009055505090556001600360003373ffffffffffffffffffffffffffffffffffffffff1673ffffffffffffffffffffffffffffffffffffffff1681526020019081526020016000206001015411156123e55780600360003373ffffffffffffffffffffffffffffffffffffffff1673ffffffffffffffffffffffffffffffffffffffff16815260200190815260200160002060020182815481106123cf57fe5b9060005260206000209060020201600001819055505b600360003373ffffffffffffffffffffffffffffffffffffffff1673ffffffffffffffffffffffffffffffffffffffff16815260200190815260200160002060010160008154809291906001900391905055507f5bc31e521401c7e4fbe27cc8e953ddcd66ce6cc84d810d1850450e7964029d958133604051612469929190613567565b60405180910390a150565b606060003373ffffffffffffffffffffffffffffffffffffffff16600260003373ffffffffffffffffffffffffffffffffffffffff1673ffffffffffffffffffffffffffffffffffffffff16815260200190815260200160002060010160009054906101000a900473ffffffffffffffffffffffffffffffffffffffff1673ffffffffffffffffffffffffffffffffffffffff1614612548576040517f08c379a000000000000000000000000000000000000000000000000000000000815260040161253f906134de565b60405180910390fd5b6060600360003373ffffffffffffffffffffffffffffffffffffffff1673ffffffffffffffffffffffffffffffffffffffff168152602001908152602001600020600101546040519080825280602002602001820160405280156125c657816020015b6125b3612aa2565b8152602001906001900390816125ab5790505b509050600080905060008090505b600360003373ffffffffffffffffffffffffffffffffffffffff1673ffffffffffffffffffffffffffffffffffffffff168152602001908152602001600020600101548110156126c457600360003373ffffffffffffffffffffffffffffffffffffffff1673ffffffffffffffffffffffffffffffffffffffff168152602001908152602001600020600201818154811061266b57fe5b9060005260206000209060020201604051806040016040529081600082015481526020016001820154815250508383815181106126a457fe5b6020026020010181905250818060010192505080806001019150506125d4565b508182519350935050509091565b6000809054906101000a900473ffffffffffffffffffffffffffffffffffffffff1681565b600080600090505b60016000858152602001908152602001600020600301805490508110156127b6578273ffffffffffffffffffffffffffffffffffffffff1660016000868152602001908152602001600020600301828154811061275857fe5b9060005260206000200160009054906101000a900473ffffffffffffffffffffffffffffffffffffffff1673ffffffffffffffffffffffffffffffffffffffff1614156127a95760019150506127b8565b80806001019150506126ff565b505b92915050565b600080600090505b600160008581526020019081526020016000206003018054905081101561287c578273ffffffffffffffffffffffffffffffffffffffff1660016000868152602001908152602001600020600301828154811061281f57fe5b9060005260206000200160009054906101000a900473ffffffffffffffffffffffffffffffffffffffff1673ffffffffffffffffffffffffffffffffffffffff16141561286f578091505061287e565b80806001019150506127c6565b505b92915050565b600080600090505b600360003373ffffffffffffffffffffffffffffffffffffffff1673ffffffffffffffffffffffffffffffffffffffff168152602001908152602001600020600101548110156129535782600360003373ffffffffffffffffffffffffffffffffffffffff1673ffffffffffffffffffffffffffffffffffffffff168152602001908152602001600020600201828154811061292457fe5b9060005260206000209060020201600101541415612946576001915050612955565b808060010191505061288c565b505b919050565b828054600181600116156101000203166002900490600052602060002090601f016020900481019282601f1061299b57805160ff19168380011785556129c9565b828001600101855582156129c9579182015b828111156129c85782518255916020019190600101906129ad565b5b5090506129d69190612abc565b5090565b828054600181600116156101000203166002900490600052602060002090601f016020900481019282601f10612a1b57805160ff1916838001178555612a49565b82800160010185558215612a49579182015b82811115612a48578251825591602001919060010190612a2d565b5b509050612a569190612abc565b5090565b50805460018160011615610100020316600290046000825580601f10612a805750612a9f565b601f016020900490600052602060002090810190612a9e9190612abc565b5b50565b604051806040016040528060008152602001600081525090565b612ade91905b80821115612ada576000816000905550600101612ac2565b5090565b90565b600081359050612af0816138c4565b92915050565b600081359050612b05816138db565b92915050565b600082601f830112612b1c57600080fd5b8135612b2f612b2a82613739565b61370c565b91508082526020830160208301858383011115612b4b57600080fd5b612b56838284613871565b50505092915050565b600081359050612b6e816138f2565b92915050565b600060208284031215612b8657600080fd5b6000612b9484828501612ae1565b91505092915050565b60008060408385031215612bb057600080fd5b600083013567ffffffffffffffff811115612bca57600080fd5b612bd685828601612b0b565b9250506020612be785828601612ae1565b9150509250929050565b600060208284031215612c0357600080fd5b6000612c1184828501612b5f565b91505092915050565b60008060408385031215612c2d57600080fd5b6000612c3b85828601612b5f565b9250506020612c4c85828601612ae1565b9150509250929050565b60008060008060808587031215612c6c57600080fd5b6000612c7a87828801612b5f565b945050602085013567ffffffffffffffff811115612c9757600080fd5b612ca387828801612b0b565b935050604085013567ffffffffffffffff811115612cc057600080fd5b612ccc87828801612b0b565b9250506060612cdd87828801612af6565b91505092959194509250565b60008060008060808587031215612cff57600080fd5b6000612d0d87828801612b5f565b9450506020612d1e87828801612b5f565b9350506040612d2f87828801612ae1565b9250506060612d4087828801612af6565b91505092959194509250565b6000612d588383612d8b565b60208301905092915050565b6000612d708383613279565b60408301905092915050565b612d858161383b565b82525050565b612d94816137f3565b82525050565b612da3816137f3565b82525050565b6000612db482613785565b612dbe81856137c0565b9350612dc983613765565b8060005b83811015612dfa578151612de18882612d4c565b9750612dec836137a6565b925050600181019050612dcd565b5085935050505092915050565b6000612e1282613790565b612e1c81856137d1565b9350612e2783613775565b8060005b83811015612e58578151612e3f8882612d64565b9750612e4a836137b3565b925050600181019050612e2b565b5085935050505092915050565b612e6e81613805565b82525050565b6000612e7f8261379b565b612e8981856137e2565b9350612e99818560208601613880565b612ea2816138b3565b840191505092915050565b6000612eba6014836137e2565b91507f5265717565737420646f65736e742065786973740000000000000000000000006000830152602082019050919050565b6000612efa6021836137e2565b91507f596f7520646f6e7420686176652061636365737320746f20746869732075736560008301527f72000000000000000000000000000000000000000000000000000000000000006020830152604082019050919050565b6000612f60601e836137e2565b91507f55736572206861736e7420676976656e20746865697220636f6e73656e7400006000830152602082019050919050565b6000612fa06016836137e2565b91507f4f6e6c792061646d696e2061726520616c6c6f776564000000000000000000006000830152602082019050919050565b6000612fe06016836137e2565b91507f437573746f6d657220646f65736e7420657869737473000000000000000000006000830152602082019050919050565b60006130206012836137e2565b91507f5265717565737473206e6f7420666f756e6400000000000000000000000000006000830152602082019050919050565b60006130606011836137e2565b91507f4f726720616c72656164792061646465640000000000000000000000000000006000830152602082019050919050565b60006130a06013836137e2565b91507f5573657220616c726561647920657869737473000000000000000000000000006000830152602082019050919050565b60006130e06016836137e2565b91507f5265717565737420416c726561647920457869737473000000000000000000006000830152602082019050919050565b60006131206010836137e2565b91507f4f726720646f65736e74206578697374000000000000000000000000000000006000830152602082019050919050565b60006131606016836137e2565b91507f596f7520617265206e6f7420617574686f72697a6564000000000000000000006000830152602082019050919050565b60006131a06031836137e2565b91507f556e61757468656e74696361746564206f7267616e697a6174696f6e207c204e60008301527f6f742061646465642062792061646d696e0000000000000000000000000000006020830152604082019050919050565b60006132066013836137e2565b91507f416c7265616479206861766520616363657373000000000000000000000000006000830152602082019050919050565b60006132466012836137e2565b91507f5573657220646f65736e277420657869737400000000000000000000000000006000830152602082019050919050565b60408201600082015161328f60008501826132a8565b5060208201516132a260208501826132a8565b50505050565b6132b181613831565b82525050565b6132c081613831565b82525050565b60006020820190506132db6000830184612d9a565b92915050565b600060408201905081810360008301526132fb8185612e07565b905061330a60208301846132b7565b9392505050565b60006020820190506133266000830184612e65565b92915050565b600060208201905081810360008301526133468184612e74565b905092915050565b600060408201905081810360008301526133688185612e74565b90506133776020830184612d9a565b9392505050565b6000602082019050818103600083015261339781612ead565b9050919050565b600060208201905081810360008301526133b781612eed565b9050919050565b600060208201905081810360008301526133d781612f53565b9050919050565b600060208201905081810360008301526133f781612f93565b9050919050565b6000602082019050818103600083015261341781612fd3565b9050919050565b6000602082019050818103600083015261343781613013565b9050919050565b6000602082019050818103600083015261345781613053565b9050919050565b6000602082019050818103600083015261347781613093565b9050919050565b60006020820190508181036000830152613497816130d3565b9050919050565b600060208201905081810360008301526134b781613113565b9050919050565b600060208201905081810360008301526134d781613153565b9050919050565b600060208201905081810360008301526134f781613193565b9050919050565b60006020820190508181036000830152613517816131f9565b9050919050565b6000602082019050818103600083015261353781613239565b9050919050565b600060408201905061355360008301856132b7565b6135606020830184612d9a565b9392505050565b600060408201905061357c60008301856132b7565b6135896020830184612d7c565b9392505050565b60006080820190506135a560008301876132b7565b6135b26020830186612d7c565b6135bf60408301856132b7565b6135cc6060830184612e65565b95945050505050565b60006080820190506135ea60008301876132b7565b81810360208301526135fc8186612e74565b905081810360408301526136108185612e74565b905061361f6060830184612e65565b95945050505050565b600060c08201905061363d60008301896132b7565b818103602083015261364f8188612e74565b905081810360408301526136638187612e74565b90506136726060830186612e65565b81810360808301526136848185612da9565b905061369360a08301846132b7565b979650505050505050565b60006040820190506136b360008301856132b7565b6136c060208301846132b7565b9392505050565b60006080820190506136dc60008301876132b7565b6136e960208301866132b7565b6136f66040830185612d9a565b6137036060830184612e65565b95945050505050565b6000604051905081810181811067ffffffffffffffff8211171561372f57600080fd5b8060405250919050565b600067ffffffffffffffff82111561375057600080fd5b601f19601f8301169050602081019050919050565b6000819050602082019050919050565b6000819050602082019050919050565b600081519050919050565b600081519050919050565b600081519050919050565b6000602082019050919050565b6000602082019050919050565b600082825260208201905092915050565b600082825260208201905092915050565b600082825260208201905092915050565b60006137fe82613811565b9050919050565b60008115159050919050565b600073ffffffffffffffffffffffffffffffffffffffff82169050919050565b6000819050919050565b60006138468261384d565b9050919050565b60006138588261385f565b9050919050565b600061386a82613811565b9050919050565b82818337600083830152505050565b60005b8381101561389e578082015181840152602081019050613883565b838111156138ad576000848401525b50505050565b6000601f19601f8301169050919050565b6138cd816137f3565b81146138d857600080fd5b50565b6138e481613805565b81146138ef57600080fd5b50565b6138fb81613831565b811461390657600080fd5b5056fea365627a7a723158207c32f1ea6c1b5f66d217089fba43f338b64b8398cb2e8b7008b48b7f8b5792886c6578706572696d656e74616cf564736f6c63430005100040",
  "source": "// SPDX-License-Identifier: MIT\r\npragma solidity >=0.4.21 <0.7.0;\r\npragma experimental ABIEncoderV2;  \r\n\r\ncontract Kyc {\r\n  address public admin;\r\n  struct Customer {\r\n      uint uname;\r\n      string name;\r\n      string location;\r\n      address[] organization;\r\n      bool kycStatus;\r\n  }\r\n\r\n  struct Organization {\r\n      string name;\r\n      address ethAddress;\r\n  }\r\n\r\n  struct kycRequest{\r\n      address ethAddress;\r\n      uint req_count;\r\n      kycRequestList[] kycrequestlist;\r\n  }\r\n  \r\n  struct kycRequestList{\r\n      uint req_count;\r\n      uint uname;\r\n  }\r\n\r\n  constructor() public {\r\n      admin = msg.sender;\r\n  }\r\n\r\n  mapping(uint => Customer) customers;\r\n  mapping(address => Organization) organizations;\r\n  mapping(address => kycRequest) kycrequestsbyorg;\r\n\r\n  event orgAdded(string name,address ethAddress);\r\n  event orgRemoved(address ethAddress);\r\n  event customerAdded(uint uname,string name,string location,bool kycStatus);\r\n  event customerUpdated(uint uname,string name,string location,bool kycStatus);\r\n  event requestAdded(uint reqid,address ethAddress, uint uname,bool isAllowed);\r\n  event requestRemoved(uint reqid,address ethAddress);\r\n  event accessGiven(uint reqid,uint uname,address ethAddress,bool isAllowed);\r\n  event accessRevoked(uint uname,address ethAddress);\r\n\r\n// Checks whether the requestor is admin\r\n  modifier isAdmin {\r\n      require(\r\n          admin == msg.sender,\r\n          \"Only admin are allowed\"\r\n      );\r\n      _;\r\n  }\r\n\r\n// Checks wheter the org exists or not\r\n  modifier isOrgValid {\r\n      require(\r\n          organizations[msg.sender].ethAddress == msg.sender,\r\n          \"Unauthenticated organization | Not added by admin\"    \r\n      );\r\n      _;\r\n  }\r\n\r\n//Check if Org has access to the user KYC\r\n  function findOrg(uint _uname,address ethAddress) internal view returns(bool){\r\n      uint i = 0;\r\n          for(i;i<customers[_uname].organization.length;i++){\r\n              if(customers[_uname].organization[i]==ethAddress){\r\n                  return true;\r\n              }\r\n          }\r\n  }\r\n\r\n//Find the index of Org in KYC.organization array\r\n  function findOrgIndex(uint _uname,address ethAddress) internal view returns(uint){\r\n      uint i = 0;\r\n      for(i;i<customers[_uname].organization.length;i++){\r\n            if(customers[_uname].organization[i]==ethAddress){\r\n                return i;\r\n            }\r\n    }\r\n  }\r\n\r\n//Check if request exist \r\n  function findRequest(uint _uname) internal view returns(bool){\r\n      uint i=0;\r\n      for(i;i<kycrequestsbyorg[msg.sender].req_count;i++){\r\n          if(kycrequestsbyorg[msg.sender].kycrequestlist[i].uname==_uname){\r\n              return true;\r\n          }\r\n      }\r\n  }\r\n\r\n//Add organization ONLY BY ADMIN\r\n  function addOrg(string memory _name,address _ethAddress) public isAdmin returns(string memory) {\r\n      require(organizations[_ethAddress].ethAddress!=_ethAddress,\"Org already added\");\r\n      organizations[_ethAddress]=Organization(_name,_ethAddress);\r\n      kycrequestsbyorg[_ethAddress].ethAddress=_ethAddress;\r\n      kycrequestsbyorg[_ethAddress].req_count=0;\r\n      emit orgAdded(_name,_ethAddress);\r\n      return (\"OK\");\r\n  }\r\n\r\n//Remove Organization ONLY BY ADMIN \r\n  function removeOrg(address _ethAddress) public isAdmin returns(bool) {\r\n      require(organizations[_ethAddress].ethAddress==_ethAddress,\"Org doesnt exist\");\r\n      delete organizations[_ethAddress];\r\n      emit orgRemoved(_ethAddress);\r\n      return true;\r\n  }\r\n\r\n//Return Organization Info if it exists  \r\n  function viewOrg(address _ethAddress)public isAdmin view returns(string memory){\r\n      return(organizations[_ethAddress].name);\r\n  }\r\n\r\n  function validOrg() public view returns(bool){\r\n    if(organizations[msg.sender].ethAddress==msg.sender){\r\n      return true;\r\n    }\r\n    else{\r\n      return false;\r\n    }\r\n  }\r\n  function validAdmin() public view returns(bool){\r\n    if(admin==msg.sender){\r\n      return true;\r\n    }\r\n    else{\r\n      return false;\r\n    }\r\n  }\r\n\r\n//Register User KYC by registered Orgs\r\n  function registerKYC(uint _uname , string memory _name, string memory _location,bool _kycStatus) public payable isOrgValid returns(bool){\r\n      require(customers[_uname].uname!=_uname,\"User already exists\");\r\n      customers[_uname].uname=_uname;\r\n      customers[_uname].name=_name;\r\n      customers[_uname].location=_location;\r\n      customers[_uname].kycStatus=_kycStatus;\r\n      requestKYC(_uname);\r\n      giveAccessKYC(kycrequestsbyorg[msg.sender].req_count -1,_uname,msg.sender,true);\r\n      emit customerAdded(_uname,_name,_location,_kycStatus);\r\n      return true;\r\n  }\r\n\r\n//View User KYC by Authorized Orgs  \r\n  function viewKYC(uint _uname) public view returns(uint,string memory,string memory,bool,address[] memory,uint){\r\n      require(findOrg(_uname,msg.sender),\"User hasnt given their consent\");\r\n      return(customers[_uname].uname,customers[_uname].name,customers[_uname].location,customers[_uname].kycStatus,customers[_uname].organization,customers[_uname].organization.length);\r\n  }\r\n\r\n//Update User KYC by registered and authorized orgs\r\n  function updateKYC(uint _uname , string memory _name, string memory _location,bool _kycStatus) public isOrgValid returns(bool){\r\n      require(customers[_uname].uname==_uname,\"User doesn't exist\");\r\n      require(findOrg(_uname,msg.sender),\"You dont have access to this user\");\r\n      customers[_uname].uname=_uname;\r\n      customers[_uname].name=_name;\r\n      customers[_uname].location=_location;\r\n      customers[_uname].kycStatus=_kycStatus;\r\n      emit customerUpdated(_uname,_name,_location,_kycStatus);\r\n      return true;\r\n  }\r\n\r\n//Remove User KYC by Orgs  \r\n  function removeKYC(uint _uname) public isOrgValid returns (bool){\r\n      require(customers[_uname].uname==_uname,\"User doesn't exist\");\r\n      require(findOrg(_uname,msg.sender),\"You dont have access to this user\");\r\n      uint i=findOrgIndex(_uname,msg.sender);\r\n      customers[_uname].organization[i]=customers[_uname].organization[customers[_uname].organization.length-1];\r\n      customers[_uname].organization.pop();\r\n  }\r\n\r\n//Request User KYC by Orgs  \r\n  function requestKYC(uint _uname) public isOrgValid returns(bool){\r\n      require(customers[_uname].uname==_uname,\"Customer doesnt exists\");\r\n      require(findOrg(_uname,msg.sender)==false,\"Already have access\");\r\n      require(findRequest(_uname)==false,\"Request Already Exists\");\r\n      kycrequestsbyorg[msg.sender].kycrequestlist.push(kycRequestList(kycrequestsbyorg[msg.sender].req_count,_uname));\r\n      kycrequestsbyorg[msg.sender].req_count++;\r\n      emit requestAdded(kycrequestsbyorg[msg.sender].req_count-1,msg.sender,_uname,false);\r\n      return true;\r\n  }\r\n\r\n//Delete User KYC Request By Orgs \r\n  function deleteRequest(uint _reqcount) public isOrgValid{\r\n      require(kycrequestsbyorg[msg.sender].kycrequestlist[_reqcount].req_count==_reqcount,\"Request doesnt exist\");\r\n      kycrequestsbyorg[msg.sender].kycrequestlist[_reqcount]=kycrequestsbyorg[msg.sender].kycrequestlist[kycrequestsbyorg[msg.sender].kycrequestlist.length-1];\r\n      kycrequestsbyorg[msg.sender].kycrequestlist.pop();\r\n      if(kycrequestsbyorg[msg.sender].req_count>1){\r\n          kycrequestsbyorg[msg.sender].kycrequestlist[_reqcount].req_count=_reqcount;\r\n      }\r\n      kycrequestsbyorg[msg.sender].req_count--;\r\n      emit requestRemoved(_reqcount,msg.sender);\r\n  }\r\n\r\n//View specific request by Orgs\r\n  function viewRequest(uint _reqcount) public isOrgValid view returns(uint, uint){\r\n      require(kycrequestsbyorg[msg.sender].ethAddress==msg.sender,\"You are not authorized\");\r\n      return(kycrequestsbyorg[msg.sender].kycrequestlist[_reqcount].req_count,kycrequestsbyorg[msg.sender].kycrequestlist[_reqcount].uname);\r\n  }\r\n\r\n//Return Array of all pending request of the orgs\r\n  function listRequest() public isOrgValid view returns(kycRequestList[] memory,uint){\r\n      kycRequestList[] memory ret =  new kycRequestList[](kycrequestsbyorg[msg.sender].req_count);\r\n      uint j = 0;\r\n        for (uint i = 0; i < kycrequestsbyorg[msg.sender].req_count; i++) {\r\n            ret[j] = kycrequestsbyorg[msg.sender].kycrequestlist[i];\r\n            j++;\r\n                \r\n        }\r\n    return (ret,ret.length);\r\n  }\r\n\r\n//Give User KYC access to Org\r\n  function giveAccessKYC(uint _reqcount,uint _uname,address _ethAddress,bool _isAllowed) public returns(bool){\r\n      require(kycrequestsbyorg[_ethAddress].kycrequestlist[_reqcount].req_count==_reqcount,\"Requests not found\");\r\n      if(_isAllowed == true){\r\n          if(findOrg(_uname,msg.sender) == false){\r\n              customers[_uname].organization.push(_ethAddress);\r\n          }\r\n          deleteRequest(_reqcount);\r\n          emit accessGiven(_reqcount,_uname,_ethAddress,_isAllowed);\r\n      }\r\n      \r\n  }\r\n\r\n//Revoke User KYC access of Orgs\r\n  function revokeAccessKYC(uint _uname,address _ethAddress) public returns(bool){\r\n      require(customers[_uname].uname==_uname,\"User doesn't exist\");\r\n      require(findOrg(_uname,_ethAddress),\"You dont have access to this user\");\r\n      uint i=findOrgIndex(_uname,_ethAddress);\r\n      customers[_uname].organization[i]=customers[_uname].organization[customers[_uname].organization.length-1];\r\n      customers[_uname].organization.pop();\r\n      emit accessRevoked(_uname,_ethAddress);\r\n  }\r\n  \r\n}\r\n",
  "sourcePath": "C:\\Users\\pemba\\Documents\\BlockChain\\kyc_blockchain\\contracts\\Kyc.sol",
  "compiler": {
    "name": "solc",
    "version": "0.5.16+commit.9c3226ce.Emscripten.clang"
  },
  "schemaVersion": "3.4.3",
  "updatedAt": "2021-09-12T07:14:42.571Z",
  "networkType": "ethereum",
  "devdoc": {
    "methods": {}
  },
  "userdoc": {
    "methods": {}
  }
}