{
  "contractName": "Kyc",
  "abi": [
    {
      "inputs": [],
      "stateMutability": "nonpayable",
      "type": "constructor"
    },
    {
      "anonymous": false,
      "inputs": [
        {
          "indexed": false,
          "internalType": "uint256",
          "name": "reqid",
          "type": "uint256"
        },
        {
          "indexed": false,
          "internalType": "address",
          "name": "custAddress",
          "type": "address"
        },
        {
          "indexed": false,
          "internalType": "address",
          "name": "ethAddress",
          "type": "address"
        },
        {
          "indexed": false,
          "internalType": "bool",
          "name": "isAllowed",
          "type": "bool"
        }
      ],
      "name": "accessGiven",
      "type": "event"
    },
    {
      "anonymous": false,
      "inputs": [
        {
          "indexed": false,
          "internalType": "address",
          "name": "custAddress",
          "type": "address"
        },
        {
          "indexed": false,
          "internalType": "address",
          "name": "ethAddress",
          "type": "address"
        }
      ],
      "name": "accessRevoked",
      "type": "event"
    },
    {
      "anonymous": false,
      "inputs": [
        {
          "indexed": false,
          "internalType": "address",
          "name": "custAddress",
          "type": "address"
        },
        {
          "indexed": false,
          "internalType": "bool",
          "name": "kycStatus",
          "type": "bool"
        }
      ],
      "name": "customerAdded",
      "type": "event"
    },
    {
      "anonymous": false,
      "inputs": [
        {
          "indexed": false,
          "internalType": "address",
          "name": "custAddress",
          "type": "address"
        },
        {
          "indexed": false,
          "internalType": "bool",
          "name": "kycStatus",
          "type": "bool"
        }
      ],
      "name": "customerUpdated",
      "type": "event"
    },
    {
      "anonymous": false,
      "inputs": [
        {
          "indexed": false,
          "internalType": "address",
          "name": "custAddress",
          "type": "address"
        },
        {
          "indexed": false,
          "internalType": "address",
          "name": "ethAddress",
          "type": "address"
        }
      ],
      "name": "kycRemoved",
      "type": "event"
    },
    {
      "anonymous": false,
      "inputs": [
        {
          "indexed": false,
          "internalType": "string",
          "name": "name",
          "type": "string"
        },
        {
          "indexed": false,
          "internalType": "address",
          "name": "ethAddress",
          "type": "address"
        }
      ],
      "name": "orgAdded",
      "type": "event"
    },
    {
      "anonymous": false,
      "inputs": [
        {
          "indexed": false,
          "internalType": "address",
          "name": "ethAddress",
          "type": "address"
        }
      ],
      "name": "orgRemoved",
      "type": "event"
    },
    {
      "anonymous": false,
      "inputs": [
        {
          "indexed": false,
          "internalType": "uint256",
          "name": "reqid",
          "type": "uint256"
        },
        {
          "indexed": false,
          "internalType": "address",
          "name": "ethAddress",
          "type": "address"
        },
        {
          "indexed": false,
          "internalType": "address",
          "name": "custAddress",
          "type": "address"
        },
        {
          "indexed": false,
          "internalType": "bool",
          "name": "isAllowed",
          "type": "bool"
        }
      ],
      "name": "requestAdded",
      "type": "event"
    },
    {
      "anonymous": false,
      "inputs": [
        {
          "indexed": false,
          "internalType": "uint256",
          "name": "reqid",
          "type": "uint256"
        },
        {
          "indexed": false,
          "internalType": "address",
          "name": "ethAddress",
          "type": "address"
        }
      ],
      "name": "requestRemoved",
      "type": "event"
    },
    {
      "inputs": [],
      "name": "admin",
      "outputs": [
        {
          "internalType": "address",
          "name": "",
          "type": "address"
        }
      ],
      "stateMutability": "view",
      "type": "function",
      "constant": true
    },
    {
      "inputs": [
        {
          "internalType": "string",
          "name": "_name",
          "type": "string"
        },
        {
          "internalType": "address",
          "name": "_ethAddress",
          "type": "address"
        }
      ],
      "name": "addOrg",
      "outputs": [
        {
          "internalType": "bool",
          "name": "",
          "type": "bool"
        }
      ],
      "stateMutability": "nonpayable",
      "type": "function"
    },
    {
      "inputs": [
        {
          "internalType": "address",
          "name": "_ethAddress",
          "type": "address"
        }
      ],
      "name": "removeOrg",
      "outputs": [
        {
          "internalType": "bool",
          "name": "",
          "type": "bool"
        }
      ],
      "stateMutability": "nonpayable",
      "type": "function"
    },
    {
      "inputs": [
        {
          "internalType": "address",
          "name": "_ethAddress",
          "type": "address"
        }
      ],
      "name": "viewOrg",
      "outputs": [
        {
          "components": [
            {
              "internalType": "string",
              "name": "name",
              "type": "string"
            },
            {
              "internalType": "address",
              "name": "ethAddress",
              "type": "address"
            }
          ],
          "internalType": "struct Kyc.Organization",
          "name": "",
          "type": "tuple"
        }
      ],
      "stateMutability": "view",
      "type": "function",
      "constant": true
    },
    {
      "inputs": [],
      "name": "getYourOrgDetail",
      "outputs": [
        {
          "components": [
            {
              "internalType": "string",
              "name": "name",
              "type": "string"
            },
            {
              "internalType": "address",
              "name": "ethAddress",
              "type": "address"
            }
          ],
          "internalType": "struct Kyc.Organization",
          "name": "",
          "type": "tuple"
        }
      ],
      "stateMutability": "view",
      "type": "function",
      "constant": true
    },
    {
      "inputs": [],
      "name": "validOrg",
      "outputs": [
        {
          "internalType": "bool",
          "name": "",
          "type": "bool"
        }
      ],
      "stateMutability": "view",
      "type": "function",
      "constant": true
    },
    {
      "inputs": [],
      "name": "validAdmin",
      "outputs": [
        {
          "internalType": "bool",
          "name": "",
          "type": "bool"
        }
      ],
      "stateMutability": "view",
      "type": "function",
      "constant": true
    },
    {
      "inputs": [],
      "name": "validCust",
      "outputs": [
        {
          "internalType": "bool",
          "name": "",
          "type": "bool"
        }
      ],
      "stateMutability": "view",
      "type": "function",
      "constant": true
    },
    {
      "inputs": [
        {
          "internalType": "address",
          "name": "_custaddress",
          "type": "address"
        },
        {
          "internalType": "string",
          "name": "_jsonHash",
          "type": "string"
        },
        {
          "internalType": "string",
          "name": "_photohash",
          "type": "string"
        },
        {
          "internalType": "string",
          "name": "_citizenship_front_hash",
          "type": "string"
        },
        {
          "internalType": "string",
          "name": "_citizenship_back_hash",
          "type": "string"
        },
        {
          "internalType": "bool",
          "name": "_kycStatus",
          "type": "bool"
        },
        {
          "internalType": "uint256",
          "name": "_d",
          "type": "uint256"
        },
        {
          "internalType": "uint256",
          "name": "_n",
          "type": "uint256"
        }
      ],
      "name": "registerKYC",
      "outputs": [
        {
          "internalType": "bool",
          "name": "",
          "type": "bool"
        }
      ],
      "stateMutability": "nonpayable",
      "type": "function"
    },
    {
      "inputs": [
        {
          "internalType": "address",
          "name": "_custaddress",
          "type": "address"
        }
      ],
      "name": "viewKYC",
      "outputs": [
        {
          "internalType": "bool",
          "name": "",
          "type": "bool"
        },
        {
          "internalType": "string",
          "name": "",
          "type": "string"
        },
        {
          "internalType": "string",
          "name": "",
          "type": "string"
        },
        {
          "internalType": "string",
          "name": "",
          "type": "string"
        },
        {
          "internalType": "string",
          "name": "",
          "type": "string"
        },
        {
          "internalType": "uint256",
          "name": "",
          "type": "uint256"
        },
        {
          "internalType": "uint256",
          "name": "",
          "type": "uint256"
        }
      ],
      "stateMutability": "view",
      "type": "function",
      "constant": true
    },
    {
      "inputs": [],
      "name": "viewYourKYC",
      "outputs": [
        {
          "components": [
            {
              "internalType": "address",
              "name": "custAddress",
              "type": "address"
            },
            {
              "internalType": "string",
              "name": "jsonHash",
              "type": "string"
            },
            {
              "internalType": "string",
              "name": "photoHash",
              "type": "string"
            },
            {
              "internalType": "string",
              "name": "citizenship_front_hash",
              "type": "string"
            },
            {
              "internalType": "string",
              "name": "citizenship_back_hash",
              "type": "string"
            },
            {
              "internalType": "uint256",
              "name": "d",
              "type": "uint256"
            },
            {
              "internalType": "uint256",
              "name": "n",
              "type": "uint256"
            },
            {
              "internalType": "address[]",
              "name": "organization",
              "type": "address[]"
            },
            {
              "internalType": "bool",
              "name": "kycStatus",
              "type": "bool"
            }
          ],
          "internalType": "struct Kyc.Customer",
          "name": "",
          "type": "tuple"
        }
      ],
      "stateMutability": "view",
      "type": "function",
      "constant": true
    },
    {
      "inputs": [],
      "name": "viewOrgWithAccess",
      "outputs": [
        {
          "internalType": "address[]",
          "name": "",
          "type": "address[]"
        }
      ],
      "stateMutability": "view",
      "type": "function",
      "constant": true
    },
    {
      "inputs": [],
      "name": "viewRequestCust",
      "outputs": [
        {
          "components": [
            {
              "internalType": "uint256",
              "name": "req_count",
              "type": "uint256"
            },
            {
              "internalType": "address",
              "name": "Address",
              "type": "address"
            }
          ],
          "internalType": "struct Kyc.kycRequestList[]",
          "name": "",
          "type": "tuple[]"
        }
      ],
      "stateMutability": "view",
      "type": "function",
      "constant": true
    },
    {
      "inputs": [
        {
          "internalType": "address",
          "name": "_custaddress",
          "type": "address"
        },
        {
          "internalType": "string",
          "name": "_jsonHash",
          "type": "string"
        },
        {
          "internalType": "string",
          "name": "_photohash",
          "type": "string"
        },
        {
          "internalType": "string",
          "name": "_citizenship_front_hash",
          "type": "string"
        },
        {
          "internalType": "string",
          "name": "_citizenship_back_hash",
          "type": "string"
        },
        {
          "internalType": "bool",
          "name": "_kycStatus",
          "type": "bool"
        },
        {
          "internalType": "uint256",
          "name": "_d",
          "type": "uint256"
        },
        {
          "internalType": "uint256",
          "name": "_n",
          "type": "uint256"
        }
      ],
      "name": "updateKYC",
      "outputs": [
        {
          "internalType": "bool",
          "name": "",
          "type": "bool"
        }
      ],
      "stateMutability": "nonpayable",
      "type": "function"
    },
    {
      "inputs": [
        {
          "internalType": "address",
          "name": "_custaddress",
          "type": "address"
        }
      ],
      "name": "requestKYC",
      "outputs": [
        {
          "internalType": "bool",
          "name": "",
          "type": "bool"
        }
      ],
      "stateMutability": "nonpayable",
      "type": "function"
    },
    {
      "inputs": [
        {
          "internalType": "uint256",
          "name": "_reqcount",
          "type": "uint256"
        }
      ],
      "name": "deleteRequestOrg",
      "outputs": [
        {
          "internalType": "bool",
          "name": "",
          "type": "bool"
        }
      ],
      "stateMutability": "nonpayable",
      "type": "function"
    },
    {
      "inputs": [
        {
          "internalType": "uint256",
          "name": "_reqcount",
          "type": "uint256"
        },
        {
          "internalType": "address",
          "name": "_ethAddress",
          "type": "address"
        }
      ],
      "name": "deleteRequestCust",
      "outputs": [],
      "stateMutability": "nonpayable",
      "type": "function"
    },
    {
      "inputs": [],
      "name": "listRequest",
      "outputs": [
        {
          "components": [
            {
              "internalType": "uint256",
              "name": "req_count",
              "type": "uint256"
            },
            {
              "internalType": "address",
              "name": "Address",
              "type": "address"
            }
          ],
          "internalType": "struct Kyc.kycRequestList[]",
          "name": "",
          "type": "tuple[]"
        }
      ],
      "stateMutability": "view",
      "type": "function",
      "constant": true
    },
    {
      "inputs": [
        {
          "internalType": "uint256",
          "name": "_reqcount",
          "type": "uint256"
        },
        {
          "internalType": "address",
          "name": "_ethAddress",
          "type": "address"
        },
        {
          "internalType": "bool",
          "name": "_isAllowed",
          "type": "bool"
        }
      ],
      "name": "giveAccessKYC",
      "outputs": [
        {
          "internalType": "bool",
          "name": "",
          "type": "bool"
        }
      ],
      "stateMutability": "nonpayable",
      "type": "function"
    },
    {
      "inputs": [
        {
          "internalType": "address",
          "name": "_ethAddress",
          "type": "address"
        }
      ],
      "name": "revokeAccessKYC",
      "outputs": [
        {
          "internalType": "bool",
          "name": "",
          "type": "bool"
        }
      ],
      "stateMutability": "nonpayable",
      "type": "function"
    },
    {
      "inputs": [
        {
          "internalType": "address",
          "name": "_custaddress",
          "type": "address"
        }
      ],
      "name": "removeKYC",
      "outputs": [
        {
          "internalType": "bool",
          "name": "",
          "type": "bool"
        }
      ],
      "stateMutability": "nonpayable",
      "type": "function"
    }
  ],
  "bytecode": "0x608060405234801561001057600080fd5b50336000806101000a81548173ffffffffffffffffffffffffffffffffffffffff021916908373ffffffffffffffffffffffffffffffffffffffff160217905550615f3180620000616000396000f3fe608060405234801561001057600080fd5b50600436106101375760003560e01c8063a1ac9e57116100b8578063ceacabd51161007c578063ceacabd5146103b0578063d6bbbf84146103ce578063d9b18f04146103ec578063e1b2dbe814610422578063f3a9b58814610440578063f851a4401461045e57610137565b8063a1ac9e57146102d2578063a64266e714610302578063b7e4a42d14610332578063c10cebe614610362578063ca1cbcc21461039257610137565b80634f4b4f78116100ff5780634f4b4f781461020857806354291824146102265780637042d70c1461025657806384f702ee1461027257806388c4ce54146102a257610137565b806306e5d4d11461013c578063243f6b581461016c5780632a539a221461019c57806332722a25146101cc5780633b2b8abf146101ea575b600080fd5b61015660048036038101906101519190614996565b61047c565b60405161016391906149de565b60405180910390f35b61018660048036038101906101819190614996565b6105e3565b60405161019391906149de565b60405180910390f35b6101b660048036038101906101b19190614a5b565b61081a565b6040516101c391906149de565b60405180910390f35b6101d4610baf565b6040516101e19190614b93565b60405180910390f35b6101f2610dbe565b6040516101ff9190614c64565b60405180910390f35b610210610f5c565b60405161021d91906149de565b60405180910390f35b610240600480360381019061023b9190614c86565b611005565b60405161024d91906149de565b60405180910390f35b610270600480360381019061026b9190614cb3565b6112ed565b005b61028c60048036038101906102879190614e28565b611566565b60405161029991906149de565b60405180910390f35b6102bc60048036038101906102b79190614996565b6117aa565b6040516102c99190614b93565b60405180910390f35b6102ec60048036038101906102e79190614f4e565b611a49565b6040516102f991906149de565b60405180910390f35b61031c60048036038101906103179190614e28565b611d87565b60405161032991906149de565b60405180910390f35b61034c60048036038101906103479190614996565b611f8d565b60405161035991906149de565b60405180910390f35b61037c60048036038101906103779190614996565b6121a6565b60405161038991906149de565b60405180910390f35b61039a61272a565b6040516103a79190615097565b60405180910390f35b6103b8612976565b6040516103c59190615218565b60405180910390f35b6103d6612d70565b6040516103e391906149de565b60405180910390f35b61040660048036038101906104019190614996565b612dd7565b6040516104199796959493929190615293565b60405180910390f35b61042a613252565b60405161043791906149de565b60405180910390f35b6104486132fb565b6040516104559190615097565b60405180910390f35b6104666135ca565b604051610473919061532d565b60405180910390f35b60003373ffffffffffffffffffffffffffffffffffffffff16600160003373ffffffffffffffffffffffffffffffffffffffff1673ffffffffffffffffffffffffffffffffffffffff16815260200190815260200160002060000160009054906101000a900473ffffffffffffffffffffffffffffffffffffffff1673ffffffffffffffffffffffffffffffffffffffff161461054e576040517f08c379a0000000000000000000000000000000000000000000000000000000008152600401610545906153ba565b60405180910390fd5b61055833836135ee565b610597576040517f08c379a000000000000000000000000000000000000000000000000000000000815260040161058e9061544c565b60405180910390fd5b6105a1338361371e565b7fe88c41c4d37804e10d7ea8c3879578b372d9fabc7fd55f30843786e63b024bc933836040516105d292919061546c565b60405180910390a160019050919050565b60003373ffffffffffffffffffffffffffffffffffffffff16600260003373ffffffffffffffffffffffffffffffffffffffff1673ffffffffffffffffffffffffffffffffffffffff16815260200190815260200160002060010160009054906101000a900473ffffffffffffffffffffffffffffffffffffffff1673ffffffffffffffffffffffffffffffffffffffff16146106b5576040517f08c379a00000000000000000000000000000000000000000000000000000000081526004016106ac906154e1565b60405180910390fd5b8173ffffffffffffffffffffffffffffffffffffffff16600160008473ffffffffffffffffffffffffffffffffffffffff1673ffffffffffffffffffffffffffffffffffffffff16815260200190815260200160002060000160009054906101000a900473ffffffffffffffffffffffffffffffffffffffff1673ffffffffffffffffffffffffffffffffffffffff1614610785576040517f08c379a000000000000000000000000000000000000000000000000000000000815260040161077c9061554d565b60405180910390fd5b61078f82336135ee565b6107ce576040517f08c379a00000000000000000000000000000000000000000000000000000000081526004016107c59061544c565b60405180910390fd5b6107d8823361371e565b7fd2bb631b9ffa2bf92c1b926be30d35e0753e89189734d361478d148ce3609ecd823360405161080992919061546c565b60405180910390a160019050919050565b60003373ffffffffffffffffffffffffffffffffffffffff16600160003373ffffffffffffffffffffffffffffffffffffffff1673ffffffffffffffffffffffffffffffffffffffff16815260200190815260200160002060000160009054906101000a900473ffffffffffffffffffffffffffffffffffffffff1673ffffffffffffffffffffffffffffffffffffffff16146108ec576040517f08c379a00000000000000000000000000000000000000000000000000000000081526004016108e3906155df565b60405180910390fd5b3373ffffffffffffffffffffffffffffffffffffffff16600360008573ffffffffffffffffffffffffffffffffffffffff1673ffffffffffffffffffffffffffffffffffffffff1681526020019081526020016000206002018581548110610957576109566155ff565b5b906000526020600020906002020160010160009054906101000a900473ffffffffffffffffffffffffffffffffffffffff1673ffffffffffffffffffffffffffffffffffffffff16146109df576040517f08c379a00000000000000000000000000000000000000000000000000000000081526004016109d69061567a565b60405180910390fd5b83600360008573ffffffffffffffffffffffffffffffffffffffff1673ffffffffffffffffffffffffffffffffffffffff1681526020019081526020016000206002018581548110610a3457610a336155ff565b5b90600052602060002090600202016000015414610a86576040517f08c379a0000000000000000000000000000000000000000000000000000000008152600401610a7d906156e6565b60405180910390fd5b600115158215151415610b995760001515610aa133856135ee565b15151415610b4d57600160003373ffffffffffffffffffffffffffffffffffffffff1673ffffffffffffffffffffffffffffffffffffffff168152602001908152602001600020600701839080600181540180825580915050600190039060005260206000200160009091909190916101000a81548173ffffffffffffffffffffffffffffffffffffffff021916908373ffffffffffffffffffffffffffffffffffffffff1602179055505b610b5784846112ed565b7fadbe7f03a7f299dc85504c5aa657355c0e4e2f199bae0b27c64e9cc810e699a984338585604051610b8c9493929190615706565b60405180910390a1610ba4565b610ba384846112ed565b5b600190509392505050565b610bb761477d565b3373ffffffffffffffffffffffffffffffffffffffff16600260003373ffffffffffffffffffffffffffffffffffffffff1673ffffffffffffffffffffffffffffffffffffffff16815260200190815260200160002060010160009054906101000a900473ffffffffffffffffffffffffffffffffffffffff1673ffffffffffffffffffffffffffffffffffffffff1614610c87576040517f08c379a0000000000000000000000000000000000000000000000000000000008152600401610c7e906154e1565b60405180910390fd5b600260003373ffffffffffffffffffffffffffffffffffffffff1673ffffffffffffffffffffffffffffffffffffffff168152602001908152602001600020604051806040016040529081600082018054610ce19061577a565b80601f0160208091040260200160405190810160405280929190818152602001828054610d0d9061577a565b8015610d5a5780601f10610d2f57610100808354040283529160200191610d5a565b820191906000526020600020905b815481529060010190602001808311610d3d57829003601f168201915b505050505081526020016001820160009054906101000a900473ffffffffffffffffffffffffffffffffffffffff1673ffffffffffffffffffffffffffffffffffffffff1673ffffffffffffffffffffffffffffffffffffffff1681525050905090565b60603373ffffffffffffffffffffffffffffffffffffffff16600160003373ffffffffffffffffffffffffffffffffffffffff1673ffffffffffffffffffffffffffffffffffffffff16815260200190815260200160002060000160009054906101000a900473ffffffffffffffffffffffffffffffffffffffff1673ffffffffffffffffffffffffffffffffffffffff1614610e90576040517f08c379a0000000000000000000000000000000000000000000000000000000008152600401610e87906157f8565b60405180910390fd5b600160003373ffffffffffffffffffffffffffffffffffffffff1673ffffffffffffffffffffffffffffffffffffffff168152602001908152602001600020600701805480602002602001604051908101604052809291908181526020018280548015610f5257602002820191906000526020600020905b8160009054906101000a900473ffffffffffffffffffffffffffffffffffffffff1673ffffffffffffffffffffffffffffffffffffffff1681526020019060010190808311610f08575b5050505050905090565b60003373ffffffffffffffffffffffffffffffffffffffff16600260003373ffffffffffffffffffffffffffffffffffffffff1673ffffffffffffffffffffffffffffffffffffffff16815260200190815260200160002060010160009054906101000a900473ffffffffffffffffffffffffffffffffffffffff1673ffffffffffffffffffffffffffffffffffffffff161415610ffd5760019050611002565b600090505b90565b60003373ffffffffffffffffffffffffffffffffffffffff16600260003373ffffffffffffffffffffffffffffffffffffffff1673ffffffffffffffffffffffffffffffffffffffff16815260200190815260200160002060010160009054906101000a900473ffffffffffffffffffffffffffffffffffffffff1673ffffffffffffffffffffffffffffffffffffffff16146110d7576040517f08c379a00000000000000000000000000000000000000000000000000000000081526004016110ce906154e1565b60405180910390fd5b3373ffffffffffffffffffffffffffffffffffffffff16600360003373ffffffffffffffffffffffffffffffffffffffff1673ffffffffffffffffffffffffffffffffffffffff16815260200190815260200160002060000160009054906101000a900473ffffffffffffffffffffffffffffffffffffffff1673ffffffffffffffffffffffffffffffffffffffff16146111a7576040517f08c379a000000000000000000000000000000000000000000000000000000000815260040161119e9061588a565b60405180910390fd5b81600360003373ffffffffffffffffffffffffffffffffffffffff1673ffffffffffffffffffffffffffffffffffffffff16815260200190815260200160002060020183815481106111fc576111fb6155ff565b5b9060005260206000209060020201600001541461124e576040517f08c379a0000000000000000000000000000000000000000000000000000000008152600401611245906158f6565b60405180910390fd5b6000600360003373ffffffffffffffffffffffffffffffffffffffff1673ffffffffffffffffffffffffffffffffffffffff16815260200190815260200160002060020183815481106112a4576112a36155ff565b5b906000526020600020906002020160010160009054906101000a900473ffffffffffffffffffffffffffffffffffffffff1690506112e3838233613923565b6001915050919050565b8073ffffffffffffffffffffffffffffffffffffffff16600260008373ffffffffffffffffffffffffffffffffffffffff1673ffffffffffffffffffffffffffffffffffffffff16815260200190815260200160002060010160009054906101000a900473ffffffffffffffffffffffffffffffffffffffff1673ffffffffffffffffffffffffffffffffffffffff16146113bd576040517f08c379a00000000000000000000000000000000000000000000000000000000081526004016113b490615988565b60405180910390fd5b3373ffffffffffffffffffffffffffffffffffffffff16600360008373ffffffffffffffffffffffffffffffffffffffff1673ffffffffffffffffffffffffffffffffffffffff1681526020019081526020016000206002018381548110611428576114276155ff565b5b906000526020600020906002020160010160009054906101000a900473ffffffffffffffffffffffffffffffffffffffff1673ffffffffffffffffffffffffffffffffffffffff16146114b0576040517f08c379a00000000000000000000000000000000000000000000000000000000081526004016114a79061567a565b60405180910390fd5b81600360008373ffffffffffffffffffffffffffffffffffffffff1673ffffffffffffffffffffffffffffffffffffffff1681526020019081526020016000206002018381548110611505576115046155ff565b5b90600052602060002090600202016000015414611557576040517f08c379a000000000000000000000000000000000000000000000000000000000815260040161154e906158f6565b60405180910390fd5b611562823383613923565b5050565b60003373ffffffffffffffffffffffffffffffffffffffff16600260003373ffffffffffffffffffffffffffffffffffffffff1673ffffffffffffffffffffffffffffffffffffffff16815260200190815260200160002060010160009054906101000a900473ffffffffffffffffffffffffffffffffffffffff1673ffffffffffffffffffffffffffffffffffffffff1614611638576040517f08c379a000000000000000000000000000000000000000000000000000000000815260040161162f906154e1565b60405180910390fd5b8873ffffffffffffffffffffffffffffffffffffffff16600160008b73ffffffffffffffffffffffffffffffffffffffff1673ffffffffffffffffffffffffffffffffffffffff16815260200190815260200160002060000160009054906101000a900473ffffffffffffffffffffffffffffffffffffffff1673ffffffffffffffffffffffffffffffffffffffff1614611708576040517f08c379a00000000000000000000000000000000000000000000000000000000081526004016116ff9061554d565b60405180910390fd5b61171289336135ee565b611751576040517f08c379a00000000000000000000000000000000000000000000000000000000081526004016117489061544c565b60405180910390fd5b6117618989898989898989614065565b7f0c14653fca65d1b22631a36a53bd2a7153579eb0180192d23b52babb69c2805089856040516117929291906159a8565b60405180910390a16001905098975050505050505050565b6117b261477d565b3373ffffffffffffffffffffffffffffffffffffffff1660008054906101000a900473ffffffffffffffffffffffffffffffffffffffff1673ffffffffffffffffffffffffffffffffffffffff1614611840576040517f08c379a000000000000000000000000000000000000000000000000000000000815260040161183790615a1d565b60405180910390fd5b8173ffffffffffffffffffffffffffffffffffffffff16600260008473ffffffffffffffffffffffffffffffffffffffff1673ffffffffffffffffffffffffffffffffffffffff16815260200190815260200160002060010160009054906101000a900473ffffffffffffffffffffffffffffffffffffffff1673ffffffffffffffffffffffffffffffffffffffff1614611910576040517f08c379a000000000000000000000000000000000000000000000000000000000815260040161190790615a89565b60405180910390fd5b600260008373ffffffffffffffffffffffffffffffffffffffff1673ffffffffffffffffffffffffffffffffffffffff16815260200190815260200160002060405180604001604052908160008201805461196a9061577a565b80601f01602080910402602001604051908101604052809291908181526020018280546119969061577a565b80156119e35780601f106119b8576101008083540402835291602001916119e3565b820191906000526020600020905b8154815290600101906020018083116119c657829003601f168201915b505050505081526020016001820160009054906101000a900473ffffffffffffffffffffffffffffffffffffffff1673ffffffffffffffffffffffffffffffffffffffff1673ffffffffffffffffffffffffffffffffffffffff16815250509050919050565b60003373ffffffffffffffffffffffffffffffffffffffff1660008054906101000a900473ffffffffffffffffffffffffffffffffffffffff1673ffffffffffffffffffffffffffffffffffffffff1614611ad9576040517f08c379a0000000000000000000000000000000000000000000000000000000008152600401611ad090615a1d565b60405180910390fd5b8173ffffffffffffffffffffffffffffffffffffffff16600260008473ffffffffffffffffffffffffffffffffffffffff1673ffffffffffffffffffffffffffffffffffffffff16815260200190815260200160002060010160009054906101000a900473ffffffffffffffffffffffffffffffffffffffff1673ffffffffffffffffffffffffffffffffffffffff161415611baa576040517f08c379a0000000000000000000000000000000000000000000000000000000008152600401611ba190615af5565b60405180910390fd5b60405180604001604052808481526020018373ffffffffffffffffffffffffffffffffffffffff16815250600260008473ffffffffffffffffffffffffffffffffffffffff1673ffffffffffffffffffffffffffffffffffffffff1681526020019081526020016000206000820151816000019080519060200190611c309291906147ad565b5060208201518160010160006101000a81548173ffffffffffffffffffffffffffffffffffffffff021916908373ffffffffffffffffffffffffffffffffffffffff16021790555090505081600360008473ffffffffffffffffffffffffffffffffffffffff1673ffffffffffffffffffffffffffffffffffffffff16815260200190815260200160002060000160006101000a81548173ffffffffffffffffffffffffffffffffffffffff021916908373ffffffffffffffffffffffffffffffffffffffff1602179055506000600360008473ffffffffffffffffffffffffffffffffffffffff1673ffffffffffffffffffffffffffffffffffffffff168152602001908152602001600020600101819055507f19cb05bcb9f3a5aa3801619041099231656235762a3599eed02cdcac38facd1c8383604051611d75929190615b15565b60405180910390a16001905092915050565b60003373ffffffffffffffffffffffffffffffffffffffff16600260003373ffffffffffffffffffffffffffffffffffffffff1673ffffffffffffffffffffffffffffffffffffffff16815260200190815260200160002060010160009054906101000a900473ffffffffffffffffffffffffffffffffffffffff1673ffffffffffffffffffffffffffffffffffffffff1614611e59576040517f08c379a0000000000000000000000000000000000000000000000000000000008152600401611e50906154e1565b60405180910390fd5b8873ffffffffffffffffffffffffffffffffffffffff16600160008b73ffffffffffffffffffffffffffffffffffffffff1673ffffffffffffffffffffffffffffffffffffffff16815260200190815260200160002060000160009054906101000a900473ffffffffffffffffffffffffffffffffffffffff1673ffffffffffffffffffffffffffffffffffffffff161415611f2a576040517f08c379a0000000000000000000000000000000000000000000000000000000008152600401611f2190615b91565b60405180910390fd5b611f3a8989898989898989614065565b611f43896121a6565b507f1d22f26dee56193a2da8b325a26e02b936d68be9f49c0a6f92534464aa8f2ecf8985604051611f759291906159a8565b60405180910390a16001905098975050505050505050565b60003373ffffffffffffffffffffffffffffffffffffffff1660008054906101000a900473ffffffffffffffffffffffffffffffffffffffff1673ffffffffffffffffffffffffffffffffffffffff161461201d576040517f08c379a000000000000000000000000000000000000000000000000000000000815260040161201490615a1d565b60405180910390fd5b8173ffffffffffffffffffffffffffffffffffffffff16600260008473ffffffffffffffffffffffffffffffffffffffff1673ffffffffffffffffffffffffffffffffffffffff16815260200190815260200160002060010160009054906101000a900473ffffffffffffffffffffffffffffffffffffffff1673ffffffffffffffffffffffffffffffffffffffff16146120ed576040517f08c379a00000000000000000000000000000000000000000000000000000000081526004016120e490615a89565b60405180910390fd5b600260008373ffffffffffffffffffffffffffffffffffffffff1673ffffffffffffffffffffffffffffffffffffffff1681526020019081526020016000206000808201600061213d9190614833565b6001820160006101000a81549073ffffffffffffffffffffffffffffffffffffffff021916905550507f4630061df51c52d44a3987b904c6ff220da2cbdeff03ce8750cd14652cae0c6c82604051612195919061532d565b60405180910390a160019050919050565b60003373ffffffffffffffffffffffffffffffffffffffff16600260003373ffffffffffffffffffffffffffffffffffffffff1673ffffffffffffffffffffffffffffffffffffffff16815260200190815260200160002060010160009054906101000a900473ffffffffffffffffffffffffffffffffffffffff1673ffffffffffffffffffffffffffffffffffffffff1614612278576040517f08c379a000000000000000000000000000000000000000000000000000000000815260040161226f906154e1565b60405180910390fd5b8173ffffffffffffffffffffffffffffffffffffffff16600160008473ffffffffffffffffffffffffffffffffffffffff1673ffffffffffffffffffffffffffffffffffffffff16815260200190815260200160002060000160009054906101000a900473ffffffffffffffffffffffffffffffffffffffff1673ffffffffffffffffffffffffffffffffffffffff1614612348576040517f08c379a000000000000000000000000000000000000000000000000000000000815260040161233f90615bfd565b60405180910390fd5b6000151561235683336135ee565b151514612398576040517f08c379a000000000000000000000000000000000000000000000000000000000815260040161238f90615c69565b60405180910390fd5b600015156123a5836143ed565b1515146123e7576040517f08c379a00000000000000000000000000000000000000000000000000000000081526004016123de90615cd5565b60405180910390fd5b600360003373ffffffffffffffffffffffffffffffffffffffff1673ffffffffffffffffffffffffffffffffffffffff1681526020019081526020016000206002016040518060400160405280600360003373ffffffffffffffffffffffffffffffffffffffff1673ffffffffffffffffffffffffffffffffffffffff1681526020019081526020016000206001015481526020018473ffffffffffffffffffffffffffffffffffffffff1681525090806001815401808255809150506001900390600052602060002090600202016000909190919091506000820151816000015560208201518160010160006101000a81548173ffffffffffffffffffffffffffffffffffffffff021916908373ffffffffffffffffffffffffffffffffffffffff1602179055505050600460008373ffffffffffffffffffffffffffffffffffffffff1673ffffffffffffffffffffffffffffffffffffffff1681526020019081526020016000206000016040518060400160405280600360003373ffffffffffffffffffffffffffffffffffffffff1673ffffffffffffffffffffffffffffffffffffffff1681526020019081526020016000206001015481526020013373ffffffffffffffffffffffffffffffffffffffff1681525090806001815401808255809150506001900390600052602060002090600202016000909190919091506000820151816000015560208201518160010160006101000a81548173ffffffffffffffffffffffffffffffffffffffff021916908373ffffffffffffffffffffffffffffffffffffffff1602179055505050600360003373ffffffffffffffffffffffffffffffffffffffff1673ffffffffffffffffffffffffffffffffffffffff168152602001908152602001600020600101600081548092919061269090615d24565b91905055507f218ec21215c511260c909dd233fc0cb1190ef18c6eba8027742533695f40eaad6001600360003373ffffffffffffffffffffffffffffffffffffffff1673ffffffffffffffffffffffffffffffffffffffff168152602001908152602001600020600101546127059190615d6d565b338460006040516127199493929190615706565b60405180910390a160019050919050565b6060612734613252565b612773576040517f08c379a000000000000000000000000000000000000000000000000000000000815260040161276a90615ded565b60405180910390fd5b6000600460003373ffffffffffffffffffffffffffffffffffffffff1673ffffffffffffffffffffffffffffffffffffffff1681526020019081526020016000206000018054905067ffffffffffffffff8111156127d4576127d3614cfd565b5b60405190808252806020026020018201604052801561280d57816020015b6127fa614873565b8152602001906001900390816127f25790505b5090506000805b600460003373ffffffffffffffffffffffffffffffffffffffff1673ffffffffffffffffffffffffffffffffffffffff1681526020019081526020016000206000018054905081101561296d57600460003373ffffffffffffffffffffffffffffffffffffffff1673ffffffffffffffffffffffffffffffffffffffff16815260200190815260200160002060000181815481106128b5576128b46155ff565b5b9060005260206000209060020201604051806040016040529081600082015481526020016001820160009054906101000a900473ffffffffffffffffffffffffffffffffffffffff1673ffffffffffffffffffffffffffffffffffffffff1673ffffffffffffffffffffffffffffffffffffffff1681525050838381518110612941576129406155ff565b5b6020026020010181905250818061295790615d24565b925050808061296590615d24565b915050612814565b50819250505090565b61297e6148a3565b612986613252565b6129c5576040517f08c379a00000000000000000000000000000000000000000000000000000000081526004016129bc90615ded565b60405180910390fd5b600160003373ffffffffffffffffffffffffffffffffffffffff1673ffffffffffffffffffffffffffffffffffffffff168152602001908152602001600020604051806101200160405290816000820160009054906101000a900473ffffffffffffffffffffffffffffffffffffffff1673ffffffffffffffffffffffffffffffffffffffff1673ffffffffffffffffffffffffffffffffffffffff168152602001600182018054612a769061577a565b80601f0160208091040260200160405190810160405280929190818152602001828054612aa29061577a565b8015612aef5780601f10612ac457610100808354040283529160200191612aef565b820191906000526020600020905b815481529060010190602001808311612ad257829003601f168201915b50505050508152602001600282018054612b089061577a565b80601f0160208091040260200160405190810160405280929190818152602001828054612b349061577a565b8015612b815780601f10612b5657610100808354040283529160200191612b81565b820191906000526020600020905b815481529060010190602001808311612b6457829003601f168201915b50505050508152602001600382018054612b9a9061577a565b80601f0160208091040260200160405190810160405280929190818152602001828054612bc69061577a565b8015612c135780601f10612be857610100808354040283529160200191612c13565b820191906000526020600020905b815481529060010190602001808311612bf657829003601f168201915b50505050508152602001600482018054612c2c9061577a565b80601f0160208091040260200160405190810160405280929190818152602001828054612c589061577a565b8015612ca55780601f10612c7a57610100808354040283529160200191612ca5565b820191906000526020600020905b815481529060010190602001808311612c8857829003601f168201915b50505050508152602001600582015481526020016006820154815260200160078201805480602002602001604051908101604052809291908181526020018280548015612d4757602002820191906000526020600020905b8160009054906101000a900473ffffffffffffffffffffffffffffffffffffffff1673ffffffffffffffffffffffffffffffffffffffff1681526020019060010190808311612cfd575b505050505081526020016008820160009054906101000a900460ff161515151581525050905090565b60003373ffffffffffffffffffffffffffffffffffffffff1660008054906101000a900473ffffffffffffffffffffffffffffffffffffffff1673ffffffffffffffffffffffffffffffffffffffff161415612dcf5760019050612dd4565b600090505b90565b6000606080606080600080612dec88336135ee565b612e2b576040517f08c379a0000000000000000000000000000000000000000000000000000000008152600401612e2290615e59565b60405180910390fd5b600160008973ffffffffffffffffffffffffffffffffffffffff1673ffffffffffffffffffffffffffffffffffffffff16815260200190815260200160002060080160009054906101000a900460ff16600160008a73ffffffffffffffffffffffffffffffffffffffff1673ffffffffffffffffffffffffffffffffffffffff168152602001908152602001600020600101600160008b73ffffffffffffffffffffffffffffffffffffffff1673ffffffffffffffffffffffffffffffffffffffff168152602001908152602001600020600201600160008c73ffffffffffffffffffffffffffffffffffffffff1673ffffffffffffffffffffffffffffffffffffffff168152602001908152602001600020600301600160008d73ffffffffffffffffffffffffffffffffffffffff1673ffffffffffffffffffffffffffffffffffffffff168152602001908152602001600020600401600160008e73ffffffffffffffffffffffffffffffffffffffff1673ffffffffffffffffffffffffffffffffffffffff16815260200190815260200160002060050154600160008f73ffffffffffffffffffffffffffffffffffffffff1673ffffffffffffffffffffffffffffffffffffffff168152602001908152602001600020600601548580546130159061577a565b80601f01602080910402602001604051908101604052809291908181526020018280546130419061577a565b801561308e5780601f106130635761010080835404028352916020019161308e565b820191906000526020600020905b81548152906001019060200180831161307157829003601f168201915b505050505095508480546130a19061577a565b80601f01602080910402602001604051908101604052809291908181526020018280546130cd9061577a565b801561311a5780601f106130ef5761010080835404028352916020019161311a565b820191906000526020600020905b8154815290600101906020018083116130fd57829003601f168201915b5050505050945083805461312d9061577a565b80601f01602080910402602001604051908101604052809291908181526020018280546131599061577a565b80156131a65780601f1061317b576101008083540402835291602001916131a6565b820191906000526020600020905b81548152906001019060200180831161318957829003601f168201915b505050505093508280546131b99061577a565b80601f01602080910402602001604051908101604052809291908181526020018280546131e59061577a565b80156132325780601f1061320757610100808354040283529160200191613232565b820191906000526020600020905b81548152906001019060200180831161321557829003601f168201915b505050505092509650965096509650965096509650919395979092949650565b60003373ffffffffffffffffffffffffffffffffffffffff16600160003373ffffffffffffffffffffffffffffffffffffffff1673ffffffffffffffffffffffffffffffffffffffff16815260200190815260200160002060000160009054906101000a900473ffffffffffffffffffffffffffffffffffffffff1673ffffffffffffffffffffffffffffffffffffffff1614156132f357600190506132f8565b600090505b90565b60603373ffffffffffffffffffffffffffffffffffffffff16600260003373ffffffffffffffffffffffffffffffffffffffff1673ffffffffffffffffffffffffffffffffffffffff16815260200190815260200160002060010160009054906101000a900473ffffffffffffffffffffffffffffffffffffffff1673ffffffffffffffffffffffffffffffffffffffff16146133cd576040517f08c379a00000000000000000000000000000000000000000000000000000000081526004016133c4906154e1565b60405180910390fd5b6000600360003373ffffffffffffffffffffffffffffffffffffffff1673ffffffffffffffffffffffffffffffffffffffff1681526020019081526020016000206001015467ffffffffffffffff81111561342b5761342a614cfd565b5b60405190808252806020026020018201604052801561346457816020015b613451614873565b8152602001906001900390816134495790505b5090506000805b600360003373ffffffffffffffffffffffffffffffffffffffff1673ffffffffffffffffffffffffffffffffffffffff168152602001908152602001600020600101548110156135c157600360003373ffffffffffffffffffffffffffffffffffffffff1673ffffffffffffffffffffffffffffffffffffffff1681526020019081526020016000206002018181548110613509576135086155ff565b5b9060005260206000209060020201604051806040016040529081600082015481526020016001820160009054906101000a900473ffffffffffffffffffffffffffffffffffffffff1673ffffffffffffffffffffffffffffffffffffffff1673ffffffffffffffffffffffffffffffffffffffff1681525050838381518110613595576135946155ff565b5b602002602001018190525081806135ab90615d24565b92505080806135b990615d24565b91505061346b565b50819250505090565b60008054906101000a900473ffffffffffffffffffffffffffffffffffffffff1681565b600080600090505b600160008573ffffffffffffffffffffffffffffffffffffffff1673ffffffffffffffffffffffffffffffffffffffff16815260200190815260200160002060070180549050811015613712578273ffffffffffffffffffffffffffffffffffffffff16600160008673ffffffffffffffffffffffffffffffffffffffff1673ffffffffffffffffffffffffffffffffffffffff16815260200190815260200160002060070182815481106136ae576136ad6155ff565b5b9060005260206000200160009054906101000a900473ffffffffffffffffffffffffffffffffffffffff1673ffffffffffffffffffffffffffffffffffffffff1614156136ff576001915050613718565b808061370a90615d24565b9150506135f6565b60009150505b92915050565b600061372a8383614520565b9050600160008473ffffffffffffffffffffffffffffffffffffffff1673ffffffffffffffffffffffffffffffffffffffff16815260200190815260200160002060070160018060008673ffffffffffffffffffffffffffffffffffffffff1673ffffffffffffffffffffffffffffffffffffffff168152602001908152602001600020600701805490506137bf9190615d6d565b815481106137d0576137cf6155ff565b5b9060005260206000200160009054906101000a900473ffffffffffffffffffffffffffffffffffffffff16600160008573ffffffffffffffffffffffffffffffffffffffff1673ffffffffffffffffffffffffffffffffffffffff168152602001908152602001600020600701828154811061384f5761384e6155ff565b5b9060005260206000200160006101000a81548173ffffffffffffffffffffffffffffffffffffffff021916908373ffffffffffffffffffffffffffffffffffffffff160217905550600160008473ffffffffffffffffffffffffffffffffffffffff1673ffffffffffffffffffffffffffffffffffffffff1681526020019081526020016000206007018054806138e9576138e8615e79565b5b6001900381819060005260206000200160006101000a81549073ffffffffffffffffffffffffffffffffffffffff02191690559055505050565b600061392f838361464b565b9050600360008373ffffffffffffffffffffffffffffffffffffffff1673ffffffffffffffffffffffffffffffffffffffff1681526020019081526020016000206002016001600360008573ffffffffffffffffffffffffffffffffffffffff1673ffffffffffffffffffffffffffffffffffffffff168152602001908152602001600020600201805490506139c59190615d6d565b815481106139d6576139d56155ff565b5b9060005260206000209060020201600360008473ffffffffffffffffffffffffffffffffffffffff1673ffffffffffffffffffffffffffffffffffffffff1681526020019081526020016000206002018581548110613a3857613a376155ff565b5b9060005260206000209060020201600082015481600001556001820160009054906101000a900473ffffffffffffffffffffffffffffffffffffffff168160010160006101000a81548173ffffffffffffffffffffffffffffffffffffffff021916908373ffffffffffffffffffffffffffffffffffffffff160217905550905050600360008373ffffffffffffffffffffffffffffffffffffffff1673ffffffffffffffffffffffffffffffffffffffff168152602001908152602001600020600201805480613b0c57613b0b615e79565b5b60019003818190600052602060002090600202016000808201600090556001820160006101000a81549073ffffffffffffffffffffffffffffffffffffffff021916905550509055600460008473ffffffffffffffffffffffffffffffffffffffff1673ffffffffffffffffffffffffffffffffffffffff1681526020019081526020016000206000016001600460008673ffffffffffffffffffffffffffffffffffffffff1673ffffffffffffffffffffffffffffffffffffffff16815260200190815260200160002060000180549050613be89190615d6d565b81548110613bf957613bf86155ff565b5b9060005260206000209060020201600460008573ffffffffffffffffffffffffffffffffffffffff1673ffffffffffffffffffffffffffffffffffffffff1681526020019081526020016000206000018281548110613c5b57613c5a6155ff565b5b9060005260206000209060020201600082015481600001556001820160009054906101000a900473ffffffffffffffffffffffffffffffffffffffff168160010160006101000a81548173ffffffffffffffffffffffffffffffffffffffff021916908373ffffffffffffffffffffffffffffffffffffffff160217905550905050600460008473ffffffffffffffffffffffffffffffffffffffff1673ffffffffffffffffffffffffffffffffffffffff168152602001908152602001600020600001805480613d2f57613d2e615e79565b5b60019003818190600052602060002090600202016000808201600090556001820160006101000a81549073ffffffffffffffffffffffffffffffffffffffff02191690555050905583600360003373ffffffffffffffffffffffffffffffffffffffff1673ffffffffffffffffffffffffffffffffffffffff1681526020019081526020016000206002018054905014158015613e0e57506001600360008473ffffffffffffffffffffffffffffffffffffffff1673ffffffffffffffffffffffffffffffffffffffff16815260200190815260200160002060010154115b15613fce5783600360008473ffffffffffffffffffffffffffffffffffffffff1673ffffffffffffffffffffffffffffffffffffffff1681526020019081526020016000206002018581548110613e6857613e676155ff565b5b9060005260206000209060020201600001819055506000600360008473ffffffffffffffffffffffffffffffffffffffff1673ffffffffffffffffffffffffffffffffffffffff1681526020019081526020016000206002018581548110613ed357613ed26155ff565b5b906000526020600020906002020160010160009054906101000a900473ffffffffffffffffffffffffffffffffffffffff1690506000600460008373ffffffffffffffffffffffffffffffffffffffff1673ffffffffffffffffffffffffffffffffffffffff168152602001908152602001600020600001805490501115613fcc57613f5f818461464b565b915084600460008373ffffffffffffffffffffffffffffffffffffffff1673ffffffffffffffffffffffffffffffffffffffff1681526020019081526020016000206000018381548110613fb657613fb56155ff565b5b9060005260206000209060020201600001819055505b505b600360008373ffffffffffffffffffffffffffffffffffffffff1673ffffffffffffffffffffffffffffffffffffffff168152602001908152602001600020600101600081548092919061402190615ea8565b91905055507f5bc31e521401c7e4fbe27cc8e953ddcd66ce6cc84d810d1850450e7964029d958483604051614057929190615ed2565b60405180910390a150505050565b600087511161407357600080fd5b600086511161408157600080fd5b600084511161408f57600080fd5b600085511161409d57600080fd5b87600160008a73ffffffffffffffffffffffffffffffffffffffff1673ffffffffffffffffffffffffffffffffffffffff16815260200190815260200160002060000160006101000a81548173ffffffffffffffffffffffffffffffffffffffff021916908373ffffffffffffffffffffffffffffffffffffffff16021790555086600160008a73ffffffffffffffffffffffffffffffffffffffff1673ffffffffffffffffffffffffffffffffffffffff16815260200190815260200160002060010190805190602001906141749291906147ad565b5085600160008a73ffffffffffffffffffffffffffffffffffffffff1673ffffffffffffffffffffffffffffffffffffffff16815260200190815260200160002060020190805190602001906141cb9291906147ad565b5084600160008a73ffffffffffffffffffffffffffffffffffffffff1673ffffffffffffffffffffffffffffffffffffffff16815260200190815260200160002060030190805190602001906142229291906147ad565b5083600160008a73ffffffffffffffffffffffffffffffffffffffff1673ffffffffffffffffffffffffffffffffffffffff16815260200190815260200160002060040190805190602001906142799291906147ad565b5082600160008a73ffffffffffffffffffffffffffffffffffffffff1673ffffffffffffffffffffffffffffffffffffffff16815260200190815260200160002060080160006101000a81548160ff02191690831515021790555081600160008a73ffffffffffffffffffffffffffffffffffffffff1673ffffffffffffffffffffffffffffffffffffffff1681526020019081526020016000206005018190555080600160008a73ffffffffffffffffffffffffffffffffffffffff1673ffffffffffffffffffffffffffffffffffffffff1681526020019081526020016000206006018190555087600460008a73ffffffffffffffffffffffffffffffffffffffff1673ffffffffffffffffffffffffffffffffffffffff16815260200190815260200160002060010160006101000a81548173ffffffffffffffffffffffffffffffffffffffff021916908373ffffffffffffffffffffffffffffffffffffffff1602179055505050505050505050565b600080600090505b600360003373ffffffffffffffffffffffffffffffffffffffff1673ffffffffffffffffffffffffffffffffffffffff16815260200190815260200160002060010154811015614515578273ffffffffffffffffffffffffffffffffffffffff16600360003373ffffffffffffffffffffffffffffffffffffffff1673ffffffffffffffffffffffffffffffffffffffff16815260200190815260200160002060020182815481106144aa576144a96155ff565b5b906000526020600020906002020160010160009054906101000a900473ffffffffffffffffffffffffffffffffffffffff1673ffffffffffffffffffffffffffffffffffffffff16141561450257600191505061451b565b808061450d90615d24565b9150506143f5565b60009150505b919050565b600080600090505b600160008573ffffffffffffffffffffffffffffffffffffffff1673ffffffffffffffffffffffffffffffffffffffff16815260200190815260200160002060070180549050811015614643578273ffffffffffffffffffffffffffffffffffffffff16600160008673ffffffffffffffffffffffffffffffffffffffff1673ffffffffffffffffffffffffffffffffffffffff16815260200190815260200160002060070182815481106145e0576145df6155ff565b5b9060005260206000200160009054906101000a900473ffffffffffffffffffffffffffffffffffffffff1673ffffffffffffffffffffffffffffffffffffffff1614156146305780915050614645565b808061463b90615d24565b915050614528565b505b92915050565b600080600090505b600460008573ffffffffffffffffffffffffffffffffffffffff1673ffffffffffffffffffffffffffffffffffffffff16815260200190815260200160002060000180549050811015614775578273ffffffffffffffffffffffffffffffffffffffff16600460008673ffffffffffffffffffffffffffffffffffffffff1673ffffffffffffffffffffffffffffffffffffffff168152602001908152602001600020600001828154811061470b5761470a6155ff565b5b906000526020600020906002020160010160009054906101000a900473ffffffffffffffffffffffffffffffffffffffff1673ffffffffffffffffffffffffffffffffffffffff1614156147625780915050614777565b808061476d90615d24565b915050614653565b505b92915050565b604051806040016040528060608152602001600073ffffffffffffffffffffffffffffffffffffffff1681525090565b8280546147b99061577a565b90600052602060002090601f0160209004810192826147db5760008555614822565b82601f106147f457805160ff1916838001178555614822565b82800160010185558215614822579182015b82811115614821578251825591602001919060010190614806565b5b50905061482f9190614907565b5090565b50805461483f9061577a565b6000825580601f106148515750614870565b601f01602090049060005260206000209081019061486f9190614907565b5b50565b604051806040016040528060008152602001600073ffffffffffffffffffffffffffffffffffffffff1681525090565b604051806101200160405280600073ffffffffffffffffffffffffffffffffffffffff168152602001606081526020016060815260200160608152602001606081526020016000815260200160008152602001606081526020016000151581525090565b5b80821115614920576000816000905550600101614908565b5090565b6000604051905090565b600080fd5b600080fd5b600073ffffffffffffffffffffffffffffffffffffffff82169050919050565b600061496382614938565b9050919050565b61497381614958565b811461497e57600080fd5b50565b6000813590506149908161496a565b92915050565b6000602082840312156149ac576149ab61492e565b5b60006149ba84828501614981565b91505092915050565b60008115159050919050565b6149d8816149c3565b82525050565b60006020820190506149f360008301846149cf565b92915050565b6000819050919050565b614a0c816149f9565b8114614a1757600080fd5b50565b600081359050614a2981614a03565b92915050565b614a38816149c3565b8114614a4357600080fd5b50565b600081359050614a5581614a2f565b92915050565b600080600060608486031215614a7457614a7361492e565b5b6000614a8286828701614a1a565b9350506020614a9386828701614981565b9250506040614aa486828701614a46565b9150509250925092565b600081519050919050565b600082825260208201905092915050565b60005b83811015614ae8578082015181840152602081019050614acd565b83811115614af7576000848401525b50505050565b6000601f19601f8301169050919050565b6000614b1982614aae565b614b238185614ab9565b9350614b33818560208601614aca565b614b3c81614afd565b840191505092915050565b614b5081614958565b82525050565b60006040830160008301518482036000860152614b738282614b0e565b9150506020830151614b886020860182614b47565b508091505092915050565b60006020820190508181036000830152614bad8184614b56565b905092915050565b600081519050919050565b600082825260208201905092915050565b6000819050602082019050919050565b6000614bed8383614b47565b60208301905092915050565b6000602082019050919050565b6000614c1182614bb5565b614c1b8185614bc0565b9350614c2683614bd1565b8060005b83811015614c57578151614c3e8882614be1565b9750614c4983614bf9565b925050600181019050614c2a565b5085935050505092915050565b60006020820190508181036000830152614c7e8184614c06565b905092915050565b600060208284031215614c9c57614c9b61492e565b5b6000614caa84828501614a1a565b91505092915050565b60008060408385031215614cca57614cc961492e565b5b6000614cd885828601614a1a565b9250506020614ce985828601614981565b9150509250929050565b600080fd5b600080fd5b7f4e487b7100000000000000000000000000000000000000000000000000000000600052604160045260246000fd5b614d3582614afd565b810181811067ffffffffffffffff82111715614d5457614d53614cfd565b5b80604052505050565b6000614d67614924565b9050614d738282614d2c565b919050565b600067ffffffffffffffff821115614d9357614d92614cfd565b5b614d9c82614afd565b9050602081019050919050565b82818337600083830152505050565b6000614dcb614dc684614d78565b614d5d565b905082815260208101848484011115614de757614de6614cf8565b5b614df2848285614da9565b509392505050565b600082601f830112614e0f57614e0e614cf3565b5b8135614e1f848260208601614db8565b91505092915050565b600080600080600080600080610100898b031215614e4957614e4861492e565b5b6000614e578b828c01614981565b985050602089013567ffffffffffffffff811115614e7857614e77614933565b5b614e848b828c01614dfa565b975050604089013567ffffffffffffffff811115614ea557614ea4614933565b5b614eb18b828c01614dfa565b965050606089013567ffffffffffffffff811115614ed257614ed1614933565b5b614ede8b828c01614dfa565b955050608089013567ffffffffffffffff811115614eff57614efe614933565b5b614f0b8b828c01614dfa565b94505060a0614f1c8b828c01614a46565b93505060c0614f2d8b828c01614a1a565b92505060e0614f3e8b828c01614a1a565b9150509295985092959890939650565b60008060408385031215614f6557614f6461492e565b5b600083013567ffffffffffffffff811115614f8357614f82614933565b5b614f8f85828601614dfa565b9250506020614fa085828601614981565b9150509250929050565b600081519050919050565b600082825260208201905092915050565b6000819050602082019050919050565b614fdf816149f9565b82525050565b604082016000820151614ffb6000850182614fd6565b50602082015161500e6020850182614b47565b50505050565b60006150208383614fe5565b60408301905092915050565b6000602082019050919050565b600061504482614faa565b61504e8185614fb5565b935061505983614fc6565b8060005b8381101561508a5781516150718882615014565b975061507c8361502c565b92505060018101905061505d565b5085935050505092915050565b600060208201905081810360008301526150b18184615039565b905092915050565b600082825260208201905092915050565b60006150d582614bb5565b6150df81856150b9565b93506150ea83614bd1565b8060005b8381101561511b5781516151028882614be1565b975061510d83614bf9565b9250506001810190506150ee565b5085935050505092915050565b615131816149c3565b82525050565b6000610120830160008301516151506000860182614b47565b50602083015184820360208601526151688282614b0e565b915050604083015184820360408601526151828282614b0e565b9150506060830151848203606086015261519c8282614b0e565b915050608083015184820360808601526151b68282614b0e565b91505060a08301516151cb60a0860182614fd6565b5060c08301516151de60c0860182614fd6565b5060e083015184820360e08601526151f682826150ca565b91505061010083015161520d610100860182615128565b508091505092915050565b600060208201905081810360008301526152328184615137565b905092915050565b600082825260208201905092915050565b600061525682614aae565b615260818561523a565b9350615270818560208601614aca565b61527981614afd565b840191505092915050565b61528d816149f9565b82525050565b600060e0820190506152a8600083018a6149cf565b81810360208301526152ba818961524b565b905081810360408301526152ce818861524b565b905081810360608301526152e2818761524b565b905081810360808301526152f6818661524b565b905061530560a0830185615284565b61531260c0830184615284565b98975050505050505050565b61532781614958565b82525050565b6000602082019050615342600083018461531e565b92915050565b7f596f7520646f6e74206861766520617574686f7269747920746f207265766f6b60008201527f6520616363657373000000000000000000000000000000000000000000000000602082015250565b60006153a460288361523a565b91506153af82615348565b604082019050919050565b600060208201905081810360008301526153d381615397565b9050919050565b7f596f7520646f6e7420686176652061636365737320746f20746869732075736560008201527f7200000000000000000000000000000000000000000000000000000000000000602082015250565b600061543660218361523a565b9150615441826153da565b604082019050919050565b6000602082019050818103600083015261546581615429565b9050919050565b6000604082019050615481600083018561531e565b61548e602083018461531e565b9392505050565b7f4f7267206e6f7420657869737400000000000000000000000000000000000000600082015250565b60006154cb600d8361523a565b91506154d682615495565b602082019050919050565b600060208201905081810360008301526154fa816154be565b9050919050565b7f5573657220646f65736e27742065786973740000000000000000000000000000600082015250565b600061553760128361523a565b915061554282615501565b602082019050919050565b600060208201905081810360008301526155668161552a565b9050919050565b7f596f7520646f6e74206861766520617574686f7269747920746f20676976652060008201527f6163636573730000000000000000000000000000000000000000000000000000602082015250565b60006155c960268361523a565b91506155d48261556d565b604082019050919050565b600060208201905081810360008301526155f8816155bc565b9050919050565b7f4e487b7100000000000000000000000000000000000000000000000000000000600052603260045260246000fd5b7f55736572206e6f742076616c6964000000000000000000000000000000000000600082015250565b6000615664600e8361523a565b915061566f8261562e565b602082019050919050565b6000602082019050818103600083015261569381615657565b9050919050565b7f5265717565737473206e6f7420666f756e640000000000000000000000000000600082015250565b60006156d060128361523a565b91506156db8261569a565b602082019050919050565b600060208201905081810360008301526156ff816156c3565b9050919050565b600060808201905061571b6000830187615284565b615728602083018661531e565b615735604083018561531e565b61574260608301846149cf565b95945050505050565b7f4e487b7100000000000000000000000000000000000000000000000000000000600052602260045260246000fd5b6000600282049050600182168061579257607f821691505b602082108114156157a6576157a561574b565b5b50919050565b7f596f7520646f6e74206861766520617574686f72697479000000000000000000600082015250565b60006157e260178361523a565b91506157ed826157ac565b602082019050919050565b60006020820190508181036000830152615811816157d5565b9050919050565b7f596f7520646f6e74206861766520617574686f7269747920746f2064656c657460008201527f6500000000000000000000000000000000000000000000000000000000000000602082015250565b600061587460218361523a565b915061587f82615818565b604082019050919050565b600060208201905081810360008301526158a381615867565b9050919050565b7f5265717565737420646f65736e74206578697374000000000000000000000000600082015250565b60006158e060148361523a565b91506158eb826158aa565b602082019050919050565b6000602082019050818103600083015261590f816158d3565b9050919050565b7f5468697320706172746963756c6172206f7267616e697a6174696f6e7320646f60008201527f65736e7420657869737400000000000000000000000000000000000000000000602082015250565b6000615972602a8361523a565b915061597d82615916565b604082019050919050565b600060208201905081810360008301526159a181615965565b9050919050565b60006040820190506159bd600083018561531e565b6159ca60208301846149cf565b9392505050565b7f41646d696e206f6e6c7900000000000000000000000000000000000000000000600082015250565b6000615a07600a8361523a565b9150615a12826159d1565b602082019050919050565b60006020820190508181036000830152615a36816159fa565b9050919050565b7f4f726720646f65736e7420657869737400000000000000000000000000000000600082015250565b6000615a7360108361523a565b9150615a7e82615a3d565b602082019050919050565b60006020820190508181036000830152615aa281615a66565b9050919050565b7f4f726720616c7265616479206164646564000000000000000000000000000000600082015250565b6000615adf60118361523a565b9150615aea82615aa9565b602082019050919050565b60006020820190508181036000830152615b0e81615ad2565b9050919050565b60006040820190508181036000830152615b2f818561524b565b9050615b3e602083018461531e565b9392505050565b7f5573657220616c72656164792065786973747300000000000000000000000000600082015250565b6000615b7b60138361523a565b9150615b8682615b45565b602082019050919050565b60006020820190508181036000830152615baa81615b6e565b9050919050565b7f437573746f6d657220646f65736e742065786973747300000000000000000000600082015250565b6000615be760168361523a565b9150615bf282615bb1565b602082019050919050565b60006020820190508181036000830152615c1681615bda565b9050919050565b7f416c726561647920686176652061636365737300000000000000000000000000600082015250565b6000615c5360138361523a565b9150615c5e82615c1d565b602082019050919050565b60006020820190508181036000830152615c8281615c46565b9050919050565b7f5265717565737420416c72656164792045786973747300000000000000000000600082015250565b6000615cbf60168361523a565b9150615cca82615c89565b602082019050919050565b60006020820190508181036000830152615cee81615cb2565b9050919050565b7f4e487b7100000000000000000000000000000000000000000000000000000000600052601160045260246000fd5b6000615d2f826149f9565b91507fffffffffffffffffffffffffffffffffffffffffffffffffffffffffffffffff821415615d6257615d61615cf5565b5b600182019050919050565b6000615d78826149f9565b9150615d83836149f9565b925082821015615d9657615d95615cf5565b5b828203905092915050565b7f437573746f6d6572206e6f742076616c69640000000000000000000000000000600082015250565b6000615dd760128361523a565b9150615de282615da1565b602082019050919050565b60006020820190508181036000830152615e0681615dca565b9050919050565b7f55736572206861736e7420676976656e20746865697220636f6e73656e740000600082015250565b6000615e43601e8361523a565b9150615e4e82615e0d565b602082019050919050565b60006020820190508181036000830152615e7281615e36565b9050919050565b7f4e487b7100000000000000000000000000000000000000000000000000000000600052603160045260246000fd5b6000615eb3826149f9565b91506000821415615ec757615ec6615cf5565b5b600182039050919050565b6000604082019050615ee76000830185615284565b615ef4602083018461531e565b939250505056fea26469706673582212205185ed9dea4fb950d859a21bdab3ea89224315ead9e35a414fc917a81a9e7f9764736f6c634300080a0033",
  "immutableReferences": {},
  "source": "// SPDX-License-Identifier: MIT\r\npragma solidity >=0.4.22 <0.9.0;\r\n\r\ncontract Kyc {\r\n  address public admin;\r\n  struct Customer {\r\n      address custAddress;\r\n      string jsonHash;\r\n      string photoHash;\r\n      string citizenship_front_hash;\r\n      string citizenship_back_hash;\r\n      uint d;\r\n      uint n;\r\n      address[] organization;\r\n      bool kycStatus;\r\n  }\r\n\r\n  struct Organization {\r\n      string name;\r\n      address ethAddress;\r\n  }\r\n\r\n  struct kycRequest{\r\n      address ethAddress;\r\n      uint req_count;\r\n      kycRequestList[] kycrequestlist;\r\n  }\r\n  \r\n  struct kycRequestList{\r\n      uint req_count;\r\n      address Address;\r\n  }\r\n  \r\n  struct kycRequestCust{\r\n      kycRequestList[] kycrequestlist;\r\n      address custAddress;\r\n  }\r\n\r\n  constructor()  {\r\n      admin = msg.sender;\r\n  }\r\n\r\n  mapping(address => Customer) customers;\r\n  mapping(address => Organization) organizations;\r\n  mapping(address => kycRequest) kycrequestsbyorg;\r\n  mapping(address => kycRequestCust) kycrequestsbycust;\r\n\r\n  event orgAdded(string name,address ethAddress);\r\n  event orgRemoved(address ethAddress);\r\n  event customerAdded(address custAddress,bool kycStatus);\r\n  event customerUpdated(address custAddress,bool kycStatus);\r\n  event requestAdded(uint reqid,address ethAddress, address custAddress,bool isAllowed);\r\n  event requestRemoved(uint reqid,address ethAddress);\r\n  event accessGiven(uint reqid,address custAddress,address ethAddress,bool isAllowed);\r\n  event accessRevoked(address custAddress,address ethAddress);\r\n  event kycRemoved(address custAddress,address ethAddress);\r\n\r\n// Checks whether the requestor is admin\r\n  modifier isAdmin {\r\n      require(\r\n          admin == msg.sender,\r\n          \"Admin only\"\r\n      );\r\n      _;\r\n  }\r\n\r\n// Checks wheter the org exists or not\r\n  modifier isOrgValid {\r\n      require(\r\n          organizations[msg.sender].ethAddress == msg.sender,\r\n          \"Org not exist\"    \r\n      );\r\n      _;\r\n  }\r\n\r\n//Check if Org has access to the user KYC\r\n  function findOrg(address _custaddress,address ethAddress) internal view returns(bool){\r\n      uint i = 0;\r\n          for(i;i<customers[_custaddress].organization.length;i++){\r\n              if(customers[_custaddress].organization[i]==ethAddress){\r\n                  return true;\r\n              }\r\n          }\r\n          return false;\r\n  }\r\n\r\n//Find the index of Org in KYC.organization array\r\n  function findOrgIndex(address _custaddress,address ethAddress) internal view returns(uint){\r\n      uint i = 0;\r\n      for(i;i<customers[_custaddress].organization.length;i++){\r\n            if(customers[_custaddress].organization[i]==ethAddress){\r\n                return i;\r\n            }\r\n    }\r\n  }\r\n  \r\n  function findRequestIndex(address _custaddress,address _ethAddress) internal view returns(uint){\r\n      uint i = 0;\r\n      for(i;i<kycrequestsbycust[_custaddress].kycrequestlist.length;i++){\r\n            if(kycrequestsbycust[_custaddress].kycrequestlist[i].Address==_ethAddress){\r\n                return i;\r\n            }\r\n    }\r\n  }\r\n\r\n//Check if request exist \r\n  function findRequest(address _custaddress) internal view returns(bool){\r\n      uint i=0;\r\n      for(i;i<kycrequestsbyorg[msg.sender].req_count;i++){\r\n          if(kycrequestsbyorg[msg.sender].kycrequestlist[i].Address==_custaddress){\r\n              return true;\r\n          }\r\n      }\r\n      return false;\r\n  }\r\n\r\n//Add organization ONLY BY ADMIN\r\n  function addOrg(string memory _name,address _ethAddress) public isAdmin returns(bool) {\r\n      require(organizations[_ethAddress].ethAddress!=_ethAddress,\"Org already added\");\r\n      organizations[_ethAddress]=Organization(_name,_ethAddress);\r\n      kycrequestsbyorg[_ethAddress].ethAddress=_ethAddress;\r\n      kycrequestsbyorg[_ethAddress].req_count=0;\r\n      emit orgAdded(_name,_ethAddress);\r\n      return true;\r\n  }\r\n\r\n//Remove Organization ONLY BY ADMIN \r\n  function removeOrg(address _ethAddress) public isAdmin returns(bool) {\r\n      require(organizations[_ethAddress].ethAddress==_ethAddress,\"Org doesnt exist\");\r\n      delete organizations[_ethAddress];\r\n      emit orgRemoved(_ethAddress);\r\n      return true;\r\n  }\r\n\r\n//Return Organization Info if it exists  \r\n  function viewOrg(address _ethAddress)public isAdmin view returns(Organization memory){\r\n      require(organizations[_ethAddress].ethAddress==_ethAddress,\"Org doesnt exist\");\r\n      return organizations[_ethAddress];\r\n  }\r\n\r\n  function getYourOrgDetail() public isOrgValid view returns(Organization memory){\r\n    return organizations[msg.sender];\r\n  }\r\n\r\n  function validOrg() public view returns(bool){\r\n    if(organizations[msg.sender].ethAddress==msg.sender){\r\n      return true;\r\n    }\r\n    else{\r\n      return false;\r\n    }\r\n  }\r\n  function validAdmin() public view returns(bool){\r\n    if(admin==msg.sender){\r\n      return true;\r\n    }\r\n    else{\r\n      return false;\r\n    }\r\n  }\r\n  function validCust() public view returns(bool){\r\n    if(customers[msg.sender].custAddress==msg.sender){\r\n      return true;\r\n    }\r\n    else{\r\n      return false;\r\n    }\r\n  }\r\n\r\n  function writeKYC(\r\n    address _custaddress,\r\n    string memory _jsonHash,\r\n    string memory _photohash,\r\n    string memory _citizenship_front_hash,\r\n    string memory _citizenship_back_hash,\r\n    bool _kycStatus,\r\n    uint _d,\r\n    uint _n) internal {\r\n      require(bytes(_jsonHash).length > 0);\r\n      require(bytes(_photohash).length > 0);\r\n      require(bytes(_citizenship_back_hash).length > 0);\r\n      require(bytes(_citizenship_front_hash).length > 0);\r\n      customers[_custaddress].custAddress=_custaddress;\r\n      customers[_custaddress].jsonHash=_jsonHash;\r\n      customers[_custaddress].photoHash=_photohash;\r\n      customers[_custaddress].citizenship_front_hash=_citizenship_front_hash;\r\n      customers[_custaddress].citizenship_back_hash=_citizenship_back_hash;\r\n      customers[_custaddress].kycStatus=_kycStatus;\r\n      customers[_custaddress].d=_d;\r\n      customers[_custaddress].n=_n;\r\n      kycrequestsbycust[_custaddress].custAddress=_custaddress;\r\n  }\r\n\r\n//Register User KYC by registered Orgs\r\n  function registerKYC(\r\n    address _custaddress,\r\n    string memory _jsonHash,\r\n    string memory _photohash,\r\n    string memory _citizenship_front_hash,\r\n    string memory _citizenship_back_hash,\r\n    bool _kycStatus,\r\n    uint _d,\r\n    uint _n) public isOrgValid returns(bool){\r\n      require(customers[_custaddress].custAddress!=_custaddress,\"User already exists\");\r\n      writeKYC(_custaddress,_jsonHash,_photohash,_citizenship_front_hash,_citizenship_back_hash,_kycStatus,_d,_n);\r\n      requestKYC(_custaddress);\r\n      emit customerAdded(_custaddress,_kycStatus);\r\n      return true;\r\n  }\r\n\r\n//View User KYC by Authorized Orgs  \r\n  function viewKYC(address _custaddress) public view \r\n  returns(\r\n    bool,\r\n    string memory,\r\n    string memory,\r\n    string memory,\r\n    string memory,\r\n    uint,\r\n    uint)\r\n  {\r\n      require(findOrg(_custaddress,msg.sender),\"User hasnt given their consent\");\r\n      return(customers[_custaddress].kycStatus,customers[_custaddress].jsonHash,customers[_custaddress].photoHash,customers[_custaddress].citizenship_front_hash,customers[_custaddress].citizenship_back_hash,customers[_custaddress].d,customers[_custaddress].n);\r\n  }\r\n  \r\n  function viewYourKYC() public view returns(Customer memory){\r\n      require(validCust(),'Customer not valid');\r\n      return customers[msg.sender];\r\n  }\r\n\r\n  function viewOrgWithAccess() public view returns(address[] memory){\r\n      require(customers[msg.sender].custAddress==msg.sender,\"You dont have authority\");\r\n      return customers[msg.sender].organization;\r\n  }\r\n  \r\n  \r\n  function viewRequestCust() public view returns(kycRequestList[] memory){\r\n      require(validCust(),'Customer not valid');\r\n      kycRequestList[] memory ret =  new kycRequestList[](kycrequestsbycust[msg.sender].kycrequestlist.length);\r\n      uint j = 0;\r\n        for (uint i = 0; i < kycrequestsbycust[msg.sender].kycrequestlist.length; i++) {\r\n            ret[j] = kycrequestsbycust[msg.sender].kycrequestlist[i];\r\n            j++;\r\n                \r\n        }\r\n    return (ret);\r\n  }\r\n\r\n//Update User KYC by registered and authorized orgs\r\n  function updateKYC(\r\n    address _custaddress,\r\n    string memory _jsonHash,\r\n    string memory _photohash,\r\n    string memory _citizenship_front_hash,\r\n    string memory _citizenship_back_hash,\r\n    bool _kycStatus,\r\n    uint _d,\r\n    uint _n) public isOrgValid returns(bool){\r\n      require(customers[_custaddress].custAddress==_custaddress,\"User doesn't exist\");\r\n      require(findOrg(_custaddress,msg.sender),\"You dont have access to this user\");\r\n      writeKYC(_custaddress,_jsonHash,_photohash,_citizenship_front_hash,_citizenship_back_hash,_kycStatus,_d,_n);\r\n      emit customerUpdated(_custaddress,_kycStatus);\r\n      return true;\r\n  }\r\n\r\n//Request User KYC by Orgs  \r\n  function requestKYC(address _custaddress) public isOrgValid returns(bool){\r\n      require(customers[_custaddress].custAddress==_custaddress,\"Customer doesnt exists\");\r\n      require(findOrg(_custaddress,msg.sender)==false,\"Already have access\");\r\n      require(findRequest(_custaddress)==false,\"Request Already Exists\");\r\n      kycrequestsbyorg[msg.sender].kycrequestlist.push(kycRequestList(kycrequestsbyorg[msg.sender].req_count,_custaddress));\r\n      kycrequestsbycust[_custaddress].kycrequestlist.push(kycRequestList(kycrequestsbyorg[msg.sender].req_count,msg.sender));\r\n      kycrequestsbyorg[msg.sender].req_count++;\r\n      emit requestAdded(kycrequestsbyorg[msg.sender].req_count-1,msg.sender,_custaddress,false);\r\n      return true;\r\n  }\r\n  \r\n  function deleteRequest(uint _reqcount,address _custaddress,address _ethAddress) internal{\r\n    uint index = findRequestIndex(_custaddress,_ethAddress);\r\n    kycrequestsbyorg[_ethAddress].kycrequestlist[_reqcount]=kycrequestsbyorg[_ethAddress].kycrequestlist[kycrequestsbyorg[_ethAddress].kycrequestlist.length-1];\r\n    kycrequestsbyorg[_ethAddress].kycrequestlist.pop();\r\n    kycrequestsbycust[_custaddress].kycrequestlist[index]=kycrequestsbycust[_custaddress].kycrequestlist[kycrequestsbycust[_custaddress].kycrequestlist.length-1];\r\n    kycrequestsbycust[_custaddress].kycrequestlist.pop();\r\n    if(kycrequestsbyorg[msg.sender].kycrequestlist.length!=_reqcount && kycrequestsbyorg[_ethAddress].req_count>1){\r\n        kycrequestsbyorg[_ethAddress].kycrequestlist[_reqcount].req_count=_reqcount;\r\n        address add = kycrequestsbyorg[_ethAddress].kycrequestlist[_reqcount].Address;\r\n        if(kycrequestsbycust[add].kycrequestlist.length>0){\r\n            index = findRequestIndex(add, _ethAddress);\r\n            kycrequestsbycust[add].kycrequestlist[index].req_count=_reqcount;\r\n        }\r\n        \r\n     }\r\n    kycrequestsbyorg[_ethAddress].req_count--;\r\n    emit requestRemoved(_reqcount,_ethAddress);\r\n  }\r\n\r\n//Delete User KYC request by organization\r\n  function deleteRequestOrg(uint _reqcount) public isOrgValid returns(bool){\r\n    require(kycrequestsbyorg[msg.sender].ethAddress==msg.sender,\"You dont have authority to delete\");\r\n    require(kycrequestsbyorg[msg.sender].kycrequestlist[_reqcount].req_count==_reqcount,\"Request doesnt exist\");\r\n    address _custaddress = kycrequestsbyorg[msg.sender].kycrequestlist[_reqcount].Address;\r\n    deleteRequest(_reqcount,_custaddress,msg.sender);\r\n    return true;\r\n  }\r\n\r\n//Delete User KYC Request after user provides access \r\n  function deleteRequestCust(uint _reqcount,address _ethAddress) public{\r\n      require(organizations[_ethAddress].ethAddress==_ethAddress,\"This particular organizations doesnt exist\");\r\n      require(kycrequestsbyorg[_ethAddress].kycrequestlist[_reqcount].Address==msg.sender,\"User not valid\");\r\n      require(kycrequestsbyorg[_ethAddress].kycrequestlist[_reqcount].req_count==_reqcount,\"Request doesnt exist\");\r\n      deleteRequest(_reqcount,msg.sender,_ethAddress);\r\n  }\r\n\r\n\r\n\r\n//Return Array of all pending request of the orgs\r\n  function listRequest() public isOrgValid view returns(kycRequestList[] memory){\r\n      kycRequestList[] memory ret =  new kycRequestList[](kycrequestsbyorg[msg.sender].req_count);\r\n      uint j = 0;\r\n        for (uint i = 0; i < kycrequestsbyorg[msg.sender].req_count; i++) {\r\n            ret[j] = kycrequestsbyorg[msg.sender].kycrequestlist[i];\r\n            j++;\r\n                \r\n        }\r\n    return (ret);\r\n  }\r\n\r\n//Give User KYC access to Org\r\n  function giveAccessKYC(uint _reqcount,address _ethAddress,bool _isAllowed) public returns(bool){\r\n      require(customers[msg.sender].custAddress==msg.sender,\"You dont have authority to give access\");\r\n      require(kycrequestsbyorg[_ethAddress].kycrequestlist[_reqcount].Address==msg.sender,\"User not valid\");\r\n      require(kycrequestsbyorg[_ethAddress].kycrequestlist[_reqcount].req_count==_reqcount,\"Requests not found\");\r\n      if(_isAllowed == true){\r\n          if(findOrg(msg.sender,_ethAddress) == false){\r\n              customers[msg.sender].organization.push(_ethAddress);\r\n          }\r\n          deleteRequestCust(_reqcount,_ethAddress);\r\n          emit accessGiven(_reqcount,msg.sender,_ethAddress,_isAllowed);\r\n      }\r\n      else{\r\n          deleteRequestCust(_reqcount,_ethAddress);\r\n      }\r\n      return true;\r\n      \r\n  }\r\n  \r\n  function remove(address _custaddress,address _ethAddress) internal {\r\n      uint i=findOrgIndex(_custaddress,_ethAddress);\r\n      customers[_custaddress].organization[i]=customers[_custaddress].organization[customers[_custaddress].organization.length-1];\r\n      customers[_custaddress].organization.pop();\r\n  }\r\n\r\n//Revoke User KYC access of Orgs\r\n  function revokeAccessKYC(address _ethAddress) public returns(bool){\r\n      require(customers[msg.sender].custAddress==msg.sender,\"You dont have authority to revoke access\");\r\n      require(findOrg(msg.sender,_ethAddress),\"You dont have access to this user\");\r\n      remove(msg.sender,_ethAddress);\r\n      emit accessRevoked(msg.sender,_ethAddress);\r\n      return true;\r\n  }\r\n\r\n//Remove User KYC by Orgs  \r\n  function removeKYC(address _custaddress) public isOrgValid returns (bool){\r\n      require(customers[_custaddress].custAddress==_custaddress,\"User doesn't exist\");\r\n      require(findOrg(_custaddress,msg.sender),\"You dont have access to this user\");\r\n      remove(_custaddress,msg.sender);\r\n      emit kycRemoved(_custaddress,msg.sender);\r\n      return true;\r\n  }\r\n  \r\n}\r\n",
  "sourcePath": "C:\\Users\\pemba\\Documents\\BlockChain\\kyc_blockchain\\contracts\\Kyc.sol",
  "compiler": {
    "name": "solc",
    "version": "0.8.10+commit.fc410830.Emscripten.clang"
  },
  "schemaVersion": "3.4.3",
  "updatedAt": "2021-11-17T12:57:24.790Z",
  "networkType": "ethereum",
  "devdoc": {
    "kind": "dev",
    "methods": {},
    "version": 1
  },
  "userdoc": {
    "kind": "user",
    "methods": {},
    "version": 1
  }
}