{
  "contractName": "Kyc",
  "abi": [
    {
      "inputs": [],
      "payable": false,
      "stateMutability": "nonpayable",
      "type": "constructor"
    },
    {
      "anonymous": false,
      "inputs": [
        {
          "indexed": false,
          "internalType": "uint256",
          "name": "reqid",
          "type": "uint256"
        },
        {
          "indexed": false,
          "internalType": "uint256",
          "name": "uname",
          "type": "uint256"
        },
        {
          "indexed": false,
          "internalType": "address",
          "name": "ethAddress",
          "type": "address"
        },
        {
          "indexed": false,
          "internalType": "bool",
          "name": "isAllowed",
          "type": "bool"
        }
      ],
      "name": "accessGiven",
      "type": "event"
    },
    {
      "anonymous": false,
      "inputs": [
        {
          "indexed": false,
          "internalType": "uint256",
          "name": "uname",
          "type": "uint256"
        },
        {
          "indexed": false,
          "internalType": "address",
          "name": "ethAddress",
          "type": "address"
        }
      ],
      "name": "accessRevoked",
      "type": "event"
    },
    {
      "anonymous": false,
      "inputs": [
        {
          "indexed": false,
          "internalType": "uint256",
          "name": "uname",
          "type": "uint256"
        },
        {
          "indexed": false,
          "internalType": "string",
          "name": "name",
          "type": "string"
        },
        {
          "indexed": false,
          "internalType": "string",
          "name": "location",
          "type": "string"
        },
        {
          "indexed": false,
          "internalType": "bool",
          "name": "kycStatus",
          "type": "bool"
        }
      ],
      "name": "customerAdded",
      "type": "event"
    },
    {
      "anonymous": false,
      "inputs": [
        {
          "indexed": false,
          "internalType": "uint256",
          "name": "uname",
          "type": "uint256"
        },
        {
          "indexed": false,
          "internalType": "string",
          "name": "name",
          "type": "string"
        },
        {
          "indexed": false,
          "internalType": "string",
          "name": "location",
          "type": "string"
        },
        {
          "indexed": false,
          "internalType": "bool",
          "name": "kycStatus",
          "type": "bool"
        }
      ],
      "name": "customerUpdated",
      "type": "event"
    },
    {
      "anonymous": false,
      "inputs": [
        {
          "indexed": false,
          "internalType": "string",
          "name": "name",
          "type": "string"
        },
        {
          "indexed": false,
          "internalType": "address",
          "name": "ethAddress",
          "type": "address"
        }
      ],
      "name": "orgAdded",
      "type": "event"
    },
    {
      "anonymous": false,
      "inputs": [
        {
          "indexed": false,
          "internalType": "address",
          "name": "ethAddress",
          "type": "address"
        }
      ],
      "name": "orgRemoved",
      "type": "event"
    },
    {
      "anonymous": false,
      "inputs": [
        {
          "indexed": false,
          "internalType": "uint256",
          "name": "reqid",
          "type": "uint256"
        },
        {
          "indexed": false,
          "internalType": "address",
          "name": "ethAddress",
          "type": "address"
        },
        {
          "indexed": false,
          "internalType": "uint256",
          "name": "uname",
          "type": "uint256"
        },
        {
          "indexed": false,
          "internalType": "bool",
          "name": "isAllowed",
          "type": "bool"
        }
      ],
      "name": "requestAdded",
      "type": "event"
    },
    {
      "anonymous": false,
      "inputs": [
        {
          "indexed": false,
          "internalType": "uint256",
          "name": "reqid",
          "type": "uint256"
        },
        {
          "indexed": false,
          "internalType": "address",
          "name": "ethAddress",
          "type": "address"
        }
      ],
      "name": "requestRemoved",
      "type": "event"
    },
    {
      "constant": true,
      "inputs": [],
      "name": "admin",
      "outputs": [
        {
          "internalType": "address",
          "name": "",
          "type": "address"
        }
      ],
      "payable": false,
      "stateMutability": "view",
      "type": "function"
    },
    {
      "constant": false,
      "inputs": [
        {
          "internalType": "string",
          "name": "_name",
          "type": "string"
        },
        {
          "internalType": "address",
          "name": "_ethAddress",
          "type": "address"
        }
      ],
      "name": "addOrg",
      "outputs": [
        {
          "internalType": "string",
          "name": "",
          "type": "string"
        }
      ],
      "payable": false,
      "stateMutability": "nonpayable",
      "type": "function"
    },
    {
      "constant": false,
      "inputs": [
        {
          "internalType": "address",
          "name": "_ethAddress",
          "type": "address"
        }
      ],
      "name": "removeOrg",
      "outputs": [
        {
          "internalType": "bool",
          "name": "",
          "type": "bool"
        }
      ],
      "payable": false,
      "stateMutability": "nonpayable",
      "type": "function"
    },
    {
      "constant": true,
      "inputs": [
        {
          "internalType": "address",
          "name": "_ethAddress",
          "type": "address"
        }
      ],
      "name": "viewOrg",
      "outputs": [
        {
          "internalType": "string",
          "name": "",
          "type": "string"
        }
      ],
      "payable": false,
      "stateMutability": "view",
      "type": "function"
    },
    {
      "constant": false,
      "inputs": [
        {
          "internalType": "uint256",
          "name": "_uname",
          "type": "uint256"
        },
        {
          "internalType": "string",
          "name": "_name",
          "type": "string"
        },
        {
          "internalType": "string",
          "name": "_location",
          "type": "string"
        },
        {
          "internalType": "bool",
          "name": "_kycStatus",
          "type": "bool"
        }
      ],
      "name": "registerKYC",
      "outputs": [
        {
          "internalType": "bool",
          "name": "",
          "type": "bool"
        }
      ],
      "payable": true,
      "stateMutability": "payable",
      "type": "function"
    },
    {
      "constant": true,
      "inputs": [
        {
          "internalType": "uint256",
          "name": "_uname",
          "type": "uint256"
        }
      ],
      "name": "viewKYC",
      "outputs": [
        {
          "internalType": "uint256",
          "name": "",
          "type": "uint256"
        },
        {
          "internalType": "string",
          "name": "",
          "type": "string"
        },
        {
          "internalType": "string",
          "name": "",
          "type": "string"
        },
        {
          "internalType": "bool",
          "name": "",
          "type": "bool"
        },
        {
          "internalType": "address[]",
          "name": "",
          "type": "address[]"
        },
        {
          "internalType": "uint256",
          "name": "",
          "type": "uint256"
        }
      ],
      "payable": false,
      "stateMutability": "view",
      "type": "function"
    },
    {
      "constant": false,
      "inputs": [
        {
          "internalType": "uint256",
          "name": "_uname",
          "type": "uint256"
        },
        {
          "internalType": "string",
          "name": "_name",
          "type": "string"
        },
        {
          "internalType": "string",
          "name": "_location",
          "type": "string"
        },
        {
          "internalType": "bool",
          "name": "_kycStatus",
          "type": "bool"
        }
      ],
      "name": "updateKYC",
      "outputs": [
        {
          "internalType": "bool",
          "name": "",
          "type": "bool"
        }
      ],
      "payable": false,
      "stateMutability": "nonpayable",
      "type": "function"
    },
    {
      "constant": false,
      "inputs": [
        {
          "internalType": "uint256",
          "name": "_uname",
          "type": "uint256"
        }
      ],
      "name": "removeKYC",
      "outputs": [
        {
          "internalType": "bool",
          "name": "",
          "type": "bool"
        }
      ],
      "payable": false,
      "stateMutability": "nonpayable",
      "type": "function"
    },
    {
      "constant": false,
      "inputs": [
        {
          "internalType": "uint256",
          "name": "_uname",
          "type": "uint256"
        }
      ],
      "name": "requestKYC",
      "outputs": [
        {
          "internalType": "bool",
          "name": "",
          "type": "bool"
        }
      ],
      "payable": false,
      "stateMutability": "nonpayable",
      "type": "function"
    },
    {
      "constant": false,
      "inputs": [
        {
          "internalType": "uint256",
          "name": "_reqcount",
          "type": "uint256"
        }
      ],
      "name": "deleteRequest",
      "outputs": [],
      "payable": false,
      "stateMutability": "nonpayable",
      "type": "function"
    },
    {
      "constant": true,
      "inputs": [
        {
          "internalType": "uint256",
          "name": "_reqcount",
          "type": "uint256"
        }
      ],
      "name": "viewRequest",
      "outputs": [
        {
          "internalType": "uint256",
          "name": "",
          "type": "uint256"
        },
        {
          "internalType": "uint256",
          "name": "",
          "type": "uint256"
        }
      ],
      "payable": false,
      "stateMutability": "view",
      "type": "function"
    },
    {
      "constant": true,
      "inputs": [],
      "name": "listRequest",
      "outputs": [
        {
          "components": [
            {
              "internalType": "uint256",
              "name": "req_count",
              "type": "uint256"
            },
            {
              "internalType": "uint256",
              "name": "uname",
              "type": "uint256"
            }
          ],
          "internalType": "struct Kyc.kycRequestList[]",
          "name": "",
          "type": "tuple[]"
        },
        {
          "internalType": "uint256",
          "name": "",
          "type": "uint256"
        }
      ],
      "payable": false,
      "stateMutability": "view",
      "type": "function"
    },
    {
      "constant": false,
      "inputs": [
        {
          "internalType": "uint256",
          "name": "_reqcount",
          "type": "uint256"
        },
        {
          "internalType": "uint256",
          "name": "_uname",
          "type": "uint256"
        },
        {
          "internalType": "address",
          "name": "_ethAddress",
          "type": "address"
        },
        {
          "internalType": "bool",
          "name": "_isAllowed",
          "type": "bool"
        }
      ],
      "name": "giveAccessKYC",
      "outputs": [
        {
          "internalType": "bool",
          "name": "",
          "type": "bool"
        }
      ],
      "payable": false,
      "stateMutability": "nonpayable",
      "type": "function"
    },
    {
      "constant": false,
      "inputs": [
        {
          "internalType": "uint256",
          "name": "_uname",
          "type": "uint256"
        },
        {
          "internalType": "address",
          "name": "_ethAddress",
          "type": "address"
        }
      ],
      "name": "revokeAccessKYC",
      "outputs": [
        {
          "internalType": "bool",
          "name": "",
          "type": "bool"
        }
      ],
      "payable": false,
      "stateMutability": "nonpayable",
      "type": "function"
    }
  ],
  "bytecode": "0x608060405234801561001057600080fd5b50336000806101000a81548173ffffffffffffffffffffffffffffffffffffffff021916908373ffffffffffffffffffffffffffffffffffffffff16021790555061389f806100606000396000f3fe6080604052600436106100dd5760003560e01c8063b7e4a42d1161007f578063e13fd3f111610059578063e13fd3f11461033d578063e9a21bcd1461037a578063f3a9b588146103a3578063f851a440146103cf576100dd565b8063b7e4a42d14610281578063cd8a3553146102be578063d5ffab1014610300576100dd565b80636d7fc14b116100bb5780636d7fc14b1461018d57806388c4ce54146101ca5780638d601b8214610207578063a1ac9e5714610244576100dd565b8063095111e2146100e25780631e8a49e01461011f57806326e852501461014f575b600080fd5b3480156100ee57600080fd5b5061010960048036036101049190810190612ba9565b6103fa565b6040516101169190613264565b60405180910390f35b61013960048036036101349190810190612ba9565b610655565b6040516101469190613264565b60405180910390f35b34801561015b57600080fd5b5061017660048036036101719190810190612b44565b6108c5565b6040516101849291906135f1565b60405180910390f35b34801561019957600080fd5b506101b460048036036101af9190810190612b44565b610b2f565b6040516101c19190613264565b60405180910390f35b3480156101d657600080fd5b506101f160048036036101ec9190810190612ac7565b610dda565b6040516101fe919061327f565b60405180910390f35b34801561021357600080fd5b5061022e60048036036102299190810190612b6d565b61101d565b60405161023b9190613264565b60405180910390f35b34801561025057600080fd5b5061026b60048036036102669190810190612af0565b611232565b604051610278919061327f565b60405180910390f35b34801561028d57600080fd5b506102a860048036036102a39190810190612ac7565b6115a5565b6040516102b59190613264565b60405180910390f35b3480156102ca57600080fd5b506102e560048036036102e09190810190612b44565b6117bf565b6040516102f79695949392919061357b565b60405180910390f35b34801561030c57600080fd5b5061032760048036036103229190810190612b44565b611a7f565b6040516103349190613264565b60405180910390f35b34801561034957600080fd5b50610364600480360361035f9190810190612c3c565b611e01565b6040516103719190613264565b60405180910390f35b34801561038657600080fd5b506103a1600480360361039c9190810190612b44565b611f90565b005b3480156103af57600080fd5b506103b86123c7565b6040516103c6929190613234565b60405180910390f35b3480156103db57600080fd5b506103e4612625565b6040516103f19190613219565b60405180910390f35b60003373ffffffffffffffffffffffffffffffffffffffff16600260003373ffffffffffffffffffffffffffffffffffffffff1673ffffffffffffffffffffffffffffffffffffffff16815260200190815260200160002060010160009054906101000a900473ffffffffffffffffffffffffffffffffffffffff1673ffffffffffffffffffffffffffffffffffffffff16146104cc576040517f08c379a00000000000000000000000000000000000000000000000000000000081526004016104c390613431565b60405180910390fd5b84600160008781526020019081526020016000206000015414610524576040517f08c379a000000000000000000000000000000000000000000000000000000000815260040161051b90613471565b60405180910390fd5b61052e853361264a565b61056d576040517f08c379a0000000000000000000000000000000000000000000000000000000008152600401610564906132f1565b60405180910390fd5b846001600087815260200190815260200160002060000181905550836001600087815260200190815260200160002060010190805190602001906105b29291906128ad565b50826001600087815260200190815260200160002060020190805190602001906105dd9291906128ad565b50816001600087815260200190815260200160002060040160006101000a81548160ff0219169083151502179055507f59e0bb35ae414be694461dc44da786d28a6a91086adf4a5a96bd0088e9363457858585856040516106419493929190613528565b60405180910390a160019050949350505050565b60003373ffffffffffffffffffffffffffffffffffffffff16600260003373ffffffffffffffffffffffffffffffffffffffff1673ffffffffffffffffffffffffffffffffffffffff16815260200190815260200160002060010160009054906101000a900473ffffffffffffffffffffffffffffffffffffffff1673ffffffffffffffffffffffffffffffffffffffff1614610727576040517f08c379a000000000000000000000000000000000000000000000000000000000815260040161071e90613431565b60405180910390fd5b8460016000878152602001908152602001600020600001541415610780576040517f08c379a0000000000000000000000000000000000000000000000000000000008152600401610777906133b1565b60405180910390fd5b846001600087815260200190815260200160002060000181905550836001600087815260200190815260200160002060010190805190602001906107c59291906128ad565b50826001600087815260200190815260200160002060020190805190602001906107f09291906128ad565b50816001600087815260200190815260200160002060040160006101000a81548160ff02191690831515021790555061082885611a7f565b5061087b6001600360003373ffffffffffffffffffffffffffffffffffffffff1673ffffffffffffffffffffffffffffffffffffffff168152602001908152602001600020600101540386336001611e01565b507f65f71a0c28d1799bcb5d9a2457c840a672087598af816fec0f96a3172d994fb1858585856040516108b19493929190613528565b60405180910390a160019050949350505050565b6000803373ffffffffffffffffffffffffffffffffffffffff16600260003373ffffffffffffffffffffffffffffffffffffffff1673ffffffffffffffffffffffffffffffffffffffff16815260200190815260200160002060010160009054906101000a900473ffffffffffffffffffffffffffffffffffffffff1673ffffffffffffffffffffffffffffffffffffffff1614610998576040517f08c379a000000000000000000000000000000000000000000000000000000000815260040161098f90613431565b60405180910390fd5b3373ffffffffffffffffffffffffffffffffffffffff16600360003373ffffffffffffffffffffffffffffffffffffffff1673ffffffffffffffffffffffffffffffffffffffff16815260200190815260200160002060000160009054906101000a900473ffffffffffffffffffffffffffffffffffffffff1673ffffffffffffffffffffffffffffffffffffffff1614610a68576040517f08c379a0000000000000000000000000000000000000000000000000000000008152600401610a5f90613411565b60405180910390fd5b600360003373ffffffffffffffffffffffffffffffffffffffff1673ffffffffffffffffffffffffffffffffffffffff1681526020019081526020016000206002018381548110610ab557fe5b906000526020600020906002020160000154600360003373ffffffffffffffffffffffffffffffffffffffff1673ffffffffffffffffffffffffffffffffffffffff1681526020019081526020016000206002018481548110610b1457fe5b90600052602060002090600202016001015491509150915091565b60003373ffffffffffffffffffffffffffffffffffffffff16600260003373ffffffffffffffffffffffffffffffffffffffff1673ffffffffffffffffffffffffffffffffffffffff16815260200190815260200160002060010160009054906101000a900473ffffffffffffffffffffffffffffffffffffffff1673ffffffffffffffffffffffffffffffffffffffff1614610c01576040517f08c379a0000000000000000000000000000000000000000000000000000000008152600401610bf890613431565b60405180910390fd5b81600160008481526020019081526020016000206000015414610c59576040517f08c379a0000000000000000000000000000000000000000000000000000000008152600401610c5090613471565b60405180910390fd5b610c63823361264a565b610ca2576040517f08c379a0000000000000000000000000000000000000000000000000000000008152600401610c99906132f1565b60405180910390fd5b6000610cae8333612711565b9050600160008481526020019081526020016000206003016001806000868152602001908152602001600020600301805490500381548110610cec57fe5b9060005260206000200160009054906101000a900473ffffffffffffffffffffffffffffffffffffffff16600160008581526020019081526020016000206003018281548110610d3857fe5b9060005260206000200160006101000a81548173ffffffffffffffffffffffffffffffffffffffff021916908373ffffffffffffffffffffffffffffffffffffffff16021790555060016000848152602001908152602001600020600301805480610d9f57fe5b6001900381819060005260206000200160006101000a81549073ffffffffffffffffffffffffffffffffffffffff0219169055905550919050565b60603373ffffffffffffffffffffffffffffffffffffffff166000809054906101000a900473ffffffffffffffffffffffffffffffffffffffff1673ffffffffffffffffffffffffffffffffffffffff1614610e6b576040517f08c379a0000000000000000000000000000000000000000000000000000000008152600401610e6290613331565b60405180910390fd5b8173ffffffffffffffffffffffffffffffffffffffff16600260008473ffffffffffffffffffffffffffffffffffffffff1673ffffffffffffffffffffffffffffffffffffffff16815260200190815260200160002060010160009054906101000a900473ffffffffffffffffffffffffffffffffffffffff1673ffffffffffffffffffffffffffffffffffffffff1614610f3b576040517f08c379a0000000000000000000000000000000000000000000000000000000008152600401610f32906133f1565b60405180910390fd5b600260008373ffffffffffffffffffffffffffffffffffffffff1673ffffffffffffffffffffffffffffffffffffffff1681526020019081526020016000206000018054600181600116156101000203166002900480601f0160208091040260200160405190810160405280929190818152602001828054600181600116156101000203166002900480156110115780601f10610fe657610100808354040283529160200191611011565b820191906000526020600020905b815481529060010190602001808311610ff457829003601f168201915b50505050509050919050565b600082600160008581526020019081526020016000206000015414611077576040517f08c379a000000000000000000000000000000000000000000000000000000000815260040161106e90613471565b60405180910390fd5b611081838361264a565b6110c0576040517f08c379a00000000000000000000000000000000000000000000000000000000081526004016110b7906132f1565b60405180910390fd5b60006110cc8484612711565b905060016000858152602001908152602001600020600301600180600087815260200190815260200160002060030180549050038154811061110a57fe5b9060005260206000200160009054906101000a900473ffffffffffffffffffffffffffffffffffffffff1660016000868152602001908152602001600020600301828154811061115657fe5b9060005260206000200160006101000a81548173ffffffffffffffffffffffffffffffffffffffff021916908373ffffffffffffffffffffffffffffffffffffffff160217905550600160008581526020019081526020016000206003018054806111bd57fe5b6001900381819060005260206000200160006101000a81549073ffffffffffffffffffffffffffffffffffffffff021916905590557f159e29770c6ccc02189394da58de2c7455eddc8880d58d745b6add6bd463927e8484604051611223929190613491565b60405180910390a15092915050565b60603373ffffffffffffffffffffffffffffffffffffffff166000809054906101000a900473ffffffffffffffffffffffffffffffffffffffff1673ffffffffffffffffffffffffffffffffffffffff16146112c3576040517f08c379a00000000000000000000000000000000000000000000000000000000081526004016112ba90613331565b60405180910390fd5b8173ffffffffffffffffffffffffffffffffffffffff16600260008473ffffffffffffffffffffffffffffffffffffffff1673ffffffffffffffffffffffffffffffffffffffff16815260200190815260200160002060010160009054906101000a900473ffffffffffffffffffffffffffffffffffffffff1673ffffffffffffffffffffffffffffffffffffffff161415611394576040517f08c379a000000000000000000000000000000000000000000000000000000000815260040161138b90613391565b60405180910390fd5b60405180604001604052808481526020018373ffffffffffffffffffffffffffffffffffffffff16815250600260008473ffffffffffffffffffffffffffffffffffffffff1673ffffffffffffffffffffffffffffffffffffffff168152602001908152602001600020600082015181600001908051906020019061141a92919061292d565b5060208201518160010160006101000a81548173ffffffffffffffffffffffffffffffffffffffff021916908373ffffffffffffffffffffffffffffffffffffffff16021790555090505081600360008473ffffffffffffffffffffffffffffffffffffffff1673ffffffffffffffffffffffffffffffffffffffff16815260200190815260200160002060000160006101000a81548173ffffffffffffffffffffffffffffffffffffffff021916908373ffffffffffffffffffffffffffffffffffffffff1602179055506000600360008473ffffffffffffffffffffffffffffffffffffffff1673ffffffffffffffffffffffffffffffffffffffff168152602001908152602001600020600101819055507f19cb05bcb9f3a5aa3801619041099231656235762a3599eed02cdcac38facd1c838360405161155f9291906132a1565b60405180910390a16040518060400160405280600281526020017f4f4b000000000000000000000000000000000000000000000000000000000000815250905092915050565b60003373ffffffffffffffffffffffffffffffffffffffff166000809054906101000a900473ffffffffffffffffffffffffffffffffffffffff1673ffffffffffffffffffffffffffffffffffffffff1614611636576040517f08c379a000000000000000000000000000000000000000000000000000000000815260040161162d90613331565b60405180910390fd5b8173ffffffffffffffffffffffffffffffffffffffff16600260008473ffffffffffffffffffffffffffffffffffffffff1673ffffffffffffffffffffffffffffffffffffffff16815260200190815260200160002060010160009054906101000a900473ffffffffffffffffffffffffffffffffffffffff1673ffffffffffffffffffffffffffffffffffffffff1614611706576040517f08c379a00000000000000000000000000000000000000000000000000000000081526004016116fd906133f1565b60405180910390fd5b600260008373ffffffffffffffffffffffffffffffffffffffff1673ffffffffffffffffffffffffffffffffffffffff1681526020019081526020016000206000808201600061175691906129ad565b6001820160006101000a81549073ffffffffffffffffffffffffffffffffffffffff021916905550507f4630061df51c52d44a3987b904c6ff220da2cbdeff03ce8750cd14652cae0c6c826040516117ae9190613219565b60405180910390a160019050919050565b60006060806000606060006117d4873361264a565b611813576040517f08c379a000000000000000000000000000000000000000000000000000000000815260040161180a90613311565b60405180910390fd5b600160008881526020019081526020016000206000015460016000898152602001908152602001600020600101600160008a8152602001908152602001600020600201600160008b815260200190815260200160002060040160009054906101000a900460ff16600160008c8152602001908152602001600020600301600160008d815260200190815260200160002060030180549050848054600181600116156101000203166002900480601f01602080910402602001604051908101604052809291908181526020018280546001816001161561010002031660029004801561193f5780601f106119145761010080835404028352916020019161193f565b820191906000526020600020905b81548152906001019060200180831161192257829003601f168201915b50505050509450838054600181600116156101000203166002900480601f0160208091040260200160405190810160405280929190818152602001828054600181600116156101000203166002900480156119db5780601f106119b0576101008083540402835291602001916119db565b820191906000526020600020905b8154815290600101906020018083116119be57829003601f168201915b5050505050935081805480602002602001604051908101604052809291908181526020018280548015611a6357602002820191906000526020600020905b8160009054906101000a900473ffffffffffffffffffffffffffffffffffffffff1673ffffffffffffffffffffffffffffffffffffffff1681526020019060010190808311611a19575b5050505050915095509550955095509550955091939550919395565b60003373ffffffffffffffffffffffffffffffffffffffff16600260003373ffffffffffffffffffffffffffffffffffffffff1673ffffffffffffffffffffffffffffffffffffffff16815260200190815260200160002060010160009054906101000a900473ffffffffffffffffffffffffffffffffffffffff1673ffffffffffffffffffffffffffffffffffffffff1614611b51576040517f08c379a0000000000000000000000000000000000000000000000000000000008152600401611b4890613431565b60405180910390fd5b81600160008481526020019081526020016000206000015414611ba9576040517f08c379a0000000000000000000000000000000000000000000000000000000008152600401611ba090613351565b60405180910390fd5b60001515611bb7833361264a565b151514611bf9576040517f08c379a0000000000000000000000000000000000000000000000000000000008152600401611bf090613451565b60405180910390fd5b60001515611c06836127d7565b151514611c48576040517f08c379a0000000000000000000000000000000000000000000000000000000008152600401611c3f906133d1565b60405180910390fd5b600360003373ffffffffffffffffffffffffffffffffffffffff1673ffffffffffffffffffffffffffffffffffffffff1681526020019081526020016000206002016040518060400160405280600360003373ffffffffffffffffffffffffffffffffffffffff1673ffffffffffffffffffffffffffffffffffffffff16815260200190815260200160002060010154815260200184815250908060018154018082558091505090600182039060005260206000209060020201600090919290919091506000820151816000015560208201518160010155505050600360003373ffffffffffffffffffffffffffffffffffffffff1673ffffffffffffffffffffffffffffffffffffffff168152602001908152602001600020600101600081548092919060010191905055507fbd8f4e4ccbdc1cf1e22c75df3109236e48c7553dc96ae81638e51c0f73338cd36001600360003373ffffffffffffffffffffffffffffffffffffffff1673ffffffffffffffffffffffffffffffffffffffff168152602001908152602001600020600101540333846000604051611df094939291906134e3565b60405180910390a160019050919050565b600084600360008573ffffffffffffffffffffffffffffffffffffffff1673ffffffffffffffffffffffffffffffffffffffff1681526020019081526020016000206002018681548110611e5157fe5b90600052602060002090600202016000015414611ea3576040517f08c379a0000000000000000000000000000000000000000000000000000000008152600401611e9a90613371565b60405180910390fd5b600115158215151415611f885760001515611ebe853361264a565b15151415611f4157600160008581526020019081526020016000206003018390806001815401808255809150509060018203906000526020600020016000909192909190916101000a81548173ffffffffffffffffffffffffffffffffffffffff021916908373ffffffffffffffffffffffffffffffffffffffff160217905550505b611f4a85611f90565b7f60f80102f6302a4ebbd9c69d73d026bc0475510efeeb3ce3afe2784a1c40ba5685858585604051611f7f949392919061361a565b60405180910390a15b949350505050565b3373ffffffffffffffffffffffffffffffffffffffff16600260003373ffffffffffffffffffffffffffffffffffffffff1673ffffffffffffffffffffffffffffffffffffffff16815260200190815260200160002060010160009054906101000a900473ffffffffffffffffffffffffffffffffffffffff1673ffffffffffffffffffffffffffffffffffffffff1614612060576040517f08c379a000000000000000000000000000000000000000000000000000000000815260040161205790613431565b60405180910390fd5b80600360003373ffffffffffffffffffffffffffffffffffffffff1673ffffffffffffffffffffffffffffffffffffffff16815260200190815260200160002060020182815481106120ae57fe5b90600052602060002090600202016000015414612100576040517f08c379a00000000000000000000000000000000000000000000000000000000081526004016120f7906132d1565b60405180910390fd5b600360003373ffffffffffffffffffffffffffffffffffffffff1673ffffffffffffffffffffffffffffffffffffffff1681526020019081526020016000206002016001600360003373ffffffffffffffffffffffffffffffffffffffff1673ffffffffffffffffffffffffffffffffffffffff16815260200190815260200160002060020180549050038154811061219557fe5b9060005260206000209060020201600360003373ffffffffffffffffffffffffffffffffffffffff1673ffffffffffffffffffffffffffffffffffffffff16815260200190815260200160002060020182815481106121f057fe5b90600052602060002090600202016000820154816000015560018201548160010155905050600360003373ffffffffffffffffffffffffffffffffffffffff1673ffffffffffffffffffffffffffffffffffffffff16815260200190815260200160002060020180548061226057fe5b60019003818190600052602060002090600202016000808201600090556001820160009055505090556001600360003373ffffffffffffffffffffffffffffffffffffffff1673ffffffffffffffffffffffffffffffffffffffff1681526020019081526020016000206001015411156123385780600360003373ffffffffffffffffffffffffffffffffffffffff1673ffffffffffffffffffffffffffffffffffffffff168152602001908152602001600020600201828154811061232257fe5b9060005260206000209060020201600001819055505b600360003373ffffffffffffffffffffffffffffffffffffffff1673ffffffffffffffffffffffffffffffffffffffff16815260200190815260200160002060010160008154809291906001900391905055507f5bc31e521401c7e4fbe27cc8e953ddcd66ce6cc84d810d1850450e7964029d9581336040516123bc9291906134ba565b60405180910390a150565b606060003373ffffffffffffffffffffffffffffffffffffffff16600260003373ffffffffffffffffffffffffffffffffffffffff1673ffffffffffffffffffffffffffffffffffffffff16815260200190815260200160002060010160009054906101000a900473ffffffffffffffffffffffffffffffffffffffff1673ffffffffffffffffffffffffffffffffffffffff161461249b576040517f08c379a000000000000000000000000000000000000000000000000000000000815260040161249290613431565b60405180910390fd5b6060600360003373ffffffffffffffffffffffffffffffffffffffff1673ffffffffffffffffffffffffffffffffffffffff1681526020019081526020016000206001015460405190808252806020026020018201604052801561251957816020015b6125066129f5565b8152602001906001900390816124fe5790505b509050600080905060008090505b600360003373ffffffffffffffffffffffffffffffffffffffff1673ffffffffffffffffffffffffffffffffffffffff1681526020019081526020016000206001015481101561261757600360003373ffffffffffffffffffffffffffffffffffffffff1673ffffffffffffffffffffffffffffffffffffffff16815260200190815260200160002060020181815481106125be57fe5b9060005260206000209060020201604051806040016040529081600082015481526020016001820154815250508383815181106125f757fe5b602002602001018190525081806001019250508080600101915050612527565b508182519350935050509091565b6000809054906101000a900473ffffffffffffffffffffffffffffffffffffffff1681565b600080600090505b6001600085815260200190815260200160002060030180549050811015612709578273ffffffffffffffffffffffffffffffffffffffff166001600086815260200190815260200160002060030182815481106126ab57fe5b9060005260206000200160009054906101000a900473ffffffffffffffffffffffffffffffffffffffff1673ffffffffffffffffffffffffffffffffffffffff1614156126fc57600191505061270b565b8080600101915050612652565b505b92915050565b600080600090505b60016000858152602001908152602001600020600301805490508110156127cf578273ffffffffffffffffffffffffffffffffffffffff1660016000868152602001908152602001600020600301828154811061277257fe5b9060005260206000200160009054906101000a900473ffffffffffffffffffffffffffffffffffffffff1673ffffffffffffffffffffffffffffffffffffffff1614156127c257809150506127d1565b8080600101915050612719565b505b92915050565b600080600090505b600360003373ffffffffffffffffffffffffffffffffffffffff1673ffffffffffffffffffffffffffffffffffffffff168152602001908152602001600020600101548110156128a65782600360003373ffffffffffffffffffffffffffffffffffffffff1673ffffffffffffffffffffffffffffffffffffffff168152602001908152602001600020600201828154811061287757fe5b90600052602060002090600202016001015414156128995760019150506128a8565b80806001019150506127df565b505b919050565b828054600181600116156101000203166002900490600052602060002090601f016020900481019282601f106128ee57805160ff191683800117855561291c565b8280016001018555821561291c579182015b8281111561291b578251825591602001919060010190612900565b5b5090506129299190612a0f565b5090565b828054600181600116156101000203166002900490600052602060002090601f016020900481019282601f1061296e57805160ff191683800117855561299c565b8280016001018555821561299c579182015b8281111561299b578251825591602001919060010190612980565b5b5090506129a99190612a0f565b5090565b50805460018160011615610100020316600290046000825580601f106129d357506129f2565b601f0160209004906000526020600020908101906129f19190612a0f565b5b50565b604051806040016040528060008152602001600081525090565b612a3191905b80821115612a2d576000816000905550600101612a15565b5090565b90565b600081359050612a4381613817565b92915050565b600081359050612a588161382e565b92915050565b600082601f830112612a6f57600080fd5b8135612a82612a7d8261368c565b61365f565b91508082526020830160208301858383011115612a9e57600080fd5b612aa98382846137c4565b50505092915050565b600081359050612ac181613845565b92915050565b600060208284031215612ad957600080fd5b6000612ae784828501612a34565b91505092915050565b60008060408385031215612b0357600080fd5b600083013567ffffffffffffffff811115612b1d57600080fd5b612b2985828601612a5e565b9250506020612b3a85828601612a34565b9150509250929050565b600060208284031215612b5657600080fd5b6000612b6484828501612ab2565b91505092915050565b60008060408385031215612b8057600080fd5b6000612b8e85828601612ab2565b9250506020612b9f85828601612a34565b9150509250929050565b60008060008060808587031215612bbf57600080fd5b6000612bcd87828801612ab2565b945050602085013567ffffffffffffffff811115612bea57600080fd5b612bf687828801612a5e565b935050604085013567ffffffffffffffff811115612c1357600080fd5b612c1f87828801612a5e565b9250506060612c3087828801612a49565b91505092959194509250565b60008060008060808587031215612c5257600080fd5b6000612c6087828801612ab2565b9450506020612c7187828801612ab2565b9350506040612c8287828801612a34565b9250506060612c9387828801612a49565b91505092959194509250565b6000612cab8383612cde565b60208301905092915050565b6000612cc383836131cc565b60408301905092915050565b612cd88161378e565b82525050565b612ce781613746565b82525050565b612cf681613746565b82525050565b6000612d07826136d8565b612d118185613713565b9350612d1c836136b8565b8060005b83811015612d4d578151612d348882612c9f565b9750612d3f836136f9565b925050600181019050612d20565b5085935050505092915050565b6000612d65826136e3565b612d6f8185613724565b9350612d7a836136c8565b8060005b83811015612dab578151612d928882612cb7565b9750612d9d83613706565b925050600181019050612d7e565b5085935050505092915050565b612dc181613758565b82525050565b6000612dd2826136ee565b612ddc8185613735565b9350612dec8185602086016137d3565b612df581613806565b840191505092915050565b6000612e0d601483613735565b91507f5265717565737420646f65736e742065786973740000000000000000000000006000830152602082019050919050565b6000612e4d602183613735565b91507f596f7520646f6e7420686176652061636365737320746f20746869732075736560008301527f72000000000000000000000000000000000000000000000000000000000000006020830152604082019050919050565b6000612eb3601e83613735565b91507f55736572206861736e7420676976656e20746865697220636f6e73656e7400006000830152602082019050919050565b6000612ef3601683613735565b91507f4f6e6c792061646d696e2061726520616c6c6f776564000000000000000000006000830152602082019050919050565b6000612f33601683613735565b91507f437573746f6d657220646f65736e7420657869737473000000000000000000006000830152602082019050919050565b6000612f73601283613735565b91507f5265717565737473206e6f7420666f756e6400000000000000000000000000006000830152602082019050919050565b6000612fb3601183613735565b91507f4f726720616c72656164792061646465640000000000000000000000000000006000830152602082019050919050565b6000612ff3601383613735565b91507f5573657220616c726561647920657869737473000000000000000000000000006000830152602082019050919050565b6000613033601683613735565b91507f5265717565737420416c726561647920457869737473000000000000000000006000830152602082019050919050565b6000613073601083613735565b91507f4f726720646f65736e74206578697374000000000000000000000000000000006000830152602082019050919050565b60006130b3601683613735565b91507f596f7520617265206e6f7420617574686f72697a6564000000000000000000006000830152602082019050919050565b60006130f3603183613735565b91507f556e61757468656e74696361746564206f7267616e697a6174696f6e207c204e60008301527f6f742061646465642062792061646d696e0000000000000000000000000000006020830152604082019050919050565b6000613159601383613735565b91507f416c7265616479206861766520616363657373000000000000000000000000006000830152602082019050919050565b6000613199601283613735565b91507f5573657220646f65736e277420657869737400000000000000000000000000006000830152602082019050919050565b6040820160008201516131e260008501826131fb565b5060208201516131f560208501826131fb565b50505050565b61320481613784565b82525050565b61321381613784565b82525050565b600060208201905061322e6000830184612ced565b92915050565b6000604082019050818103600083015261324e8185612d5a565b905061325d602083018461320a565b9392505050565b60006020820190506132796000830184612db8565b92915050565b600060208201905081810360008301526132998184612dc7565b905092915050565b600060408201905081810360008301526132bb8185612dc7565b90506132ca6020830184612ced565b9392505050565b600060208201905081810360008301526132ea81612e00565b9050919050565b6000602082019050818103600083015261330a81612e40565b9050919050565b6000602082019050818103600083015261332a81612ea6565b9050919050565b6000602082019050818103600083015261334a81612ee6565b9050919050565b6000602082019050818103600083015261336a81612f26565b9050919050565b6000602082019050818103600083015261338a81612f66565b9050919050565b600060208201905081810360008301526133aa81612fa6565b9050919050565b600060208201905081810360008301526133ca81612fe6565b9050919050565b600060208201905081810360008301526133ea81613026565b9050919050565b6000602082019050818103600083015261340a81613066565b9050919050565b6000602082019050818103600083015261342a816130a6565b9050919050565b6000602082019050818103600083015261344a816130e6565b9050919050565b6000602082019050818103600083015261346a8161314c565b9050919050565b6000602082019050818103600083015261348a8161318c565b9050919050565b60006040820190506134a6600083018561320a565b6134b36020830184612ced565b9392505050565b60006040820190506134cf600083018561320a565b6134dc6020830184612ccf565b9392505050565b60006080820190506134f8600083018761320a565b6135056020830186612ccf565b613512604083018561320a565b61351f6060830184612db8565b95945050505050565b600060808201905061353d600083018761320a565b818103602083015261354f8186612dc7565b905081810360408301526135638185612dc7565b90506135726060830184612db8565b95945050505050565b600060c082019050613590600083018961320a565b81810360208301526135a28188612dc7565b905081810360408301526135b68187612dc7565b90506135c56060830186612db8565b81810360808301526135d78185612cfc565b90506135e660a083018461320a565b979650505050505050565b6000604082019050613606600083018561320a565b613613602083018461320a565b9392505050565b600060808201905061362f600083018761320a565b61363c602083018661320a565b6136496040830185612ced565b6136566060830184612db8565b95945050505050565b6000604051905081810181811067ffffffffffffffff8211171561368257600080fd5b8060405250919050565b600067ffffffffffffffff8211156136a357600080fd5b601f19601f8301169050602081019050919050565b6000819050602082019050919050565b6000819050602082019050919050565b600081519050919050565b600081519050919050565b600081519050919050565b6000602082019050919050565b6000602082019050919050565b600082825260208201905092915050565b600082825260208201905092915050565b600082825260208201905092915050565b600061375182613764565b9050919050565b60008115159050919050565b600073ffffffffffffffffffffffffffffffffffffffff82169050919050565b6000819050919050565b6000613799826137a0565b9050919050565b60006137ab826137b2565b9050919050565b60006137bd82613764565b9050919050565b82818337600083830152505050565b60005b838110156137f15780820151818401526020810190506137d6565b83811115613800576000848401525b50505050565b6000601f19601f8301169050919050565b61382081613746565b811461382b57600080fd5b50565b61383781613758565b811461384257600080fd5b50565b61384e81613784565b811461385957600080fd5b5056fea365627a7a7231582056bb4c5b205efeab494d19b958c2ee7976bd69cbaf67848316b6fbcd0d2ebb666c6578706572696d656e74616cf564736f6c63430005100040",
  "source": "// SPDX-License-Identifier: MIT\r\npragma solidity >=0.4.21 <0.7.0;\r\npragma experimental ABIEncoderV2;  \r\n\r\ncontract Kyc {\r\n  address public admin;\r\n  struct Customer {\r\n      uint uname;\r\n      string name;\r\n      string location;\r\n      address[] organization;\r\n      bool kycStatus;\r\n  }\r\n\r\n  struct Organization {\r\n      string name;\r\n      address ethAddress;\r\n  }\r\n\r\n  struct kycRequest{\r\n      address ethAddress;\r\n      uint req_count;\r\n      kycRequestList[] kycrequestlist;\r\n  }\r\n  \r\n  struct kycRequestList{\r\n      uint req_count;\r\n      uint uname;\r\n  }\r\n\r\n  constructor() public {\r\n      admin = msg.sender;\r\n  }\r\n\r\n  mapping(uint => Customer) customers;\r\n  mapping(address => Organization) organizations;\r\n  mapping(address => kycRequest) kycrequestsbyorg;\r\n\r\n  event orgAdded(string name,address ethAddress);\r\n  event orgRemoved(address ethAddress);\r\n  event customerAdded(uint uname,string name,string location,bool kycStatus);\r\n  event customerUpdated(uint uname,string name,string location,bool kycStatus);\r\n  event requestAdded(uint reqid,address ethAddress, uint uname,bool isAllowed);\r\n  event requestRemoved(uint reqid,address ethAddress);\r\n  event accessGiven(uint reqid,uint uname,address ethAddress,bool isAllowed);\r\n  event accessRevoked(uint uname,address ethAddress);\r\n\r\n// Checks whether the requestor is admin\r\n  modifier isAdmin {\r\n      require(\r\n          admin == msg.sender,\r\n          \"Only admin are allowed\"\r\n      );\r\n      _;\r\n  }\r\n\r\n// Checks wheter the org exists or not\r\n  modifier isOrgValid {\r\n      require(\r\n          organizations[msg.sender].ethAddress == msg.sender,\r\n          \"Unauthenticated organization | Not added by admin\"    \r\n      );\r\n      _;\r\n  }\r\n\r\n//Check if Org has access to the user KYC\r\n  function findOrg(uint _uname,address ethAddress) internal view returns(bool){\r\n      uint i = 0;\r\n          for(i;i<customers[_uname].organization.length;i++){\r\n              if(customers[_uname].organization[i]==ethAddress){\r\n                  return true;\r\n              }\r\n          }\r\n  }\r\n\r\n//Find the index of Org in KYC.organization array\r\n  function findOrgIndex(uint _uname,address ethAddress) internal view returns(uint){\r\n      uint i = 0;\r\n      for(i;i<customers[_uname].organization.length;i++){\r\n            if(customers[_uname].organization[i]==ethAddress){\r\n                return i;\r\n            }\r\n    }\r\n  }\r\n\r\n//Check if request exist \r\n  function findRequest(uint _uname) internal view returns(bool){\r\n      uint i=0;\r\n      for(i;i<kycrequestsbyorg[msg.sender].req_count;i++){\r\n          if(kycrequestsbyorg[msg.sender].kycrequestlist[i].uname==_uname){\r\n              return true;\r\n          }\r\n      }\r\n  }\r\n\r\n//Add organization ONLY BY ADMIN\r\n  function addOrg(string memory _name,address _ethAddress) public isAdmin returns(string memory) {\r\n      require(organizations[_ethAddress].ethAddress!=_ethAddress,\"Org already added\");\r\n      organizations[_ethAddress]=Organization(_name,_ethAddress);\r\n      kycrequestsbyorg[_ethAddress].ethAddress=_ethAddress;\r\n      kycrequestsbyorg[_ethAddress].req_count=0;\r\n      emit orgAdded(_name,_ethAddress);\r\n      return (\"OK\");\r\n  }\r\n\r\n//Remove Organization ONLY BY ADMIN \r\n  function removeOrg(address _ethAddress) public isAdmin returns(bool) {\r\n      require(organizations[_ethAddress].ethAddress==_ethAddress,\"Org doesnt exist\");\r\n      delete organizations[_ethAddress];\r\n      emit orgRemoved(_ethAddress);\r\n      return true;\r\n  }\r\n\r\n//Return Organization Info if it exists  \r\n  function viewOrg(address _ethAddress)public isAdmin view returns(string memory){\r\n      require(organizations[_ethAddress].ethAddress==_ethAddress,\"Org doesnt exist\");\r\n      return(organizations[_ethAddress].name);\r\n  }\r\n\r\n//Register User KYC by registered Orgs\r\n  function registerKYC(uint _uname , string memory _name, string memory _location,bool _kycStatus) public payable isOrgValid returns(bool){\r\n      require(customers[_uname].uname!=_uname,\"User already exists\");\r\n      customers[_uname].uname=_uname;\r\n      customers[_uname].name=_name;\r\n      customers[_uname].location=_location;\r\n      customers[_uname].kycStatus=_kycStatus;\r\n      requestKYC(_uname);\r\n      giveAccessKYC(kycrequestsbyorg[msg.sender].req_count -1,_uname,msg.sender,true);\r\n      emit customerAdded(_uname,_name,_location,_kycStatus);\r\n      return true;\r\n  }\r\n\r\n//View User KYC by Authorized Orgs  \r\n  function viewKYC(uint _uname) public view returns(uint,string memory,string memory,bool,address[] memory,uint){\r\n      require(findOrg(_uname,msg.sender),\"User hasnt given their consent\");\r\n      return(customers[_uname].uname,customers[_uname].name,customers[_uname].location,customers[_uname].kycStatus,customers[_uname].organization,customers[_uname].organization.length);\r\n  }\r\n\r\n//Update User KYC by registered and authorized orgs\r\n  function updateKYC(uint _uname , string memory _name, string memory _location,bool _kycStatus) public isOrgValid returns(bool){\r\n      require(customers[_uname].uname==_uname,\"User doesn't exist\");\r\n      require(findOrg(_uname,msg.sender),\"You dont have access to this user\");\r\n      customers[_uname].uname=_uname;\r\n      customers[_uname].name=_name;\r\n      customers[_uname].location=_location;\r\n      customers[_uname].kycStatus=_kycStatus;\r\n      emit customerUpdated(_uname,_name,_location,_kycStatus);\r\n      return true;\r\n  }\r\n\r\n//Remove User KYC by Orgs  \r\n  function removeKYC(uint _uname) public isOrgValid returns (bool){\r\n      require(customers[_uname].uname==_uname,\"User doesn't exist\");\r\n      require(findOrg(_uname,msg.sender),\"You dont have access to this user\");\r\n      uint i=findOrgIndex(_uname,msg.sender);\r\n      customers[_uname].organization[i]=customers[_uname].organization[customers[_uname].organization.length-1];\r\n      customers[_uname].organization.pop();\r\n  }\r\n\r\n//Request User KYC by Orgs  \r\n  function requestKYC(uint _uname) public isOrgValid returns(bool){\r\n      require(customers[_uname].uname==_uname,\"Customer doesnt exists\");\r\n      require(findOrg(_uname,msg.sender)==false,\"Already have access\");\r\n      require(findRequest(_uname)==false,\"Request Already Exists\");\r\n      kycrequestsbyorg[msg.sender].kycrequestlist.push(kycRequestList(kycrequestsbyorg[msg.sender].req_count,_uname));\r\n      kycrequestsbyorg[msg.sender].req_count++;\r\n      emit requestAdded(kycrequestsbyorg[msg.sender].req_count-1,msg.sender,_uname,false);\r\n      return true;\r\n  }\r\n\r\n//Delete User KYC Request By Orgs \r\n  function deleteRequest(uint _reqcount) public isOrgValid{\r\n      require(kycrequestsbyorg[msg.sender].kycrequestlist[_reqcount].req_count==_reqcount,\"Request doesnt exist\");\r\n      kycrequestsbyorg[msg.sender].kycrequestlist[_reqcount]=kycrequestsbyorg[msg.sender].kycrequestlist[kycrequestsbyorg[msg.sender].kycrequestlist.length-1];\r\n      kycrequestsbyorg[msg.sender].kycrequestlist.pop();\r\n      if(kycrequestsbyorg[msg.sender].req_count>1){\r\n          kycrequestsbyorg[msg.sender].kycrequestlist[_reqcount].req_count=_reqcount;\r\n      }\r\n      kycrequestsbyorg[msg.sender].req_count--;\r\n      emit requestRemoved(_reqcount,msg.sender);\r\n  }\r\n\r\n//View specific request by Orgs\r\n  function viewRequest(uint _reqcount) public isOrgValid view returns(uint, uint){\r\n      require(kycrequestsbyorg[msg.sender].ethAddress==msg.sender,\"You are not authorized\");\r\n      return(kycrequestsbyorg[msg.sender].kycrequestlist[_reqcount].req_count,kycrequestsbyorg[msg.sender].kycrequestlist[_reqcount].uname);\r\n  }\r\n\r\n//Return Array of all pending request of the orgs\r\n  function listRequest() public isOrgValid view returns(kycRequestList[] memory,uint){\r\n      kycRequestList[] memory ret =  new kycRequestList[](kycrequestsbyorg[msg.sender].req_count);\r\n      uint j = 0;\r\n        for (uint i = 0; i < kycrequestsbyorg[msg.sender].req_count; i++) {\r\n            ret[j] = kycrequestsbyorg[msg.sender].kycrequestlist[i];\r\n            j++;\r\n                \r\n        }\r\n    return (ret,ret.length);\r\n  }\r\n\r\n//Give User KYC access to Org\r\n  function giveAccessKYC(uint _reqcount,uint _uname,address _ethAddress,bool _isAllowed) public returns(bool){\r\n      require(kycrequestsbyorg[_ethAddress].kycrequestlist[_reqcount].req_count==_reqcount,\"Requests not found\");\r\n      if(_isAllowed == true){\r\n          if(findOrg(_uname,msg.sender) == false){\r\n              customers[_uname].organization.push(_ethAddress);\r\n          }\r\n          deleteRequest(_reqcount);\r\n          emit accessGiven(_reqcount,_uname,_ethAddress,_isAllowed);\r\n      }\r\n      \r\n  }\r\n\r\n//Revoke User KYC access of Orgs\r\n  function revokeAccessKYC(uint _uname,address _ethAddress) public returns(bool){\r\n      require(customers[_uname].uname==_uname,\"User doesn't exist\");\r\n      require(findOrg(_uname,_ethAddress),\"You dont have access to this user\");\r\n      uint i=findOrgIndex(_uname,_ethAddress);\r\n      customers[_uname].organization[i]=customers[_uname].organization[customers[_uname].organization.length-1];\r\n      customers[_uname].organization.pop();\r\n      emit accessRevoked(_uname,_ethAddress);\r\n  }\r\n  \r\n}\r\n",
  "sourcePath": "C:\\Users\\pemba\\Documents\\BlockChain\\kyc_blockchain\\contracts\\Kyc.sol",
  "compiler": {
    "name": "solc",
    "version": "0.5.16+commit.9c3226ce.Emscripten.clang"
  },
  "schemaVersion": "3.4.3",
  "updatedAt": "2021-09-12T04:32:52.645Z",
  "devdoc": {
    "methods": {}
  },
  "userdoc": {
    "methods": {}
  }
}