{
  "contractName": "Kyc",
  "abi": [
    {
      "inputs": [],
      "stateMutability": "nonpayable",
      "type": "constructor"
    },
    {
      "anonymous": false,
      "inputs": [
        {
          "indexed": false,
          "internalType": "uint256",
          "name": "reqid",
          "type": "uint256"
        },
        {
          "indexed": false,
          "internalType": "address",
          "name": "custAddress",
          "type": "address"
        },
        {
          "indexed": false,
          "internalType": "address",
          "name": "ethAddress",
          "type": "address"
        },
        {
          "indexed": false,
          "internalType": "bool",
          "name": "isAllowed",
          "type": "bool"
        }
      ],
      "name": "accessGiven",
      "type": "event"
    },
    {
      "anonymous": false,
      "inputs": [
        {
          "indexed": false,
          "internalType": "address",
          "name": "custAddress",
          "type": "address"
        },
        {
          "indexed": false,
          "internalType": "address",
          "name": "ethAddress",
          "type": "address"
        }
      ],
      "name": "accessRevoked",
      "type": "event"
    },
    {
      "anonymous": false,
      "inputs": [
        {
          "indexed": false,
          "internalType": "address",
          "name": "custAddress",
          "type": "address"
        },
        {
          "indexed": false,
          "internalType": "bool",
          "name": "kycStatus",
          "type": "bool"
        }
      ],
      "name": "customerAdded",
      "type": "event"
    },
    {
      "anonymous": false,
      "inputs": [
        {
          "indexed": false,
          "internalType": "address",
          "name": "custAddress",
          "type": "address"
        },
        {
          "indexed": false,
          "internalType": "bool",
          "name": "kycStatus",
          "type": "bool"
        }
      ],
      "name": "customerUpdated",
      "type": "event"
    },
    {
      "anonymous": false,
      "inputs": [
        {
          "indexed": false,
          "internalType": "address",
          "name": "custAddress",
          "type": "address"
        },
        {
          "indexed": false,
          "internalType": "address",
          "name": "ethAddress",
          "type": "address"
        }
      ],
      "name": "kycRemoved",
      "type": "event"
    },
    {
      "anonymous": false,
      "inputs": [
        {
          "indexed": false,
          "internalType": "string",
          "name": "name",
          "type": "string"
        },
        {
          "indexed": false,
          "internalType": "address",
          "name": "ethAddress",
          "type": "address"
        }
      ],
      "name": "orgAdded",
      "type": "event"
    },
    {
      "anonymous": false,
      "inputs": [
        {
          "indexed": false,
          "internalType": "address",
          "name": "ethAddress",
          "type": "address"
        }
      ],
      "name": "orgRemoved",
      "type": "event"
    },
    {
      "anonymous": false,
      "inputs": [
        {
          "indexed": false,
          "internalType": "uint256",
          "name": "reqid",
          "type": "uint256"
        },
        {
          "indexed": false,
          "internalType": "address",
          "name": "ethAddress",
          "type": "address"
        },
        {
          "indexed": false,
          "internalType": "address",
          "name": "custAddress",
          "type": "address"
        },
        {
          "indexed": false,
          "internalType": "bool",
          "name": "isAllowed",
          "type": "bool"
        }
      ],
      "name": "requestAdded",
      "type": "event"
    },
    {
      "anonymous": false,
      "inputs": [
        {
          "indexed": false,
          "internalType": "uint256",
          "name": "reqid",
          "type": "uint256"
        },
        {
          "indexed": false,
          "internalType": "address",
          "name": "ethAddress",
          "type": "address"
        }
      ],
      "name": "requestRemoved",
      "type": "event"
    },
    {
      "inputs": [],
      "name": "admin",
      "outputs": [
        {
          "internalType": "address",
          "name": "",
          "type": "address"
        }
      ],
      "stateMutability": "view",
      "type": "function",
      "constant": true
    },
    {
      "inputs": [
        {
          "internalType": "string",
          "name": "_name",
          "type": "string"
        },
        {
          "internalType": "address",
          "name": "_ethAddress",
          "type": "address"
        }
      ],
      "name": "addOrg",
      "outputs": [
        {
          "internalType": "bool",
          "name": "",
          "type": "bool"
        }
      ],
      "stateMutability": "nonpayable",
      "type": "function"
    },
    {
      "inputs": [
        {
          "internalType": "address",
          "name": "_ethAddress",
          "type": "address"
        }
      ],
      "name": "removeOrg",
      "outputs": [
        {
          "internalType": "bool",
          "name": "",
          "type": "bool"
        }
      ],
      "stateMutability": "nonpayable",
      "type": "function"
    },
    {
      "inputs": [
        {
          "internalType": "address",
          "name": "_ethAddress",
          "type": "address"
        }
      ],
      "name": "viewOrg",
      "outputs": [
        {
          "components": [
            {
              "internalType": "string",
              "name": "name",
              "type": "string"
            },
            {
              "internalType": "address",
              "name": "ethAddress",
              "type": "address"
            }
          ],
          "internalType": "struct Kyc.Organization",
          "name": "",
          "type": "tuple"
        }
      ],
      "stateMutability": "view",
      "type": "function",
      "constant": true
    },
    {
      "inputs": [],
      "name": "getYourOrgDetail",
      "outputs": [
        {
          "components": [
            {
              "internalType": "string",
              "name": "name",
              "type": "string"
            },
            {
              "internalType": "address",
              "name": "ethAddress",
              "type": "address"
            }
          ],
          "internalType": "struct Kyc.Organization",
          "name": "",
          "type": "tuple"
        }
      ],
      "stateMutability": "view",
      "type": "function",
      "constant": true
    },
    {
      "inputs": [],
      "name": "validOrg",
      "outputs": [
        {
          "internalType": "bool",
          "name": "",
          "type": "bool"
        }
      ],
      "stateMutability": "view",
      "type": "function",
      "constant": true
    },
    {
      "inputs": [],
      "name": "validAdmin",
      "outputs": [
        {
          "internalType": "bool",
          "name": "",
          "type": "bool"
        }
      ],
      "stateMutability": "view",
      "type": "function",
      "constant": true
    },
    {
      "inputs": [],
      "name": "validCust",
      "outputs": [
        {
          "internalType": "bool",
          "name": "",
          "type": "bool"
        }
      ],
      "stateMutability": "view",
      "type": "function",
      "constant": true
    },
    {
      "inputs": [
        {
          "internalType": "address",
          "name": "_custaddress",
          "type": "address"
        },
        {
          "internalType": "string",
          "name": "_jsonHash",
          "type": "string"
        },
        {
          "internalType": "string",
          "name": "_photohash",
          "type": "string"
        },
        {
          "internalType": "string",
          "name": "_citizenship_front_hash",
          "type": "string"
        },
        {
          "internalType": "string",
          "name": "_citizenship_back_hash",
          "type": "string"
        },
        {
          "internalType": "bool",
          "name": "_kycStatus",
          "type": "bool"
        }
      ],
      "name": "registerKYC",
      "outputs": [
        {
          "internalType": "bool",
          "name": "",
          "type": "bool"
        }
      ],
      "stateMutability": "nonpayable",
      "type": "function"
    },
    {
      "inputs": [
        {
          "internalType": "address",
          "name": "_custaddress",
          "type": "address"
        }
      ],
      "name": "viewKYC",
      "outputs": [
        {
          "internalType": "address",
          "name": "",
          "type": "address"
        },
        {
          "internalType": "string",
          "name": "",
          "type": "string"
        },
        {
          "internalType": "string",
          "name": "",
          "type": "string"
        },
        {
          "internalType": "bool",
          "name": "",
          "type": "bool"
        },
        {
          "internalType": "string",
          "name": "",
          "type": "string"
        },
        {
          "internalType": "string",
          "name": "",
          "type": "string"
        }
      ],
      "stateMutability": "view",
      "type": "function",
      "constant": true
    },
    {
      "inputs": [],
      "name": "viewYourKYC",
      "outputs": [
        {
          "components": [
            {
              "internalType": "address",
              "name": "custAddress",
              "type": "address"
            },
            {
              "internalType": "string",
              "name": "jsonHash",
              "type": "string"
            },
            {
              "internalType": "string",
              "name": "photoHash",
              "type": "string"
            },
            {
              "internalType": "string",
              "name": "citizenship_front_hash",
              "type": "string"
            },
            {
              "internalType": "string",
              "name": "citizenship_back_hash",
              "type": "string"
            },
            {
              "internalType": "address[]",
              "name": "organization",
              "type": "address[]"
            },
            {
              "internalType": "bool",
              "name": "kycStatus",
              "type": "bool"
            }
          ],
          "internalType": "struct Kyc.Customer",
          "name": "",
          "type": "tuple"
        }
      ],
      "stateMutability": "view",
      "type": "function",
      "constant": true
    },
    {
      "inputs": [],
      "name": "viewRequestCust",
      "outputs": [
        {
          "components": [
            {
              "internalType": "uint256",
              "name": "req_count",
              "type": "uint256"
            },
            {
              "internalType": "address",
              "name": "Address",
              "type": "address"
            }
          ],
          "internalType": "struct Kyc.kycRequestList[]",
          "name": "",
          "type": "tuple[]"
        }
      ],
      "stateMutability": "view",
      "type": "function",
      "constant": true
    },
    {
      "inputs": [
        {
          "internalType": "address",
          "name": "_custaddress",
          "type": "address"
        },
        {
          "internalType": "string",
          "name": "_jsonHash",
          "type": "string"
        },
        {
          "internalType": "string",
          "name": "_photohash",
          "type": "string"
        },
        {
          "internalType": "string",
          "name": "_citizenship_front_hash",
          "type": "string"
        },
        {
          "internalType": "string",
          "name": "_citizenship_back_hash",
          "type": "string"
        },
        {
          "internalType": "bool",
          "name": "_kycStatus",
          "type": "bool"
        }
      ],
      "name": "updateKYC",
      "outputs": [
        {
          "internalType": "bool",
          "name": "",
          "type": "bool"
        }
      ],
      "stateMutability": "nonpayable",
      "type": "function"
    },
    {
      "inputs": [
        {
          "internalType": "address",
          "name": "_custaddress",
          "type": "address"
        }
      ],
      "name": "requestKYC",
      "outputs": [
        {
          "internalType": "bool",
          "name": "",
          "type": "bool"
        }
      ],
      "stateMutability": "nonpayable",
      "type": "function"
    },
    {
      "inputs": [
        {
          "internalType": "uint256",
          "name": "_reqcount",
          "type": "uint256"
        }
      ],
      "name": "deleteRequestOrg",
      "outputs": [
        {
          "internalType": "bool",
          "name": "",
          "type": "bool"
        }
      ],
      "stateMutability": "nonpayable",
      "type": "function"
    },
    {
      "inputs": [
        {
          "internalType": "uint256",
          "name": "_reqcount",
          "type": "uint256"
        },
        {
          "internalType": "address",
          "name": "_ethAddress",
          "type": "address"
        }
      ],
      "name": "deleteRequestCust",
      "outputs": [],
      "stateMutability": "nonpayable",
      "type": "function"
    },
    {
      "inputs": [],
      "name": "listRequest",
      "outputs": [
        {
          "components": [
            {
              "internalType": "uint256",
              "name": "req_count",
              "type": "uint256"
            },
            {
              "internalType": "address",
              "name": "Address",
              "type": "address"
            }
          ],
          "internalType": "struct Kyc.kycRequestList[]",
          "name": "",
          "type": "tuple[]"
        }
      ],
      "stateMutability": "view",
      "type": "function",
      "constant": true
    },
    {
      "inputs": [
        {
          "internalType": "uint256",
          "name": "_reqcount",
          "type": "uint256"
        },
        {
          "internalType": "address",
          "name": "_ethAddress",
          "type": "address"
        },
        {
          "internalType": "bool",
          "name": "_isAllowed",
          "type": "bool"
        }
      ],
      "name": "giveAccessKYC",
      "outputs": [
        {
          "internalType": "bool",
          "name": "",
          "type": "bool"
        }
      ],
      "stateMutability": "nonpayable",
      "type": "function"
    },
    {
      "inputs": [
        {
          "internalType": "address",
          "name": "_ethAddress",
          "type": "address"
        }
      ],
      "name": "revokeAccessKYC",
      "outputs": [
        {
          "internalType": "bool",
          "name": "",
          "type": "bool"
        }
      ],
      "stateMutability": "nonpayable",
      "type": "function"
    },
    {
      "inputs": [
        {
          "internalType": "address",
          "name": "_custaddress",
          "type": "address"
        }
      ],
      "name": "removeKYC",
      "outputs": [
        {
          "internalType": "bool",
          "name": "",
          "type": "bool"
        }
      ],
      "stateMutability": "nonpayable",
      "type": "function"
    }
  ],
  "bytecode": "0x608060405234801561001057600080fd5b50336000806101000a81548173ffffffffffffffffffffffffffffffffffffffff021916908373ffffffffffffffffffffffffffffffffffffffff160217905550615b2880620000616000396000f3fe608060405234801561001057600080fd5b506004361061012c5760003560e01c8063b7e4a42d116100ad578063d9b18f0411610071578063d9b18f0414610393578063e1b2dbe8146103c8578063f3a9b588146103e6578063f851a44014610404578063fbe7772e146104225761012c565b8063b7e4a42d146102d9578063c10cebe614610309578063ca1cbcc214610339578063ceacabd514610357578063d6bbbf84146103755761012c565b806354291824116100f457806354291824146101fd5780637042d70c1461022d57806388c4ce5414610249578063a1ac9e5714610279578063b72b8b7f146102a95761012c565b806306e5d4d114610131578063243f6b58146101615780632a539a221461019157806332722a25146101c15780634f4b4f78146101df575b600080fd5b61014b600480360381019061014691906146ea565b610452565b6040516101589190614732565b60405180910390f35b61017b600480360381019061017691906146ea565b6105b9565b6040516101889190614732565b60405180910390f35b6101ab60048036038101906101a691906147af565b6107f0565b6040516101b89190614732565b60405180910390f35b6101c9610b85565b6040516101d691906148e7565b60405180910390f35b6101e7610d94565b6040516101f49190614732565b60405180910390f35b61021760048036038101906102129190614909565b610e3d565b6040516102249190614732565b60405180910390f35b61024760048036038101906102429190614936565b611125565b005b610263600480360381019061025e91906146ea565b61139e565b60405161027091906148e7565b60405180910390f35b610293600480360381019061028e9190614aab565b61163d565b6040516102a09190614732565b60405180910390f35b6102c360048036038101906102be9190614b07565b61197b565b6040516102d09190614732565b60405180910390f35b6102f360048036038101906102ee91906146ea565b611bbb565b6040516103009190614732565b60405180910390f35b610323600480360381019061031e91906146ea565b611dd4565b6040516103309190614732565b60405180910390f35b610341612358565b60405161034e9190614cf1565b60405180910390f35b61035f6125a4565b60405161036c9190614e89565b60405180910390f35b61037d612989565b60405161038a9190614732565b60405180910390f35b6103ad60048036038101906103a891906146ea565b6129f0565b6040516103bf96959493929190614f04565b60405180910390f35b6103d0612e43565b6040516103dd9190614732565b60405180910390f35b6103ee612eec565b6040516103fb9190614cf1565b60405180910390f35b61040c6131bb565b6040516104199190614f81565b60405180910390f35b61043c60048036038101906104379190614b07565b6131df565b6040516104499190614732565b60405180910390f35b60003373ffffffffffffffffffffffffffffffffffffffff16600160003373ffffffffffffffffffffffffffffffffffffffff1673ffffffffffffffffffffffffffffffffffffffff16815260200190815260200160002060000160009054906101000a900473ffffffffffffffffffffffffffffffffffffffff1673ffffffffffffffffffffffffffffffffffffffff1614610524576040517f08c379a000000000000000000000000000000000000000000000000000000000815260040161051b9061500e565b60405180910390fd5b61052e33836133e1565b61056d576040517f08c379a0000000000000000000000000000000000000000000000000000000008152600401610564906150a0565b60405180910390fd5b6105773383613511565b7fe88c41c4d37804e10d7ea8c3879578b372d9fabc7fd55f30843786e63b024bc933836040516105a89291906150c0565b60405180910390a160019050919050565b60003373ffffffffffffffffffffffffffffffffffffffff16600260003373ffffffffffffffffffffffffffffffffffffffff1673ffffffffffffffffffffffffffffffffffffffff16815260200190815260200160002060010160009054906101000a900473ffffffffffffffffffffffffffffffffffffffff1673ffffffffffffffffffffffffffffffffffffffff161461068b576040517f08c379a000000000000000000000000000000000000000000000000000000000815260040161068290615135565b60405180910390fd5b8173ffffffffffffffffffffffffffffffffffffffff16600160008473ffffffffffffffffffffffffffffffffffffffff1673ffffffffffffffffffffffffffffffffffffffff16815260200190815260200160002060000160009054906101000a900473ffffffffffffffffffffffffffffffffffffffff1673ffffffffffffffffffffffffffffffffffffffff161461075b576040517f08c379a0000000000000000000000000000000000000000000000000000000008152600401610752906151a1565b60405180910390fd5b61076582336133e1565b6107a4576040517f08c379a000000000000000000000000000000000000000000000000000000000815260040161079b906150a0565b60405180910390fd5b6107ae8233613511565b7fd2bb631b9ffa2bf92c1b926be30d35e0753e89189734d361478d148ce3609ecd82336040516107df9291906150c0565b60405180910390a160019050919050565b60003373ffffffffffffffffffffffffffffffffffffffff16600160003373ffffffffffffffffffffffffffffffffffffffff1673ffffffffffffffffffffffffffffffffffffffff16815260200190815260200160002060000160009054906101000a900473ffffffffffffffffffffffffffffffffffffffff1673ffffffffffffffffffffffffffffffffffffffff16146108c2576040517f08c379a00000000000000000000000000000000000000000000000000000000081526004016108b990615233565b60405180910390fd5b3373ffffffffffffffffffffffffffffffffffffffff16600360008573ffffffffffffffffffffffffffffffffffffffff1673ffffffffffffffffffffffffffffffffffffffff168152602001908152602001600020600201858154811061092d5761092c615253565b5b906000526020600020906002020160010160009054906101000a900473ffffffffffffffffffffffffffffffffffffffff1673ffffffffffffffffffffffffffffffffffffffff16146109b5576040517f08c379a00000000000000000000000000000000000000000000000000000000081526004016109ac906152ce565b60405180910390fd5b83600360008573ffffffffffffffffffffffffffffffffffffffff1673ffffffffffffffffffffffffffffffffffffffff1681526020019081526020016000206002018581548110610a0a57610a09615253565b5b90600052602060002090600202016000015414610a5c576040517f08c379a0000000000000000000000000000000000000000000000000000000008152600401610a539061533a565b60405180910390fd5b600115158215151415610b6f5760001515610a7733856133e1565b15151415610b2357600160003373ffffffffffffffffffffffffffffffffffffffff1673ffffffffffffffffffffffffffffffffffffffff168152602001908152602001600020600501839080600181540180825580915050600190039060005260206000200160009091909190916101000a81548173ffffffffffffffffffffffffffffffffffffffff021916908373ffffffffffffffffffffffffffffffffffffffff1602179055505b610b2d8484611125565b7fadbe7f03a7f299dc85504c5aa657355c0e4e2f199bae0b27c64e9cc810e699a984338585604051610b629493929190615369565b60405180910390a1610b7a565b610b798484611125565b5b600190509392505050565b610b8d6144e0565b3373ffffffffffffffffffffffffffffffffffffffff16600260003373ffffffffffffffffffffffffffffffffffffffff1673ffffffffffffffffffffffffffffffffffffffff16815260200190815260200160002060010160009054906101000a900473ffffffffffffffffffffffffffffffffffffffff1673ffffffffffffffffffffffffffffffffffffffff1614610c5d576040517f08c379a0000000000000000000000000000000000000000000000000000000008152600401610c5490615135565b60405180910390fd5b600260003373ffffffffffffffffffffffffffffffffffffffff1673ffffffffffffffffffffffffffffffffffffffff168152602001908152602001600020604051806040016040529081600082018054610cb7906153dd565b80601f0160208091040260200160405190810160405280929190818152602001828054610ce3906153dd565b8015610d305780601f10610d0557610100808354040283529160200191610d30565b820191906000526020600020905b815481529060010190602001808311610d1357829003601f168201915b505050505081526020016001820160009054906101000a900473ffffffffffffffffffffffffffffffffffffffff1673ffffffffffffffffffffffffffffffffffffffff1673ffffffffffffffffffffffffffffffffffffffff1681525050905090565b60003373ffffffffffffffffffffffffffffffffffffffff16600260003373ffffffffffffffffffffffffffffffffffffffff1673ffffffffffffffffffffffffffffffffffffffff16815260200190815260200160002060010160009054906101000a900473ffffffffffffffffffffffffffffffffffffffff1673ffffffffffffffffffffffffffffffffffffffff161415610e355760019050610e3a565b600090505b90565b60003373ffffffffffffffffffffffffffffffffffffffff16600260003373ffffffffffffffffffffffffffffffffffffffff1673ffffffffffffffffffffffffffffffffffffffff16815260200190815260200160002060010160009054906101000a900473ffffffffffffffffffffffffffffffffffffffff1673ffffffffffffffffffffffffffffffffffffffff1614610f0f576040517f08c379a0000000000000000000000000000000000000000000000000000000008152600401610f0690615135565b60405180910390fd5b3373ffffffffffffffffffffffffffffffffffffffff16600360003373ffffffffffffffffffffffffffffffffffffffff1673ffffffffffffffffffffffffffffffffffffffff16815260200190815260200160002060000160009054906101000a900473ffffffffffffffffffffffffffffffffffffffff1673ffffffffffffffffffffffffffffffffffffffff1614610fdf576040517f08c379a0000000000000000000000000000000000000000000000000000000008152600401610fd690615481565b60405180910390fd5b81600360003373ffffffffffffffffffffffffffffffffffffffff1673ffffffffffffffffffffffffffffffffffffffff168152602001908152602001600020600201838154811061103457611033615253565b5b90600052602060002090600202016000015414611086576040517f08c379a000000000000000000000000000000000000000000000000000000000815260040161107d906154ed565b60405180910390fd5b6000600360003373ffffffffffffffffffffffffffffffffffffffff1673ffffffffffffffffffffffffffffffffffffffff16815260200190815260200160002060020183815481106110dc576110db615253565b5b906000526020600020906002020160010160009054906101000a900473ffffffffffffffffffffffffffffffffffffffff16905061111b838233613716565b6001915050919050565b8073ffffffffffffffffffffffffffffffffffffffff16600260008373ffffffffffffffffffffffffffffffffffffffff1673ffffffffffffffffffffffffffffffffffffffff16815260200190815260200160002060010160009054906101000a900473ffffffffffffffffffffffffffffffffffffffff1673ffffffffffffffffffffffffffffffffffffffff16146111f5576040517f08c379a00000000000000000000000000000000000000000000000000000000081526004016111ec9061557f565b60405180910390fd5b3373ffffffffffffffffffffffffffffffffffffffff16600360008373ffffffffffffffffffffffffffffffffffffffff1673ffffffffffffffffffffffffffffffffffffffff16815260200190815260200160002060020183815481106112605761125f615253565b5b906000526020600020906002020160010160009054906101000a900473ffffffffffffffffffffffffffffffffffffffff1673ffffffffffffffffffffffffffffffffffffffff16146112e8576040517f08c379a00000000000000000000000000000000000000000000000000000000081526004016112df906152ce565b60405180910390fd5b81600360008373ffffffffffffffffffffffffffffffffffffffff1673ffffffffffffffffffffffffffffffffffffffff168152602001908152602001600020600201838154811061133d5761133c615253565b5b9060005260206000209060020201600001541461138f576040517f08c379a0000000000000000000000000000000000000000000000000000000008152600401611386906154ed565b60405180910390fd5b61139a823383613716565b5050565b6113a66144e0565b3373ffffffffffffffffffffffffffffffffffffffff1660008054906101000a900473ffffffffffffffffffffffffffffffffffffffff1673ffffffffffffffffffffffffffffffffffffffff1614611434576040517f08c379a000000000000000000000000000000000000000000000000000000000815260040161142b906155eb565b60405180910390fd5b8173ffffffffffffffffffffffffffffffffffffffff16600260008473ffffffffffffffffffffffffffffffffffffffff1673ffffffffffffffffffffffffffffffffffffffff16815260200190815260200160002060010160009054906101000a900473ffffffffffffffffffffffffffffffffffffffff1673ffffffffffffffffffffffffffffffffffffffff1614611504576040517f08c379a00000000000000000000000000000000000000000000000000000000081526004016114fb90615657565b60405180910390fd5b600260008373ffffffffffffffffffffffffffffffffffffffff1673ffffffffffffffffffffffffffffffffffffffff16815260200190815260200160002060405180604001604052908160008201805461155e906153dd565b80601f016020809104026020016040519081016040528092919081815260200182805461158a906153dd565b80156115d75780601f106115ac576101008083540402835291602001916115d7565b820191906000526020600020905b8154815290600101906020018083116115ba57829003601f168201915b505050505081526020016001820160009054906101000a900473ffffffffffffffffffffffffffffffffffffffff1673ffffffffffffffffffffffffffffffffffffffff1673ffffffffffffffffffffffffffffffffffffffff16815250509050919050565b60003373ffffffffffffffffffffffffffffffffffffffff1660008054906101000a900473ffffffffffffffffffffffffffffffffffffffff1673ffffffffffffffffffffffffffffffffffffffff16146116cd576040517f08c379a00000000000000000000000000000000000000000000000000000000081526004016116c4906155eb565b60405180910390fd5b8173ffffffffffffffffffffffffffffffffffffffff16600260008473ffffffffffffffffffffffffffffffffffffffff1673ffffffffffffffffffffffffffffffffffffffff16815260200190815260200160002060010160009054906101000a900473ffffffffffffffffffffffffffffffffffffffff1673ffffffffffffffffffffffffffffffffffffffff16141561179e576040517f08c379a0000000000000000000000000000000000000000000000000000000008152600401611795906156c3565b60405180910390fd5b60405180604001604052808481526020018373ffffffffffffffffffffffffffffffffffffffff16815250600260008473ffffffffffffffffffffffffffffffffffffffff1673ffffffffffffffffffffffffffffffffffffffff1681526020019081526020016000206000820151816000019080519060200190611824929190614510565b5060208201518160010160006101000a81548173ffffffffffffffffffffffffffffffffffffffff021916908373ffffffffffffffffffffffffffffffffffffffff16021790555090505081600360008473ffffffffffffffffffffffffffffffffffffffff1673ffffffffffffffffffffffffffffffffffffffff16815260200190815260200160002060000160006101000a81548173ffffffffffffffffffffffffffffffffffffffff021916908373ffffffffffffffffffffffffffffffffffffffff1602179055506000600360008473ffffffffffffffffffffffffffffffffffffffff1673ffffffffffffffffffffffffffffffffffffffff168152602001908152602001600020600101819055507f19cb05bcb9f3a5aa3801619041099231656235762a3599eed02cdcac38facd1c83836040516119699291906156e3565b60405180910390a16001905092915050565b60003373ffffffffffffffffffffffffffffffffffffffff16600260003373ffffffffffffffffffffffffffffffffffffffff1673ffffffffffffffffffffffffffffffffffffffff16815260200190815260200160002060010160009054906101000a900473ffffffffffffffffffffffffffffffffffffffff1673ffffffffffffffffffffffffffffffffffffffff1614611a4d576040517f08c379a0000000000000000000000000000000000000000000000000000000008152600401611a4490615135565b60405180910390fd5b8673ffffffffffffffffffffffffffffffffffffffff16600160008973ffffffffffffffffffffffffffffffffffffffff1673ffffffffffffffffffffffffffffffffffffffff16815260200190815260200160002060000160009054906101000a900473ffffffffffffffffffffffffffffffffffffffff1673ffffffffffffffffffffffffffffffffffffffff1614611b1d576040517f08c379a0000000000000000000000000000000000000000000000000000000008152600401611b14906151a1565b60405180910390fd5b611b2787336133e1565b611b66576040517f08c379a0000000000000000000000000000000000000000000000000000000008152600401611b5d906150a0565b60405180910390fd5b611b74878787878787613e58565b7f0c14653fca65d1b22631a36a53bd2a7153579eb0180192d23b52babb69c280508783604051611ba5929190615713565b60405180910390a1600190509695505050505050565b60003373ffffffffffffffffffffffffffffffffffffffff1660008054906101000a900473ffffffffffffffffffffffffffffffffffffffff1673ffffffffffffffffffffffffffffffffffffffff1614611c4b576040517f08c379a0000000000000000000000000000000000000000000000000000000008152600401611c42906155eb565b60405180910390fd5b8173ffffffffffffffffffffffffffffffffffffffff16600260008473ffffffffffffffffffffffffffffffffffffffff1673ffffffffffffffffffffffffffffffffffffffff16815260200190815260200160002060010160009054906101000a900473ffffffffffffffffffffffffffffffffffffffff1673ffffffffffffffffffffffffffffffffffffffff1614611d1b576040517f08c379a0000000000000000000000000000000000000000000000000000000008152600401611d1290615657565b60405180910390fd5b600260008373ffffffffffffffffffffffffffffffffffffffff1673ffffffffffffffffffffffffffffffffffffffff16815260200190815260200160002060008082016000611d6b9190614596565b6001820160006101000a81549073ffffffffffffffffffffffffffffffffffffffff021916905550507f4630061df51c52d44a3987b904c6ff220da2cbdeff03ce8750cd14652cae0c6c82604051611dc39190614f81565b60405180910390a160019050919050565b60003373ffffffffffffffffffffffffffffffffffffffff16600260003373ffffffffffffffffffffffffffffffffffffffff1673ffffffffffffffffffffffffffffffffffffffff16815260200190815260200160002060010160009054906101000a900473ffffffffffffffffffffffffffffffffffffffff1673ffffffffffffffffffffffffffffffffffffffff1614611ea6576040517f08c379a0000000000000000000000000000000000000000000000000000000008152600401611e9d90615135565b60405180910390fd5b8173ffffffffffffffffffffffffffffffffffffffff16600160008473ffffffffffffffffffffffffffffffffffffffff1673ffffffffffffffffffffffffffffffffffffffff16815260200190815260200160002060000160009054906101000a900473ffffffffffffffffffffffffffffffffffffffff1673ffffffffffffffffffffffffffffffffffffffff1614611f76576040517f08c379a0000000000000000000000000000000000000000000000000000000008152600401611f6d90615788565b60405180910390fd5b60001515611f8483336133e1565b151514611fc6576040517f08c379a0000000000000000000000000000000000000000000000000000000008152600401611fbd906157f4565b60405180910390fd5b60001515611fd383614150565b151514612015576040517f08c379a000000000000000000000000000000000000000000000000000000000815260040161200c90615860565b60405180910390fd5b600360003373ffffffffffffffffffffffffffffffffffffffff1673ffffffffffffffffffffffffffffffffffffffff1681526020019081526020016000206002016040518060400160405280600360003373ffffffffffffffffffffffffffffffffffffffff1673ffffffffffffffffffffffffffffffffffffffff1681526020019081526020016000206001015481526020018473ffffffffffffffffffffffffffffffffffffffff1681525090806001815401808255809150506001900390600052602060002090600202016000909190919091506000820151816000015560208201518160010160006101000a81548173ffffffffffffffffffffffffffffffffffffffff021916908373ffffffffffffffffffffffffffffffffffffffff1602179055505050600460008373ffffffffffffffffffffffffffffffffffffffff1673ffffffffffffffffffffffffffffffffffffffff1681526020019081526020016000206000016040518060400160405280600360003373ffffffffffffffffffffffffffffffffffffffff1673ffffffffffffffffffffffffffffffffffffffff1681526020019081526020016000206001015481526020013373ffffffffffffffffffffffffffffffffffffffff1681525090806001815401808255809150506001900390600052602060002090600202016000909190919091506000820151816000015560208201518160010160006101000a81548173ffffffffffffffffffffffffffffffffffffffff021916908373ffffffffffffffffffffffffffffffffffffffff1602179055505050600360003373ffffffffffffffffffffffffffffffffffffffff1673ffffffffffffffffffffffffffffffffffffffff16815260200190815260200160002060010160008154809291906122be906158af565b91905055507f218ec21215c511260c909dd233fc0cb1190ef18c6eba8027742533695f40eaad6001600360003373ffffffffffffffffffffffffffffffffffffffff1673ffffffffffffffffffffffffffffffffffffffff1681526020019081526020016000206001015461233391906158f8565b338460006040516123479493929190615369565b60405180910390a160019050919050565b6060612362612e43565b6123a1576040517f08c379a000000000000000000000000000000000000000000000000000000000815260040161239890615978565b60405180910390fd5b6000600460003373ffffffffffffffffffffffffffffffffffffffff1673ffffffffffffffffffffffffffffffffffffffff1681526020019081526020016000206000018054905067ffffffffffffffff81111561240257612401614980565b5b60405190808252806020026020018201604052801561243b57816020015b6124286145d6565b8152602001906001900390816124205790505b5090506000805b600460003373ffffffffffffffffffffffffffffffffffffffff1673ffffffffffffffffffffffffffffffffffffffff1681526020019081526020016000206000018054905081101561259b57600460003373ffffffffffffffffffffffffffffffffffffffff1673ffffffffffffffffffffffffffffffffffffffff16815260200190815260200160002060000181815481106124e3576124e2615253565b5b9060005260206000209060020201604051806040016040529081600082015481526020016001820160009054906101000a900473ffffffffffffffffffffffffffffffffffffffff1673ffffffffffffffffffffffffffffffffffffffff1673ffffffffffffffffffffffffffffffffffffffff168152505083838151811061256f5761256e615253565b5b60200260200101819052508180612585906158af565b9250508080612593906158af565b915050612442565b50819250505090565b6125ac614606565b6125b4612e43565b6125f3576040517f08c379a00000000000000000000000000000000000000000000000000000000081526004016125ea90615978565b60405180910390fd5b600160003373ffffffffffffffffffffffffffffffffffffffff1673ffffffffffffffffffffffffffffffffffffffff1681526020019081526020016000206040518060e00160405290816000820160009054906101000a900473ffffffffffffffffffffffffffffffffffffffff1673ffffffffffffffffffffffffffffffffffffffff1673ffffffffffffffffffffffffffffffffffffffff1681526020016001820180546126a3906153dd565b80601f01602080910402602001604051908101604052809291908181526020018280546126cf906153dd565b801561271c5780601f106126f15761010080835404028352916020019161271c565b820191906000526020600020905b8154815290600101906020018083116126ff57829003601f168201915b50505050508152602001600282018054612735906153dd565b80601f0160208091040260200160405190810160405280929190818152602001828054612761906153dd565b80156127ae5780601f10612783576101008083540402835291602001916127ae565b820191906000526020600020905b81548152906001019060200180831161279157829003601f168201915b505050505081526020016003820180546127c7906153dd565b80601f01602080910402602001604051908101604052809291908181526020018280546127f3906153dd565b80156128405780601f1061281557610100808354040283529160200191612840565b820191906000526020600020905b81548152906001019060200180831161282357829003601f168201915b50505050508152602001600482018054612859906153dd565b80601f0160208091040260200160405190810160405280929190818152602001828054612885906153dd565b80156128d25780601f106128a7576101008083540402835291602001916128d2565b820191906000526020600020905b8154815290600101906020018083116128b557829003601f168201915b505050505081526020016005820180548060200260200160405190810160405280929190818152602001828054801561296057602002820191906000526020600020905b8160009054906101000a900473ffffffffffffffffffffffffffffffffffffffff1673ffffffffffffffffffffffffffffffffffffffff1681526020019060010190808311612916575b505050505081526020016006820160009054906101000a900460ff161515151581525050905090565b60003373ffffffffffffffffffffffffffffffffffffffff1660008054906101000a900473ffffffffffffffffffffffffffffffffffffffff1673ffffffffffffffffffffffffffffffffffffffff1614156129e857600190506129ed565b600090505b90565b60006060806000606080612a0487336133e1565b612a43576040517f08c379a0000000000000000000000000000000000000000000000000000000008152600401612a3a906159e4565b60405180910390fd5b600160008873ffffffffffffffffffffffffffffffffffffffff1673ffffffffffffffffffffffffffffffffffffffff16815260200190815260200160002060000160009054906101000a900473ffffffffffffffffffffffffffffffffffffffff16600160008973ffffffffffffffffffffffffffffffffffffffff1673ffffffffffffffffffffffffffffffffffffffff168152602001908152602001600020600101600160008a73ffffffffffffffffffffffffffffffffffffffff1673ffffffffffffffffffffffffffffffffffffffff168152602001908152602001600020600201600160008b73ffffffffffffffffffffffffffffffffffffffff1673ffffffffffffffffffffffffffffffffffffffff16815260200190815260200160002060060160009054906101000a900460ff16600160008c73ffffffffffffffffffffffffffffffffffffffff1673ffffffffffffffffffffffffffffffffffffffff168152602001908152602001600020600301600160008d73ffffffffffffffffffffffffffffffffffffffff1673ffffffffffffffffffffffffffffffffffffffff168152602001908152602001600020600401848054612c0a906153dd565b80601f0160208091040260200160405190810160405280929190818152602001828054612c36906153dd565b8015612c835780601f10612c5857610100808354040283529160200191612c83565b820191906000526020600020905b815481529060010190602001808311612c6657829003601f168201915b50505050509450838054612c96906153dd565b80601f0160208091040260200160405190810160405280929190818152602001828054612cc2906153dd565b8015612d0f5780601f10612ce457610100808354040283529160200191612d0f565b820191906000526020600020905b815481529060010190602001808311612cf257829003601f168201915b50505050509350818054612d22906153dd565b80601f0160208091040260200160405190810160405280929190818152602001828054612d4e906153dd565b8015612d9b5780601f10612d7057610100808354040283529160200191612d9b565b820191906000526020600020905b815481529060010190602001808311612d7e57829003601f168201915b50505050509150808054612dae906153dd565b80601f0160208091040260200160405190810160405280929190818152602001828054612dda906153dd565b8015612e275780601f10612dfc57610100808354040283529160200191612e27565b820191906000526020600020905b815481529060010190602001808311612e0a57829003601f168201915b5050505050905095509550955095509550955091939550919395565b60003373ffffffffffffffffffffffffffffffffffffffff16600160003373ffffffffffffffffffffffffffffffffffffffff1673ffffffffffffffffffffffffffffffffffffffff16815260200190815260200160002060000160009054906101000a900473ffffffffffffffffffffffffffffffffffffffff1673ffffffffffffffffffffffffffffffffffffffff161415612ee45760019050612ee9565b600090505b90565b60603373ffffffffffffffffffffffffffffffffffffffff16600260003373ffffffffffffffffffffffffffffffffffffffff1673ffffffffffffffffffffffffffffffffffffffff16815260200190815260200160002060010160009054906101000a900473ffffffffffffffffffffffffffffffffffffffff1673ffffffffffffffffffffffffffffffffffffffff1614612fbe576040517f08c379a0000000000000000000000000000000000000000000000000000000008152600401612fb590615135565b60405180910390fd5b6000600360003373ffffffffffffffffffffffffffffffffffffffff1673ffffffffffffffffffffffffffffffffffffffff1681526020019081526020016000206001015467ffffffffffffffff81111561301c5761301b614980565b5b60405190808252806020026020018201604052801561305557816020015b6130426145d6565b81526020019060019003908161303a5790505b5090506000805b600360003373ffffffffffffffffffffffffffffffffffffffff1673ffffffffffffffffffffffffffffffffffffffff168152602001908152602001600020600101548110156131b257600360003373ffffffffffffffffffffffffffffffffffffffff1673ffffffffffffffffffffffffffffffffffffffff16815260200190815260200160002060020181815481106130fa576130f9615253565b5b9060005260206000209060020201604051806040016040529081600082015481526020016001820160009054906101000a900473ffffffffffffffffffffffffffffffffffffffff1673ffffffffffffffffffffffffffffffffffffffff1673ffffffffffffffffffffffffffffffffffffffff168152505083838151811061318657613185615253565b5b6020026020010181905250818061319c906158af565b92505080806131aa906158af565b91505061305c565b50819250505090565b60008054906101000a900473ffffffffffffffffffffffffffffffffffffffff1681565b60003373ffffffffffffffffffffffffffffffffffffffff16600260003373ffffffffffffffffffffffffffffffffffffffff1673ffffffffffffffffffffffffffffffffffffffff16815260200190815260200160002060010160009054906101000a900473ffffffffffffffffffffffffffffffffffffffff1673ffffffffffffffffffffffffffffffffffffffff16146132b1576040517f08c379a00000000000000000000000000000000000000000000000000000000081526004016132a890615135565b60405180910390fd5b8673ffffffffffffffffffffffffffffffffffffffff16600160008973ffffffffffffffffffffffffffffffffffffffff1673ffffffffffffffffffffffffffffffffffffffff16815260200190815260200160002060000160009054906101000a900473ffffffffffffffffffffffffffffffffffffffff1673ffffffffffffffffffffffffffffffffffffffff161415613382576040517f08c379a000000000000000000000000000000000000000000000000000000000815260040161337990615a50565b60405180910390fd5b613390878787878787613e58565b61339987611dd4565b507f1d22f26dee56193a2da8b325a26e02b936d68be9f49c0a6f92534464aa8f2ecf87836040516133cb929190615713565b60405180910390a1600190509695505050505050565b600080600090505b600160008573ffffffffffffffffffffffffffffffffffffffff1673ffffffffffffffffffffffffffffffffffffffff16815260200190815260200160002060050180549050811015613505578273ffffffffffffffffffffffffffffffffffffffff16600160008673ffffffffffffffffffffffffffffffffffffffff1673ffffffffffffffffffffffffffffffffffffffff16815260200190815260200160002060050182815481106134a1576134a0615253565b5b9060005260206000200160009054906101000a900473ffffffffffffffffffffffffffffffffffffffff1673ffffffffffffffffffffffffffffffffffffffff1614156134f257600191505061350b565b80806134fd906158af565b9150506133e9565b60009150505b92915050565b600061351d8383614283565b9050600160008473ffffffffffffffffffffffffffffffffffffffff1673ffffffffffffffffffffffffffffffffffffffff16815260200190815260200160002060050160018060008673ffffffffffffffffffffffffffffffffffffffff1673ffffffffffffffffffffffffffffffffffffffff168152602001908152602001600020600501805490506135b291906158f8565b815481106135c3576135c2615253565b5b9060005260206000200160009054906101000a900473ffffffffffffffffffffffffffffffffffffffff16600160008573ffffffffffffffffffffffffffffffffffffffff1673ffffffffffffffffffffffffffffffffffffffff168152602001908152602001600020600501828154811061364257613641615253565b5b9060005260206000200160006101000a81548173ffffffffffffffffffffffffffffffffffffffff021916908373ffffffffffffffffffffffffffffffffffffffff160217905550600160008473ffffffffffffffffffffffffffffffffffffffff1673ffffffffffffffffffffffffffffffffffffffff1681526020019081526020016000206005018054806136dc576136db615a70565b5b6001900381819060005260206000200160006101000a81549073ffffffffffffffffffffffffffffffffffffffff02191690559055505050565b600061372283836143ae565b9050600360008373ffffffffffffffffffffffffffffffffffffffff1673ffffffffffffffffffffffffffffffffffffffff1681526020019081526020016000206002016001600360008573ffffffffffffffffffffffffffffffffffffffff1673ffffffffffffffffffffffffffffffffffffffff168152602001908152602001600020600201805490506137b891906158f8565b815481106137c9576137c8615253565b5b9060005260206000209060020201600360008473ffffffffffffffffffffffffffffffffffffffff1673ffffffffffffffffffffffffffffffffffffffff168152602001908152602001600020600201858154811061382b5761382a615253565b5b9060005260206000209060020201600082015481600001556001820160009054906101000a900473ffffffffffffffffffffffffffffffffffffffff168160010160006101000a81548173ffffffffffffffffffffffffffffffffffffffff021916908373ffffffffffffffffffffffffffffffffffffffff160217905550905050600360008373ffffffffffffffffffffffffffffffffffffffff1673ffffffffffffffffffffffffffffffffffffffff1681526020019081526020016000206002018054806138ff576138fe615a70565b5b60019003818190600052602060002090600202016000808201600090556001820160006101000a81549073ffffffffffffffffffffffffffffffffffffffff021916905550509055600460008473ffffffffffffffffffffffffffffffffffffffff1673ffffffffffffffffffffffffffffffffffffffff1681526020019081526020016000206000016001600460008673ffffffffffffffffffffffffffffffffffffffff1673ffffffffffffffffffffffffffffffffffffffff168152602001908152602001600020600001805490506139db91906158f8565b815481106139ec576139eb615253565b5b9060005260206000209060020201600460008573ffffffffffffffffffffffffffffffffffffffff1673ffffffffffffffffffffffffffffffffffffffff1681526020019081526020016000206000018281548110613a4e57613a4d615253565b5b9060005260206000209060020201600082015481600001556001820160009054906101000a900473ffffffffffffffffffffffffffffffffffffffff168160010160006101000a81548173ffffffffffffffffffffffffffffffffffffffff021916908373ffffffffffffffffffffffffffffffffffffffff160217905550905050600460008473ffffffffffffffffffffffffffffffffffffffff1673ffffffffffffffffffffffffffffffffffffffff168152602001908152602001600020600001805480613b2257613b21615a70565b5b60019003818190600052602060002090600202016000808201600090556001820160006101000a81549073ffffffffffffffffffffffffffffffffffffffff02191690555050905583600360003373ffffffffffffffffffffffffffffffffffffffff1673ffffffffffffffffffffffffffffffffffffffff1681526020019081526020016000206002018054905014158015613c0157506001600360008473ffffffffffffffffffffffffffffffffffffffff1673ffffffffffffffffffffffffffffffffffffffff16815260200190815260200160002060010154115b15613dc15783600360008473ffffffffffffffffffffffffffffffffffffffff1673ffffffffffffffffffffffffffffffffffffffff1681526020019081526020016000206002018581548110613c5b57613c5a615253565b5b9060005260206000209060020201600001819055506000600360008473ffffffffffffffffffffffffffffffffffffffff1673ffffffffffffffffffffffffffffffffffffffff1681526020019081526020016000206002018581548110613cc657613cc5615253565b5b906000526020600020906002020160010160009054906101000a900473ffffffffffffffffffffffffffffffffffffffff1690506000600460008373ffffffffffffffffffffffffffffffffffffffff1673ffffffffffffffffffffffffffffffffffffffff168152602001908152602001600020600001805490501115613dbf57613d5281846143ae565b915084600460008373ffffffffffffffffffffffffffffffffffffffff1673ffffffffffffffffffffffffffffffffffffffff1681526020019081526020016000206000018381548110613da957613da8615253565b5b9060005260206000209060020201600001819055505b505b600360008373ffffffffffffffffffffffffffffffffffffffff1673ffffffffffffffffffffffffffffffffffffffff1681526020019081526020016000206001016000815480929190613e1490615a9f565b91905055507f5bc31e521401c7e4fbe27cc8e953ddcd66ce6cc84d810d1850450e7964029d958483604051613e4a929190615ac9565b60405180910390a150505050565b6000855111613e6657600080fd5b6000845111613e7457600080fd5b6000825111613e8257600080fd5b6000835111613e9057600080fd5b85600160008873ffffffffffffffffffffffffffffffffffffffff1673ffffffffffffffffffffffffffffffffffffffff16815260200190815260200160002060000160006101000a81548173ffffffffffffffffffffffffffffffffffffffff021916908373ffffffffffffffffffffffffffffffffffffffff16021790555084600160008873ffffffffffffffffffffffffffffffffffffffff1673ffffffffffffffffffffffffffffffffffffffff1681526020019081526020016000206001019080519060200190613f67929190614510565b5083600160008873ffffffffffffffffffffffffffffffffffffffff1673ffffffffffffffffffffffffffffffffffffffff1681526020019081526020016000206002019080519060200190613fbe929190614510565b5082600160008873ffffffffffffffffffffffffffffffffffffffff1673ffffffffffffffffffffffffffffffffffffffff1681526020019081526020016000206003019080519060200190614015929190614510565b5081600160008873ffffffffffffffffffffffffffffffffffffffff1673ffffffffffffffffffffffffffffffffffffffff168152602001908152602001600020600401908051906020019061406c929190614510565b5080600160008873ffffffffffffffffffffffffffffffffffffffff1673ffffffffffffffffffffffffffffffffffffffff16815260200190815260200160002060060160006101000a81548160ff02191690831515021790555085600460008873ffffffffffffffffffffffffffffffffffffffff1673ffffffffffffffffffffffffffffffffffffffff16815260200190815260200160002060010160006101000a81548173ffffffffffffffffffffffffffffffffffffffff021916908373ffffffffffffffffffffffffffffffffffffffff160217905550505050505050565b600080600090505b600360003373ffffffffffffffffffffffffffffffffffffffff1673ffffffffffffffffffffffffffffffffffffffff16815260200190815260200160002060010154811015614278578273ffffffffffffffffffffffffffffffffffffffff16600360003373ffffffffffffffffffffffffffffffffffffffff1673ffffffffffffffffffffffffffffffffffffffff168152602001908152602001600020600201828154811061420d5761420c615253565b5b906000526020600020906002020160010160009054906101000a900473ffffffffffffffffffffffffffffffffffffffff1673ffffffffffffffffffffffffffffffffffffffff16141561426557600191505061427e565b8080614270906158af565b915050614158565b60009150505b919050565b600080600090505b600160008573ffffffffffffffffffffffffffffffffffffffff1673ffffffffffffffffffffffffffffffffffffffff168152602001908152602001600020600501805490508110156143a6578273ffffffffffffffffffffffffffffffffffffffff16600160008673ffffffffffffffffffffffffffffffffffffffff1673ffffffffffffffffffffffffffffffffffffffff168152602001908152602001600020600501828154811061434357614342615253565b5b9060005260206000200160009054906101000a900473ffffffffffffffffffffffffffffffffffffffff1673ffffffffffffffffffffffffffffffffffffffff16141561439357809150506143a8565b808061439e906158af565b91505061428b565b505b92915050565b600080600090505b600460008573ffffffffffffffffffffffffffffffffffffffff1673ffffffffffffffffffffffffffffffffffffffff168152602001908152602001600020600001805490508110156144d8578273ffffffffffffffffffffffffffffffffffffffff16600460008673ffffffffffffffffffffffffffffffffffffffff1673ffffffffffffffffffffffffffffffffffffffff168152602001908152602001600020600001828154811061446e5761446d615253565b5b906000526020600020906002020160010160009054906101000a900473ffffffffffffffffffffffffffffffffffffffff1673ffffffffffffffffffffffffffffffffffffffff1614156144c557809150506144da565b80806144d0906158af565b9150506143b6565b505b92915050565b604051806040016040528060608152602001600073ffffffffffffffffffffffffffffffffffffffff1681525090565b82805461451c906153dd565b90600052602060002090601f01602090048101928261453e5760008555614585565b82601f1061455757805160ff1916838001178555614585565b82800160010185558215614585579182015b82811115614584578251825591602001919060010190614569565b5b509050614592919061465b565b5090565b5080546145a2906153dd565b6000825580601f106145b457506145d3565b601f0160209004906000526020600020908101906145d2919061465b565b5b50565b604051806040016040528060008152602001600073ffffffffffffffffffffffffffffffffffffffff1681525090565b6040518060e00160405280600073ffffffffffffffffffffffffffffffffffffffff16815260200160608152602001606081526020016060815260200160608152602001606081526020016000151581525090565b5b8082111561467457600081600090555060010161465c565b5090565b6000604051905090565b600080fd5b600080fd5b600073ffffffffffffffffffffffffffffffffffffffff82169050919050565b60006146b78261468c565b9050919050565b6146c7816146ac565b81146146d257600080fd5b50565b6000813590506146e4816146be565b92915050565b600060208284031215614700576146ff614682565b5b600061470e848285016146d5565b91505092915050565b60008115159050919050565b61472c81614717565b82525050565b60006020820190506147476000830184614723565b92915050565b6000819050919050565b6147608161474d565b811461476b57600080fd5b50565b60008135905061477d81614757565b92915050565b61478c81614717565b811461479757600080fd5b50565b6000813590506147a981614783565b92915050565b6000806000606084860312156147c8576147c7614682565b5b60006147d68682870161476e565b93505060206147e7868287016146d5565b92505060406147f88682870161479a565b9150509250925092565b600081519050919050565b600082825260208201905092915050565b60005b8381101561483c578082015181840152602081019050614821565b8381111561484b576000848401525b50505050565b6000601f19601f8301169050919050565b600061486d82614802565b614877818561480d565b935061488781856020860161481e565b61489081614851565b840191505092915050565b6148a4816146ac565b82525050565b600060408301600083015184820360008601526148c78282614862565b91505060208301516148dc602086018261489b565b508091505092915050565b6000602082019050818103600083015261490181846148aa565b905092915050565b60006020828403121561491f5761491e614682565b5b600061492d8482850161476e565b91505092915050565b6000806040838503121561494d5761494c614682565b5b600061495b8582860161476e565b925050602061496c858286016146d5565b9150509250929050565b600080fd5b600080fd5b7f4e487b7100000000000000000000000000000000000000000000000000000000600052604160045260246000fd5b6149b882614851565b810181811067ffffffffffffffff821117156149d7576149d6614980565b5b80604052505050565b60006149ea614678565b90506149f682826149af565b919050565b600067ffffffffffffffff821115614a1657614a15614980565b5b614a1f82614851565b9050602081019050919050565b82818337600083830152505050565b6000614a4e614a49846149fb565b6149e0565b905082815260208101848484011115614a6a57614a6961497b565b5b614a75848285614a2c565b509392505050565b600082601f830112614a9257614a91614976565b5b8135614aa2848260208601614a3b565b91505092915050565b60008060408385031215614ac257614ac1614682565b5b600083013567ffffffffffffffff811115614ae057614adf614687565b5b614aec85828601614a7d565b9250506020614afd858286016146d5565b9150509250929050565b60008060008060008060c08789031215614b2457614b23614682565b5b6000614b3289828a016146d5565b965050602087013567ffffffffffffffff811115614b5357614b52614687565b5b614b5f89828a01614a7d565b955050604087013567ffffffffffffffff811115614b8057614b7f614687565b5b614b8c89828a01614a7d565b945050606087013567ffffffffffffffff811115614bad57614bac614687565b5b614bb989828a01614a7d565b935050608087013567ffffffffffffffff811115614bda57614bd9614687565b5b614be689828a01614a7d565b92505060a0614bf789828a0161479a565b9150509295509295509295565b600081519050919050565b600082825260208201905092915050565b6000819050602082019050919050565b614c398161474d565b82525050565b604082016000820151614c556000850182614c30565b506020820151614c68602085018261489b565b50505050565b6000614c7a8383614c3f565b60408301905092915050565b6000602082019050919050565b6000614c9e82614c04565b614ca88185614c0f565b9350614cb383614c20565b8060005b83811015614ce4578151614ccb8882614c6e565b9750614cd683614c86565b925050600181019050614cb7565b5085935050505092915050565b60006020820190508181036000830152614d0b8184614c93565b905092915050565b600081519050919050565b600082825260208201905092915050565b6000819050602082019050919050565b6000614d4b838361489b565b60208301905092915050565b6000602082019050919050565b6000614d6f82614d13565b614d798185614d1e565b9350614d8483614d2f565b8060005b83811015614db5578151614d9c8882614d3f565b9750614da783614d57565b925050600181019050614d88565b5085935050505092915050565b614dcb81614717565b82525050565b600060e083016000830151614de9600086018261489b565b5060208301518482036020860152614e018282614862565b91505060408301518482036040860152614e1b8282614862565b91505060608301518482036060860152614e358282614862565b91505060808301518482036080860152614e4f8282614862565b91505060a083015184820360a0860152614e698282614d64565b91505060c0830151614e7e60c0860182614dc2565b508091505092915050565b60006020820190508181036000830152614ea38184614dd1565b905092915050565b614eb4816146ac565b82525050565b600082825260208201905092915050565b6000614ed682614802565b614ee08185614eba565b9350614ef081856020860161481e565b614ef981614851565b840191505092915050565b600060c082019050614f196000830189614eab565b8181036020830152614f2b8188614ecb565b90508181036040830152614f3f8187614ecb565b9050614f4e6060830186614723565b8181036080830152614f608185614ecb565b905081810360a0830152614f748184614ecb565b9050979650505050505050565b6000602082019050614f966000830184614eab565b92915050565b7f596f7520646f6e74206861766520617574686f7269747920746f207265766f6b60008201527f6520616363657373000000000000000000000000000000000000000000000000602082015250565b6000614ff8602883614eba565b915061500382614f9c565b604082019050919050565b6000602082019050818103600083015261502781614feb565b9050919050565b7f596f7520646f6e7420686176652061636365737320746f20746869732075736560008201527f7200000000000000000000000000000000000000000000000000000000000000602082015250565b600061508a602183614eba565b91506150958261502e565b604082019050919050565b600060208201905081810360008301526150b98161507d565b9050919050565b60006040820190506150d56000830185614eab565b6150e26020830184614eab565b9392505050565b7f4f7267206e6f7420657869737400000000000000000000000000000000000000600082015250565b600061511f600d83614eba565b915061512a826150e9565b602082019050919050565b6000602082019050818103600083015261514e81615112565b9050919050565b7f5573657220646f65736e27742065786973740000000000000000000000000000600082015250565b600061518b601283614eba565b915061519682615155565b602082019050919050565b600060208201905081810360008301526151ba8161517e565b9050919050565b7f596f7520646f6e74206861766520617574686f7269747920746f20676976652060008201527f6163636573730000000000000000000000000000000000000000000000000000602082015250565b600061521d602683614eba565b9150615228826151c1565b604082019050919050565b6000602082019050818103600083015261524c81615210565b9050919050565b7f4e487b7100000000000000000000000000000000000000000000000000000000600052603260045260246000fd5b7f55736572206e6f742076616c6964000000000000000000000000000000000000600082015250565b60006152b8600e83614eba565b91506152c382615282565b602082019050919050565b600060208201905081810360008301526152e7816152ab565b9050919050565b7f5265717565737473206e6f7420666f756e640000000000000000000000000000600082015250565b6000615324601283614eba565b915061532f826152ee565b602082019050919050565b6000602082019050818103600083015261535381615317565b9050919050565b6153638161474d565b82525050565b600060808201905061537e600083018761535a565b61538b6020830186614eab565b6153986040830185614eab565b6153a56060830184614723565b95945050505050565b7f4e487b7100000000000000000000000000000000000000000000000000000000600052602260045260246000fd5b600060028204905060018216806153f557607f821691505b60208210811415615409576154086153ae565b5b50919050565b7f596f7520646f6e74206861766520617574686f7269747920746f2064656c657460008201527f6500000000000000000000000000000000000000000000000000000000000000602082015250565b600061546b602183614eba565b91506154768261540f565b604082019050919050565b6000602082019050818103600083015261549a8161545e565b9050919050565b7f5265717565737420646f65736e74206578697374000000000000000000000000600082015250565b60006154d7601483614eba565b91506154e2826154a1565b602082019050919050565b60006020820190508181036000830152615506816154ca565b9050919050565b7f5468697320706172746963756c6172206f7267616e697a6174696f6e7320646f60008201527f65736e7420657869737400000000000000000000000000000000000000000000602082015250565b6000615569602a83614eba565b91506155748261550d565b604082019050919050565b600060208201905081810360008301526155988161555c565b9050919050565b7f41646d696e206f6e6c7900000000000000000000000000000000000000000000600082015250565b60006155d5600a83614eba565b91506155e08261559f565b602082019050919050565b60006020820190508181036000830152615604816155c8565b9050919050565b7f4f726720646f65736e7420657869737400000000000000000000000000000000600082015250565b6000615641601083614eba565b915061564c8261560b565b602082019050919050565b6000602082019050818103600083015261567081615634565b9050919050565b7f4f726720616c7265616479206164646564000000000000000000000000000000600082015250565b60006156ad601183614eba565b91506156b882615677565b602082019050919050565b600060208201905081810360008301526156dc816156a0565b9050919050565b600060408201905081810360008301526156fd8185614ecb565b905061570c6020830184614eab565b9392505050565b60006040820190506157286000830185614eab565b6157356020830184614723565b9392505050565b7f437573746f6d657220646f65736e742065786973747300000000000000000000600082015250565b6000615772601683614eba565b915061577d8261573c565b602082019050919050565b600060208201905081810360008301526157a181615765565b9050919050565b7f416c726561647920686176652061636365737300000000000000000000000000600082015250565b60006157de601383614eba565b91506157e9826157a8565b602082019050919050565b6000602082019050818103600083015261580d816157d1565b9050919050565b7f5265717565737420416c72656164792045786973747300000000000000000000600082015250565b600061584a601683614eba565b915061585582615814565b602082019050919050565b600060208201905081810360008301526158798161583d565b9050919050565b7f4e487b7100000000000000000000000000000000000000000000000000000000600052601160045260246000fd5b60006158ba8261474d565b91507fffffffffffffffffffffffffffffffffffffffffffffffffffffffffffffffff8214156158ed576158ec615880565b5b600182019050919050565b60006159038261474d565b915061590e8361474d565b92508282101561592157615920615880565b5b828203905092915050565b7f437573746f6d6572206e6f742076616c69640000000000000000000000000000600082015250565b6000615962601283614eba565b915061596d8261592c565b602082019050919050565b6000602082019050818103600083015261599181615955565b9050919050565b7f55736572206861736e7420676976656e20746865697220636f6e73656e740000600082015250565b60006159ce601e83614eba565b91506159d982615998565b602082019050919050565b600060208201905081810360008301526159fd816159c1565b9050919050565b7f5573657220616c72656164792065786973747300000000000000000000000000600082015250565b6000615a3a601383614eba565b9150615a4582615a04565b602082019050919050565b60006020820190508181036000830152615a6981615a2d565b9050919050565b7f4e487b7100000000000000000000000000000000000000000000000000000000600052603160045260246000fd5b6000615aaa8261474d565b91506000821415615abe57615abd615880565b5b600182039050919050565b6000604082019050615ade600083018561535a565b615aeb6020830184614eab565b939250505056fea26469706673582212200f7c568f2aa97eb482b08ba5fc6af08abfb2c59a50c254ca0638f7e061e425d364736f6c63430008090033",
  "immutableReferences": {},
  "source": "// SPDX-License-Identifier: MIT\r\npragma solidity >=0.4.22 <0.9.0;\r\n\r\ncontract Kyc {\r\n  address public admin;\r\n  struct Customer {\r\n      address custAddress;\r\n      string jsonHash;\r\n      string photoHash;\r\n      string citizenship_front_hash;\r\n      string citizenship_back_hash;\r\n      address[] organization;\r\n      bool kycStatus;\r\n  }\r\n\r\n  struct Organization {\r\n      string name;\r\n      address ethAddress;\r\n  }\r\n\r\n  struct kycRequest{\r\n      address ethAddress;\r\n      uint req_count;\r\n      kycRequestList[] kycrequestlist;\r\n  }\r\n  \r\n  struct kycRequestList{\r\n      uint req_count;\r\n      address Address;\r\n  }\r\n  \r\n  struct kycRequestCust{\r\n      kycRequestList[] kycrequestlist;\r\n      address custAddress;\r\n  }\r\n\r\n  constructor()  {\r\n      admin = msg.sender;\r\n  }\r\n\r\n  mapping(address => Customer) customers;\r\n  mapping(address => Organization) organizations;\r\n  mapping(address => kycRequest) kycrequestsbyorg;\r\n  mapping(address => kycRequestCust) kycrequestsbycust;\r\n\r\n  event orgAdded(string name,address ethAddress);\r\n  event orgRemoved(address ethAddress);\r\n  event customerAdded(address custAddress,bool kycStatus);\r\n  event customerUpdated(address custAddress,bool kycStatus);\r\n  event requestAdded(uint reqid,address ethAddress, address custAddress,bool isAllowed);\r\n  event requestRemoved(uint reqid,address ethAddress);\r\n  event accessGiven(uint reqid,address custAddress,address ethAddress,bool isAllowed);\r\n  event accessRevoked(address custAddress,address ethAddress);\r\n  event kycRemoved(address custAddress,address ethAddress);\r\n\r\n// Checks whether the requestor is admin\r\n  modifier isAdmin {\r\n      require(\r\n          admin == msg.sender,\r\n          \"Admin only\"\r\n      );\r\n      _;\r\n  }\r\n\r\n// Checks wheter the org exists or not\r\n  modifier isOrgValid {\r\n      require(\r\n          organizations[msg.sender].ethAddress == msg.sender,\r\n          \"Org not exist\"    \r\n      );\r\n      _;\r\n  }\r\n\r\n//Check if Org has access to the user KYC\r\n  function findOrg(address _custaddress,address ethAddress) internal view returns(bool){\r\n      uint i = 0;\r\n          for(i;i<customers[_custaddress].organization.length;i++){\r\n              if(customers[_custaddress].organization[i]==ethAddress){\r\n                  return true;\r\n              }\r\n          }\r\n          return false;\r\n  }\r\n\r\n//Find the index of Org in KYC.organization array\r\n  function findOrgIndex(address _custaddress,address ethAddress) internal view returns(uint){\r\n      uint i = 0;\r\n      for(i;i<customers[_custaddress].organization.length;i++){\r\n            if(customers[_custaddress].organization[i]==ethAddress){\r\n                return i;\r\n            }\r\n    }\r\n  }\r\n  \r\n  function findRequestIndex(address _custaddress,address _ethAddress) internal view returns(uint){\r\n      uint i = 0;\r\n      for(i;i<kycrequestsbycust[_custaddress].kycrequestlist.length;i++){\r\n            if(kycrequestsbycust[_custaddress].kycrequestlist[i].Address==_ethAddress){\r\n                return i;\r\n            }\r\n    }\r\n  }\r\n\r\n//Check if request exist \r\n  function findRequest(address _custaddress) internal view returns(bool){\r\n      uint i=0;\r\n      for(i;i<kycrequestsbyorg[msg.sender].req_count;i++){\r\n          if(kycrequestsbyorg[msg.sender].kycrequestlist[i].Address==_custaddress){\r\n              return true;\r\n          }\r\n      }\r\n      return false;\r\n  }\r\n\r\n//Add organization ONLY BY ADMIN\r\n  function addOrg(string memory _name,address _ethAddress) public isAdmin returns(bool) {\r\n      require(organizations[_ethAddress].ethAddress!=_ethAddress,\"Org already added\");\r\n      organizations[_ethAddress]=Organization(_name,_ethAddress);\r\n      kycrequestsbyorg[_ethAddress].ethAddress=_ethAddress;\r\n      kycrequestsbyorg[_ethAddress].req_count=0;\r\n      emit orgAdded(_name,_ethAddress);\r\n      return true;\r\n  }\r\n\r\n//Remove Organization ONLY BY ADMIN \r\n  function removeOrg(address _ethAddress) public isAdmin returns(bool) {\r\n      require(organizations[_ethAddress].ethAddress==_ethAddress,\"Org doesnt exist\");\r\n      delete organizations[_ethAddress];\r\n      emit orgRemoved(_ethAddress);\r\n      return true;\r\n  }\r\n\r\n//Return Organization Info if it exists  \r\n  function viewOrg(address _ethAddress)public isAdmin view returns(Organization memory){\r\n      require(organizations[_ethAddress].ethAddress==_ethAddress,\"Org doesnt exist\");\r\n      return organizations[_ethAddress];\r\n  }\r\n\r\n  function getYourOrgDetail() public isOrgValid view returns(Organization memory){\r\n    return organizations[msg.sender];\r\n  }\r\n\r\n  function validOrg() public view returns(bool){\r\n    if(organizations[msg.sender].ethAddress==msg.sender){\r\n      return true;\r\n    }\r\n    else{\r\n      return false;\r\n    }\r\n  }\r\n  function validAdmin() public view returns(bool){\r\n    if(admin==msg.sender){\r\n      return true;\r\n    }\r\n    else{\r\n      return false;\r\n    }\r\n  }\r\n  function validCust() public view returns(bool){\r\n    if(customers[msg.sender].custAddress==msg.sender){\r\n      return true;\r\n    }\r\n    else{\r\n      return false;\r\n    }\r\n  }\r\n\r\n  function writeKYC(\r\n    address _custaddress,\r\n    string memory _jsonHash,\r\n    string memory _photohash,\r\n    string memory _citizenship_front_hash,\r\n    string memory _citizenship_back_hash,\r\n    bool _kycStatus) internal {\r\n      require(bytes(_jsonHash).length > 0);\r\n      require(bytes(_photohash).length > 0);\r\n      require(bytes(_citizenship_back_hash).length > 0);\r\n      require(bytes(_citizenship_front_hash).length > 0);\r\n      customers[_custaddress].custAddress=_custaddress;\r\n      customers[_custaddress].jsonHash=_jsonHash;\r\n      customers[_custaddress].photoHash=_photohash;\r\n      customers[_custaddress].citizenship_front_hash=_citizenship_front_hash;\r\n      customers[_custaddress].citizenship_back_hash=_citizenship_back_hash;\r\n      customers[_custaddress].kycStatus=_kycStatus;\r\n      kycrequestsbycust[_custaddress].custAddress=_custaddress;\r\n  }\r\n\r\n//Register User KYC by registered Orgs\r\n  function registerKYC(\r\n    address _custaddress,\r\n    string memory _jsonHash,\r\n    string memory _photohash,\r\n    string memory _citizenship_front_hash,\r\n    string memory _citizenship_back_hash,\r\n    bool _kycStatus) public isOrgValid returns(bool){\r\n      require(customers[_custaddress].custAddress!=_custaddress,\"User already exists\");\r\n      writeKYC(_custaddress,_jsonHash,_photohash,_citizenship_front_hash,_citizenship_back_hash,_kycStatus);\r\n      requestKYC(_custaddress);\r\n      emit customerAdded(_custaddress,_kycStatus);\r\n      return true;\r\n  }\r\n\r\n//View User KYC by Authorized Orgs  \r\n  function viewKYC(address _custaddress) public view \r\n  returns(\r\n    address,\r\n    string memory,\r\n    string memory,\r\n    bool,\r\n    string memory,\r\n    string memory)\r\n  {\r\n      require(findOrg(_custaddress,msg.sender),\"User hasnt given their consent\");\r\n      return(customers[_custaddress].custAddress,customers[_custaddress].jsonHash,customers[_custaddress].photoHash,customers[_custaddress].kycStatus,customers[_custaddress].citizenship_front_hash,customers[_custaddress].citizenship_back_hash);\r\n  }\r\n  \r\n  function viewYourKYC() public view returns(Customer memory){\r\n      require(validCust(),'Customer not valid');\r\n      return customers[msg.sender];\r\n  }\r\n  \r\n  function viewRequestCust() public view returns(kycRequestList[] memory){\r\n      require(validCust(),'Customer not valid');\r\n      kycRequestList[] memory ret =  new kycRequestList[](kycrequestsbycust[msg.sender].kycrequestlist.length);\r\n      uint j = 0;\r\n        for (uint i = 0; i < kycrequestsbycust[msg.sender].kycrequestlist.length; i++) {\r\n            ret[j] = kycrequestsbycust[msg.sender].kycrequestlist[i];\r\n            j++;\r\n                \r\n        }\r\n    return (ret);\r\n  }\r\n\r\n//Update User KYC by registered and authorized orgs\r\n  function updateKYC(\r\n    address _custaddress,\r\n    string memory _jsonHash,\r\n    string memory _photohash,\r\n    string memory _citizenship_front_hash,\r\n    string memory _citizenship_back_hash,\r\n    bool _kycStatus) public isOrgValid returns(bool){\r\n      require(customers[_custaddress].custAddress==_custaddress,\"User doesn't exist\");\r\n      require(findOrg(_custaddress,msg.sender),\"You dont have access to this user\");\r\n      writeKYC(_custaddress,_jsonHash,_photohash,_citizenship_front_hash,_citizenship_back_hash,_kycStatus);\r\n      emit customerUpdated(_custaddress,_kycStatus);\r\n      return true;\r\n  }\r\n\r\n//Request User KYC by Orgs  \r\n  function requestKYC(address _custaddress) public isOrgValid returns(bool){\r\n      require(customers[_custaddress].custAddress==_custaddress,\"Customer doesnt exists\");\r\n      require(findOrg(_custaddress,msg.sender)==false,\"Already have access\");\r\n      require(findRequest(_custaddress)==false,\"Request Already Exists\");\r\n      kycrequestsbyorg[msg.sender].kycrequestlist.push(kycRequestList(kycrequestsbyorg[msg.sender].req_count,_custaddress));\r\n      kycrequestsbycust[_custaddress].kycrequestlist.push(kycRequestList(kycrequestsbyorg[msg.sender].req_count,msg.sender));\r\n      kycrequestsbyorg[msg.sender].req_count++;\r\n      emit requestAdded(kycrequestsbyorg[msg.sender].req_count-1,msg.sender,_custaddress,false);\r\n      return true;\r\n  }\r\n  \r\n  function deleteRequest(uint _reqcount,address _custaddress,address _ethAddress) internal{\r\n    uint index = findRequestIndex(_custaddress,_ethAddress);\r\n    kycrequestsbyorg[_ethAddress].kycrequestlist[_reqcount]=kycrequestsbyorg[_ethAddress].kycrequestlist[kycrequestsbyorg[_ethAddress].kycrequestlist.length-1];\r\n    kycrequestsbyorg[_ethAddress].kycrequestlist.pop();\r\n    kycrequestsbycust[_custaddress].kycrequestlist[index]=kycrequestsbycust[_custaddress].kycrequestlist[kycrequestsbycust[_custaddress].kycrequestlist.length-1];\r\n    kycrequestsbycust[_custaddress].kycrequestlist.pop();\r\n    if(kycrequestsbyorg[msg.sender].kycrequestlist.length!=_reqcount && kycrequestsbyorg[_ethAddress].req_count>1){\r\n        kycrequestsbyorg[_ethAddress].kycrequestlist[_reqcount].req_count=_reqcount;\r\n        address add = kycrequestsbyorg[_ethAddress].kycrequestlist[_reqcount].Address;\r\n        if(kycrequestsbycust[add].kycrequestlist.length>0){\r\n            index = findRequestIndex(add, _ethAddress);\r\n            kycrequestsbycust[add].kycrequestlist[index].req_count=_reqcount;\r\n        }\r\n        \r\n     }\r\n    kycrequestsbyorg[_ethAddress].req_count--;\r\n    emit requestRemoved(_reqcount,_ethAddress);\r\n  }\r\n\r\n//Delete User KYC request by organization\r\n  function deleteRequestOrg(uint _reqcount) public isOrgValid returns(bool){\r\n    require(kycrequestsbyorg[msg.sender].ethAddress==msg.sender,\"You dont have authority to delete\");\r\n    require(kycrequestsbyorg[msg.sender].kycrequestlist[_reqcount].req_count==_reqcount,\"Request doesnt exist\");\r\n    address _custaddress = kycrequestsbyorg[msg.sender].kycrequestlist[_reqcount].Address;\r\n    deleteRequest(_reqcount,_custaddress,msg.sender);\r\n    return true;\r\n  }\r\n\r\n//Delete User KYC Request after user provides access \r\n  function deleteRequestCust(uint _reqcount,address _ethAddress) public{\r\n      require(organizations[_ethAddress].ethAddress==_ethAddress,\"This particular organizations doesnt exist\");\r\n      require(kycrequestsbyorg[_ethAddress].kycrequestlist[_reqcount].Address==msg.sender,\"User not valid\");\r\n      require(kycrequestsbyorg[_ethAddress].kycrequestlist[_reqcount].req_count==_reqcount,\"Request doesnt exist\");\r\n      deleteRequest(_reqcount,msg.sender,_ethAddress);\r\n  }\r\n\r\n\r\n\r\n//Return Array of all pending request of the orgs\r\n  function listRequest() public isOrgValid view returns(kycRequestList[] memory){\r\n      kycRequestList[] memory ret =  new kycRequestList[](kycrequestsbyorg[msg.sender].req_count);\r\n      uint j = 0;\r\n        for (uint i = 0; i < kycrequestsbyorg[msg.sender].req_count; i++) {\r\n            ret[j] = kycrequestsbyorg[msg.sender].kycrequestlist[i];\r\n            j++;\r\n                \r\n        }\r\n    return (ret);\r\n  }\r\n\r\n//Give User KYC access to Org\r\n  function giveAccessKYC(uint _reqcount,address _ethAddress,bool _isAllowed) public returns(bool){\r\n      require(customers[msg.sender].custAddress==msg.sender,\"You dont have authority to give access\");\r\n      require(kycrequestsbyorg[_ethAddress].kycrequestlist[_reqcount].Address==msg.sender,\"User not valid\");\r\n      require(kycrequestsbyorg[_ethAddress].kycrequestlist[_reqcount].req_count==_reqcount,\"Requests not found\");\r\n      if(_isAllowed == true){\r\n          if(findOrg(msg.sender,_ethAddress) == false){\r\n              customers[msg.sender].organization.push(_ethAddress);\r\n          }\r\n          deleteRequestCust(_reqcount,_ethAddress);\r\n          emit accessGiven(_reqcount,msg.sender,_ethAddress,_isAllowed);\r\n      }\r\n      else{\r\n          deleteRequestCust(_reqcount,_ethAddress);\r\n      }\r\n      return true;\r\n      \r\n  }\r\n  \r\n  function remove(address _custaddress,address _ethAddress) internal {\r\n      uint i=findOrgIndex(_custaddress,_ethAddress);\r\n      customers[_custaddress].organization[i]=customers[_custaddress].organization[customers[_custaddress].organization.length-1];\r\n      customers[_custaddress].organization.pop();\r\n  }\r\n\r\n//Revoke User KYC access of Orgs\r\n  function revokeAccessKYC(address _ethAddress) public returns(bool){\r\n      require(customers[msg.sender].custAddress==msg.sender,\"You dont have authority to revoke access\");\r\n      require(findOrg(msg.sender,_ethAddress),\"You dont have access to this user\");\r\n      remove(msg.sender,_ethAddress);\r\n      emit accessRevoked(msg.sender,_ethAddress);\r\n      return true;\r\n  }\r\n\r\n//Remove User KYC by Orgs  \r\n  function removeKYC(address _custaddress) public isOrgValid returns (bool){\r\n      require(customers[_custaddress].custAddress==_custaddress,\"User doesn't exist\");\r\n      require(findOrg(_custaddress,msg.sender),\"You dont have access to this user\");\r\n      remove(_custaddress,msg.sender);\r\n      emit kycRemoved(_custaddress,msg.sender);\r\n      return true;\r\n  }\r\n  \r\n}\r\n",
  "sourcePath": "C:\\Users\\pemba\\Documents\\BlockChain\\kyc_blockchain\\contracts\\Kyc.sol",
  "compiler": {
    "name": "solc",
    "version": "0.8.9+commit.e5eed63a.Emscripten.clang"
  },
  "schemaVersion": "3.4.3",
  "updatedAt": "2021-10-02T13:05:58.415Z",
  "networkType": "ethereum",
  "devdoc": {
    "kind": "dev",
    "methods": {},
    "version": 1
  },
  "userdoc": {
    "kind": "user",
    "methods": {},
    "version": 1
  }
}